{
  "contractName": "EthereumDIDResolverPublic",
  "abi": [
    {
      "constant": true,
      "inputs": [
        {
          "name": "actor",
          "type": "address"
        }
      ],
      "name": "getIdentity",
      "outputs": [
        {
          "name": "",
          "type": "address"
        }
      ],
      "payable": false,
      "stateMutability": "view",
      "type": "function"
    },
    {
      "constant": true,
      "inputs": [],
      "name": "ethDIDReg",
      "outputs": [
        {
          "name": "",
          "type": "address"
        }
      ],
      "payable": false,
      "stateMutability": "view",
      "type": "function"
    },
    {
      "constant": true,
      "inputs": [
        {
          "name": "identity",
          "type": "address"
        },
        {
          "name": "actor",
          "type": "address"
        }
      ],
      "name": "isIdentityOwner",
      "outputs": [
        {
          "name": "",
          "type": "bool"
        }
      ],
      "payable": false,
      "stateMutability": "view",
      "type": "function"
    },
    {
      "anonymous": false,
      "inputs": [
        {
          "indexed": false,
          "name": "reg",
          "type": "address"
        }
      ],
      "name": "EthRegistrySet",
      "type": "event"
    },
    {
      "constant": false,
      "inputs": [
        {
          "name": "_ethDID",
          "type": "address"
        }
      ],
      "name": "_setRegistry",
      "outputs": [],
      "payable": false,
      "stateMutability": "nonpayable",
      "type": "function"
    }
  ],
  "bytecode": "0x608060405234801561001057600080fd5b5061062d806100206000396000f3fe608060405234801561001057600080fd5b506004361061004c5760003560e01c80632fea7b81146100515780638b1ac3a014610081578063e71758131461009d578063fd2aa0b4146100bb575b600080fd5b61006b600480360361006691908101906103b3565b6100eb565b60405161007891906104ee565b60405180910390f35b61009b600480360361009691908101906103b3565b610213565b005b6100a561021f565b6040516100b291906104ee565b60405180910390f35b6100d560048036036100d09190810190610405565b610244565b6040516100e29190610532565b60405180910390f35b6000806000809054906101000a900473ffffffffffffffffffffffffffffffffffffffff1673ffffffffffffffffffffffffffffffffffffffff16632fea7b81846040518263ffffffff1660e01b815260040161014891906104ee565b60206040518083038186803b15801561016057600080fd5b505afa158015610174573d6000803e3d6000fd5b505050506040513d601f19601f8201168201806040525061019891908101906103dc565b9050600073ffffffffffffffffffffffffffffffffffffffff168173ffffffffffffffffffffffffffffffffffffffff16141561020a576040517f08c379a00000000000000000000000000000000000000000000000000000000081526004016102019061054d565b60405180910390fd5b80915050919050565b61021c816102fa565b50565b6000809054906101000a900473ffffffffffffffffffffffffffffffffffffffff1681565b60008060009054906101000a900473ffffffffffffffffffffffffffffffffffffffff1673ffffffffffffffffffffffffffffffffffffffff1663fd2aa0b484846040518363ffffffff1660e01b81526004016102a2929190610509565b60206040518083038186803b1580156102ba57600080fd5b505afa1580156102ce573d6000803e3d6000fd5b505050506040513d601f19601f820116820180604052506102f29190810190610441565b905092915050565b806000806101000a81548173ffffffffffffffffffffffffffffffffffffffff021916908373ffffffffffffffffffffffffffffffffffffffff1602179055507f43bb990ead28e2cb3ea8b26e045448500f1cd58ccf150c95dd8e7e14dd12b7fa8160405161036991906104ee565b60405180910390a150565b600081359050610383816105bc565b92915050565b600081519050610398816105bc565b92915050565b6000815190506103ad816105d3565b92915050565b6000602082840312156103c557600080fd5b60006103d384828501610374565b91505092915050565b6000602082840312156103ee57600080fd5b60006103fc84828501610389565b91505092915050565b6000806040838503121561041857600080fd5b600061042685828601610374565b925050602061043785828601610374565b9150509250929050565b60006020828403121561045357600080fd5b60006104618482850161039e565b91505092915050565b6104738161057e565b82525050565b61048281610590565b82525050565b600061049560318361056d565b91507f307830204964656e74697479206973206e6f7420616c6c6f77656420746f207060008301527f6572666f726d20616e7920616374696f6e0000000000000000000000000000006020830152604082019050919050565b6000602082019050610503600083018461046a565b92915050565b600060408201905061051e600083018561046a565b61052b602083018461046a565b9392505050565b60006020820190506105476000830184610479565b92915050565b6000602082019050818103600083015261056681610488565b9050919050565b600082825260208201905092915050565b60006105898261059c565b9050919050565b60008115159050919050565b600073ffffffffffffffffffffffffffffffffffffffff82169050919050565b6105c58161057e565b81146105d057600080fd5b50565b6105dc81610590565b81146105e757600080fd5b5056fea365627a7a72305820963fb448dd5bb64e102a431bad0d847c7d9904058ae96ec22a9f06638086ef6a6c6578706572696d656e74616cf564736f6c634300050a0040",
  "source": "pragma solidity >=0.5.0 <0.6.0;\npragma experimental \"ABIEncoderV2\";\n\nimport '../EthereumDIDResolver.sol';\n\ncontract EthereumDIDResolverPublic is EthereumDIDResolver {\n    function _setRegistry(address _ethDID) public {\n        setRegistry(_ethDID);\n    }\n}\n",
  "sourcePath": "/Users/tom/www/music-smart-contracts/contracts/mock/EthereumDIDResolverPublic.sol",
  "compiler": {
    "name": "solc",
    "version": "0.5.10+commit.5a6ea5b1.Emscripten.clang"
  },
  "schemaVersion": "3.0.11",
  "updatedAt": "2019-07-06T21:23:24.948Z",
  "devdoc": {
    "methods": {}
  },
  "userdoc": {
    "methods": {}
  }
}