{
  "contractName": "EthereumDIDResolver",
  "abi": [
    {
      "constant": true,
      "inputs": [],
      "name": "ethDIDReg",
      "outputs": [
        {
          "name": "",
          "type": "address"
        }
      ],
      "payable": false,
      "stateMutability": "view",
      "type": "function"
    },
    {
      "anonymous": false,
      "inputs": [
        {
          "indexed": false,
          "name": "reg",
          "type": "address"
        }
      ],
      "name": "EthRegistrySet",
      "type": "event"
    },
    {
      "constant": true,
      "inputs": [
        {
          "name": "identity",
          "type": "address"
        },
        {
          "name": "actor",
          "type": "address"
        }
      ],
      "name": "isIdentityOwner",
      "outputs": [
        {
          "name": "",
          "type": "bool"
        }
      ],
      "payable": false,
      "stateMutability": "view",
      "type": "function"
    },
    {
      "constant": true,
      "inputs": [
        {
          "name": "actor",
          "type": "address"
        }
      ],
      "name": "getIdentity",
      "outputs": [
        {
          "name": "",
          "type": "address"
        }
      ],
      "payable": false,
      "stateMutability": "view",
      "type": "function"
    }
  ],
  "bytecode": "0x608060405234801561001057600080fd5b50610580806100206000396000f3fe608060405234801561001057600080fd5b50600436106100415760003560e01c80632fea7b8114610046578063e717581314610076578063fd2aa0b414610094575b600080fd5b610060600480360361005b9190810190610306565b6100c4565b60405161006d9190610441565b60405180910390f35b61007e6101ec565b60405161008b9190610441565b60405180910390f35b6100ae60048036036100a99190810190610358565b610211565b6040516100bb9190610485565b60405180910390f35b6000806000809054906101000a900473ffffffffffffffffffffffffffffffffffffffff1673ffffffffffffffffffffffffffffffffffffffff16632fea7b81846040518263ffffffff1660e01b81526004016101219190610441565b60206040518083038186803b15801561013957600080fd5b505afa15801561014d573d6000803e3d6000fd5b505050506040513d601f19601f82011682018060405250610171919081019061032f565b9050600073ffffffffffffffffffffffffffffffffffffffff168173ffffffffffffffffffffffffffffffffffffffff1614156101e3576040517f08c379a00000000000000000000000000000000000000000000000000000000081526004016101da906104a0565b60405180910390fd5b80915050919050565b6000809054906101000a900473ffffffffffffffffffffffffffffffffffffffff1681565b60008060009054906101000a900473ffffffffffffffffffffffffffffffffffffffff1673ffffffffffffffffffffffffffffffffffffffff1663fd2aa0b484846040518363ffffffff1660e01b815260040161026f92919061045c565b60206040518083038186803b15801561028757600080fd5b505afa15801561029b573d6000803e3d6000fd5b505050506040513d601f19601f820116820180604052506102bf9190810190610394565b905092915050565b6000813590506102d68161050f565b92915050565b6000815190506102eb8161050f565b92915050565b60008151905061030081610526565b92915050565b60006020828403121561031857600080fd5b6000610326848285016102c7565b91505092915050565b60006020828403121561034157600080fd5b600061034f848285016102dc565b91505092915050565b6000806040838503121561036b57600080fd5b6000610379858286016102c7565b925050602061038a858286016102c7565b9150509250929050565b6000602082840312156103a657600080fd5b60006103b4848285016102f1565b91505092915050565b6103c6816104d1565b82525050565b6103d5816104e3565b82525050565b60006103e86031836104c0565b91507f307830204964656e74697479206973206e6f7420616c6c6f77656420746f207060008301527f6572666f726d20616e7920616374696f6e0000000000000000000000000000006020830152604082019050919050565b600060208201905061045660008301846103bd565b92915050565b600060408201905061047160008301856103bd565b61047e60208301846103bd565b9392505050565b600060208201905061049a60008301846103cc565b92915050565b600060208201905081810360008301526104b9816103db565b9050919050565b600082825260208201905092915050565b60006104dc826104ef565b9050919050565b60008115159050919050565b600073ffffffffffffffffffffffffffffffffffffffff82169050919050565b610518816104d1565b811461052357600080fd5b50565b61052f816104e3565b811461053a57600080fd5b5056fea365627a7a723058205d5c12efc56522c59d30edfd69d829e91c6b9c32f03bddd2c40ab30b06ce49026c6578706572696d656e74616cf564736f6c634300050a0040",
  "source": "pragma solidity >=0.5.0 <0.6.0;\npragma experimental \"ABIEncoderV2\";\n\nimport './interface/EthereumDIDRegistryI.sol';\n\ncontract EthereumDIDResolver {\n    address public ethDIDReg;\n\n    event EthRegistrySet(address reg);\n\n    function setRegistry(address _ethDID) internal {\n        ethDIDReg = _ethDID;\n        emit EthRegistrySet(_ethDID);\n    }\n\n    function isIdentityOwner(address identity, address actor) public view returns (bool) {\n        return EthereumDIDRegistryI(ethDIDReg).isIdentityOwner(identity, actor);\n    }\n\n    function getIdentity(address actor) public view returns (address) {\n        address id = EthereumDIDRegistryI(ethDIDReg).getIdentity(actor);\n        require(id != address(0), '0x0 Identity is not allowed to perform any action');\n        return id;\n    }\n}\n",
  "sourcePath": "/Users/tom/www/music-smart-contracts/contracts/EthereumDIDResolver.sol",
  "compiler": {
    "name": "solc",
    "version": "0.5.10+commit.5a6ea5b1.Emscripten.clang"
  },
  "schemaVersion": "3.0.11",
  "updatedAt": "2019-08-04T21:19:33.117Z",
  "devdoc": {
    "methods": {}
  },
  "userdoc": {
    "methods": {}
  }
}