{
  "contractName": "FileRegistry",
  "abi": [
    {
      "constant": true,
      "inputs": [],
      "name": "musicRegistry",
      "outputs": [
        {
          "name": "",
          "type": "address"
        }
      ],
      "payable": false,
      "stateMutability": "view",
      "type": "function"
    },
    {
      "constant": true,
      "inputs": [
        {
          "name": "",
          "type": "address"
        }
      ],
      "name": "nonce",
      "outputs": [
        {
          "name": "",
          "type": "uint256"
        }
      ],
      "payable": false,
      "stateMutability": "view",
      "type": "function"
    },
    {
      "constant": true,
      "inputs": [
        {
          "name": "",
          "type": "bytes32"
        },
        {
          "name": "",
          "type": "bytes32"
        }
      ],
      "name": "files",
      "outputs": [
        {
          "name": "fileType",
          "type": "uint8"
        },
        {
          "name": "ipfsHash",
          "type": "string"
        }
      ],
      "payable": false,
      "stateMutability": "view",
      "type": "function"
    },
    {
      "constant": true,
      "inputs": [
        {
          "name": "",
          "type": "uint256"
        }
      ],
      "name": "FILE_TYPES",
      "outputs": [
        {
          "name": "",
          "type": "string"
        }
      ],
      "payable": false,
      "stateMutability": "view",
      "type": "function"
    },
    {
      "constant": true,
      "inputs": [
        {
          "name": "",
          "type": "bytes32"
        },
        {
          "name": "",
          "type": "uint8"
        },
        {
          "name": "",
          "type": "uint256"
        }
      ],
      "name": "typeIndexes",
      "outputs": [
        {
          "name": "",
          "type": "bytes32"
        }
      ],
      "payable": false,
      "stateMutability": "view",
      "type": "function"
    },
    {
      "anonymous": false,
      "inputs": [
        {
          "indexed": false,
          "name": "musicRegistry",
          "type": "address"
        }
      ],
      "name": "MusicRegistrySet",
      "type": "event"
    },
    {
      "anonymous": false,
      "inputs": [
        {
          "indexed": false,
          "name": "projectId",
          "type": "bytes32"
        },
        {
          "indexed": false,
          "name": "ipfsHash",
          "type": "string"
        },
        {
          "indexed": false,
          "name": "name",
          "type": "string"
        },
        {
          "indexed": false,
          "name": "url",
          "type": "string"
        },
        {
          "indexed": false,
          "name": "fileType",
          "type": "uint8"
        }
      ],
      "name": "NewFile",
      "type": "event"
    },
    {
      "anonymous": false,
      "inputs": [
        {
          "indexed": false,
          "name": "projectId",
          "type": "bytes32"
        },
        {
          "indexed": false,
          "name": "ipfsHash",
          "type": "string"
        },
        {
          "indexed": false,
          "name": "name",
          "type": "string"
        },
        {
          "indexed": false,
          "name": "url",
          "type": "string"
        },
        {
          "indexed": false,
          "name": "fileType",
          "type": "uint8"
        }
      ],
      "name": "UpdateFile",
      "type": "event"
    },
    {
      "anonymous": false,
      "inputs": [
        {
          "indexed": true,
          "name": "projectId",
          "type": "bytes32"
        },
        {
          "indexed": false,
          "name": "ipfsHash",
          "type": "string"
        }
      ],
      "name": "DeleteFile",
      "type": "event"
    },
    {
      "anonymous": false,
      "inputs": [
        {
          "indexed": false,
          "name": "index",
          "type": "uint8"
        },
        {
          "indexed": false,
          "name": "fileType",
          "type": "string"
        }
      ],
      "name": "NewFileType",
      "type": "event"
    },
    {
      "constant": false,
      "inputs": [
        {
          "name": "musicRegistryAddr",
          "type": "address"
        }
      ],
      "name": "init",
      "outputs": [],
      "payable": false,
      "stateMutability": "nonpayable",
      "type": "function"
    },
    {
      "constant": true,
      "inputs": [],
      "name": "getAllFileTypes",
      "outputs": [
        {
          "name": "",
          "type": "string[]"
        }
      ],
      "payable": false,
      "stateMutability": "view",
      "type": "function"
    },
    {
      "constant": true,
      "inputs": [
        {
          "name": "projectId",
          "type": "bytes32"
        },
        {
          "name": "ipfsHash",
          "type": "string"
        }
      ],
      "name": "getFile",
      "outputs": [
        {
          "components": [
            {
              "name": "fileType",
              "type": "uint8"
            },
            {
              "name": "ipfsHash",
              "type": "string"
            }
          ],
          "name": "",
          "type": "tuple"
        }
      ],
      "payable": false,
      "stateMutability": "view",
      "type": "function"
    },
    {
      "constant": true,
      "inputs": [
        {
          "name": "projectId",
          "type": "bytes32"
        },
        {
          "name": "fileType",
          "type": "uint8"
        }
      ],
      "name": "getFiles",
      "outputs": [
        {
          "components": [
            {
              "name": "fileType",
              "type": "uint8"
            },
            {
              "name": "ipfsHash",
              "type": "string"
            }
          ],
          "name": "",
          "type": "tuple[]"
        }
      ],
      "payable": false,
      "stateMutability": "view",
      "type": "function"
    },
    {
      "constant": true,
      "inputs": [
        {
          "name": "projectId",
          "type": "bytes32"
        },
        {
          "name": "ipfsHash",
          "type": "string"
        }
      ],
      "name": "getFileType",
      "outputs": [
        {
          "name": "",
          "type": "uint8"
        }
      ],
      "payable": false,
      "stateMutability": "view",
      "type": "function"
    },
    {
      "constant": true,
      "inputs": [
        {
          "name": "projectId",
          "type": "bytes32"
        },
        {
          "name": "ipfsHash",
          "type": "string"
        }
      ],
      "name": "isProjectFile",
      "outputs": [
        {
          "name": "",
          "type": "bool"
        }
      ],
      "payable": false,
      "stateMutability": "view",
      "type": "function"
    },
    {
      "constant": true,
      "inputs": [
        {
          "name": "projectId",
          "type": "bytes32"
        },
        {
          "name": "fileType",
          "type": "uint8"
        }
      ],
      "name": "getIndexes",
      "outputs": [
        {
          "name": "",
          "type": "bytes32[]"
        }
      ],
      "payable": false,
      "stateMutability": "view",
      "type": "function"
    },
    {
      "constant": true,
      "inputs": [
        {
          "name": "funcName",
          "type": "string"
        },
        {
          "name": "projectId",
          "type": "bytes32"
        },
        {
          "name": "ipfsHash",
          "type": "string"
        },
        {
          "name": "name",
          "type": "string"
        },
        {
          "name": "url",
          "type": "string"
        },
        {
          "name": "fileType",
          "type": "uint8"
        },
        {
          "name": "_nonce",
          "type": "uint256"
        }
      ],
      "name": "getHash",
      "outputs": [
        {
          "name": "",
          "type": "bytes32"
        }
      ],
      "payable": false,
      "stateMutability": "view",
      "type": "function"
    },
    {
      "constant": false,
      "inputs": [
        {
          "name": "projectId",
          "type": "bytes32"
        },
        {
          "name": "ipfsHash",
          "type": "string"
        },
        {
          "name": "name",
          "type": "string"
        },
        {
          "name": "url",
          "type": "string"
        },
        {
          "name": "fileType",
          "type": "uint8"
        },
        {
          "name": "signature",
          "type": "bytes"
        },
        {
          "name": "signer",
          "type": "address"
        }
      ],
      "name": "addFile",
      "outputs": [],
      "payable": false,
      "stateMutability": "nonpayable",
      "type": "function"
    },
    {
      "constant": false,
      "inputs": [
        {
          "name": "projectId",
          "type": "bytes32"
        },
        {
          "name": "ipfsHash",
          "type": "string"
        },
        {
          "name": "name",
          "type": "string"
        },
        {
          "name": "url",
          "type": "string"
        },
        {
          "name": "fileType",
          "type": "uint8"
        },
        {
          "name": "signature",
          "type": "bytes"
        },
        {
          "name": "signer",
          "type": "address"
        }
      ],
      "name": "updateFile",
      "outputs": [],
      "payable": false,
      "stateMutability": "nonpayable",
      "type": "function"
    },
    {
      "constant": false,
      "inputs": [
        {
          "name": "projectId",
          "type": "bytes32"
        },
        {
          "name": "ipfsHash",
          "type": "string"
        },
        {
          "name": "signature",
          "type": "bytes"
        },
        {
          "name": "signer",
          "type": "address"
        }
      ],
      "name": "removeFile",
      "outputs": [],
      "payable": false,
      "stateMutability": "nonpayable",
      "type": "function"
    }
  ],
  "bytecode": "0x608060405234801561001057600080fd5b5061321c806100206000396000f3fe608060405234801561001057600080fd5b50600436106101005760003560e01c8063814b434011610097578063b3d4b38211610066578063b3d4b382146102e4578063ca5f545e14610314578063f135e9da14610344578063f26926871461037457610100565b8063814b434014610223578063861562e9146102545780638b41c4a414610284578063a987d20b146102b457610100565b80636c0124d1116100d35780636c0124d11461018b5780636fa8c3c0146101bb57806370ae92d2146101d75780637655977f1461020757610100565b8063105a8fc81461010557806313cf11fe1461012157806319ab453c1461013f5780631bfe98dc1461015b575b600080fd5b61011f600480360361011a9190810190612052565b610392565b005b61012961043c565b6040516101369190612c7c565b60405180910390f35b61015960048036036101549190810190611edd565b610462565b005b61017560048036036101709190810190611f6b565b6107b7565b6040516101829190612b70565b60405180910390f35b6101a560048036036101a091908101906121db565b610825565b6040516101b29190612b8b565b60405180910390f35b6101d560048036036101d09190810190611fbf565b610875565b005b6101f160048036036101ec9190810190611edd565b6109ca565b6040516101fe9190612e1d565b60405180910390f35b610221600480360361021c9190810190612052565b6109e2565b005b61023d60048036036102389190810190611f2f565b610b48565b60405161024b929190612e53565b60405180910390f35b61026e600480360361026991908101906122d9565b610c1e565b60405161027b9190612c97565b60405180910390f35b61029e60048036036102999190810190611f6b565b610cd7565b6040516102ab9190612dfb565b60405180910390f35b6102ce60048036036102c99190810190612150565b610dfb565b6040516102db9190612b4e565b60405180910390f35b6102fe60048036036102f9919081019061218c565b610fb4565b60405161030b9190612b8b565b60405180910390f35b61032e60048036036103299190810190612150565b610fef565b60405161033b9190612b0a565b60405180910390f35b61035e60048036036103599190810190611f6b565b611072565b60405161036b9190612e38565b60405180910390f35b61037c6110d7565b6040516103899190612b2c565b60405180910390f35b60006104176040518060400160405280600781526020017f61646446696c65000000000000000000000000000000000000000000000000008152508989898989603460008a73ffffffffffffffffffffffffffffffffffffffff1673ffffffffffffffffffffffffffffffffffffffff16815260200190815260200160002054610825565b90506104248184846111c0565b50610432888888888861138e565b5050505050505050565b603360009054906101000a900473ffffffffffffffffffffffffffffffffffffffff1681565b600060019054906101000a900460ff168061048157506104806115c5565b5b8061049857506000809054906101000a900460ff16155b6104d7576040517f08c379a00000000000000000000000000000000000000000000000000000000081526004016104ce90612d3b565b60405180910390fd5b60008060019054906101000a900460ff161590508015610527576001600060016101000a81548160ff02191690831515021790555060016000806101000a81548160ff0219169083151502179055505b81603360006101000a81548173ffffffffffffffffffffffffffffffffffffffff021916908373ffffffffffffffffffffffffffffffffffffffff1602179055507f226193a108f5608c28acfc8662543b7c1ce7e75992c06a13d0a54673f457cce2826040516105979190612aef565b60405180910390a16040518061010001604052806040518060400160405280600581526020017f4f7468657200000000000000000000000000000000000000000000000000000081525081526020016040518060400160405280600981526020017f41677265656d656e74000000000000000000000000000000000000000000000081525081526020016040518060400160405280600681526020017f536865657473000000000000000000000000000000000000000000000000000081525081526020016040518060400160405280600581526020017f4e6f74657300000000000000000000000000000000000000000000000000000081525081526020016040518060400160405280600481526020017f5374656d0000000000000000000000000000000000000000000000000000000081525081526020016040518060400160405280600581526020017f547261636b00000000000000000000000000000000000000000000000000000081525081526020016040518060400160405280600481526020017f44656d6f0000000000000000000000000000000000000000000000000000000081525081526020016040518060400160405280600881526020017f46696e616c4d69780000000000000000000000000000000000000000000000008152508152506035906008610791929190611bc8565b5080156107b35760008060016101000a81548160ff0219169083151502179055505b5050565b600080603660008581526020019081526020016000206000846040516020016107e09190612ad8565b60405160208183030381529060405280519060200120815260200190815260200160002060010180546001816001161561010002031660029004905011905092915050565b6000601960f81b600060f81b308a8a8a8a8a8a8a6040516020016108529a999897969594939291906129bd565b604051602081830303815290604052805190602001209050979650505050505050565b8381603360009054906101000a900473ffffffffffffffffffffffffffffffffffffffff1673ffffffffffffffffffffffffffffffffffffffff16633fb5667183836040518363ffffffff1660e01b81526004016108d4929190612ba6565b602060405180830381600087803b1580156108ee57600080fd5b505af1158015610902573d6000803e3d6000fd5b505050506040513d601f19601f820116820180604052506109269190810190611f06565b61092f57600080fd5b6000601960f81b600060f81b308989603460008a73ffffffffffffffffffffffffffffffffffffffff1673ffffffffffffffffffffffffffffffffffffffff1681526020019081526020016000205460405160200161099396959493929190612a61565b6040516020818303038152906040528051906020012090506109b68186866111c0565b506109c187876115d6565b50505050505050565b60346020528060005260406000206000915090505481565b8681603360009054906101000a900473ffffffffffffffffffffffffffffffffffffffff1673ffffffffffffffffffffffffffffffffffffffff16633fb5667183836040518363ffffffff1660e01b8152600401610a41929190612ba6565b602060405180830381600087803b158015610a5b57600080fd5b505af1158015610a6f573d6000803e3d6000fd5b505050506040513d601f19601f82011682018060405250610a939190810190611f06565b610a9c57600080fd5b6000610b216040518060400160405280600a81526020017f75706461746546696c65000000000000000000000000000000000000000000008152508b8b8b8b8b603460008c73ffffffffffffffffffffffffffffffffffffffff1673ffffffffffffffffffffffffffffffffffffffff16815260200190815260200160002054610825565b9050610b2e8186866111c0565b50610b3c8a8a8a8a8a61182a565b50505050505050505050565b6036602052816000526040600020602052806000526040600020600091509150508060000160009054906101000a900460ff1690806001018054600181600116156101000203166002900480601f016020809104026020016040519081016040528092919081815260200182805460018160011615610100020316600290048015610c145780601f10610be957610100808354040283529160200191610c14565b820191906000526020600020905b815481529060010190602001808311610bf757829003601f168201915b5050505050905082565b60358181548110610c2b57fe5b906000526020600020016000915090508054600181600116156101000203166002900480601f016020809104026020016040519081016040528092919081815260200182805460018160011615610100020316600290048015610ccf5780601f10610ca457610100808354040283529160200191610ccf565b820191906000526020600020905b815481529060010190602001808311610cb257829003601f168201915b505050505081565b610cdf611c28565b60366000848152602001908152602001600020600083604051602001610d059190612ad8565b6040516020818303038152906040528051906020012081526020019081526020016000206040518060400160405290816000820160009054906101000a900460ff1660ff1660ff168152602001600182018054600181600116156101000203166002900480601f016020809104026020016040519081016040528092919081815260200182805460018160011615610100020316600290048015610dea5780601f10610dbf57610100808354040283529160200191610dea565b820191906000526020600020905b815481529060010190602001808311610dcd57829003601f168201915b505050505081525050905092915050565b606060006037600085815260200190815260200160002060008460ff1660ff168152602001908152602001600020905060608180549050604051908082528060200260200182016040528015610e6b57816020015b610e58611c45565b815260200190600190039081610e505790505b50905060008090505b8280549050811015610fa857603660008781526020019081526020016000206000848381548110610ea157fe5b906000526020600020015481526020019081526020016000206040518060400160405290816000820160009054906101000a900460ff1660ff1660ff168152602001600182018054600181600116156101000203166002900480601f016020809104026020016040519081016040528092919081815260200182805460018160011615610100020316600290048015610f7b5780601f10610f5057610100808354040283529160200191610f7b565b820191906000526020600020905b815481529060010190602001808311610f5e57829003601f168201915b505050505081525050828281518110610f9057fe5b60200260200101819052508080600101915050610e74565b50809250505092915050565b60376020528260005260406000206020528160005260406000208181548110610fd957fe5b9060005260206000200160009250925050505481565b60606037600084815260200190815260200160002060008360ff1660ff16815260200190815260200160002080548060200260200160405190810160405280929190818152602001828054801561106557602002820191906000526020600020905b815481526020019060010190808311611051575b5050505050905092915050565b60006036600084815260200190815260200160002060008360405160200161109a9190612ad8565b60405160208183030381529060405280519060200120815260200190815260200160002060000160009054906101000a900460ff16905092915050565b60606035805480602002602001604051908101604052809291908181526020016000905b828210156111b7578382906000526020600020018054600181600116156101000203166002900480601f0160208091040260200160405190810160405280929190818152602001828054600181600116156101000203166002900480156111a35780601f10611178576101008083540402835291602001916111a3565b820191906000526020600020905b81548152906001019060200180831161118657829003601f168201915b5050505050815260200190600101906110fb565b50505050905090565b60008060001b841415611208576040517f08c379a00000000000000000000000000000000000000000000000000000000081526004016111ff90612cdb565b60405180910390fd5b600083511161124c576040517f08c379a000000000000000000000000000000000000000000000000000000000815260040161124390612d5b565b60405180910390fd5b600073ffffffffffffffffffffffffffffffffffffffff168273ffffffffffffffffffffffffffffffffffffffff1614156112bc576040517f08c379a00000000000000000000000000000000000000000000000000000000081526004016112b390612d7b565b60405180910390fd5b603460008373ffffffffffffffffffffffffffffffffffffffff1673ffffffffffffffffffffffffffffffffffffffff1681526020019081526020016000206000815480929190600101919050555061131784846000611b22565b73ffffffffffffffffffffffffffffffffffffffff168273ffffffffffffffffffffffffffffffffffffffff1614611384576040517f08c379a000000000000000000000000000000000000000000000000000000000815260040161137b90612d1b565b60405180910390fd5b8190509392505050565b6000801b8514156113d4576040517f08c379a00000000000000000000000000000000000000000000000000000000081526004016113cb90612cfb565b60405180910390fd5b6035805490508160ff161061141e576040517f08c379a000000000000000000000000000000000000000000000000000000000815260040161141590612d9b565b60405180910390fd5b6000845111611462576040517f08c379a000000000000000000000000000000000000000000000000000000000815260040161145990612ddb565b60405180910390fd5b60405180604001604052808260ff16815260200185815250603660008781526020019081526020016000206000866040516020016114a09190612ad8565b60405160208183030381529060405280519060200120815260200190815260200160002060008201518160000160006101000a81548160ff021916908360ff1602179055506020820151816001019080519060200190611501929190611c62565b509050506037600086815260200190815260200160002060008260ff1660ff168152602001908152602001600020846040516020016115409190612ad8565b6040516020818303038152906040528051906020012090806001815401808255809150509060018203906000526020600020016000909192909190915055507f91f01213426d5758027295d0312bea69b6caa95caaf070f380380c12a00e35db85858585856040516115b6959493929190612bcf565b60405180910390a15050505050565b600080303b90506000811491505090565b6000603660008481526020019081526020016000206000836040516020016115fe9190612ad8565b6040516020818303038152906040528051906020012081526020019081526020016000206001018054600181600116156101000203166002900490501161164457600080fd5b60006116508383611072565b905060006037600085815260200190815260200160002060008360ff1660ff168152602001908152602001600020905060008090505b818054905081101561173557836040516020016116a39190612ad8565b604051602081830303815290604052805190602001208282815481106116c557fe5b9060005260206000200154141561172857816001838054905003815481106116e957fe5b906000526020600020015482828154811061170057fe5b9060005260206000200181905550818054809190600190036117229190611ce2565b50611735565b8080600101915050611686565b506036600085815260200190815260200160002060008460405160200161175c9190612ad8565b60405160208183030381529060405280519060200120815260200190815260200160002060000160006101000a81549060ff0219169055603660008581526020019081526020016000206000846040516020016117b99190612ad8565b60405160208183030381529060405280519060200120815260200190815260200160002060010160006117ec9190611d0e565b837f5b3deffc77004665f675b2eb8463e3c9dab5962b15696762ad98219b663ce78e8460405161181c9190612cb9565b60405180910390a250505050565b6000801b851415611870576040517f08c379a000000000000000000000000000000000000000000000000000000000815260040161186790612cfb565b60405180910390fd5b60008160ff16116118b6576040517f08c379a00000000000000000000000000000000000000000000000000000000081526004016118ad90612dbb565b60405180910390fd5b60008451116118fa576040517f08c379a00000000000000000000000000000000000000000000000000000000081526004016118f190612ddb565b60405180910390fd5b60006119068686611072565b90508060ff168260ff1614611adb5760006037600088815260200190815260200160002060008360ff1660ff168152602001908152602001600020905060008090505b81805490508110156119f857866040516020016119669190612ad8565b6040516020818303038152906040528051906020012082828154811061198857fe5b906000526020600020015414156119eb57816001838054905003815481106119ac57fe5b90600052602060002001548282815481106119c357fe5b9060005260206000200181905550818054809190600190036119e59190611ce2565b506119f8565b8080600101915050611949565b506037600088815260200190815260200160002060008460ff1660ff16815260200190815260200160002086604051602001611a349190612ad8565b6040516020818303038152906040528051906020012090806001815401808255809150509060018203906000526020600020016000909192909190915055508260366000898152602001908152602001600020600088604051602001611a9a9190612ad8565b60405160208183030381529060405280519060200120815260200190815260200160002060000160006101000a81548160ff021916908360ff160217905550505b7f8708ec7ccca1cd3a4ba78c37689cf52b117b013d49630dd18d24472bb2336dff8686868686604051611b12959493929190612bcf565b60405180910390a1505050505050565b600080600080611b328686611b99565b80935081945082955050505060018784848460405160008152602001604052604051611b619493929190612c37565b6020604051602081039080840390855afa158015611b83573d6000803e3d6000fd5b5050506020604051035193505050509392505050565b60008060008360410260208101860151925060408101860151915060ff60418201870151169350509250925092565b828054828255906000526020600020908101928215611c17579160200282015b82811115611c16578251829080519060200190611c06929190611c62565b5091602001919060010190611be8565b5b509050611c249190611d56565b5090565b6040518060400160405280600060ff168152602001606081525090565b6040518060400160405280600060ff168152602001606081525090565b828054600181600116156101000203166002900490600052602060002090601f016020900481019282601f10611ca357805160ff1916838001178555611cd1565b82800160010185558215611cd1579182015b82811115611cd0578251825591602001919060010190611cb5565b5b509050611cde9190611d82565b5090565b815481835581811115611d0957818360005260206000209182019101611d089190611da7565b5b505050565b50805460018160011615610100020316600290046000825580601f10611d345750611d53565b601f016020900490600052602060002090810190611d529190611d82565b5b50565b611d7f91905b80821115611d7b5760008181611d729190611d0e565b50600101611d5c565b5090565b90565b611da491905b80821115611da0576000816000905550600101611d88565b5090565b90565b611dc991905b80821115611dc5576000816000905550600101611dad565b5090565b90565b600081359050611ddb81613166565b92915050565b600081519050611df08161317d565b92915050565b600081359050611e0581613194565b92915050565b600082601f830112611e1c57600080fd5b8135611e2f611e2a82612eb0565b612e83565b91508082526020830160208301858383011115611e4b57600080fd5b611e568382846130a5565b50505092915050565b600082601f830112611e7057600080fd5b8135611e83611e7e82612edc565b612e83565b91508082526020830160208301858383011115611e9f57600080fd5b611eaa8382846130a5565b50505092915050565b600081359050611ec2816131ab565b92915050565b600081359050611ed7816131c2565b92915050565b600060208284031215611eef57600080fd5b6000611efd84828501611dcc565b91505092915050565b600060208284031215611f1857600080fd5b6000611f2684828501611de1565b91505092915050565b60008060408385031215611f4257600080fd5b6000611f5085828601611df6565b9250506020611f6185828601611df6565b9150509250929050565b60008060408385031215611f7e57600080fd5b6000611f8c85828601611df6565b925050602083013567ffffffffffffffff811115611fa957600080fd5b611fb585828601611e5f565b9150509250929050565b60008060008060808587031215611fd557600080fd5b6000611fe387828801611df6565b945050602085013567ffffffffffffffff81111561200057600080fd5b61200c87828801611e5f565b935050604085013567ffffffffffffffff81111561202957600080fd5b61203587828801611e0b565b925050606061204687828801611dcc565b91505092959194509250565b600080600080600080600060e0888a03121561206d57600080fd5b600061207b8a828b01611df6565b975050602088013567ffffffffffffffff81111561209857600080fd5b6120a48a828b01611e5f565b965050604088013567ffffffffffffffff8111156120c157600080fd5b6120cd8a828b01611e5f565b955050606088013567ffffffffffffffff8111156120ea57600080fd5b6120f68a828b01611e5f565b94505060806121078a828b01611ec8565b93505060a088013567ffffffffffffffff81111561212457600080fd5b6121308a828b01611e0b565b92505060c06121418a828b01611dcc565b91505092959891949750929550565b6000806040838503121561216357600080fd5b600061217185828601611df6565b925050602061218285828601611ec8565b9150509250929050565b6000806000606084860312156121a157600080fd5b60006121af86828701611df6565b93505060206121c086828701611ec8565b92505060406121d186828701611eb3565b9150509250925092565b600080600080600080600060e0888a0312156121f657600080fd5b600088013567ffffffffffffffff81111561221057600080fd5b61221c8a828b01611e5f565b975050602061222d8a828b01611df6565b965050604088013567ffffffffffffffff81111561224a57600080fd5b6122568a828b01611e5f565b955050606088013567ffffffffffffffff81111561227357600080fd5b61227f8a828b01611e5f565b945050608088013567ffffffffffffffff81111561229c57600080fd5b6122a88a828b01611e5f565b93505060a06122b98a828b01611ec8565b92505060c06122ca8a828b01611eb3565b91505092959891949750929550565b6000602082840312156122eb57600080fd5b60006122f984828501611eb3565b91505092915050565b600061230e83836124d6565b60208301905092915050565b60006123268383612584565b905092915050565b600061233a8383612925565b905092915050565b61234b81612ff6565b82525050565b61236261235d82612ff6565b6130e7565b82525050565b600061237382612f38565b61237d8185612f96565b935061238883612f08565b8060005b838110156123b95781516123a08882612302565b97506123ab83612f6f565b92505060018101905061238c565b5085935050505092915050565b60006123d182612f43565b6123db8185612fa7565b9350836020820285016123ed85612f18565b8060005b85811015612429578484038952815161240a858261231a565b945061241583612f7c565b925060208a019950506001810190506123f1565b50829750879550505050505092915050565b600061244682612f4e565b6124508185612fb8565b93508360208202850161246285612f28565b8060005b8581101561249e578484038952815161247f858261232e565b945061248a83612f89565b925060208a01995050600181019050612466565b50829750879550505050505092915050565b6124b981613008565b82525050565b6124d06124cb82613014565b6130f9565b82525050565b6124df81613040565b82525050565b6124ee81613040565b82525050565b61250561250082613040565b613103565b82525050565b61251481613081565b82525050565b600061252582612f64565b61252f8185612fda565b935061253f8185602086016130b4565b6125488161313b565b840191505092915050565b600061255e82612f64565b6125688185612feb565b93506125788185602086016130b4565b80840191505092915050565b600061258f82612f59565b6125998185612fc9565b93506125a98185602086016130b4565b6125b28161313b565b840191505092915050565b60006125c882612f59565b6125d28185612fda565b93506125e28185602086016130b4565b6125eb8161313b565b840191505092915050565b6000612603601483612fda565b91507f686173682063616e6e6f7420626520656d7074790000000000000000000000006000830152602082019050919050565b6000612643601383612fda565b91507f4d75737420686176652070726f6a6563744964000000000000000000000000006000830152602082019050919050565b6000612683602e83612fda565b91507f4d65737361676520686173206e6f74206265656e207369676e65642070726f7060008301527f65726c79206279207369676e65720000000000000000000000000000000000006020830152604082019050919050565b60006126e9602e83612fda565b91507f436f6e747261637420696e7374616e63652068617320616c726561647920626560008301527f656e20696e697469616c697a65640000000000000000000000000000000000006020830152604082019050919050565b600061274f600a83612feb565b91507f72656d6f766546696c65000000000000000000000000000000000000000000006000830152600a82019050919050565b600061278f601983612fda565b91507f7369676e61747572652063616e6e6f7420626520656d707479000000000000006000830152602082019050919050565b60006127cf601e83612fda565b91507f7369676e657220616464726573732063616e6e6f7420626520656d70747900006000830152602082019050919050565b600061280f601e83612fda565b91507f46696c6554797065206d75737420626520636f72726563742076616c756500006000830152602082019050919050565b600061284f602383612fda565b91507f46696c6554797065206d75737420626520636f727265637420656e756d20766160008301527f6c756500000000000000000000000000000000000000000000000000000000006020830152604082019050919050565b60006128b5601c83612fda565b91507f4d7573742068617665206e6f6e2d7a65726f20495046532068617368000000006000830152602082019050919050565b60006040830160008301516129006000860182612988565b50602083015184820360208601526129188282612584565b9150508091505092915050565b600060408301600083015161293d6000860182612988565b50602083015184820360208601526129558282612584565b9150508091505092915050565b61296b8161306a565b82525050565b61298261297d8261306a565b61311f565b82525050565b61299181613074565b82525050565b6129a081613074565b82525050565b6129b76129b282613074565b613129565b82525050565b60006129c9828d6124bf565b6001820191506129d9828c6124bf565b6001820191506129e9828b612351565b6014820191506129f9828a612553565b9150612a0582896124f4565b602082019150612a158288612553565b9150612a218287612553565b9150612a2d8286612553565b9150612a3982856129a6565b600182019150612a498284612971565b6020820191508190509b9a5050505050505050505050565b6000612a6d82896124bf565b600182019150612a7d82886124bf565b600182019150612a8d8287612351565b601482019150612a9c82612742565b9150612aa882866124f4565b602082019150612ab88285612553565b9150612ac48284612971565b602082019150819050979650505050505050565b6000612ae48284612553565b915081905092915050565b6000602082019050612b046000830184612342565b92915050565b60006020820190508181036000830152612b248184612368565b905092915050565b60006020820190508181036000830152612b4681846123c6565b905092915050565b60006020820190508181036000830152612b68818461243b565b905092915050565b6000602082019050612b8560008301846124b0565b92915050565b6000602082019050612ba060008301846124e5565b92915050565b6000604082019050612bbb60008301856124e5565b612bc86020830184612342565b9392505050565b600060a082019050612be460008301886124e5565b8181036020830152612bf6818761251a565b90508181036040830152612c0a818661251a565b90508181036060830152612c1e818561251a565b9050612c2d6080830184612997565b9695505050505050565b6000608082019050612c4c60008301876124e5565b612c596020830186612997565b612c6660408301856124e5565b612c7360608301846124e5565b95945050505050565b6000602082019050612c91600083018461250b565b92915050565b60006020820190508181036000830152612cb181846125bd565b905092915050565b60006020820190508181036000830152612cd3818461251a565b905092915050565b60006020820190508181036000830152612cf4816125f6565b9050919050565b60006020820190508181036000830152612d1481612636565b9050919050565b60006020820190508181036000830152612d3481612676565b9050919050565b60006020820190508181036000830152612d54816126dc565b9050919050565b60006020820190508181036000830152612d7481612782565b9050919050565b60006020820190508181036000830152612d94816127c2565b9050919050565b60006020820190508181036000830152612db481612802565b9050919050565b60006020820190508181036000830152612dd481612842565b9050919050565b60006020820190508181036000830152612df4816128a8565b9050919050565b60006020820190508181036000830152612e1581846128e8565b905092915050565b6000602082019050612e326000830184612962565b92915050565b6000602082019050612e4d6000830184612997565b92915050565b6000604082019050612e686000830185612997565b8181036020830152612e7a81846125bd565b90509392505050565b6000604051905081810181811067ffffffffffffffff82111715612ea657600080fd5b8060405250919050565b600067ffffffffffffffff821115612ec757600080fd5b601f19601f8301169050602081019050919050565b600067ffffffffffffffff821115612ef357600080fd5b601f19601f8301169050602081019050919050565b6000819050602082019050919050565b6000819050602082019050919050565b6000819050602082019050919050565b600081519050919050565b600081519050919050565b600081519050919050565b600081519050919050565b600081519050919050565b6000602082019050919050565b6000602082019050919050565b6000602082019050919050565b600082825260208201905092915050565b600082825260208201905092915050565b600082825260208201905092915050565b600082825260208201905092915050565b600082825260208201905092915050565b600081905092915050565b60006130018261304a565b9050919050565b60008115159050919050565b60007fff0000000000000000000000000000000000000000000000000000000000000082169050919050565b6000819050919050565b600073ffffffffffffffffffffffffffffffffffffffff82169050919050565b6000819050919050565b600060ff82169050919050565b600061308c82613093565b9050919050565b600061309e8261304a565b9050919050565b82818337600083830152505050565b60005b838110156130d25780820151818401526020810190506130b7565b838111156130e1576000848401525b50505050565b60006130f28261310d565b9050919050565b6000819050919050565b6000819050919050565b600061311882613159565b9050919050565b6000819050919050565b60006131348261314c565b9050919050565b6000601f19601f8301169050919050565b60008160f81b9050919050565b60008160601b9050919050565b61316f81612ff6565b811461317a57600080fd5b50565b61318681613008565b811461319157600080fd5b50565b61319d81613040565b81146131a857600080fd5b50565b6131b48161306a565b81146131bf57600080fd5b50565b6131cb81613074565b81146131d657600080fd5b5056fea365627a7a723058200dab3a589d44ee1c6262480448392d70d835ed5cb76fc69f7a097cc80168daf26c6578706572696d656e74616cf564736f6c634300050a0040",
  "source": "pragma solidity >=0.5.0 <0.6.0;\npragma experimental \"ABIEncoderV2\";\n\nimport \"zos-lib/contracts/Initializable.sol\";\nimport \"./SignatureDecoder.sol\";\nimport \"./interface/MusicRegistryI.sol\";\n\ncontract FileRegistry is Initializable, SignatureDecoder {\n\n    MusicRegistryI public musicRegistry;\n    event MusicRegistrySet(address musicRegistry);\n\n    mapping(address => uint256) public nonce;\n\n    string[] public FILE_TYPES;\n\n    struct File {\n        uint8 fileType;\n        string ipfsHash;\n    }\n\n    // workId/recordingId => keccak256(abi.encodePacked(IPFS hash)) => File\n    mapping(bytes32 => mapping(bytes32 => File)) public files;\n    // workId/recordingId => FILE_TYPES => keccak256(abi.encodePacked(IPFS hashes))\n    mapping(bytes32 => mapping(uint8 => bytes32[])) public typeIndexes;\n\n    event NewFile (\n        bytes32 projectId,\n        string ipfsHash,\n        string name,\n        string url,\n        uint8 fileType);\n\n    event UpdateFile (\n        bytes32 projectId,\n        string ipfsHash,\n        string name,\n        string url,\n        uint8 fileType);\n\n    event DeleteFile (bytes32 indexed projectId, string ipfsHash);\n\n    modifier onlyOwner(bytes32 projectId, address sender) {\n        require(musicRegistry.isOwner(projectId, sender));\n        _;\n    }\n\n    function init(address musicRegistryAddr) public initializer {\n        musicRegistry = MusicRegistryI(musicRegistryAddr);\n        emit MusicRegistrySet(musicRegistryAddr);\n        FILE_TYPES = ['Other', 'Agreement', 'Sheets', 'Notes', 'Stem', 'Track', 'Demo', 'FinalMix'];\n    }\n\n    function getAllFileTypes() public view returns (string[] memory) {\n        return FILE_TYPES;\n    }\n\n    function getFile(bytes32 projectId, string memory ipfsHash) public view returns (File memory) {\n        return files[projectId][keccak256(abi.encodePacked(ipfsHash))];\n    }\n\n    function getFiles(bytes32 projectId, uint8 fileType) public view returns (File[] memory) {\n        bytes32[] storage _fileHashes = typeIndexes[projectId][fileType];\n        File[] memory result = new File[](_fileHashes.length);\n        for (uint256 i = 0; i < _fileHashes.length; i++) {\n            result[i] = files[projectId][_fileHashes[i]];\n        }\n        return result;\n    }\n\n    function getFileType(bytes32 projectId, string memory ipfsHash) public view returns (uint8) {\n        return files[projectId][keccak256(abi.encodePacked(ipfsHash))].fileType;\n    }\n\n    function isProjectFile(bytes32 projectId, string memory ipfsHash) public view returns (bool) {\n        return bytes(files[projectId][keccak256(abi.encodePacked(ipfsHash))].ipfsHash).length > 0;\n    }\n\n\n\n    function getIndexes(bytes32 projectId, uint8 fileType) public view returns (bytes32[] memory) {\n        return typeIndexes[projectId][fileType];\n    }\n\n    function getHash(\n        string memory funcName,\n        bytes32 projectId,\n        string memory ipfsHash,\n        string memory name,\n        string memory url,\n        uint8 fileType,\n        uint256 _nonce\n    )\n        public\n        view\n        returns (bytes32)\n    {\n        return keccak256(\n            abi.encodePacked(\n                byte(0x19), byte(0), address(this),\n                funcName,\n                projectId,\n                ipfsHash,\n                name,\n                url,\n                fileType,\n                _nonce\n            )\n        );\n    }\n\n    // TODO: allow contract admin to add file types\n    event NewFileType (uint8 index, string fileType);\n    function _addFileType(string memory fileType) internal {\n        FILE_TYPES.push(fileType);\n        emit NewFileType(uint8(FILE_TYPES.length) - 1, fileType);\n    }\n\n    function addFile(\n        bytes32 projectId,\n        string memory ipfsHash,\n        string memory name,\n        string memory url,\n        uint8 fileType,\n        bytes memory signature,\n        address signer\n    ) public {\n        bytes32 hash = getHash(\"addFile\", projectId, ipfsHash, name, url, fileType, nonce[signer]);\n        _validateSignature(hash, signature, signer);\n        _addFile(projectId, ipfsHash, name, url, fileType);\n    }\n\n    function updateFile(\n        bytes32 projectId,\n        string memory ipfsHash,\n        string memory name,\n        string memory url,\n        uint8 fileType,\n        bytes memory signature,\n        address signer\n    ) public onlyOwner(projectId, signer) {\n        bytes32 hash = getHash(\"updateFile\", projectId, ipfsHash, name, url, fileType, nonce[signer]);\n        _validateSignature(hash, signature, signer);\n        _updateFile(projectId, ipfsHash, name, url, fileType);\n    }\n\n    function removeFile(bytes32 projectId, string memory ipfsHash, bytes memory signature, address signer)\n        public\n        onlyOwner(projectId, signer)\n    {\n        bytes32 hash = keccak256(\n            abi.encodePacked(\n                byte(0x19), byte(0), address(this),\n                \"removeFile\",\n                projectId,\n                ipfsHash,\n                nonce[signer]\n            )\n        );\n        _validateSignature(hash, signature, signer);\n        _removeFile(projectId, ipfsHash);\n    }\n\n    function _addFile(\n        bytes32 projectId,\n        string memory ipfsHash,\n        string memory name,\n        string memory url,\n        uint8 fileType\n    ) internal {\n        require(projectId != bytes32(0), 'Must have projectId');\n        require(fileType < FILE_TYPES.length, \"FileType must be correct value\");\n        require(bytes(ipfsHash).length > 0,\n            'Must have non-zero IPFS hash');\n\n        files[projectId][keccak256(abi.encodePacked(ipfsHash))] = File(fileType, ipfsHash);\n        typeIndexes[projectId][fileType].push(keccak256(abi.encodePacked(ipfsHash)));\n\n        emit NewFile(projectId, ipfsHash, name, url, fileType);\n    }\n\n    function _updateFile(\n        bytes32 projectId,\n        string memory ipfsHash,\n        string memory name,\n        string memory url,\n        uint8 fileType\n    ) internal {\n        require(projectId != bytes32(0), 'Must have projectId');\n        require(uint8(fileType) > 0, \"FileType must be correct enum value\");\n        require(bytes(ipfsHash).length > 0,\n            'Must have non-zero IPFS hash');\n\n        uint8 oldType = getFileType(projectId, ipfsHash);\n        if (fileType != oldType) {\n            bytes32[] storage indexes = typeIndexes[projectId][oldType];\n            for (uint256 i = 0; i < indexes.length; i++) {\n                if(indexes[i] == keccak256(abi.encodePacked(ipfsHash))) {\n                    indexes[i] = indexes[indexes.length - 1];\n                    indexes.length--;\n                    break;\n                }\n            }\n            typeIndexes[projectId][fileType].push(keccak256(abi.encodePacked(ipfsHash)));\n            files[projectId][keccak256(abi.encodePacked(ipfsHash))].fileType = fileType;\n        }\n\n        emit UpdateFile(projectId, ipfsHash, name, url, fileType);\n    }\n\n    function _removeFile(bytes32 projectId, string memory ipfsHash) internal {\n        require(bytes(files[projectId][keccak256(abi.encodePacked(ipfsHash))].ipfsHash).length > 0);\n\n        uint8 fileType = getFileType(projectId, ipfsHash);\n        bytes32[] storage indexes = typeIndexes[projectId][fileType];\n        for (uint256 i = 0; i < indexes.length; i++) {\n            if(indexes[i] == keccak256(abi.encodePacked(ipfsHash))) {\n                indexes[i] = indexes[indexes.length - 1];\n                indexes.length--;\n                break;\n            }\n        }\n\n        delete files[projectId][keccak256(abi.encodePacked(ipfsHash))].fileType;\n        delete files[projectId][keccak256(abi.encodePacked(ipfsHash))].ipfsHash;\n\n        emit DeleteFile(projectId, ipfsHash);\n    }\n\n    function _validateSignature(bytes32 hash, bytes memory signature, address signer)\n        internal\n        returns (address)\n    {\n        require(hash != bytes32(0), 'hash cannot be empty');\n        require(signature.length > 0, 'signature cannot be empty');\n        require(signer != address(0), 'signer address cannot be empty');\n\n        // 5k gas\n        nonce[signer]++;\n\n        // 5k gas\n        require(signer == recoverKey(hash, signature, 0),\n            'Message has not been signed properly by signer');\n\n        return signer;\n    }\n}\n",
  "sourcePath": "/Users/tom/www/music-smart-contracts/contracts/FileRegistry.sol",
  "compiler": {
    "name": "solc",
    "version": "0.5.10+commit.5a6ea5b1.Emscripten.clang"
  },
  "schemaVersion": "3.0.11",
  "updatedAt": "2019-07-06T21:23:24.390Z",
  "devdoc": {
    "methods": {}
  },
  "userdoc": {
    "methods": {}
  }
}