{
  "contractName": "FileRegistryPublic",
  "abi": [
    {
      "constant": false,
      "inputs": [
        {
          "name": "projectId",
          "type": "bytes32"
        },
        {
          "name": "ipfsHash",
          "type": "string"
        },
        {
          "name": "name",
          "type": "string"
        },
        {
          "name": "url",
          "type": "string"
        },
        {
          "name": "fileType",
          "type": "uint8"
        },
        {
          "name": "signature",
          "type": "bytes"
        },
        {
          "name": "signer",
          "type": "address"
        }
      ],
      "name": "addFile",
      "outputs": [],
      "payable": false,
      "stateMutability": "nonpayable",
      "type": "function"
    },
    {
      "constant": true,
      "inputs": [],
      "name": "musicRegistry",
      "outputs": [
        {
          "name": "",
          "type": "address"
        }
      ],
      "payable": false,
      "stateMutability": "view",
      "type": "function"
    },
    {
      "constant": false,
      "inputs": [
        {
          "name": "musicRegistryAddr",
          "type": "address"
        }
      ],
      "name": "init",
      "outputs": [],
      "payable": false,
      "stateMutability": "nonpayable",
      "type": "function"
    },
    {
      "constant": true,
      "inputs": [
        {
          "name": "projectId",
          "type": "bytes32"
        },
        {
          "name": "ipfsHash",
          "type": "string"
        }
      ],
      "name": "isProjectFile",
      "outputs": [
        {
          "name": "",
          "type": "bool"
        }
      ],
      "payable": false,
      "stateMutability": "view",
      "type": "function"
    },
    {
      "constant": true,
      "inputs": [
        {
          "name": "funcName",
          "type": "string"
        },
        {
          "name": "projectId",
          "type": "bytes32"
        },
        {
          "name": "ipfsHash",
          "type": "string"
        },
        {
          "name": "name",
          "type": "string"
        },
        {
          "name": "url",
          "type": "string"
        },
        {
          "name": "fileType",
          "type": "uint8"
        },
        {
          "name": "_nonce",
          "type": "uint256"
        }
      ],
      "name": "getHash",
      "outputs": [
        {
          "name": "",
          "type": "bytes32"
        }
      ],
      "payable": false,
      "stateMutability": "view",
      "type": "function"
    },
    {
      "constant": false,
      "inputs": [
        {
          "name": "projectId",
          "type": "bytes32"
        },
        {
          "name": "ipfsHash",
          "type": "string"
        },
        {
          "name": "signature",
          "type": "bytes"
        },
        {
          "name": "signer",
          "type": "address"
        }
      ],
      "name": "removeFile",
      "outputs": [],
      "payable": false,
      "stateMutability": "nonpayable",
      "type": "function"
    },
    {
      "constant": true,
      "inputs": [
        {
          "name": "",
          "type": "address"
        }
      ],
      "name": "nonce",
      "outputs": [
        {
          "name": "",
          "type": "uint256"
        }
      ],
      "payable": false,
      "stateMutability": "view",
      "type": "function"
    },
    {
      "constant": false,
      "inputs": [
        {
          "name": "projectId",
          "type": "bytes32"
        },
        {
          "name": "ipfsHash",
          "type": "string"
        },
        {
          "name": "name",
          "type": "string"
        },
        {
          "name": "url",
          "type": "string"
        },
        {
          "name": "fileType",
          "type": "uint8"
        },
        {
          "name": "signature",
          "type": "bytes"
        },
        {
          "name": "signer",
          "type": "address"
        }
      ],
      "name": "updateFile",
      "outputs": [],
      "payable": false,
      "stateMutability": "nonpayable",
      "type": "function"
    },
    {
      "constant": true,
      "inputs": [
        {
          "name": "",
          "type": "bytes32"
        },
        {
          "name": "",
          "type": "bytes32"
        }
      ],
      "name": "files",
      "outputs": [
        {
          "name": "fileType",
          "type": "uint8"
        },
        {
          "name": "ipfsHash",
          "type": "string"
        }
      ],
      "payable": false,
      "stateMutability": "view",
      "type": "function"
    },
    {
      "constant": true,
      "inputs": [
        {
          "name": "",
          "type": "uint256"
        }
      ],
      "name": "FILE_TYPES",
      "outputs": [
        {
          "name": "",
          "type": "string"
        }
      ],
      "payable": false,
      "stateMutability": "view",
      "type": "function"
    },
    {
      "constant": true,
      "inputs": [
        {
          "name": "projectId",
          "type": "bytes32"
        },
        {
          "name": "ipfsHash",
          "type": "string"
        }
      ],
      "name": "getFile",
      "outputs": [
        {
          "components": [
            {
              "name": "fileType",
              "type": "uint8"
            },
            {
              "name": "ipfsHash",
              "type": "string"
            }
          ],
          "name": "",
          "type": "tuple"
        }
      ],
      "payable": false,
      "stateMutability": "view",
      "type": "function"
    },
    {
      "constant": true,
      "inputs": [
        {
          "name": "projectId",
          "type": "bytes32"
        },
        {
          "name": "fileType",
          "type": "uint8"
        }
      ],
      "name": "getFiles",
      "outputs": [
        {
          "components": [
            {
              "name": "fileType",
              "type": "uint8"
            },
            {
              "name": "ipfsHash",
              "type": "string"
            }
          ],
          "name": "",
          "type": "tuple[]"
        }
      ],
      "payable": false,
      "stateMutability": "view",
      "type": "function"
    },
    {
      "constant": true,
      "inputs": [
        {
          "name": "",
          "type": "bytes32"
        },
        {
          "name": "",
          "type": "uint8"
        },
        {
          "name": "",
          "type": "uint256"
        }
      ],
      "name": "typeIndexes",
      "outputs": [
        {
          "name": "",
          "type": "bytes32"
        }
      ],
      "payable": false,
      "stateMutability": "view",
      "type": "function"
    },
    {
      "constant": true,
      "inputs": [
        {
          "name": "projectId",
          "type": "bytes32"
        },
        {
          "name": "fileType",
          "type": "uint8"
        }
      ],
      "name": "getIndexes",
      "outputs": [
        {
          "name": "",
          "type": "bytes32[]"
        }
      ],
      "payable": false,
      "stateMutability": "view",
      "type": "function"
    },
    {
      "constant": true,
      "inputs": [
        {
          "name": "projectId",
          "type": "bytes32"
        },
        {
          "name": "ipfsHash",
          "type": "string"
        }
      ],
      "name": "getFileType",
      "outputs": [
        {
          "name": "",
          "type": "uint8"
        }
      ],
      "payable": false,
      "stateMutability": "view",
      "type": "function"
    },
    {
      "constant": true,
      "inputs": [],
      "name": "getAllFileTypes",
      "outputs": [
        {
          "name": "",
          "type": "string[]"
        }
      ],
      "payable": false,
      "stateMutability": "view",
      "type": "function"
    },
    {
      "anonymous": false,
      "inputs": [
        {
          "indexed": false,
          "name": "musicRegistry",
          "type": "address"
        }
      ],
      "name": "MusicRegistrySet",
      "type": "event"
    },
    {
      "anonymous": false,
      "inputs": [
        {
          "indexed": false,
          "name": "projectId",
          "type": "bytes32"
        },
        {
          "indexed": false,
          "name": "ipfsHash",
          "type": "string"
        },
        {
          "indexed": false,
          "name": "name",
          "type": "string"
        },
        {
          "indexed": false,
          "name": "url",
          "type": "string"
        },
        {
          "indexed": false,
          "name": "fileType",
          "type": "uint8"
        }
      ],
      "name": "NewFile",
      "type": "event"
    },
    {
      "anonymous": false,
      "inputs": [
        {
          "indexed": false,
          "name": "projectId",
          "type": "bytes32"
        },
        {
          "indexed": false,
          "name": "ipfsHash",
          "type": "string"
        },
        {
          "indexed": false,
          "name": "name",
          "type": "string"
        },
        {
          "indexed": false,
          "name": "url",
          "type": "string"
        },
        {
          "indexed": false,
          "name": "fileType",
          "type": "uint8"
        }
      ],
      "name": "UpdateFile",
      "type": "event"
    },
    {
      "anonymous": false,
      "inputs": [
        {
          "indexed": true,
          "name": "projectId",
          "type": "bytes32"
        },
        {
          "indexed": false,
          "name": "ipfsHash",
          "type": "string"
        }
      ],
      "name": "DeleteFile",
      "type": "event"
    },
    {
      "anonymous": false,
      "inputs": [
        {
          "indexed": false,
          "name": "index",
          "type": "uint8"
        },
        {
          "indexed": false,
          "name": "fileType",
          "type": "string"
        }
      ],
      "name": "NewFileType",
      "type": "event"
    },
    {
      "constant": false,
      "inputs": [
        {
          "name": "projectId",
          "type": "bytes32"
        },
        {
          "name": "ipfsHash",
          "type": "string"
        },
        {
          "name": "name",
          "type": "string"
        },
        {
          "name": "url",
          "type": "string"
        },
        {
          "name": "fileType",
          "type": "uint8"
        }
      ],
      "name": "addFilePublic",
      "outputs": [],
      "payable": false,
      "stateMutability": "nonpayable",
      "type": "function"
    },
    {
      "constant": false,
      "inputs": [
        {
          "name": "projectId",
          "type": "bytes32"
        },
        {
          "name": "ipfsHash",
          "type": "string"
        },
        {
          "name": "name",
          "type": "string"
        },
        {
          "name": "url",
          "type": "string"
        },
        {
          "name": "fileType",
          "type": "uint8"
        }
      ],
      "name": "updateFilePublic",
      "outputs": [],
      "payable": false,
      "stateMutability": "nonpayable",
      "type": "function"
    },
    {
      "constant": false,
      "inputs": [
        {
          "name": "projectId",
          "type": "bytes32"
        },
        {
          "name": "ipfsHash",
          "type": "string"
        }
      ],
      "name": "removeFilePublic",
      "outputs": [],
      "payable": false,
      "stateMutability": "nonpayable",
      "type": "function"
    },
    {
      "constant": false,
      "inputs": [
        {
          "name": "fileType",
          "type": "string"
        }
      ],
      "name": "addFileType",
      "outputs": [],
      "payable": false,
      "stateMutability": "nonpayable",
      "type": "function"
    },
    {
      "constant": false,
      "inputs": [
        {
          "name": "hash",
          "type": "bytes32"
        },
        {
          "name": "signature",
          "type": "bytes"
        },
        {
          "name": "signer",
          "type": "address"
        }
      ],
      "name": "validateSignature",
      "outputs": [
        {
          "name": "",
          "type": "address"
        }
      ],
      "payable": false,
      "stateMutability": "nonpayable",
      "type": "function"
    }
  ],
  "bytecode": "0x608060405234801561001057600080fd5b506135e4806100206000396000f3fe608060405234801561001057600080fd5b50600436106101365760003560e01c806376539160116100b85780638b41c4a41161007c5780638b41c4a41461035a578063a987d20b1461038a578063b3d4b382146103ba578063ca5f545e146103ea578063f135e9da1461041a578063f26926871461044a57610136565b806376539160146102915780637655977f146102ad5780637810e19f146102c9578063814b4340146102f9578063861562e91461032a57610136565b8063290faa4d116100ff578063290faa4d146101dd57806345cf8b9b146101f95780636c0124d1146102155780636fa8c3c01461024557806370ae92d21461026157610136565b8062552b381461013b578063105a8fc81461015757806313cf11fe1461017357806319ab453c146101915780631bfe98dc146101ad575b600080fd5b61015560048036036101509190810190612203565b610468565b005b610171600480360361016c91908101906123a9565b610476565b005b61017b610520565b6040516101889190613014565b60405180910390f35b6101ab60048036036101a6919081019061210e565b610546565b005b6101c760048036036101c29190810190612203565b61089b565b6040516101d49190612f08565b60405180910390f35b6101f760048036036101f291908101906122ea565b610909565b005b610213600480360361020e91908101906122ea565b61091d565b005b61022f600480360361022a9190810190612573565b610931565b60405161023c9190612f23565b60405180910390f35b61025f600480360361025a9190810190612257565b610981565b005b61027b6004803603610276919081019061210e565b610ad6565b60405161028891906131b5565b60405180910390f35b6102ab60048036036102a69190810190612532565b610aee565b005b6102c760048036036102c291908101906123a9565b610afa565b005b6102e360048036036102de919081019061219c565b610c60565b6040516102f09190612e87565b60405180910390f35b610313600480360361030e9190810190612160565b610c76565b6040516103219291906131eb565b60405180910390f35b610344600480360361033f9190810190612671565b610d4c565b604051610351919061302f565b60405180910390f35b610374600480360361036f9190810190612203565b610e05565b6040516103819190613193565b60405180910390f35b6103a4600480360361039f91908101906124a7565b610f29565b6040516103b19190612ee6565b60405180910390f35b6103d460048036036103cf91908101906124e3565b6110e2565b6040516103e19190612f23565b60405180910390f35b61040460048036036103ff91908101906124a7565b61111d565b6040516104119190612ea2565b60405180910390f35b610434600480360361042f9190810190612203565b6111a0565b60405161044191906131d0565b60405180910390f35b610452611205565b60405161045f9190612ec4565b60405180910390f35b61047282826112ee565b5050565b60006104fb6040518060400160405280600781526020017f61646446696c65000000000000000000000000000000000000000000000000008152508989898989603460008a73ffffffffffffffffffffffffffffffffffffffff1673ffffffffffffffffffffffffffffffffffffffff16815260200190815260200160002054610931565b9050610508818484611542565b506105168888888888611710565b5050505050505050565b603360009054906101000a900473ffffffffffffffffffffffffffffffffffffffff1681565b600060019054906101000a900460ff16806105655750610564611947565b5b8061057c57506000809054906101000a900460ff16155b6105bb576040517f08c379a00000000000000000000000000000000000000000000000000000000081526004016105b2906130d3565b60405180910390fd5b60008060019054906101000a900460ff16159050801561060b576001600060016101000a81548160ff02191690831515021790555060016000806101000a81548160ff0219169083151502179055505b81603360006101000a81548173ffffffffffffffffffffffffffffffffffffffff021916908373ffffffffffffffffffffffffffffffffffffffff1602179055507f226193a108f5608c28acfc8662543b7c1ce7e75992c06a13d0a54673f457cce28260405161067b9190612e87565b60405180910390a16040518061010001604052806040518060400160405280600581526020017f4f7468657200000000000000000000000000000000000000000000000000000081525081526020016040518060400160405280600981526020017f41677265656d656e74000000000000000000000000000000000000000000000081525081526020016040518060400160405280600681526020017f536865657473000000000000000000000000000000000000000000000000000081525081526020016040518060400160405280600581526020017f4e6f74657300000000000000000000000000000000000000000000000000000081525081526020016040518060400160405280600481526020017f5374656d0000000000000000000000000000000000000000000000000000000081525081526020016040518060400160405280600581526020017f547261636b00000000000000000000000000000000000000000000000000000081525081526020016040518060400160405280600481526020017f44656d6f0000000000000000000000000000000000000000000000000000000081525081526020016040518060400160405280600881526020017f46696e616c4d69780000000000000000000000000000000000000000000000008152508152506035906008610875929190611d79565b5080156108975760008060016101000a81548160ff0219169083151502179055505b5050565b600080603660008581526020019081526020016000206000846040516020016108c49190612e70565b60405160208183030381529060405280519060200120815260200190815260200160002060010180546001816001161561010002031660029004905011905092915050565b6109168585858585611710565b5050505050565b61092a8585858585611958565b5050505050565b6000601960f81b600060f81b308a8a8a8a8a8a8a60405160200161095e9a99989796959493929190612d55565b604051602081830303815290604052805190602001209050979650505050505050565b8381603360009054906101000a900473ffffffffffffffffffffffffffffffffffffffff1673ffffffffffffffffffffffffffffffffffffffff16633fb5667183836040518363ffffffff1660e01b81526004016109e0929190612f3e565b602060405180830381600087803b1580156109fa57600080fd5b505af1158015610a0e573d6000803e3d6000fd5b505050506040513d601f19601f82011682018060405250610a329190810190612137565b610a3b57600080fd5b6000601960f81b600060f81b308989603460008a73ffffffffffffffffffffffffffffffffffffffff1673ffffffffffffffffffffffffffffffffffffffff16815260200190815260200160002054604051602001610a9f96959493929190612df9565b604051602081830303815290604052805190602001209050610ac2818686611542565b50610acd87876112ee565b50505050505050565b60346020528060005260406000206000915090505481565b610af781611c50565b50565b8681603360009054906101000a900473ffffffffffffffffffffffffffffffffffffffff1673ffffffffffffffffffffffffffffffffffffffff16633fb5667183836040518363ffffffff1660e01b8152600401610b59929190612f3e565b602060405180830381600087803b158015610b7357600080fd5b505af1158015610b87573d6000803e3d6000fd5b505050506040513d601f19601f82011682018060405250610bab9190810190612137565b610bb457600080fd5b6000610c396040518060400160405280600a81526020017f75706461746546696c65000000000000000000000000000000000000000000008152508b8b8b8b8b603460008c73ffffffffffffffffffffffffffffffffffffffff1673ffffffffffffffffffffffffffffffffffffffff16815260200190815260200160002054610931565b9050610c46818686611542565b50610c548a8a8a8a8a611958565b50505050505050505050565b6000610c6d848484611542565b90509392505050565b6036602052816000526040600020602052806000526040600020600091509150508060000160009054906101000a900460ff1690806001018054600181600116156101000203166002900480601f016020809104026020016040519081016040528092919081815260200182805460018160011615610100020316600290048015610d425780601f10610d1757610100808354040283529160200191610d42565b820191906000526020600020905b815481529060010190602001808311610d2557829003601f168201915b5050505050905082565b60358181548110610d5957fe5b906000526020600020016000915090508054600181600116156101000203166002900480601f016020809104026020016040519081016040528092919081815260200182805460018160011615610100020316600290048015610dfd5780601f10610dd257610100808354040283529160200191610dfd565b820191906000526020600020905b815481529060010190602001808311610de057829003601f168201915b505050505081565b610e0d611dd9565b60366000848152602001908152602001600020600083604051602001610e339190612e70565b6040516020818303038152906040528051906020012081526020019081526020016000206040518060400160405290816000820160009054906101000a900460ff1660ff1660ff168152602001600182018054600181600116156101000203166002900480601f016020809104026020016040519081016040528092919081815260200182805460018160011615610100020316600290048015610f185780601f10610eed57610100808354040283529160200191610f18565b820191906000526020600020905b815481529060010190602001808311610efb57829003601f168201915b505050505081525050905092915050565b606060006037600085815260200190815260200160002060008460ff1660ff168152602001908152602001600020905060608180549050604051908082528060200260200182016040528015610f9957816020015b610f86611df6565b815260200190600190039081610f7e5790505b50905060008090505b82805490508110156110d657603660008781526020019081526020016000206000848381548110610fcf57fe5b906000526020600020015481526020019081526020016000206040518060400160405290816000820160009054906101000a900460ff1660ff1660ff168152602001600182018054600181600116156101000203166002900480601f0160208091040260200160405190810160405280929190818152602001828054600181600116156101000203166002900480156110a95780601f1061107e576101008083540402835291602001916110a9565b820191906000526020600020905b81548152906001019060200180831161108c57829003601f168201915b5050505050815250508282815181106110be57fe5b60200260200101819052508080600101915050610fa2565b50809250505092915050565b6037602052826000526040600020602052816000526040600020818154811061110757fe5b9060005260206000200160009250925050505481565b60606037600084815260200190815260200160002060008360ff1660ff16815260200190815260200160002080548060200260200160405190810160405280929190818152602001828054801561119357602002820191906000526020600020905b81548152602001906001019080831161117f575b5050505050905092915050565b6000603660008481526020019081526020016000206000836040516020016111c89190612e70565b60405160208183030381529060405280519060200120815260200190815260200160002060000160009054906101000a900460ff16905092915050565b60606035805480602002602001604051908101604052809291908181526020016000905b828210156112e5578382906000526020600020018054600181600116156101000203166002900480601f0160208091040260200160405190810160405280929190818152602001828054600181600116156101000203166002900480156112d15780601f106112a6576101008083540402835291602001916112d1565b820191906000526020600020905b8154815290600101906020018083116112b457829003601f168201915b505050505081526020019060010190611229565b50505050905090565b6000603660008481526020019081526020016000206000836040516020016113169190612e70565b6040516020818303038152906040528051906020012081526020019081526020016000206001018054600181600116156101000203166002900490501161135c57600080fd5b600061136883836111a0565b905060006037600085815260200190815260200160002060008360ff1660ff168152602001908152602001600020905060008090505b818054905081101561144d57836040516020016113bb9190612e70565b604051602081830303815290604052805190602001208282815481106113dd57fe5b90600052602060002001541415611440578160018380549050038154811061140157fe5b906000526020600020015482828154811061141857fe5b90600052602060002001819055508180548091906001900361143a9190611e13565b5061144d565b808060010191505061139e565b50603660008581526020019081526020016000206000846040516020016114749190612e70565b60405160208183030381529060405280519060200120815260200190815260200160002060000160006101000a81549060ff0219169055603660008581526020019081526020016000206000846040516020016114d19190612e70565b60405160208183030381529060405280519060200120815260200190815260200160002060010160006115049190611e3f565b837f5b3deffc77004665f675b2eb8463e3c9dab5962b15696762ad98219b663ce78e846040516115349190613051565b60405180910390a250505050565b60008060001b84141561158a576040517f08c379a000000000000000000000000000000000000000000000000000000000815260040161158190613073565b60405180910390fd5b60008351116115ce576040517f08c379a00000000000000000000000000000000000000000000000000000000081526004016115c5906130f3565b60405180910390fd5b600073ffffffffffffffffffffffffffffffffffffffff168273ffffffffffffffffffffffffffffffffffffffff16141561163e576040517f08c379a000000000000000000000000000000000000000000000000000000000815260040161163590613113565b60405180910390fd5b603460008373ffffffffffffffffffffffffffffffffffffffff1673ffffffffffffffffffffffffffffffffffffffff1681526020019081526020016000206000815480929190600101919050555061169984846000611cd3565b73ffffffffffffffffffffffffffffffffffffffff168273ffffffffffffffffffffffffffffffffffffffff1614611706576040517f08c379a00000000000000000000000000000000000000000000000000000000081526004016116fd906130b3565b60405180910390fd5b8190509392505050565b6000801b851415611756576040517f08c379a000000000000000000000000000000000000000000000000000000000815260040161174d90613093565b60405180910390fd5b6035805490508160ff16106117a0576040517f08c379a000000000000000000000000000000000000000000000000000000000815260040161179790613133565b60405180910390fd5b60008451116117e4576040517f08c379a00000000000000000000000000000000000000000000000000000000081526004016117db90613173565b60405180910390fd5b60405180604001604052808260ff16815260200185815250603660008781526020019081526020016000206000866040516020016118229190612e70565b60405160208183030381529060405280519060200120815260200190815260200160002060008201518160000160006101000a81548160ff021916908360ff1602179055506020820151816001019080519060200190611883929190611e87565b509050506037600086815260200190815260200160002060008260ff1660ff168152602001908152602001600020846040516020016118c29190612e70565b6040516020818303038152906040528051906020012090806001815401808255809150509060018203906000526020600020016000909192909190915055507f91f01213426d5758027295d0312bea69b6caa95caaf070f380380c12a00e35db8585858585604051611938959493929190612f67565b60405180910390a15050505050565b600080303b90506000811491505090565b6000801b85141561199e576040517f08c379a000000000000000000000000000000000000000000000000000000000815260040161199590613093565b60405180910390fd5b60008160ff16116119e4576040517f08c379a00000000000000000000000000000000000000000000000000000000081526004016119db90613153565b60405180910390fd5b6000845111611a28576040517f08c379a0000000000000000000000000000000000000000000000000000000008152600401611a1f90613173565b60405180910390fd5b6000611a3486866111a0565b90508060ff168260ff1614611c095760006037600088815260200190815260200160002060008360ff1660ff168152602001908152602001600020905060008090505b8180549050811015611b265786604051602001611a949190612e70565b60405160208183030381529060405280519060200120828281548110611ab657fe5b90600052602060002001541415611b195781600183805490500381548110611ada57fe5b9060005260206000200154828281548110611af157fe5b906000526020600020018190555081805480919060019003611b139190611e13565b50611b26565b8080600101915050611a77565b506037600088815260200190815260200160002060008460ff1660ff16815260200190815260200160002086604051602001611b629190612e70565b6040516020818303038152906040528051906020012090806001815401808255809150509060018203906000526020600020016000909192909190915055508260366000898152602001908152602001600020600088604051602001611bc89190612e70565b60405160208183030381529060405280519060200120815260200190815260200160002060000160006101000a81548160ff021916908360ff160217905550505b7f8708ec7ccca1cd3a4ba78c37689cf52b117b013d49630dd18d24472bb2336dff8686868686604051611c40959493929190612f67565b60405180910390a1505050505050565b6035819080600181540180825580915050906001820390600052602060002001600090919290919091509080519060200190611c8d929190611f07565b50507f863f5e8f6761b2f3ba4e6fdcae9b123d6234f557b097a6eab4f4d621067441aa60016035805490500382604051611cc892919061321b565b60405180910390a150565b600080600080611ce38686611d4a565b80935081945082955050505060018784848460405160008152602001604052604051611d129493929190612fcf565b6020604051602081039080840390855afa158015611d34573d6000803e3d6000fd5b5050506020604051035193505050509392505050565b60008060008360410260208101860151925060408101860151915060ff60418201870151169350509250925092565b828054828255906000526020600020908101928215611dc8579160200282015b82811115611dc7578251829080519060200190611db7929190611e87565b5091602001919060010190611d99565b5b509050611dd59190611f87565b5090565b6040518060400160405280600060ff168152602001606081525090565b6040518060400160405280600060ff168152602001606081525090565b815481835581811115611e3a57818360005260206000209182019101611e399190611fb3565b5b505050565b50805460018160011615610100020316600290046000825580601f10611e655750611e84565b601f016020900490600052602060002090810190611e839190611fd8565b5b50565b828054600181600116156101000203166002900490600052602060002090601f016020900481019282601f10611ec857805160ff1916838001178555611ef6565b82800160010185558215611ef6579182015b82811115611ef5578251825591602001919060010190611eda565b5b509050611f039190611fd8565b5090565b828054600181600116156101000203166002900490600052602060002090601f016020900481019282601f10611f4857805160ff1916838001178555611f76565b82800160010185558215611f76579182015b82811115611f75578251825591602001919060010190611f5a565b5b509050611f839190611fd8565b5090565b611fb091905b80821115611fac5760008181611fa39190611e3f565b50600101611f8d565b5090565b90565b611fd591905b80821115611fd1576000816000905550600101611fb9565b5090565b90565b611ffa91905b80821115611ff6576000816000905550600101611fde565b5090565b90565b60008135905061200c8161352e565b92915050565b60008151905061202181613545565b92915050565b6000813590506120368161355c565b92915050565b600082601f83011261204d57600080fd5b813561206061205b82613278565b61324b565b9150808252602083016020830185838301111561207c57600080fd5b61208783828461346d565b50505092915050565b600082601f8301126120a157600080fd5b81356120b46120af826132a4565b61324b565b915080825260208301602083018583830111156120d057600080fd5b6120db83828461346d565b50505092915050565b6000813590506120f381613573565b92915050565b6000813590506121088161358a565b92915050565b60006020828403121561212057600080fd5b600061212e84828501611ffd565b91505092915050565b60006020828403121561214957600080fd5b600061215784828501612012565b91505092915050565b6000806040838503121561217357600080fd5b600061218185828601612027565b925050602061219285828601612027565b9150509250929050565b6000806000606084860312156121b157600080fd5b60006121bf86828701612027565b935050602084013567ffffffffffffffff8111156121dc57600080fd5b6121e88682870161203c565b92505060406121f986828701611ffd565b9150509250925092565b6000806040838503121561221657600080fd5b600061222485828601612027565b925050602083013567ffffffffffffffff81111561224157600080fd5b61224d85828601612090565b9150509250929050565b6000806000806080858703121561226d57600080fd5b600061227b87828801612027565b945050602085013567ffffffffffffffff81111561229857600080fd5b6122a487828801612090565b935050604085013567ffffffffffffffff8111156122c157600080fd5b6122cd8782880161203c565b92505060606122de87828801611ffd565b91505092959194509250565b600080600080600060a0868803121561230257600080fd5b600061231088828901612027565b955050602086013567ffffffffffffffff81111561232d57600080fd5b61233988828901612090565b945050604086013567ffffffffffffffff81111561235657600080fd5b61236288828901612090565b935050606086013567ffffffffffffffff81111561237f57600080fd5b61238b88828901612090565b925050608061239c888289016120f9565b9150509295509295909350565b600080600080600080600060e0888a0312156123c457600080fd5b60006123d28a828b01612027565b975050602088013567ffffffffffffffff8111156123ef57600080fd5b6123fb8a828b01612090565b965050604088013567ffffffffffffffff81111561241857600080fd5b6124248a828b01612090565b955050606088013567ffffffffffffffff81111561244157600080fd5b61244d8a828b01612090565b945050608061245e8a828b016120f9565b93505060a088013567ffffffffffffffff81111561247b57600080fd5b6124878a828b0161203c565b92505060c06124988a828b01611ffd565b91505092959891949750929550565b600080604083850312156124ba57600080fd5b60006124c885828601612027565b92505060206124d9858286016120f9565b9150509250929050565b6000806000606084860312156124f857600080fd5b600061250686828701612027565b9350506020612517868287016120f9565b9250506040612528868287016120e4565b9150509250925092565b60006020828403121561254457600080fd5b600082013567ffffffffffffffff81111561255e57600080fd5b61256a84828501612090565b91505092915050565b600080600080600080600060e0888a03121561258e57600080fd5b600088013567ffffffffffffffff8111156125a857600080fd5b6125b48a828b01612090565b97505060206125c58a828b01612027565b965050604088013567ffffffffffffffff8111156125e257600080fd5b6125ee8a828b01612090565b955050606088013567ffffffffffffffff81111561260b57600080fd5b6126178a828b01612090565b945050608088013567ffffffffffffffff81111561263457600080fd5b6126408a828b01612090565b93505060a06126518a828b016120f9565b92505060c06126628a828b016120e4565b91505092959891949750929550565b60006020828403121561268357600080fd5b6000612691848285016120e4565b91505092915050565b60006126a6838361286e565b60208301905092915050565b60006126be838361291c565b905092915050565b60006126d28383612cbd565b905092915050565b6126e3816133be565b82525050565b6126fa6126f5826133be565b6134af565b82525050565b600061270b82613300565b612715818561335e565b9350612720836132d0565b8060005b83811015612751578151612738888261269a565b975061274383613337565b925050600181019050612724565b5085935050505092915050565b60006127698261330b565b612773818561336f565b935083602082028501612785856132e0565b8060005b858110156127c157848403895281516127a285826126b2565b94506127ad83613344565b925060208a01995050600181019050612789565b50829750879550505050505092915050565b60006127de82613316565b6127e88185613380565b9350836020820285016127fa856132f0565b8060005b85811015612836578484038952815161281785826126c6565b945061282283613351565b925060208a019950506001810190506127fe565b50829750879550505050505092915050565b612851816133d0565b82525050565b612868612863826133dc565b6134c1565b82525050565b61287781613408565b82525050565b61288681613408565b82525050565b61289d61289882613408565b6134cb565b82525050565b6128ac81613449565b82525050565b60006128bd8261332c565b6128c781856133a2565b93506128d781856020860161347c565b6128e081613503565b840191505092915050565b60006128f68261332c565b61290081856133b3565b935061291081856020860161347c565b80840191505092915050565b600061292782613321565b6129318185613391565b935061294181856020860161347c565b61294a81613503565b840191505092915050565b600061296082613321565b61296a81856133a2565b935061297a81856020860161347c565b61298381613503565b840191505092915050565b600061299b6014836133a2565b91507f686173682063616e6e6f7420626520656d7074790000000000000000000000006000830152602082019050919050565b60006129db6013836133a2565b91507f4d75737420686176652070726f6a6563744964000000000000000000000000006000830152602082019050919050565b6000612a1b602e836133a2565b91507f4d65737361676520686173206e6f74206265656e207369676e65642070726f7060008301527f65726c79206279207369676e65720000000000000000000000000000000000006020830152604082019050919050565b6000612a81602e836133a2565b91507f436f6e747261637420696e7374616e63652068617320616c726561647920626560008301527f656e20696e697469616c697a65640000000000000000000000000000000000006020830152604082019050919050565b6000612ae7600a836133b3565b91507f72656d6f766546696c65000000000000000000000000000000000000000000006000830152600a82019050919050565b6000612b276019836133a2565b91507f7369676e61747572652063616e6e6f7420626520656d707479000000000000006000830152602082019050919050565b6000612b67601e836133a2565b91507f7369676e657220616464726573732063616e6e6f7420626520656d70747900006000830152602082019050919050565b6000612ba7601e836133a2565b91507f46696c6554797065206d75737420626520636f72726563742076616c756500006000830152602082019050919050565b6000612be76023836133a2565b91507f46696c6554797065206d75737420626520636f727265637420656e756d20766160008301527f6c756500000000000000000000000000000000000000000000000000000000006020830152604082019050919050565b6000612c4d601c836133a2565b91507f4d7573742068617665206e6f6e2d7a65726f20495046532068617368000000006000830152602082019050919050565b6000604083016000830151612c986000860182612d20565b5060208301518482036020860152612cb0828261291c565b9150508091505092915050565b6000604083016000830151612cd56000860182612d20565b5060208301518482036020860152612ced828261291c565b9150508091505092915050565b612d0381613432565b82525050565b612d1a612d1582613432565b6134e7565b82525050565b612d298161343c565b82525050565b612d388161343c565b82525050565b612d4f612d4a8261343c565b6134f1565b82525050565b6000612d61828d612857565b600182019150612d71828c612857565b600182019150612d81828b6126e9565b601482019150612d91828a6128eb565b9150612d9d828961288c565b602082019150612dad82886128eb565b9150612db982876128eb565b9150612dc582866128eb565b9150612dd18285612d3e565b600182019150612de18284612d09565b6020820191508190509b9a5050505050505050505050565b6000612e058289612857565b600182019150612e158288612857565b600182019150612e2582876126e9565b601482019150612e3482612ada565b9150612e40828661288c565b602082019150612e5082856128eb565b9150612e5c8284612d09565b602082019150819050979650505050505050565b6000612e7c82846128eb565b915081905092915050565b6000602082019050612e9c60008301846126da565b92915050565b60006020820190508181036000830152612ebc8184612700565b905092915050565b60006020820190508181036000830152612ede818461275e565b905092915050565b60006020820190508181036000830152612f0081846127d3565b905092915050565b6000602082019050612f1d6000830184612848565b92915050565b6000602082019050612f38600083018461287d565b92915050565b6000604082019050612f53600083018561287d565b612f6060208301846126da565b9392505050565b600060a082019050612f7c600083018861287d565b8181036020830152612f8e81876128b2565b90508181036040830152612fa281866128b2565b90508181036060830152612fb681856128b2565b9050612fc56080830184612d2f565b9695505050505050565b6000608082019050612fe4600083018761287d565b612ff16020830186612d2f565b612ffe604083018561287d565b61300b606083018461287d565b95945050505050565b600060208201905061302960008301846128a3565b92915050565b600060208201905081810360008301526130498184612955565b905092915050565b6000602082019050818103600083015261306b81846128b2565b905092915050565b6000602082019050818103600083015261308c8161298e565b9050919050565b600060208201905081810360008301526130ac816129ce565b9050919050565b600060208201905081810360008301526130cc81612a0e565b9050919050565b600060208201905081810360008301526130ec81612a74565b9050919050565b6000602082019050818103600083015261310c81612b1a565b9050919050565b6000602082019050818103600083015261312c81612b5a565b9050919050565b6000602082019050818103600083015261314c81612b9a565b9050919050565b6000602082019050818103600083015261316c81612bda565b9050919050565b6000602082019050818103600083015261318c81612c40565b9050919050565b600060208201905081810360008301526131ad8184612c80565b905092915050565b60006020820190506131ca6000830184612cfa565b92915050565b60006020820190506131e56000830184612d2f565b92915050565b60006040820190506132006000830185612d2f565b81810360208301526132128184612955565b90509392505050565b60006040820190506132306000830185612d2f565b818103602083015261324281846128b2565b90509392505050565b6000604051905081810181811067ffffffffffffffff8211171561326e57600080fd5b8060405250919050565b600067ffffffffffffffff82111561328f57600080fd5b601f19601f8301169050602081019050919050565b600067ffffffffffffffff8211156132bb57600080fd5b601f19601f8301169050602081019050919050565b6000819050602082019050919050565b6000819050602082019050919050565b6000819050602082019050919050565b600081519050919050565b600081519050919050565b600081519050919050565b600081519050919050565b600081519050919050565b6000602082019050919050565b6000602082019050919050565b6000602082019050919050565b600082825260208201905092915050565b600082825260208201905092915050565b600082825260208201905092915050565b600082825260208201905092915050565b600082825260208201905092915050565b600081905092915050565b60006133c982613412565b9050919050565b60008115159050919050565b60007fff0000000000000000000000000000000000000000000000000000000000000082169050919050565b6000819050919050565b600073ffffffffffffffffffffffffffffffffffffffff82169050919050565b6000819050919050565b600060ff82169050919050565b60006134548261345b565b9050919050565b600061346682613412565b9050919050565b82818337600083830152505050565b60005b8381101561349a57808201518184015260208101905061347f565b838111156134a9576000848401525b50505050565b60006134ba826134d5565b9050919050565b6000819050919050565b6000819050919050565b60006134e082613521565b9050919050565b6000819050919050565b60006134fc82613514565b9050919050565b6000601f19601f8301169050919050565b60008160f81b9050919050565b60008160601b9050919050565b613537816133be565b811461354257600080fd5b50565b61354e816133d0565b811461355957600080fd5b50565b61356581613408565b811461357057600080fd5b50565b61357c81613432565b811461358757600080fd5b50565b6135938161343c565b811461359e57600080fd5b5056fea365627a7a72305820a9f61dda8a4e68393a66723f9234554d86f25d1008cbca5256453ba659fae47f6c6578706572696d656e74616cf564736f6c634300050a0040",
  "source": "pragma solidity >=0.5.0 <0.6.0;\npragma experimental \"ABIEncoderV2\";\n\nimport \"../FileRegistry.sol\";\n\ncontract FileRegistryPublic is FileRegistry {\n    function addFilePublic(\n        bytes32 projectId,\n        string memory ipfsHash,\n        string memory name,\n        string memory url,\n        uint8 fileType\n    ) public {\n        _addFile(projectId, ipfsHash, name, url, fileType);\n    }\n\n    function updateFilePublic(\n        bytes32 projectId,\n        string memory ipfsHash,\n        string memory name,\n        string memory url,\n        uint8 fileType\n    ) public {\n        _updateFile(projectId, ipfsHash, name, url, fileType);\n    }\n\n    function removeFilePublic(bytes32 projectId, string memory ipfsHash) public {\n        _removeFile(projectId, ipfsHash);\n    }\n\n    function addFileType(string memory fileType) public {\n        _addFileType(fileType);\n    }\n\n    function validateSignature(bytes32 hash, bytes memory signature, address signer)\n        public\n        returns (address)\n    {\n        return _validateSignature(hash, signature, signer);\n    }\n}\n",
  "sourcePath": "/Users/tom/www/music-smart-contracts/contracts/mock/FileRegistryPublic.sol",
  "compiler": {
    "name": "solc",
    "version": "0.5.10+commit.5a6ea5b1.Emscripten.clang"
  },
  "schemaVersion": "3.0.11",
  "updatedAt": "2019-08-04T21:19:33.294Z",
  "devdoc": {
    "methods": {}
  },
  "userdoc": {
    "methods": {}
  }
}