{
  "contractName": "MusicRegistry",
  "abi": [
    {
      "constant": true,
      "inputs": [],
      "name": "WORK_FLAG",
      "outputs": [
        {
          "name": "",
          "type": "uint8"
        }
      ],
      "payable": false,
      "stateMutability": "view",
      "type": "function"
    },
    {
      "constant": true,
      "inputs": [
        {
          "name": "actor",
          "type": "address"
        }
      ],
      "name": "getIdentity",
      "outputs": [
        {
          "name": "",
          "type": "address"
        }
      ],
      "payable": false,
      "stateMutability": "view",
      "type": "function"
    },
    {
      "constant": true,
      "inputs": [
        {
          "name": "",
          "type": "bytes32"
        }
      ],
      "name": "works",
      "outputs": [
        {
          "name": "title",
          "type": "string"
        },
        {
          "name": "titleSoundRecording",
          "type": "string"
        },
        {
          "name": "iswc",
          "type": "bytes32"
        },
        {
          "name": "territory",
          "type": "bytes32"
        },
        {
          "name": "ownershipContract",
          "type": "address"
        }
      ],
      "payable": false,
      "stateMutability": "view",
      "type": "function"
    },
    {
      "constant": true,
      "inputs": [],
      "name": "counter",
      "outputs": [
        {
          "name": "",
          "type": "uint256"
        }
      ],
      "payable": false,
      "stateMutability": "view",
      "type": "function"
    },
    {
      "constant": true,
      "inputs": [
        {
          "name": "",
          "type": "address"
        }
      ],
      "name": "nonce",
      "outputs": [
        {
          "name": "",
          "type": "uint256"
        }
      ],
      "payable": false,
      "stateMutability": "view",
      "type": "function"
    },
    {
      "constant": true,
      "inputs": [],
      "name": "RECORDING_FLAG",
      "outputs": [
        {
          "name": "",
          "type": "uint8"
        }
      ],
      "payable": false,
      "stateMutability": "view",
      "type": "function"
    },
    {
      "constant": true,
      "inputs": [
        {
          "name": "",
          "type": "bytes32"
        }
      ],
      "name": "recordings",
      "outputs": [
        {
          "name": "title",
          "type": "string"
        },
        {
          "name": "versionTitle",
          "type": "string"
        },
        {
          "name": "isrc",
          "type": "bytes32"
        },
        {
          "name": "territory",
          "type": "bytes32"
        },
        {
          "name": "album_upc",
          "type": "bytes32"
        },
        {
          "name": "ownershipContract",
          "type": "address"
        }
      ],
      "payable": false,
      "stateMutability": "view",
      "type": "function"
    },
    {
      "constant": true,
      "inputs": [
        {
          "name": "",
          "type": "bytes32"
        }
      ],
      "name": "usedUUIDs",
      "outputs": [
        {
          "name": "",
          "type": "bool"
        }
      ],
      "payable": false,
      "stateMutability": "view",
      "type": "function"
    },
    {
      "constant": true,
      "inputs": [],
      "name": "proxyFactory",
      "outputs": [
        {
          "name": "",
          "type": "address"
        }
      ],
      "payable": false,
      "stateMutability": "view",
      "type": "function"
    },
    {
      "constant": true,
      "inputs": [],
      "name": "ethDIDReg",
      "outputs": [
        {
          "name": "",
          "type": "address"
        }
      ],
      "payable": false,
      "stateMutability": "view",
      "type": "function"
    },
    {
      "constant": true,
      "inputs": [
        {
          "name": "identity",
          "type": "address"
        },
        {
          "name": "actor",
          "type": "address"
        }
      ],
      "name": "isIdentityOwner",
      "outputs": [
        {
          "name": "",
          "type": "bool"
        }
      ],
      "payable": false,
      "stateMutability": "view",
      "type": "function"
    },
    {
      "anonymous": false,
      "inputs": [
        {
          "indexed": true,
          "name": "workId",
          "type": "bytes32"
        },
        {
          "indexed": false,
          "name": "title",
          "type": "string"
        },
        {
          "indexed": false,
          "name": "titleSoundRecording",
          "type": "string"
        },
        {
          "indexed": true,
          "name": "iswc",
          "type": "bytes32"
        },
        {
          "indexed": false,
          "name": "territory",
          "type": "bytes32"
        },
        {
          "indexed": false,
          "name": "publishers",
          "type": "address[]"
        },
        {
          "indexed": true,
          "name": "ownershipContract",
          "type": "address"
        }
      ],
      "name": "WorkRegistered",
      "type": "event"
    },
    {
      "anonymous": false,
      "inputs": [
        {
          "indexed": true,
          "name": "workId",
          "type": "bytes32"
        },
        {
          "indexed": false,
          "name": "title",
          "type": "string"
        },
        {
          "indexed": false,
          "name": "titleSoundRecording",
          "type": "string"
        },
        {
          "indexed": true,
          "name": "iswc",
          "type": "bytes32"
        },
        {
          "indexed": false,
          "name": "territory",
          "type": "bytes32"
        },
        {
          "indexed": false,
          "name": "publishers",
          "type": "address[]"
        },
        {
          "indexed": true,
          "name": "ownershipContract",
          "type": "address"
        }
      ],
      "name": "WorkUpdated",
      "type": "event"
    },
    {
      "anonymous": false,
      "inputs": [
        {
          "indexed": false,
          "name": "workId",
          "type": "bytes32"
        }
      ],
      "name": "WorkRemoved",
      "type": "event"
    },
    {
      "anonymous": false,
      "inputs": [
        {
          "indexed": true,
          "name": "recordingId",
          "type": "bytes32"
        },
        {
          "indexed": false,
          "name": "title",
          "type": "string"
        },
        {
          "indexed": false,
          "name": "versionTitle",
          "type": "string"
        },
        {
          "indexed": true,
          "name": "isrc",
          "type": "bytes32"
        },
        {
          "indexed": false,
          "name": "territory",
          "type": "bytes32"
        },
        {
          "indexed": false,
          "name": "album_upc",
          "type": "bytes32"
        },
        {
          "indexed": false,
          "name": "labels",
          "type": "address[]"
        },
        {
          "indexed": false,
          "name": "workIds",
          "type": "bytes32[]"
        },
        {
          "indexed": true,
          "name": "ownershipContract",
          "type": "address"
        }
      ],
      "name": "RecordingRegistered",
      "type": "event"
    },
    {
      "anonymous": false,
      "inputs": [
        {
          "indexed": true,
          "name": "recordingId",
          "type": "bytes32"
        },
        {
          "indexed": false,
          "name": "title",
          "type": "string"
        },
        {
          "indexed": false,
          "name": "versionTitle",
          "type": "string"
        },
        {
          "indexed": true,
          "name": "isrc",
          "type": "bytes32"
        },
        {
          "indexed": false,
          "name": "territory",
          "type": "bytes32"
        },
        {
          "indexed": false,
          "name": "album_upc",
          "type": "bytes32"
        },
        {
          "indexed": false,
          "name": "labels",
          "type": "address[]"
        },
        {
          "indexed": false,
          "name": "workIds",
          "type": "bytes32[]"
        },
        {
          "indexed": true,
          "name": "ownershipContract",
          "type": "address"
        }
      ],
      "name": "RecordingUpdated",
      "type": "event"
    },
    {
      "anonymous": false,
      "inputs": [
        {
          "indexed": false,
          "name": "recordingId",
          "type": "bytes32"
        }
      ],
      "name": "RecordingRemoved",
      "type": "event"
    },
    {
      "anonymous": false,
      "inputs": [
        {
          "indexed": false,
          "name": "uuid",
          "type": "bytes32"
        }
      ],
      "name": "UUID",
      "type": "event"
    },
    {
      "anonymous": false,
      "inputs": [
        {
          "indexed": false,
          "name": "reg",
          "type": "address"
        }
      ],
      "name": "EthRegistrySet",
      "type": "event"
    },
    {
      "constant": false,
      "inputs": [
        {
          "name": "ethDIDAddress",
          "type": "address"
        },
        {
          "name": "factory",
          "type": "address"
        }
      ],
      "name": "init",
      "outputs": [],
      "payable": false,
      "stateMutability": "nonpayable",
      "type": "function"
    },
    {
      "constant": true,
      "inputs": [
        {
          "name": "projectId",
          "type": "bytes32"
        },
        {
          "name": "sender",
          "type": "address"
        }
      ],
      "name": "isOwner",
      "outputs": [
        {
          "name": "",
          "type": "bool"
        }
      ],
      "payable": false,
      "stateMutability": "view",
      "type": "function"
    },
    {
      "constant": true,
      "inputs": [
        {
          "name": "projectId",
          "type": "bytes32"
        }
      ],
      "name": "getPublishers",
      "outputs": [
        {
          "name": "",
          "type": "address[]"
        }
      ],
      "payable": false,
      "stateMutability": "view",
      "type": "function"
    },
    {
      "constant": true,
      "inputs": [
        {
          "name": "projectId",
          "type": "bytes32"
        }
      ],
      "name": "getLabels",
      "outputs": [
        {
          "name": "",
          "type": "address[]"
        }
      ],
      "payable": false,
      "stateMutability": "view",
      "type": "function"
    },
    {
      "constant": true,
      "inputs": [
        {
          "name": "projectId",
          "type": "bytes32"
        }
      ],
      "name": "getWorkIds",
      "outputs": [
        {
          "name": "",
          "type": "bytes32[]"
        }
      ],
      "payable": false,
      "stateMutability": "view",
      "type": "function"
    },
    {
      "constant": false,
      "inputs": [
        {
          "components": [
            {
              "name": "title",
              "type": "string"
            },
            {
              "name": "titleSoundRecording",
              "type": "string"
            },
            {
              "name": "iswc",
              "type": "bytes32"
            },
            {
              "name": "territory",
              "type": "bytes32"
            },
            {
              "name": "publishers",
              "type": "address[]"
            },
            {
              "name": "ownershipContract",
              "type": "address"
            }
          ],
          "name": "metadata",
          "type": "tuple"
        },
        {
          "name": "signature",
          "type": "bytes"
        },
        {
          "name": "data",
          "type": "bytes"
        },
        {
          "name": "signer",
          "type": "address"
        }
      ],
      "name": "registerWork",
      "outputs": [],
      "payable": false,
      "stateMutability": "nonpayable",
      "type": "function"
    },
    {
      "constant": false,
      "inputs": [
        {
          "name": "workId",
          "type": "bytes32"
        },
        {
          "components": [
            {
              "name": "title",
              "type": "string"
            },
            {
              "name": "titleSoundRecording",
              "type": "string"
            },
            {
              "name": "iswc",
              "type": "bytes32"
            },
            {
              "name": "territory",
              "type": "bytes32"
            },
            {
              "name": "publishers",
              "type": "address[]"
            },
            {
              "name": "ownershipContract",
              "type": "address"
            }
          ],
          "name": "metadata",
          "type": "tuple"
        },
        {
          "name": "signature",
          "type": "bytes"
        },
        {
          "name": "signer",
          "type": "address"
        }
      ],
      "name": "updateWork",
      "outputs": [],
      "payable": false,
      "stateMutability": "nonpayable",
      "type": "function"
    },
    {
      "constant": false,
      "inputs": [
        {
          "name": "workId",
          "type": "bytes32"
        },
        {
          "name": "signature",
          "type": "bytes"
        },
        {
          "name": "signer",
          "type": "address"
        }
      ],
      "name": "removeWork",
      "outputs": [],
      "payable": false,
      "stateMutability": "nonpayable",
      "type": "function"
    },
    {
      "constant": false,
      "inputs": [
        {
          "components": [
            {
              "name": "title",
              "type": "string"
            },
            {
              "name": "versionTitle",
              "type": "string"
            },
            {
              "name": "isrc",
              "type": "bytes32"
            },
            {
              "name": "territory",
              "type": "bytes32"
            },
            {
              "name": "album_upc",
              "type": "bytes32"
            },
            {
              "name": "labels",
              "type": "address[]"
            },
            {
              "name": "workIds",
              "type": "bytes32[]"
            },
            {
              "name": "ownershipContract",
              "type": "address"
            }
          ],
          "name": "metadata",
          "type": "tuple"
        },
        {
          "name": "signature",
          "type": "bytes"
        },
        {
          "name": "data",
          "type": "bytes"
        },
        {
          "name": "signer",
          "type": "address"
        }
      ],
      "name": "registerRecording",
      "outputs": [],
      "payable": false,
      "stateMutability": "nonpayable",
      "type": "function"
    },
    {
      "constant": false,
      "inputs": [
        {
          "name": "recordingId",
          "type": "bytes32"
        },
        {
          "components": [
            {
              "name": "title",
              "type": "string"
            },
            {
              "name": "versionTitle",
              "type": "string"
            },
            {
              "name": "isrc",
              "type": "bytes32"
            },
            {
              "name": "territory",
              "type": "bytes32"
            },
            {
              "name": "album_upc",
              "type": "bytes32"
            },
            {
              "name": "labels",
              "type": "address[]"
            },
            {
              "name": "workIds",
              "type": "bytes32[]"
            },
            {
              "name": "ownershipContract",
              "type": "address"
            }
          ],
          "name": "metadata",
          "type": "tuple"
        },
        {
          "name": "signature",
          "type": "bytes"
        },
        {
          "name": "signer",
          "type": "address"
        }
      ],
      "name": "updateRecording",
      "outputs": [],
      "payable": false,
      "stateMutability": "nonpayable",
      "type": "function"
    },
    {
      "constant": false,
      "inputs": [
        {
          "name": "recordingId",
          "type": "bytes32"
        },
        {
          "name": "signature",
          "type": "bytes"
        },
        {
          "name": "signer",
          "type": "address"
        }
      ],
      "name": "removeRecording",
      "outputs": [],
      "payable": false,
      "stateMutability": "nonpayable",
      "type": "function"
    }
  ],
  "bytecode": "0x6080604052600160345534801561001557600080fd5b50615229806100256000396000f3fe608060405234801561001057600080fd5b50600436106101425760003560e01c806370ae92d2116100b8578063a14119991161007c578063a1411999146103a2578063c10f1a75146103d2578063e7175813146103f0578063f09a40161461040e578063faf2edc11461042a578063fd2aa0b41461045a57610142565b806370ae92d2146102d35780638a6a25df1461030357806392ca5ae41461032157806396524c3b1461033d578063977c90731461037257610142565b80634fcaf8921161010a5780634fcaf8921461021157806353e88f901461022d57806356da50371461024957806357f655aa1461027d57806361bc221a146102995780636d352efb146102b757610142565b806312f0dff61461014757806322bab537146101655780632c3d6428146101955780632fea7b81146101b15780633fb56671146101e1575b600080fd5b61014f61048a565b60405161015c9190614e75565b60405180910390f35b61017f600480360361017a9190810190613947565b61048f565b60405161018c919061484f565b60405180910390f35b6101af60048036036101aa91908101906139d5565b610533565b005b6101cb60048036036101c69190810190613890565b6109de565b6040516101d891906147db565b60405180910390f35b6101fb60048036036101f69190810190613999565b610b07565b6040516102089190614893565b60405180910390f35b61022b600480360361022691908101906139d5565b610dd0565b005b61024760048036036102429190810190613c0d565b611263565b005b610263600480360361025e9190810190613947565b611674565b604051610274959493929190614983565b60405180910390f35b61029760048036036102929190810190613acf565b6117fa565b005b6102a1611e71565b6040516102ae9190614e5a565b60405180910390f35b6102d160048036036102cc9190810190613a3c565b611e77565b005b6102ed60048036036102e89190810190613890565b6124ad565b6040516102fa9190614e5a565b60405180910390f35b61030b6124c5565b6040516103189190614e75565b60405180910390f35b61033b60048036036103369190810190613b62565b6124ca565b005b61035760048036036103529190810190613947565b612908565b60405161036996959493929190614a61565b60405180910390f35b61038c60048036036103879190810190613947565b612a94565b6040516103999190614893565b60405180910390f35b6103bc60048036036103b79190810190613947565b612ab4565b6040516103c9919061484f565b60405180910390f35b6103da612b58565b6040516103e7919061490e565b60405180910390f35b6103f8612b7e565b60405161040591906147db565b60405180910390f35b610428600480360361042391908101906138e2565b612ba4565b005b610444600480360361043f9190810190613947565b612cd9565b6040516104519190614871565b60405180910390f35b610474600480360361046f91908101906138e2565b612d47565b6040516104819190614893565b60405180910390f35b605781565b60606038600083815260200190815260200160002060040180548060200260200160405190810160405280929190818152602001828054801561052757602002820191906000526020600020905b8160009054906101000a900473ffffffffffffffffffffffffffffffffffffffff1673ffffffffffffffffffffffffffffffffffffffff16815260200190600101908083116104dd575b50505050509050919050565b82816000801b82141561057b576040517f08c379a000000000000000000000000000000000000000000000000000000000815260040161057290614b30565b60405180910390fd5b600073ffffffffffffffffffffffffffffffffffffffff168173ffffffffffffffffffffffffffffffffffffffff1614156105eb576040517f08c379a00000000000000000000000000000000000000000000000000000000081526004016105e290614ce8565b60405180910390fd5b6000605760ff16836000602081106105ff57fe5b1a60f81b60f81c60ff16141561064d576038600084815260200190815260200160002060050160009054906101000a900473ffffffffffffffffffffffffffffffffffffffff1690506106aa565b605260ff168360006020811061065f57fe5b1a60f81b60f81c60ff1614156106a9576039600084815260200190815260200160002060070160009054906101000a900473ffffffffffffffffffffffffffffffffffffffff1690505b5b600073ffffffffffffffffffffffffffffffffffffffff168173ffffffffffffffffffffffffffffffffffffffff16141561071a576040517f08c379a000000000000000000000000000000000000000000000000000000000815260040161071190614ad0565b60405180910390fd5b60008173ffffffffffffffffffffffffffffffffffffffff16632420a3fa610741856109de565b6040518263ffffffff1660e01b815260040161075d91906147db565b60206040518083038186803b15801561077557600080fd5b505afa158015610789573d6000803e3d6000fd5b505050506040513d601f19601f820116820180604052506107ad9190810190613cb8565b116107ed576040517f08c379a00000000000000000000000000000000000000000000000000000000081526004016107e490614b50565b60405180910390fd5b6000855111610831576040517f08c379a000000000000000000000000000000000000000000000000000000000815260040161082890614bf0565b60405180910390fd5b600073__MusicLib______________________________6334f27c8088603760008973ffffffffffffffffffffffffffffffffffffffff1673ffffffffffffffffffffffffffffffffffffffff168152602001908152602001600020546040518363ffffffff1660e01b81526004016108ab929190614cac565b60206040518083038186803b1580156108c357600080fd5b505af41580156108d7573d6000803e3d6000fd5b505050506040513d601f19601f820116820180604052506108fb9190810190613970565b9050610908818787612dfe565b50603960008881526020019081526020016000206000808201600061092d91906131ec565b60018201600061093d91906131ec565b6002820160009055600382016000905560048201600090556005820160006109659190613234565b6006820160006109759190613255565b6007820160006101000a81549073ffffffffffffffffffffffffffffffffffffffff021916905550507f75ca86a1b05fc26f4d5f87a8f1f717519006df2c556770243d136f2dafe908bc876040516109cd91906148ae565b60405180910390a150505050505050565b600080603360009054906101000a900473ffffffffffffffffffffffffffffffffffffffff1673ffffffffffffffffffffffffffffffffffffffff16632fea7b81846040518263ffffffff1660e01b8152600401610a3c91906147db565b60206040518083038186803b158015610a5457600080fd5b505afa158015610a68573d6000803e3d6000fd5b505050506040513d601f19601f82011682018060405250610a8c91908101906138b9565b9050600073ffffffffffffffffffffffffffffffffffffffff168173ffffffffffffffffffffffffffffffffffffffff161415610afe576040517f08c379a0000000000000000000000000000000000000000000000000000000008152600401610af590614b70565b60405180910390fd5b80915050919050565b600082826000801b821415610b51576040517f08c379a0000000000000000000000000000000000000000000000000000000008152600401610b4890614b30565b60405180910390fd5b600073ffffffffffffffffffffffffffffffffffffffff168173ffffffffffffffffffffffffffffffffffffffff161415610bc1576040517f08c379a0000000000000000000000000000000000000000000000000000000008152600401610bb890614ce8565b60405180910390fd5b6000605760ff1683600060208110610bd557fe5b1a60f81b60f81c60ff161415610c23576038600084815260200190815260200160002060050160009054906101000a900473ffffffffffffffffffffffffffffffffffffffff169050610c80565b605260ff1683600060208110610c3557fe5b1a60f81b60f81c60ff161415610c7f576039600084815260200190815260200160002060070160009054906101000a900473ffffffffffffffffffffffffffffffffffffffff1690505b5b600073ffffffffffffffffffffffffffffffffffffffff168173ffffffffffffffffffffffffffffffffffffffff161415610cf0576040517f08c379a0000000000000000000000000000000000000000000000000000000008152600401610ce790614ad0565b60405180910390fd5b60008173ffffffffffffffffffffffffffffffffffffffff16632420a3fa610d17856109de565b6040518263ffffffff1660e01b8152600401610d3391906147db565b60206040518083038186803b158015610d4b57600080fd5b505afa158015610d5f573d6000803e3d6000fd5b505050506040513d601f19601f82011682018060405250610d839190810190613cb8565b11610dc3576040517f08c379a0000000000000000000000000000000000000000000000000000000008152600401610dba90614b50565b60405180910390fd5b6001935050505092915050565b82816000801b821415610e18576040517f08c379a0000000000000000000000000000000000000000000000000000000008152600401610e0f90614b30565b60405180910390fd5b600073ffffffffffffffffffffffffffffffffffffffff168173ffffffffffffffffffffffffffffffffffffffff161415610e88576040517f08c379a0000000000000000000000000000000000000000000000000000000008152600401610e7f90614ce8565b60405180910390fd5b6000605760ff1683600060208110610e9c57fe5b1a60f81b60f81c60ff161415610eea576038600084815260200190815260200160002060050160009054906101000a900473ffffffffffffffffffffffffffffffffffffffff169050610f47565b605260ff1683600060208110610efc57fe5b1a60f81b60f81c60ff161415610f46576039600084815260200190815260200160002060070160009054906101000a900473ffffffffffffffffffffffffffffffffffffffff1690505b5b600073ffffffffffffffffffffffffffffffffffffffff168173ffffffffffffffffffffffffffffffffffffffff161415610fb7576040517f08c379a0000000000000000000000000000000000000000000000000000000008152600401610fae90614ad0565b60405180910390fd5b60008173ffffffffffffffffffffffffffffffffffffffff16632420a3fa610fde856109de565b6040518263ffffffff1660e01b8152600401610ffa91906147db565b60206040518083038186803b15801561101257600080fd5b505afa158015611026573d6000803e3d6000fd5b505050506040513d601f19601f8201168201806040525061104a9190810190613cb8565b1161108a576040517f08c379a000000000000000000000000000000000000000000000000000000000815260040161108190614b50565b60405180910390fd5b60008551116110ce576040517f08c379a00000000000000000000000000000000000000000000000000000000081526004016110c590614bf0565b60405180910390fd5b600073__MusicLib______________________________63de3ca29688603760008973ffffffffffffffffffffffffffffffffffffffff1673ffffffffffffffffffffffffffffffffffffffff168152602001908152602001600020546040518363ffffffff1660e01b8152600401611148929190614c50565b60206040518083038186803b15801561116057600080fd5b505af4158015611174573d6000803e3d6000fd5b505050506040513d601f19601f820116820180604052506111989190810190613970565b90506111a5818787612dfe565b5060386000888152602001908152602001600020600080820160006111ca91906131ec565b6001820160006111da91906131ec565b600282016000905560038201600090556004820160006111fa9190613234565b6005820160006101000a81549073ffffffffffffffffffffffffffffffffffffffff021916905550507f4a49bc9996686e18feec23b502027cce21e8edf8d6685bec56e8f5a070fdd73d8760405161125291906148ae565b60405180910390a150505050505050565b6000846000015151116112ab576040517f08c379a00000000000000000000000000000000000000000000000000000000081526004016112a290614bd0565b60405180910390fd5b60008351116112ef576040517f08c379a00000000000000000000000000000000000000000000000000000000081526004016112e690614bf0565b60405180910390fd5b600073ffffffffffffffffffffffffffffffffffffffff168173ffffffffffffffffffffffffffffffffffffffff16141561135f576040517f08c379a000000000000000000000000000000000000000000000000000000000815260040161135690614b10565b60405180910390fd5b60008473__MusicLib______________________________63877295e3909185603760008773ffffffffffffffffffffffffffffffffffffffff1673ffffffffffffffffffffffffffffffffffffffff168152602001908152602001600020546040518463ffffffff1660e01b81526004016113dd93929190614db1565b60206040518083038186803b1580156113f557600080fd5b505af4158015611409573d6000803e3d6000fd5b505050506040513d601f19601f8201168201806040525061142d9190810190613970565b9050600061143c828685612dfe565b90506000603660009054906101000a900473ffffffffffffffffffffffffffffffffffffffff1673ffffffffffffffffffffffffffffffffffffffff1663e97fac0583876040518363ffffffff1660e01b815260040161149d92919061481f565b602060405180830381600087803b1580156114b757600080fd5b505af11580156114cb573d6000803e3d6000fd5b505050506040513d601f19601f820116820180604052506114ef91908101906138b9565b9050808760a0019073ffffffffffffffffffffffffffffffffffffffff16908173ffffffffffffffffffffffffffffffffffffffff168152505060006115356057612fcc565b905087603860008381526020019081526020016000206000820151816000019080519060200190611567929190613276565b506020820151816001019080519060200190611584929190613276565b50604082015181600201556060820151816003015560808201518160040190805190602001906115b59291906132f6565b5060a08201518160050160006101000a81548173ffffffffffffffffffffffffffffffffffffffff021916908373ffffffffffffffffffffffffffffffffffffffff1602179055509050508173ffffffffffffffffffffffffffffffffffffffff168860400151827f536986f0d8d2607b9be527be5930cce11519189cb7d87901a0ce33d3b45cbd448b600001518c602001518d606001518e608001516040516116629493929190614929565b60405180910390a45050505050505050565b6038602052806000526040600020600091509050806000018054600181600116156101000203166002900480601f0160208091040260200160405190810160405280929190818152602001828054600181600116156101000203166002900480156117205780601f106116f557610100808354040283529160200191611720565b820191906000526020600020905b81548152906001019060200180831161170357829003601f168201915b505050505090806001018054600181600116156101000203166002900480601f0160208091040260200160405190810160405280929190818152602001828054600181600116156101000203166002900480156117be5780601f10611793576101008083540402835291602001916117be565b820191906000526020600020905b8154815290600101906020018083116117a157829003601f168201915b5050505050908060020154908060030154908060050160009054906101000a900473ffffffffffffffffffffffffffffffffffffffff16905085565b83816000801b821415611842576040517f08c379a000000000000000000000000000000000000000000000000000000000815260040161183990614b30565b60405180910390fd5b600073ffffffffffffffffffffffffffffffffffffffff168173ffffffffffffffffffffffffffffffffffffffff1614156118b2576040517f08c379a00000000000000000000000000000000000000000000000000000000081526004016118a990614ce8565b60405180910390fd5b6000605760ff16836000602081106118c657fe5b1a60f81b60f81c60ff161415611914576038600084815260200190815260200160002060050160009054906101000a900473ffffffffffffffffffffffffffffffffffffffff169050611971565b605260ff168360006020811061192657fe5b1a60f81b60f81c60ff161415611970576039600084815260200190815260200160002060070160009054906101000a900473ffffffffffffffffffffffffffffffffffffffff1690505b5b600073ffffffffffffffffffffffffffffffffffffffff168173ffffffffffffffffffffffffffffffffffffffff1614156119e1576040517f08c379a00000000000000000000000000000000000000000000000000000000081526004016119d890614ad0565b60405180910390fd5b60008173ffffffffffffffffffffffffffffffffffffffff16632420a3fa611a08856109de565b6040518263ffffffff1660e01b8152600401611a2491906147db565b60206040518083038186803b158015611a3c57600080fd5b505afa158015611a50573d6000803e3d6000fd5b505050506040513d601f19601f82011682018060405250611a749190810190613cb8565b11611ab4576040517f08c379a0000000000000000000000000000000000000000000000000000000008152600401611aab90614b50565b60405180910390fd5b600073ffffffffffffffffffffffffffffffffffffffff166038600089815260200190815260200160002060050160009054906101000a900473ffffffffffffffffffffffffffffffffffffffff1673ffffffffffffffffffffffffffffffffffffffff161415611b5a576040517f08c379a0000000000000000000000000000000000000000000000000000000008152600401611b5190614c10565b60405180910390fd5b600086600001515111611ba2576040517f08c379a0000000000000000000000000000000000000000000000000000000008152600401611b9990614bd0565b60405180910390fd5b6000855111611be6576040517f08c379a0000000000000000000000000000000000000000000000000000000008152600401611bdd90614bf0565b60405180910390fd5b60008673__MusicLib______________________________639ba9fb4e90918a603760008a73ffffffffffffffffffffffffffffffffffffffff1673ffffffffffffffffffffffffffffffffffffffff168152602001908152602001600020546040518463ffffffff1660e01b8152600401611c6493929190614e09565b60206040518083038186803b158015611c7c57600080fd5b505af4158015611c90573d6000803e3d6000fd5b505050506040513d601f19601f82011682018060405250611cb49190810190613970565b9050611cc1818787612dfe565b506038600089815260200190815260200160002060050160009054906101000a900473ffffffffffffffffffffffffffffffffffffffff168760a0019073ffffffffffffffffffffffffffffffffffffffff16908173ffffffffffffffffffffffffffffffffffffffff168152505086603860008a81526020019081526020016000206000820151816000019080519060200190611d60929190613276565b506020820151816001019080519060200190611d7d929190613276565b5060408201518160020155606082015181600301556080820151816004019080519060200190611dae9291906132f6565b5060a08201518160050160006101000a81548173ffffffffffffffffffffffffffffffffffffffff021916908373ffffffffffffffffffffffffffffffffffffffff1602179055509050508660a0015173ffffffffffffffffffffffffffffffffffffffff168760400151897f766c2b398fc12ef36d5cfe0139d502b8daf1c828fbcbb12ead8250c4afebdb2f8a600001518b602001518c606001518d60800151604051611e5f9493929190614929565b60405180910390a45050505050505050565b60345481565b83816000801b821415611ebf576040517f08c379a0000000000000000000000000000000000000000000000000000000008152600401611eb690614b30565b60405180910390fd5b600073ffffffffffffffffffffffffffffffffffffffff168173ffffffffffffffffffffffffffffffffffffffff161415611f2f576040517f08c379a0000000000000000000000000000000000000000000000000000000008152600401611f2690614ce8565b60405180910390fd5b6000605760ff1683600060208110611f4357fe5b1a60f81b60f81c60ff161415611f91576038600084815260200190815260200160002060050160009054906101000a900473ffffffffffffffffffffffffffffffffffffffff169050611fee565b605260ff1683600060208110611fa357fe5b1a60f81b60f81c60ff161415611fed576039600084815260200190815260200160002060070160009054906101000a900473ffffffffffffffffffffffffffffffffffffffff1690505b5b600073ffffffffffffffffffffffffffffffffffffffff168173ffffffffffffffffffffffffffffffffffffffff16141561205e576040517f08c379a000000000000000000000000000000000000000000000000000000000815260040161205590614ad0565b60405180910390fd5b60008173ffffffffffffffffffffffffffffffffffffffff16632420a3fa612085856109de565b6040518263ffffffff1660e01b81526004016120a191906147db565b60206040518083038186803b1580156120b957600080fd5b505afa1580156120cd573d6000803e3d6000fd5b505050506040513d601f19601f820116820180604052506120f19190810190613cb8565b11612131576040517f08c379a000000000000000000000000000000000000000000000000000000000815260040161212890614b50565b60405180910390fd5b600086600001515111612179576040517f08c379a000000000000000000000000000000000000000000000000000000000815260040161217090614bd0565b60405180910390fd5b60008551116121bd576040517f08c379a00000000000000000000000000000000000000000000000000000000081526004016121b490614bf0565b60405180910390fd5b60008673__MusicLib______________________________635033c68190918a603760008a73ffffffffffffffffffffffffffffffffffffffff1673ffffffffffffffffffffffffffffffffffffffff168152602001908152602001600020546040518463ffffffff1660e01b815260040161223b93929190614d60565b60206040518083038186803b15801561225357600080fd5b505af4158015612267573d6000803e3d6000fd5b505050506040513d601f19601f8201168201806040525061228b9190810190613970565b9050612298818787612dfe565b506039600089815260200190815260200160002060070160009054906101000a900473ffffffffffffffffffffffffffffffffffffffff168760e0019073ffffffffffffffffffffffffffffffffffffffff16908173ffffffffffffffffffffffffffffffffffffffff168152505086603960008a81526020019081526020016000206000820151816000019080519060200190612337929190613276565b506020820151816001019080519060200190612354929190613276565b5060408201518160020155606082015181600301556080820151816004015560a082015181600501908051906020019061238f9291906132f6565b5060c08201518160060190805190602001906123ac929190613380565b5060e08201518160070160006101000a81548173ffffffffffffffffffffffffffffffffffffffff021916908373ffffffffffffffffffffffffffffffffffffffff1602179055509050506039600089815260200190815260200160002060070160009054906101000a900473ffffffffffffffffffffffffffffffffffffffff1673ffffffffffffffffffffffffffffffffffffffff168760400151897fc573b57a1bf817edeab708e5ec1ccfcdbb192b52307024861381ee3d89f01db48a600001518b602001518c606001518d608001518e60a001518f60c0015160405161249b969594939291906149e4565b60405180910390a45050505050505050565b60376020528060005260406000206000915090505481565b605281565b600084600001515111612512576040517f08c379a000000000000000000000000000000000000000000000000000000000815260040161250990614bd0565b60405180910390fd5b6000835111612556576040517f08c379a000000000000000000000000000000000000000000000000000000000815260040161254d90614bf0565b60405180910390fd5b600073ffffffffffffffffffffffffffffffffffffffff168173ffffffffffffffffffffffffffffffffffffffff1614156125c6576040517f08c379a00000000000000000000000000000000000000000000000000000000081526004016125bd90614b10565b60405180910390fd5b60008473__MusicLib______________________________6341f247a0909185603760008773ffffffffffffffffffffffffffffffffffffffff1673ffffffffffffffffffffffffffffffffffffffff168152602001908152602001600020546040518463ffffffff1660e01b815260040161264493929190614d08565b60206040518083038186803b15801561265c57600080fd5b505af4158015612670573d6000803e3d6000fd5b505050506040513d601f19601f820116820180604052506126949190810190613970565b90506000603660009054906101000a900473ffffffffffffffffffffffffffffffffffffffff1673ffffffffffffffffffffffffffffffffffffffff1663e97fac056126e1848887612dfe565b866040518363ffffffff1660e01b81526004016126ff92919061481f565b602060405180830381600087803b15801561271957600080fd5b505af115801561272d573d6000803e3d6000fd5b505050506040513d601f19601f8201168201806040525061275191908101906138b9565b9050808660e0019073ffffffffffffffffffffffffffffffffffffffff16908173ffffffffffffffffffffffffffffffffffffffff168152505060006127976052612fcc565b9050866039600083815260200190815260200160002060008201518160000190805190602001906127c9929190613276565b5060208201518160010190805190602001906127e6929190613276565b5060408201518160020155606082015181600301556080820151816004015560a08201518160050190805190602001906128219291906132f6565b5060c082015181600601908051906020019061283e929190613380565b5060e08201518160070160006101000a81548173ffffffffffffffffffffffffffffffffffffffff021916908373ffffffffffffffffffffffffffffffffffffffff1602179055509050508173ffffffffffffffffffffffffffffffffffffffff168760400151827f4274926b24cbc5e3b457f137031ac9d12493bf11a115bcf6ec44521bbbe15e298a600001518b602001518c606001518d608001518e60a001518f60c001516040516128f7969594939291906149e4565b60405180910390a450505050505050565b6039602052806000526040600020600091509050806000018054600181600116156101000203166002900480601f0160208091040260200160405190810160405280929190818152602001828054600181600116156101000203166002900480156129b45780601f10612989576101008083540402835291602001916129b4565b820191906000526020600020905b81548152906001019060200180831161299757829003601f168201915b505050505090806001018054600181600116156101000203166002900480601f016020809104026020016040519081016040528092919081815260200182805460018160011615610100020316600290048015612a525780601f10612a2757610100808354040283529160200191612a52565b820191906000526020600020905b815481529060010190602001808311612a3557829003601f168201915b5050505050908060020154908060030154908060040154908060070160009054906101000a900473ffffffffffffffffffffffffffffffffffffffff16905086565b60356020528060005260406000206000915054906101000a900460ff1681565b606060396000838152602001908152602001600020600501805480602002602001604051908101604052809291908181526020018280548015612b4c57602002820191906000526020600020905b8160009054906101000a900473ffffffffffffffffffffffffffffffffffffffff1673ffffffffffffffffffffffffffffffffffffffff1681526020019060010190808311612b02575b50505050509050919050565b603660009054906101000a900473ffffffffffffffffffffffffffffffffffffffff1681565b603360009054906101000a900473ffffffffffffffffffffffffffffffffffffffff1681565b600060019054906101000a900460ff1680612bc35750612bc2613088565b5b80612bda57506000809054906101000a900460ff16155b612c19576040517f08c379a0000000000000000000000000000000000000000000000000000000008152600401612c1090614bb0565b60405180910390fd5b60008060019054906101000a900460ff161590508015612c69576001600060016101000a81548160ff02191690831515021790555060016000806101000a81548160ff0219169083151502179055505b612c7283613099565b81603660006101000a81548173ffffffffffffffffffffffffffffffffffffffff021916908373ffffffffffffffffffffffffffffffffffffffff1602179055508015612cd45760008060016101000a81548160ff0219169083151502179055505b505050565b606060396000838152602001908152602001600020600601805480602002602001604051908101604052809291908181526020018280548015612d3b57602002820191906000526020600020905b815481526020019060010190808311612d27575b50505050509050919050565b6000603360009054906101000a900473ffffffffffffffffffffffffffffffffffffffff1673ffffffffffffffffffffffffffffffffffffffff1663fd2aa0b484846040518363ffffffff1660e01b8152600401612da69291906147f6565b60206040518083038186803b158015612dbe57600080fd5b505afa158015612dd2573d6000803e3d6000fd5b505050506040513d601f19601f82011682018060405250612df6919081019061391e565b905092915050565b60008060001b841415612e46576040517f08c379a0000000000000000000000000000000000000000000000000000000008152600401612e3d90614af0565b60405180910390fd5b6000835111612e8a576040517f08c379a0000000000000000000000000000000000000000000000000000000008152600401612e8190614c30565b60405180910390fd5b600073ffffffffffffffffffffffffffffffffffffffff168273ffffffffffffffffffffffffffffffffffffffff161415612efa576040517f08c379a0000000000000000000000000000000000000000000000000000000008152600401612ef190614c8c565b60405180910390fd5b603760008373ffffffffffffffffffffffffffffffffffffffff1673ffffffffffffffffffffffffffffffffffffffff16815260200190815260200160002060008154809291906001019190505550612f5584846000613114565b73ffffffffffffffffffffffffffffffffffffffff168273ffffffffffffffffffffffffffffffffffffffff1614612fc2576040517f08c379a0000000000000000000000000000000000000000000000000000000008152600401612fb990614b90565b60405180910390fd5b8190509392505050565b600080603460008154809291906001019190505560001b9050612fef818461318b565b90506035600082815260200190815260200160002060009054906101000a900460ff161561301c57600080fd5b60016035600083815260200190815260200160002060006101000a81548160ff0219169083151502179055507f8b222dfb61492c0e76f692ad8bec6f8ec75dda958c940fc804b24f453e64a6d38160405161307791906148ae565b60405180910390a180915050919050565b600080303b90506000811491505090565b80603360006101000a81548173ffffffffffffffffffffffffffffffffffffffff021916908373ffffffffffffffffffffffffffffffffffffffff1602179055507f43bb990ead28e2cb3ea8b26e045448500f1cd58ccf150c95dd8e7e14dd12b7fa8160405161310991906147db565b60405180910390a150565b60008060008061312486866131bd565b8093508194508295505050506001878484846040516000815260200160405260405161315394939291906148c9565b6020604051602081039080840390855afa158015613175573d6000803e3d6000fd5b5050506020604051035193505050509392505050565b60008160f81b7effffffffffffffffffffffffffffffffffffffffffffffffffffffffffffff19168317905092915050565b60008060008360410260208101860151925060408101860151915060ff60418201870151169350509250925092565b50805460018160011615610100020316600290046000825580601f106132125750613231565b601f01602090049060005260206000209081019061323091906133cd565b5b50565b508054600082559060005260206000209081019061325291906133cd565b50565b508054600082559060005260206000209081019061327391906133f2565b50565b828054600181600116156101000203166002900490600052602060002090601f016020900481019282601f106132b757805160ff19168380011785556132e5565b828001600101855582156132e5579182015b828111156132e45782518255916020019190600101906132c9565b5b5090506132f291906133cd565b5090565b82805482825590600052602060002090810192821561336f579160200282015b8281111561336e5782518260006101000a81548173ffffffffffffffffffffffffffffffffffffffff021916908373ffffffffffffffffffffffffffffffffffffffff16021790555091602001919060010190613316565b5b50905061337c9190613417565b5090565b8280548282559060005260206000209081019282156133bc579160200282015b828111156133bb5782518255916020019190600101906133a0565b5b5090506133c991906133f2565b5090565b6133ef91905b808211156133eb5760008160009055506001016133d3565b5090565b90565b61341491905b808211156134105760008160009055506001016133f8565b5090565b90565b61345791905b8082111561345357600081816101000a81549073ffffffffffffffffffffffffffffffffffffffff02191690555060010161341d565b5090565b90565b6000813590506134698161518a565b92915050565b60008151905061347e8161518a565b92915050565b600082601f83011261349557600080fd5b81356134a86134a382614ebd565b614e90565b915081818352602084019350602081019050838560208402820111156134cd57600080fd5b60005b838110156134fd57816134e3888261345a565b8452602084019350602083019250506001810190506134d0565b5050505092915050565b600082601f83011261351857600080fd5b813561352b61352682614ee5565b614e90565b9150818183526020840193506020810190508385602084028201111561355057600080fd5b60005b838110156135805781613566888261359f565b845260208401935060208301925050600181019050613553565b5050505092915050565b600081519050613599816151a1565b92915050565b6000813590506135ae816151b8565b92915050565b6000815190506135c3816151b8565b92915050565b600082601f8301126135da57600080fd5b81356135ed6135e882614f0d565b614e90565b9150808252602083016020830185838301111561360957600080fd5b613614838284615137565b50505092915050565b600082601f83011261362e57600080fd5b813561364161363c82614f39565b614e90565b9150808252602083016020830185838301111561365d57600080fd5b613668838284615137565b50505092915050565b6000610100828403121561368457600080fd5b61368f610100614e90565b9050600082013567ffffffffffffffff8111156136ab57600080fd5b6136b78482850161361d565b600083015250602082013567ffffffffffffffff8111156136d757600080fd5b6136e38482850161361d565b60208301525060406136f78482850161359f565b604083015250606061370b8482850161359f565b606083015250608061371f8482850161359f565b60808301525060a082013567ffffffffffffffff81111561373f57600080fd5b61374b84828501613484565b60a08301525060c082013567ffffffffffffffff81111561376b57600080fd5b61377784828501613507565b60c08301525060e061378b8482850161345a565b60e08301525092915050565b600060c082840312156137a957600080fd5b6137b360c0614e90565b9050600082013567ffffffffffffffff8111156137cf57600080fd5b6137db8482850161361d565b600083015250602082013567ffffffffffffffff8111156137fb57600080fd5b6138078482850161361d565b602083015250604061381b8482850161359f565b604083015250606061382f8482850161359f565b606083015250608082013567ffffffffffffffff81111561384f57600080fd5b61385b84828501613484565b60808301525060a061386f8482850161345a565b60a08301525092915050565b60008151905061388a816151cf565b92915050565b6000602082840312156138a257600080fd5b60006138b08482850161345a565b91505092915050565b6000602082840312156138cb57600080fd5b60006138d98482850161346f565b91505092915050565b600080604083850312156138f557600080fd5b60006139038582860161345a565b92505060206139148582860161345a565b9150509250929050565b60006020828403121561393057600080fd5b600061393e8482850161358a565b91505092915050565b60006020828403121561395957600080fd5b60006139678482850161359f565b91505092915050565b60006020828403121561398257600080fd5b6000613990848285016135b4565b91505092915050565b600080604083850312156139ac57600080fd5b60006139ba8582860161359f565b92505060206139cb8582860161345a565b9150509250929050565b6000806000606084860312156139ea57600080fd5b60006139f88682870161359f565b935050602084013567ffffffffffffffff811115613a1557600080fd5b613a21868287016135c9565b9250506040613a328682870161345a565b9150509250925092565b60008060008060808587031215613a5257600080fd5b6000613a608782880161359f565b945050602085013567ffffffffffffffff811115613a7d57600080fd5b613a8987828801613671565b935050604085013567ffffffffffffffff811115613aa657600080fd5b613ab2878288016135c9565b9250506060613ac38782880161345a565b91505092959194509250565b60008060008060808587031215613ae557600080fd5b6000613af38782880161359f565b945050602085013567ffffffffffffffff811115613b1057600080fd5b613b1c87828801613797565b935050604085013567ffffffffffffffff811115613b3957600080fd5b613b45878288016135c9565b9250506060613b568782880161345a565b91505092959194509250565b60008060008060808587031215613b7857600080fd5b600085013567ffffffffffffffff811115613b9257600080fd5b613b9e87828801613671565b945050602085013567ffffffffffffffff811115613bbb57600080fd5b613bc7878288016135c9565b935050604085013567ffffffffffffffff811115613be457600080fd5b613bf0878288016135c9565b9250506060613c018782880161345a565b91505092959194509250565b60008060008060808587031215613c2357600080fd5b600085013567ffffffffffffffff811115613c3d57600080fd5b613c4987828801613797565b945050602085013567ffffffffffffffff811115613c6657600080fd5b613c72878288016135c9565b935050604085013567ffffffffffffffff811115613c8f57600080fd5b613c9b878288016135c9565b9250506060613cac8782880161345a565b91505092959194509250565b600060208284031215613cca57600080fd5b6000613cd88482850161387b565b91505092915050565b6000613ced8383613d41565b60208301905092915050565b6000613d058383613d5f565b60208301905092915050565b6000613d1d8383613fb1565b60208301905092915050565b6000613d358383613fde565b60208301905092915050565b613d4a816150b4565b82525050565b613d59816150b4565b82525050565b613d68816150b4565b82525050565b6000613d7982614fb0565b613d83818561501b565b9350613d8e83614f75565b8060005b83811015613dbf578151613da68882613ce1565b9750613db183614ff4565b925050600181019050613d92565b5085935050505092915050565b6000613dd782614fa5565b613de1818561501b565b9350613dec83614f65565b8060005b83811015613e1d578151613e048882613ce1565b9750613e0f83614fe7565b925050600181019050613df0565b5085935050505092915050565b6000613e3582614fa5565b613e3f818561502c565b9350613e4a83614f65565b8060005b83811015613e7b578151613e628882613cf9565b9750613e6d83614fe7565b925050600181019050613e4e565b5085935050505092915050565b6000613e9382614fc6565b613e9d818561503d565b9350613ea883614f95565b8060005b83811015613ed9578151613ec08882613d11565b9750613ecb8361500e565b925050600181019050613eac565b5085935050505092915050565b6000613ef182614fbb565b613efb818561503d565b9350613f0683614f85565b8060005b83811015613f37578151613f1e8882613d11565b9750613f2983615001565b925050600181019050613f0a565b5085935050505092915050565b6000613f4f82614fbb565b613f59818561504e565b9350613f6483614f85565b8060005b83811015613f95578151613f7c8882613d29565b9750613f8783615001565b925050600181019050613f68565b5085935050505092915050565b613fab816150c6565b82525050565b613fba816150d2565b82525050565b613fc9816150d2565b82525050565b613fd8816150d2565b82525050565b613fe7816150d2565b82525050565b6000613ff882614fd1565b614002818561505f565b9350614012818560208601615146565b61401b81615179565b840191505092915050565b600061403182614fd1565b61403b8185615070565b935061404b818560208601615146565b61405481615179565b840191505092915050565b61406881615113565b82525050565b600061407982614fdc565b6140838185615081565b9350614093818560208601615146565b61409c81615179565b840191505092915050565b60006140b282614fdc565b6140bc81856150a3565b93506140cc818560208601615146565b6140d581615179565b840191505092915050565b60006140ed601183615092565b91507f72656769737465725265636f7264696e670000000000000000000000000000006000830152602082019050919050565b600061412d602083615081565b91507f6f776e657273686970436f6e74726163742063616e6e6f74206265207a65726f6000830152602082019050919050565b600061416d601483615081565b91507f686173682063616e6e6f7420626520656d7074790000000000000000000000006000830152602082019050919050565b60006141ad601283615081565b91507f7369676e657220697320726571756972656400000000000000000000000000006000830152602082019050919050565b60006141ed601583615081565b91507f70726f6a656374496420697320726571756972656400000000000000000000006000830152602082019050919050565b600061422d600c83615092565b91507f7265676973746572576f726b00000000000000000000000000000000000000006000830152602082019050919050565b600061426d601a83615081565b91507f73656e646572206d7573742068617665206f776e6572736869700000000000006000830152602082019050919050565b60006142ad603183615081565b91507f307830204964656e74697479206973206e6f7420616c6c6f77656420746f207060008301527f6572666f726d20616e7920616374696f6e0000000000000000000000000000006020830152604082019050919050565b6000614313602e83615081565b91507f4d65737361676520686173206e6f74206265656e207369676e65642070726f7060008301527f65726c79206279207369676e65720000000000000000000000000000000000006020830152604082019050919050565b6000614379602e83615081565b91507f436f6e747261637420696e7374616e63652068617320616c726561647920626560008301527f656e20696e697469616c697a65640000000000000000000000000000000000006020830152604082019050919050565b60006143df601a83615081565b91507f6d657461646174612e7469746c652069732072657175697265640000000000006000830152602082019050919050565b600061441f601583615081565b91507f7369676e617475726520697320726571756972656400000000000000000000006000830152602082019050919050565b600061445f600f83615081565b91507f576f726b206d75737420657869737400000000000000000000000000000000006000830152602082019050919050565b600061449f601983615081565b91507f7369676e61747572652063616e6e6f7420626520656d707479000000000000006000830152602082019050919050565b60006144df600a83615092565b91507f72656d6f7665576f726b000000000000000000000000000000000000000000006000830152602082019050919050565b600061451f600a83615092565b91507f757064617465576f726b000000000000000000000000000000000000000000006000830152602082019050919050565b600061455f601e83615081565b91507f7369676e657220616464726573732063616e6e6f7420626520656d70747900006000830152602082019050919050565b600061459f600f83615092565b91507f72656d6f76655265636f7264696e6700000000000000000000000000000000006000830152602082019050919050565b60006145df600f83615092565b91507f7570646174655265636f7264696e6700000000000000000000000000000000006000830152602082019050919050565b600061461f601283615081565b91507f73656e64657220697320726571756972656400000000000000000000000000006000830152602082019050919050565b600061010083016000830151848203600086015261467082826140a7565b9150506020830151848203602086015261468a82826140a7565b915050604083015161469f6040860182613fde565b5060608301516146b26060860182613fde565b5060808301516146c56080860182613fde565b5060a083015184820360a08601526146dd8282613e2a565b91505060c083015184820360c08601526146f78282613f44565b91505060e083015161470c60e0860182613d5f565b508091505092915050565b600060c083016000830151848203600086015261473482826140a7565b9150506020830151848203602086015261474e82826140a7565b91505060408301516147636040860182613fde565b5060608301516147766060860182613fde565b506080830151848203608086015261478e8282613e2a565b91505060a08301516147a360a0860182613d5f565b508091505092915050565b6147b7816150fc565b82525050565b6147c6816150fc565b82525050565b6147d581615106565b82525050565b60006020820190506147f06000830184613d50565b92915050565b600060408201905061480b6000830185613d50565b6148186020830184613d50565b9392505050565b60006040820190506148346000830185613d50565b81810360208301526148468184613fed565b90509392505050565b600060208201905081810360008301526148698184613d6e565b905092915050565b6000602082019050818103600083015261488b8184613e88565b905092915050565b60006020820190506148a86000830184613fa2565b92915050565b60006020820190506148c36000830184613fc0565b92915050565b60006080820190506148de6000830187613fc0565b6148eb60208301866147cc565b6148f86040830185613fc0565b6149056060830184613fc0565b95945050505050565b6000602082019050614923600083018461405f565b92915050565b60006080820190508181036000830152614943818761406e565b90508181036020830152614957818661406e565b90506149666040830185613fc0565b81810360608301526149788184613dcc565b905095945050505050565b600060a082019050818103600083015261499d818861406e565b905081810360208301526149b1818761406e565b90506149c06040830186613fc0565b6149cd6060830185613fc0565b6149da6080830184613d50565b9695505050505050565b600060c08201905081810360008301526149fe818961406e565b90508181036020830152614a12818861406e565b9050614a216040830187613fc0565b614a2e6060830186613fc0565b8181036080830152614a408185613dcc565b905081810360a0830152614a548184613ee6565b9050979650505050505050565b600060c0820190508181036000830152614a7b818961406e565b90508181036020830152614a8f818861406e565b9050614a9e6040830187613fc0565b614aab6060830186613fc0565b614ab86080830185613fc0565b614ac560a0830184613d50565b979650505050505050565b60006020820190508181036000830152614ae981614120565b9050919050565b60006020820190508181036000830152614b0981614160565b9050919050565b60006020820190508181036000830152614b29816141a0565b9050919050565b60006020820190508181036000830152614b49816141e0565b9050919050565b60006020820190508181036000830152614b6981614260565b9050919050565b60006020820190508181036000830152614b89816142a0565b9050919050565b60006020820190508181036000830152614ba981614306565b9050919050565b60006020820190508181036000830152614bc98161436c565b9050919050565b60006020820190508181036000830152614be9816143d2565b9050919050565b60006020820190508181036000830152614c0981614412565b9050919050565b60006020820190508181036000830152614c2981614452565b9050919050565b60006020820190508181036000830152614c4981614492565b9050919050565b60006060820190508181036000830152614c69816144d2565b9050614c786020830185613fcf565b614c8560408301846147bd565b9392505050565b60006020820190508181036000830152614ca581614552565b9050919050565b60006060820190508181036000830152614cc581614592565b9050614cd46020830185613fcf565b614ce160408301846147bd565b9392505050565b60006020820190508181036000830152614d0181614612565b9050919050565b60006080820190508181036000830152614d228186614652565b90508181036020830152614d35816140e0565b90508181036040830152614d498185614026565b9050614d5860608301846147bd565b949350505050565b60006080820190508181036000830152614d7a8186614652565b90508181036020830152614d8d816145d2565b9050614d9c6040830185613fcf565b614da960608301846147bd565b949350505050565b60006080820190508181036000830152614dcb8186614717565b90508181036020830152614dde81614220565b90508181036040830152614df28185614026565b9050614e0160608301846147bd565b949350505050565b60006080820190508181036000830152614e238186614717565b90508181036020830152614e3681614512565b9050614e456040830185613fcf565b614e5260608301846147bd565b949350505050565b6000602082019050614e6f60008301846147ae565b92915050565b6000602082019050614e8a60008301846147cc565b92915050565b6000604051905081810181811067ffffffffffffffff82111715614eb357600080fd5b8060405250919050565b600067ffffffffffffffff821115614ed457600080fd5b602082029050602081019050919050565b600067ffffffffffffffff821115614efc57600080fd5b602082029050602081019050919050565b600067ffffffffffffffff821115614f2457600080fd5b601f19601f8301169050602081019050919050565b600067ffffffffffffffff821115614f5057600080fd5b601f19601f8301169050602081019050919050565b6000819050602082019050919050565b6000819050602082019050919050565b6000819050602082019050919050565b6000819050602082019050919050565b600081519050919050565b600081519050919050565b600081519050919050565b600081519050919050565b600081519050919050565b600081519050919050565b6000602082019050919050565b6000602082019050919050565b6000602082019050919050565b6000602082019050919050565b600082825260208201905092915050565b600082825260208201905092915050565b600082825260208201905092915050565b600082825260208201905092915050565b600082825260208201905092915050565b600082825260208201905092915050565b600082825260208201905092915050565b600082825260208201905092915050565b600082825260208201905092915050565b60006150bf826150dc565b9050919050565b60008115159050919050565b6000819050919050565b600073ffffffffffffffffffffffffffffffffffffffff82169050919050565b6000819050919050565b600060ff82169050919050565b600061511e82615125565b9050919050565b6000615130826150dc565b9050919050565b82818337600083830152505050565b60005b83811015615164578082015181840152602081019050615149565b83811115615173576000848401525b50505050565b6000601f19601f8301169050919050565b615193816150b4565b811461519e57600080fd5b50565b6151aa816150c6565b81146151b557600080fd5b50565b6151c1816150d2565b81146151cc57600080fd5b50565b6151d8816150fc565b81146151e357600080fd5b5056fea365627a7a72305820b3251fa0c890d593e0aaacb1f85cbef1a73f66b86f42e659c20a7a9c078e1b616c6578706572696d656e74616cf564736f6c634300050a0040",
  "source": "pragma solidity >=0.5.0 <0.6.0;\npragma experimental \"ABIEncoderV2\";\n\n\nimport \"zos-lib/contracts/Initializable.sol\";\nimport \"./interface/OwnershipRoyaltiesAgreementsI.sol\";\nimport \"./interface/ProxyFactoryI.sol\";\nimport \"./UUIDCounter.sol\";\nimport \"./EthereumDIDResolver.sol\";\nimport \"./SignatureDecoder.sol\";\nimport \"./library/MusicLib.sol\";\n\n/**\n * @title Music Registry Smart Contract\n *\n * @dev Smart Contract that stores Compositions and Recordings metadata. Data stored is\n *      bassed on Open Music Initiative API.\n *\n * See https://omi01.docs.apiary.io/#reference/work-related-apis/works-collection/register-a-work\n *\n */\ncontract MusicRegistry is Initializable, EthereumDIDResolver, UUIDCounter, SignatureDecoder {\n\n    using MusicLib for MusicLib.Work;\n    using MusicLib for MusicLib.Recording;\n\n    uint8 public constant WORK_FLAG = 87;\n    uint8 public constant RECORDING_FLAG = 82;\n\n    ProxyFactoryI public proxyFactory;\n\n    mapping(address => uint256) public nonce;\n\n    mapping(bytes32 => MusicLib.Work) public works;\n\n    event WorkRegistered(\n        bytes32 indexed workId,\n        string title,\n        string titleSoundRecording,\n        bytes32 indexed iswc,\n        bytes32 territory,\n        address[] publishers,\n        address indexed ownershipContract);\n\n    event WorkUpdated(\n        bytes32 indexed workId,\n        string title,\n        string titleSoundRecording,\n        bytes32 indexed iswc,\n        bytes32 territory,\n        address[] publishers,\n        address indexed ownershipContract);\n\n    event WorkRemoved(bytes32 workId);\n\n    mapping(bytes32 => MusicLib.Recording) public recordings;\n\n    event RecordingRegistered(\n        bytes32 indexed recordingId,\n        string title,\n        string versionTitle,\n        bytes32 indexed isrc,\n        bytes32 territory,\n        bytes32 album_upc,\n        address[] labels,\n        bytes32[] workIds,\n        address indexed ownershipContract);\n\n    event RecordingUpdated(\n        bytes32 indexed recordingId,\n        string title,\n        string versionTitle,\n        bytes32 indexed isrc,\n        bytes32 territory,\n        bytes32 album_upc,\n        address[] labels,\n        bytes32[] workIds,\n        address indexed ownershipContract);\n\n    event RecordingRemoved(bytes32 recordingId);\n\n\n    modifier onlyOwner(bytes32 projectId, address sender) {\n        require(projectId != bytes32(0), \"projectId is required\");\n        require(sender != address(0), \"sender is required\");\n\n        address ownershipContract;\n        if (uint8(projectId[0]) == WORK_FLAG)\n            ownershipContract = works[projectId].ownershipContract;\n        else if (uint8(projectId[0]) == RECORDING_FLAG)\n            ownershipContract = recordings[projectId].ownershipContract;\n        require(ownershipContract != address(0), 'ownershipContract cannot be zero');\n        require(OwnershipRoyaltiesAgreementsI(ownershipContract)\n            .balanceOfOwnership(getIdentity(sender)) > 0, 'sender must have ownership');\n        _;\n    }\n\n    function init(address ethDIDAddress, address factory) public initializer {\n        setRegistry(ethDIDAddress);\n        proxyFactory = ProxyFactoryI(factory);\n    }\n\n    function isOwner(bytes32 projectId, address sender)\n        public\n        view\n        onlyOwner(projectId, sender)\n        returns (bool)\n    {\n        return true;\n    }\n\n    function getPublishers(bytes32 projectId) public view returns (address[] memory) {\n        return works[projectId].publishers;\n    }\n\n    function getLabels(bytes32 projectId) public view returns (address[] memory) {\n        return recordings[projectId].labels;\n    }\n\n    function getWorkIds(bytes32 projectId) public view returns (bytes32[] memory) {\n        return recordings[projectId].workIds;\n    }\n\n    function registerWork(\n        MusicLib.Work memory metadata,\n        bytes memory signature,\n        bytes memory data,\n        address signer\n    ) public {\n        require(bytes(metadata.title).length > 0, \"metadata.title is required\");\n        // require(bytes(metadata.titleSoundRecording).length > 0, \"metadata.titleSoundRecording is required\");\n        require(signature.length > 0, \"signature is required\");\n        require(signer != address(0), \"signer is required\");\n\n        bytes32 hash = metadata.getWorkHash(\"registerWork\", data, nonce[signer]);\n        address admin = _validateSignature(hash, signature, signer);\n        address proxyAddress = proxyFactory.deploy(admin, data);\n        metadata.ownershipContract = proxyAddress;\n        bytes32 workId = newID(WORK_FLAG);\n        works[workId] = metadata;\n\n        emit WorkRegistered(\n            workId,\n            metadata.title,\n            metadata.titleSoundRecording,\n            metadata.iswc,\n            metadata.territory,\n            metadata.publishers,\n            proxyAddress);\n    }\n\n    function updateWork(\n        bytes32 workId,\n        MusicLib.Work memory metadata,\n        bytes memory signature,\n        address signer\n    ) public onlyOwner(workId, signer) {\n        require(works[workId].ownershipContract != address(0), 'Work must exist');\n        require(bytes(metadata.title).length > 0, \"metadata.title is required\");\n        // require(bytes(metadata.titleSoundRecording).length > 0, \"metadata.titleSoundRecording is required\");\n        require(signature.length > 0, \"signature is required\");\n\n        bytes32 hash = metadata.getWorkHash(\"updateWork\", workId, nonce[signer]);\n        _validateSignature(hash, signature, signer);\n        // do not allow for ownership contract address change\n        metadata.ownershipContract = works[workId].ownershipContract;\n        works[workId] = metadata;\n\n        emit WorkUpdated(\n            workId,\n            metadata.title,\n            metadata.titleSoundRecording,\n            metadata.iswc,\n            metadata.territory,\n            metadata.publishers,\n            metadata.ownershipContract);\n    }\n\n    function removeWork(bytes32 workId, bytes memory signature, address signer)\n        public\n        onlyOwner(workId, signer)\n    {\n        require(signature.length > 0, \"signature is required\");\n\n        bytes32 hash = MusicLib.getWorkHash(\"removeWork\", workId, nonce[signer]);\n        _validateSignature(hash, signature, signer);\n\n        delete works[workId];\n        emit WorkRemoved(workId);\n    }\n\n    function registerRecording(\n        MusicLib.Recording memory metadata,\n        bytes memory signature,\n        bytes memory data,\n        address signer\n    ) public {\n        require(bytes(metadata.title).length > 0, \"metadata.title is required\");\n        require(signature.length > 0, \"signature is required\");\n        require(signer != address(0), \"signer is required\");\n\n        // saving usage of variables as workaround for stack too deep error\n        bytes32 hash = metadata.getRecordingHash(\"registerRecording\", data, nonce[signer]);\n        address proxyAddress = proxyFactory.deploy(\n            _validateSignature(hash, signature, signer),\n            data\n        );\n        metadata.ownershipContract = proxyAddress;\n        bytes32 recordingId = newID(RECORDING_FLAG);\n        recordings[recordingId] = metadata;\n\n        emit RecordingRegistered(\n            recordingId,\n            metadata.title,\n            metadata.versionTitle,\n            metadata.isrc,\n            metadata.territory,\n            metadata.album_upc,\n            metadata.labels,\n            metadata.workIds,\n            proxyAddress);\n    }\n\n    function updateRecording(\n        bytes32 recordingId,\n        MusicLib.Recording memory metadata,\n        bytes memory signature,\n        address signer\n    ) public onlyOwner(recordingId, signer) {\n        require(bytes(metadata.title).length > 0, \"metadata.title is required\");\n        require(signature.length > 0, \"signature is required\");\n\n        bytes32 hash = metadata.getRecordingHash(\"updateRecording\", recordingId, nonce[signer]);\n        _validateSignature(hash, signature, signer);\n        // do not allow for ownership contract address change\n        metadata.ownershipContract = recordings[recordingId].ownershipContract;\n        recordings[recordingId] = metadata;\n\n        emit RecordingUpdated(\n            recordingId,\n            metadata.title,\n            metadata.versionTitle,\n            metadata.isrc,\n            metadata.territory,\n            metadata.album_upc,\n            metadata.labels,\n            metadata.workIds,\n            recordings[recordingId].ownershipContract);\n    }\n\n    function removeRecording(bytes32 recordingId, bytes memory signature, address signer)\n        public\n        onlyOwner(recordingId, signer)\n    {\n        require(signature.length > 0, \"signature is required\");\n\n        bytes32 hash = MusicLib.getRecordingHash(\"removeRecording\", recordingId, nonce[signer]);\n        _validateSignature(hash, signature, signer);\n\n        delete recordings[recordingId];\n        emit RecordingRemoved(recordingId);\n    }\n\n    function _validateSignature(bytes32 hash, bytes memory signature, address signer)\n        internal\n        returns (address)\n    {\n        require(hash != bytes32(0), 'hash cannot be empty');\n        require(signature.length > 0, 'signature cannot be empty');\n        require(signer != address(0), 'signer address cannot be empty');\n\n        // 5k gas\n        nonce[signer]++;\n\n        // 5k gas\n        require(signer == recoverKey(hash, signature, 0),\n            'Message has not been signed properly by signer');\n\n        return signer;\n    }\n}\n",
  "sourcePath": "/Users/tom/www/music-smart-contracts/contracts/MusicRegistry.sol",
  "compiler": {
    "name": "solc",
    "version": "0.5.10+commit.5a6ea5b1.Emscripten.clang"
  },
  "schemaVersion": "3.0.11",
  "updatedAt": "2019-08-05T03:34:47.427Z",
  "devdoc": {
    "details": "Smart Contract that stores Compositions and Recordings metadata. Data stored is     bassed on Open Music Initiative API. * See https://omi01.docs.apiary.io/#reference/work-related-apis/works-collection/register-a-work ",
    "methods": {},
    "title": "Music Registry Smart Contract"
  },
  "userdoc": {
    "methods": {}
  }
}