{
  "contractName": "MusicRegistryPublic",
  "abi": [
    {
      "constant": true,
      "inputs": [],
      "name": "WORK_FLAG",
      "outputs": [
        {
          "name": "",
          "type": "uint8"
        }
      ],
      "payable": false,
      "stateMutability": "view",
      "type": "function"
    },
    {
      "constant": true,
      "inputs": [
        {
          "name": "projectId",
          "type": "bytes32"
        }
      ],
      "name": "getPublishers",
      "outputs": [
        {
          "name": "",
          "type": "address[]"
        }
      ],
      "payable": false,
      "stateMutability": "view",
      "type": "function"
    },
    {
      "constant": false,
      "inputs": [
        {
          "name": "recordingId",
          "type": "bytes32"
        },
        {
          "name": "signature",
          "type": "bytes"
        },
        {
          "name": "signer",
          "type": "address"
        }
      ],
      "name": "removeRecording",
      "outputs": [],
      "payable": false,
      "stateMutability": "nonpayable",
      "type": "function"
    },
    {
      "constant": true,
      "inputs": [
        {
          "name": "actor",
          "type": "address"
        }
      ],
      "name": "getIdentity",
      "outputs": [
        {
          "name": "",
          "type": "address"
        }
      ],
      "payable": false,
      "stateMutability": "view",
      "type": "function"
    },
    {
      "constant": true,
      "inputs": [
        {
          "name": "projectId",
          "type": "bytes32"
        },
        {
          "name": "sender",
          "type": "address"
        }
      ],
      "name": "isOwner",
      "outputs": [
        {
          "name": "",
          "type": "bool"
        }
      ],
      "payable": false,
      "stateMutability": "view",
      "type": "function"
    },
    {
      "constant": false,
      "inputs": [
        {
          "name": "workId",
          "type": "bytes32"
        },
        {
          "name": "signature",
          "type": "bytes"
        },
        {
          "name": "signer",
          "type": "address"
        }
      ],
      "name": "removeWork",
      "outputs": [],
      "payable": false,
      "stateMutability": "nonpayable",
      "type": "function"
    },
    {
      "constant": false,
      "inputs": [
        {
          "components": [
            {
              "name": "title",
              "type": "string"
            },
            {
              "name": "titleSoundRecording",
              "type": "string"
            },
            {
              "name": "iswc",
              "type": "bytes32"
            },
            {
              "name": "territory",
              "type": "bytes32"
            },
            {
              "name": "publishers",
              "type": "address[]"
            },
            {
              "name": "ownershipContract",
              "type": "address"
            }
          ],
          "name": "metadata",
          "type": "tuple"
        },
        {
          "name": "signature",
          "type": "bytes"
        },
        {
          "name": "data",
          "type": "bytes"
        },
        {
          "name": "signer",
          "type": "address"
        }
      ],
      "name": "registerWork",
      "outputs": [],
      "payable": false,
      "stateMutability": "nonpayable",
      "type": "function"
    },
    {
      "constant": true,
      "inputs": [
        {
          "name": "",
          "type": "bytes32"
        }
      ],
      "name": "works",
      "outputs": [
        {
          "name": "title",
          "type": "string"
        },
        {
          "name": "titleSoundRecording",
          "type": "string"
        },
        {
          "name": "iswc",
          "type": "bytes32"
        },
        {
          "name": "territory",
          "type": "bytes32"
        },
        {
          "name": "ownershipContract",
          "type": "address"
        }
      ],
      "payable": false,
      "stateMutability": "view",
      "type": "function"
    },
    {
      "constant": false,
      "inputs": [
        {
          "name": "workId",
          "type": "bytes32"
        },
        {
          "components": [
            {
              "name": "title",
              "type": "string"
            },
            {
              "name": "titleSoundRecording",
              "type": "string"
            },
            {
              "name": "iswc",
              "type": "bytes32"
            },
            {
              "name": "territory",
              "type": "bytes32"
            },
            {
              "name": "publishers",
              "type": "address[]"
            },
            {
              "name": "ownershipContract",
              "type": "address"
            }
          ],
          "name": "metadata",
          "type": "tuple"
        },
        {
          "name": "signature",
          "type": "bytes"
        },
        {
          "name": "signer",
          "type": "address"
        }
      ],
      "name": "updateWork",
      "outputs": [],
      "payable": false,
      "stateMutability": "nonpayable",
      "type": "function"
    },
    {
      "constant": true,
      "inputs": [],
      "name": "counter",
      "outputs": [
        {
          "name": "",
          "type": "uint256"
        }
      ],
      "payable": false,
      "stateMutability": "view",
      "type": "function"
    },
    {
      "constant": false,
      "inputs": [
        {
          "name": "recordingId",
          "type": "bytes32"
        },
        {
          "components": [
            {
              "name": "title",
              "type": "string"
            },
            {
              "name": "versionTitle",
              "type": "string"
            },
            {
              "name": "isrc",
              "type": "bytes32"
            },
            {
              "name": "territory",
              "type": "bytes32"
            },
            {
              "name": "album_upc",
              "type": "bytes32"
            },
            {
              "name": "labels",
              "type": "address[]"
            },
            {
              "name": "workIds",
              "type": "bytes32[]"
            },
            {
              "name": "ownershipContract",
              "type": "address"
            }
          ],
          "name": "metadata",
          "type": "tuple"
        },
        {
          "name": "signature",
          "type": "bytes"
        },
        {
          "name": "signer",
          "type": "address"
        }
      ],
      "name": "updateRecording",
      "outputs": [],
      "payable": false,
      "stateMutability": "nonpayable",
      "type": "function"
    },
    {
      "constant": true,
      "inputs": [
        {
          "name": "",
          "type": "address"
        }
      ],
      "name": "nonce",
      "outputs": [
        {
          "name": "",
          "type": "uint256"
        }
      ],
      "payable": false,
      "stateMutability": "view",
      "type": "function"
    },
    {
      "constant": true,
      "inputs": [],
      "name": "RECORDING_FLAG",
      "outputs": [
        {
          "name": "",
          "type": "uint8"
        }
      ],
      "payable": false,
      "stateMutability": "view",
      "type": "function"
    },
    {
      "constant": false,
      "inputs": [
        {
          "components": [
            {
              "name": "title",
              "type": "string"
            },
            {
              "name": "versionTitle",
              "type": "string"
            },
            {
              "name": "isrc",
              "type": "bytes32"
            },
            {
              "name": "territory",
              "type": "bytes32"
            },
            {
              "name": "album_upc",
              "type": "bytes32"
            },
            {
              "name": "labels",
              "type": "address[]"
            },
            {
              "name": "workIds",
              "type": "bytes32[]"
            },
            {
              "name": "ownershipContract",
              "type": "address"
            }
          ],
          "name": "metadata",
          "type": "tuple"
        },
        {
          "name": "signature",
          "type": "bytes"
        },
        {
          "name": "data",
          "type": "bytes"
        },
        {
          "name": "signer",
          "type": "address"
        }
      ],
      "name": "registerRecording",
      "outputs": [],
      "payable": false,
      "stateMutability": "nonpayable",
      "type": "function"
    },
    {
      "constant": true,
      "inputs": [
        {
          "name": "",
          "type": "bytes32"
        }
      ],
      "name": "recordings",
      "outputs": [
        {
          "name": "title",
          "type": "string"
        },
        {
          "name": "versionTitle",
          "type": "string"
        },
        {
          "name": "isrc",
          "type": "bytes32"
        },
        {
          "name": "territory",
          "type": "bytes32"
        },
        {
          "name": "album_upc",
          "type": "bytes32"
        },
        {
          "name": "ownershipContract",
          "type": "address"
        }
      ],
      "payable": false,
      "stateMutability": "view",
      "type": "function"
    },
    {
      "constant": true,
      "inputs": [
        {
          "name": "",
          "type": "bytes32"
        }
      ],
      "name": "usedUUIDs",
      "outputs": [
        {
          "name": "",
          "type": "bool"
        }
      ],
      "payable": false,
      "stateMutability": "view",
      "type": "function"
    },
    {
      "constant": true,
      "inputs": [
        {
          "name": "projectId",
          "type": "bytes32"
        }
      ],
      "name": "getLabels",
      "outputs": [
        {
          "name": "",
          "type": "address[]"
        }
      ],
      "payable": false,
      "stateMutability": "view",
      "type": "function"
    },
    {
      "constant": true,
      "inputs": [],
      "name": "proxyFactory",
      "outputs": [
        {
          "name": "",
          "type": "address"
        }
      ],
      "payable": false,
      "stateMutability": "view",
      "type": "function"
    },
    {
      "constant": true,
      "inputs": [],
      "name": "ethDIDReg",
      "outputs": [
        {
          "name": "",
          "type": "address"
        }
      ],
      "payable": false,
      "stateMutability": "view",
      "type": "function"
    },
    {
      "constant": false,
      "inputs": [
        {
          "name": "ethDIDAddress",
          "type": "address"
        },
        {
          "name": "factory",
          "type": "address"
        }
      ],
      "name": "init",
      "outputs": [],
      "payable": false,
      "stateMutability": "nonpayable",
      "type": "function"
    },
    {
      "constant": true,
      "inputs": [
        {
          "name": "projectId",
          "type": "bytes32"
        }
      ],
      "name": "getWorkIds",
      "outputs": [
        {
          "name": "",
          "type": "bytes32[]"
        }
      ],
      "payable": false,
      "stateMutability": "view",
      "type": "function"
    },
    {
      "constant": true,
      "inputs": [
        {
          "name": "identity",
          "type": "address"
        },
        {
          "name": "actor",
          "type": "address"
        }
      ],
      "name": "isIdentityOwner",
      "outputs": [
        {
          "name": "",
          "type": "bool"
        }
      ],
      "payable": false,
      "stateMutability": "view",
      "type": "function"
    },
    {
      "anonymous": false,
      "inputs": [
        {
          "indexed": true,
          "name": "workId",
          "type": "bytes32"
        },
        {
          "indexed": false,
          "name": "title",
          "type": "string"
        },
        {
          "indexed": false,
          "name": "titleSoundRecording",
          "type": "string"
        },
        {
          "indexed": true,
          "name": "iswc",
          "type": "bytes32"
        },
        {
          "indexed": false,
          "name": "territory",
          "type": "bytes32"
        },
        {
          "indexed": false,
          "name": "publishers",
          "type": "address[]"
        },
        {
          "indexed": true,
          "name": "ownershipContract",
          "type": "address"
        }
      ],
      "name": "WorkRegistered",
      "type": "event"
    },
    {
      "anonymous": false,
      "inputs": [
        {
          "indexed": true,
          "name": "workId",
          "type": "bytes32"
        },
        {
          "indexed": false,
          "name": "title",
          "type": "string"
        },
        {
          "indexed": false,
          "name": "titleSoundRecording",
          "type": "string"
        },
        {
          "indexed": true,
          "name": "iswc",
          "type": "bytes32"
        },
        {
          "indexed": false,
          "name": "territory",
          "type": "bytes32"
        },
        {
          "indexed": false,
          "name": "publishers",
          "type": "address[]"
        },
        {
          "indexed": true,
          "name": "ownershipContract",
          "type": "address"
        }
      ],
      "name": "WorkUpdated",
      "type": "event"
    },
    {
      "anonymous": false,
      "inputs": [
        {
          "indexed": false,
          "name": "workId",
          "type": "bytes32"
        }
      ],
      "name": "WorkRemoved",
      "type": "event"
    },
    {
      "anonymous": false,
      "inputs": [
        {
          "indexed": true,
          "name": "recordingId",
          "type": "bytes32"
        },
        {
          "indexed": false,
          "name": "title",
          "type": "string"
        },
        {
          "indexed": false,
          "name": "versionTitle",
          "type": "string"
        },
        {
          "indexed": true,
          "name": "isrc",
          "type": "bytes32"
        },
        {
          "indexed": false,
          "name": "territory",
          "type": "bytes32"
        },
        {
          "indexed": false,
          "name": "album_upc",
          "type": "bytes32"
        },
        {
          "indexed": false,
          "name": "labels",
          "type": "address[]"
        },
        {
          "indexed": false,
          "name": "workIds",
          "type": "bytes32[]"
        },
        {
          "indexed": true,
          "name": "ownershipContract",
          "type": "address"
        }
      ],
      "name": "RecordingRegistered",
      "type": "event"
    },
    {
      "anonymous": false,
      "inputs": [
        {
          "indexed": true,
          "name": "recordingId",
          "type": "bytes32"
        },
        {
          "indexed": false,
          "name": "title",
          "type": "string"
        },
        {
          "indexed": false,
          "name": "versionTitle",
          "type": "string"
        },
        {
          "indexed": true,
          "name": "isrc",
          "type": "bytes32"
        },
        {
          "indexed": false,
          "name": "territory",
          "type": "bytes32"
        },
        {
          "indexed": false,
          "name": "album_upc",
          "type": "bytes32"
        },
        {
          "indexed": false,
          "name": "labels",
          "type": "address[]"
        },
        {
          "indexed": false,
          "name": "workIds",
          "type": "bytes32[]"
        },
        {
          "indexed": true,
          "name": "ownershipContract",
          "type": "address"
        }
      ],
      "name": "RecordingUpdated",
      "type": "event"
    },
    {
      "anonymous": false,
      "inputs": [
        {
          "indexed": false,
          "name": "recordingId",
          "type": "bytes32"
        }
      ],
      "name": "RecordingRemoved",
      "type": "event"
    },
    {
      "anonymous": false,
      "inputs": [
        {
          "indexed": false,
          "name": "uuid",
          "type": "bytes32"
        }
      ],
      "name": "UUID",
      "type": "event"
    },
    {
      "anonymous": false,
      "inputs": [
        {
          "indexed": false,
          "name": "reg",
          "type": "address"
        }
      ],
      "name": "EthRegistrySet",
      "type": "event"
    },
    {
      "constant": false,
      "inputs": [
        {
          "name": "hash",
          "type": "bytes32"
        },
        {
          "name": "signature",
          "type": "bytes"
        },
        {
          "name": "signer",
          "type": "address"
        }
      ],
      "name": "validateSignature",
      "outputs": [
        {
          "name": "",
          "type": "address"
        }
      ],
      "payable": false,
      "stateMutability": "nonpayable",
      "type": "function"
    }
  ],
  "bytecode": "0x6080604052600160345534801561001557600080fd5b5061527a806100256000396000f3fe608060405234801561001057600080fd5b506004361061014d5760003560e01c806370ae92d2116100c3578063a14119991161007c578063a1411999146103dd578063c10f1a751461040d578063e71758131461042b578063f09a401614610449578063faf2edc114610465578063fd2aa0b4146104955761014d565b806370ae92d2146102de5780637810e19f1461030e5780638a6a25df1461033e57806392ca5ae41461035c57806396524c3b14610378578063977c9073146103ad5761014d565b80634fcaf892116101155780634fcaf8921461021c57806353e88f901461023857806356da50371461025457806357f655aa1461028857806361bc221a146102a45780636d352efb146102c25761014d565b806312f0dff61461015257806322bab537146101705780632c3d6428146101a05780632fea7b81146101bc5780633fb56671146101ec575b600080fd5b61015a6104c5565b6040516101679190614ec6565b60405180910390f35b61018a60048036036101859190810190613998565b6104ca565b60405161019791906148a0565b60405180910390f35b6101ba60048036036101b59190810190613a26565b61056e565b005b6101d660048036036101d191908101906138e1565b610a19565b6040516101e3919061482c565b60405180910390f35b610206600480360361020191908101906139ea565b610b42565b60405161021391906148e4565b60405180910390f35b61023660048036036102319190810190613a26565b610e0b565b005b610252600480360361024d9190810190613c5e565b61129e565b005b61026e60048036036102699190810190613998565b6116af565b60405161027f9594939291906149d4565b60405180910390f35b6102a2600480360361029d9190810190613b20565b611835565b005b6102ac611eac565b6040516102b99190614eab565b60405180910390f35b6102dc60048036036102d79190810190613a8d565b611eb2565b005b6102f860048036036102f391908101906138e1565b6124e8565b6040516103059190614eab565b60405180910390f35b61032860048036036103239190810190613a26565b612500565b604051610335919061482c565b60405180910390f35b610346612516565b6040516103539190614ec6565b60405180910390f35b61037660048036036103719190810190613bb3565b61251b565b005b610392600480360361038d9190810190613998565b612959565b6040516103a496959493929190614ab2565b60405180910390f35b6103c760048036036103c29190810190613998565b612ae5565b6040516103d491906148e4565b60405180910390f35b6103f760048036036103f29190810190613998565b612b05565b60405161040491906148a0565b60405180910390f35b610415612ba9565b604051610422919061495f565b60405180910390f35b610433612bcf565b604051610440919061482c565b60405180910390f35b610463600480360361045e9190810190613933565b612bf5565b005b61047f600480360361047a9190810190613998565b612d2a565b60405161048c91906148c2565b60405180910390f35b6104af60048036036104aa9190810190613933565b612d98565b6040516104bc91906148e4565b60405180910390f35b605781565b60606038600083815260200190815260200160002060040180548060200260200160405190810160405280929190818152602001828054801561056257602002820191906000526020600020905b8160009054906101000a900473ffffffffffffffffffffffffffffffffffffffff1673ffffffffffffffffffffffffffffffffffffffff1681526020019060010190808311610518575b50505050509050919050565b82816000801b8214156105b6576040517f08c379a00000000000000000000000000000000000000000000000000000000081526004016105ad90614b81565b60405180910390fd5b600073ffffffffffffffffffffffffffffffffffffffff168173ffffffffffffffffffffffffffffffffffffffff161415610626576040517f08c379a000000000000000000000000000000000000000000000000000000000815260040161061d90614d39565b60405180910390fd5b6000605760ff168360006020811061063a57fe5b1a60f81b60f81c60ff161415610688576038600084815260200190815260200160002060050160009054906101000a900473ffffffffffffffffffffffffffffffffffffffff1690506106e5565b605260ff168360006020811061069a57fe5b1a60f81b60f81c60ff1614156106e4576039600084815260200190815260200160002060070160009054906101000a900473ffffffffffffffffffffffffffffffffffffffff1690505b5b600073ffffffffffffffffffffffffffffffffffffffff168173ffffffffffffffffffffffffffffffffffffffff161415610755576040517f08c379a000000000000000000000000000000000000000000000000000000000815260040161074c90614b21565b60405180910390fd5b60008173ffffffffffffffffffffffffffffffffffffffff16632420a3fa61077c85610a19565b6040518263ffffffff1660e01b8152600401610798919061482c565b60206040518083038186803b1580156107b057600080fd5b505afa1580156107c4573d6000803e3d6000fd5b505050506040513d601f19601f820116820180604052506107e89190810190613d09565b11610828576040517f08c379a000000000000000000000000000000000000000000000000000000000815260040161081f90614ba1565b60405180910390fd5b600085511161086c576040517f08c379a000000000000000000000000000000000000000000000000000000000815260040161086390614c41565b60405180910390fd5b600073__MusicLib______________________________6334f27c8088603760008973ffffffffffffffffffffffffffffffffffffffff1673ffffffffffffffffffffffffffffffffffffffff168152602001908152602001600020546040518363ffffffff1660e01b81526004016108e6929190614cfd565b60206040518083038186803b1580156108fe57600080fd5b505af4158015610912573d6000803e3d6000fd5b505050506040513d601f19601f8201168201806040525061093691908101906139c1565b9050610943818787612e4f565b506039600088815260200190815260200160002060008082016000610968919061323d565b600182016000610978919061323d565b6002820160009055600382016000905560048201600090556005820160006109a09190613285565b6006820160006109b091906132a6565b6007820160006101000a81549073ffffffffffffffffffffffffffffffffffffffff021916905550507f75ca86a1b05fc26f4d5f87a8f1f717519006df2c556770243d136f2dafe908bc87604051610a0891906148ff565b60405180910390a150505050505050565b600080603360009054906101000a900473ffffffffffffffffffffffffffffffffffffffff1673ffffffffffffffffffffffffffffffffffffffff16632fea7b81846040518263ffffffff1660e01b8152600401610a77919061482c565b60206040518083038186803b158015610a8f57600080fd5b505afa158015610aa3573d6000803e3d6000fd5b505050506040513d601f19601f82011682018060405250610ac7919081019061390a565b9050600073ffffffffffffffffffffffffffffffffffffffff168173ffffffffffffffffffffffffffffffffffffffff161415610b39576040517f08c379a0000000000000000000000000000000000000000000000000000000008152600401610b3090614bc1565b60405180910390fd5b80915050919050565b600082826000801b821415610b8c576040517f08c379a0000000000000000000000000000000000000000000000000000000008152600401610b8390614b81565b60405180910390fd5b600073ffffffffffffffffffffffffffffffffffffffff168173ffffffffffffffffffffffffffffffffffffffff161415610bfc576040517f08c379a0000000000000000000000000000000000000000000000000000000008152600401610bf390614d39565b60405180910390fd5b6000605760ff1683600060208110610c1057fe5b1a60f81b60f81c60ff161415610c5e576038600084815260200190815260200160002060050160009054906101000a900473ffffffffffffffffffffffffffffffffffffffff169050610cbb565b605260ff1683600060208110610c7057fe5b1a60f81b60f81c60ff161415610cba576039600084815260200190815260200160002060070160009054906101000a900473ffffffffffffffffffffffffffffffffffffffff1690505b5b600073ffffffffffffffffffffffffffffffffffffffff168173ffffffffffffffffffffffffffffffffffffffff161415610d2b576040517f08c379a0000000000000000000000000000000000000000000000000000000008152600401610d2290614b21565b60405180910390fd5b60008173ffffffffffffffffffffffffffffffffffffffff16632420a3fa610d5285610a19565b6040518263ffffffff1660e01b8152600401610d6e919061482c565b60206040518083038186803b158015610d8657600080fd5b505afa158015610d9a573d6000803e3d6000fd5b505050506040513d601f19601f82011682018060405250610dbe9190810190613d09565b11610dfe576040517f08c379a0000000000000000000000000000000000000000000000000000000008152600401610df590614ba1565b60405180910390fd5b6001935050505092915050565b82816000801b821415610e53576040517f08c379a0000000000000000000000000000000000000000000000000000000008152600401610e4a90614b81565b60405180910390fd5b600073ffffffffffffffffffffffffffffffffffffffff168173ffffffffffffffffffffffffffffffffffffffff161415610ec3576040517f08c379a0000000000000000000000000000000000000000000000000000000008152600401610eba90614d39565b60405180910390fd5b6000605760ff1683600060208110610ed757fe5b1a60f81b60f81c60ff161415610f25576038600084815260200190815260200160002060050160009054906101000a900473ffffffffffffffffffffffffffffffffffffffff169050610f82565b605260ff1683600060208110610f3757fe5b1a60f81b60f81c60ff161415610f81576039600084815260200190815260200160002060070160009054906101000a900473ffffffffffffffffffffffffffffffffffffffff1690505b5b600073ffffffffffffffffffffffffffffffffffffffff168173ffffffffffffffffffffffffffffffffffffffff161415610ff2576040517f08c379a0000000000000000000000000000000000000000000000000000000008152600401610fe990614b21565b60405180910390fd5b60008173ffffffffffffffffffffffffffffffffffffffff16632420a3fa61101985610a19565b6040518263ffffffff1660e01b8152600401611035919061482c565b60206040518083038186803b15801561104d57600080fd5b505afa158015611061573d6000803e3d6000fd5b505050506040513d601f19601f820116820180604052506110859190810190613d09565b116110c5576040517f08c379a00000000000000000000000000000000000000000000000000000000081526004016110bc90614ba1565b60405180910390fd5b6000855111611109576040517f08c379a000000000000000000000000000000000000000000000000000000000815260040161110090614c41565b60405180910390fd5b600073__MusicLib______________________________63de3ca29688603760008973ffffffffffffffffffffffffffffffffffffffff1673ffffffffffffffffffffffffffffffffffffffff168152602001908152602001600020546040518363ffffffff1660e01b8152600401611183929190614ca1565b60206040518083038186803b15801561119b57600080fd5b505af41580156111af573d6000803e3d6000fd5b505050506040513d601f19601f820116820180604052506111d391908101906139c1565b90506111e0818787612e4f565b506038600088815260200190815260200160002060008082016000611205919061323d565b600182016000611215919061323d565b600282016000905560038201600090556004820160006112359190613285565b6005820160006101000a81549073ffffffffffffffffffffffffffffffffffffffff021916905550507f4a49bc9996686e18feec23b502027cce21e8edf8d6685bec56e8f5a070fdd73d8760405161128d91906148ff565b60405180910390a150505050505050565b6000846000015151116112e6576040517f08c379a00000000000000000000000000000000000000000000000000000000081526004016112dd90614c21565b60405180910390fd5b600083511161132a576040517f08c379a000000000000000000000000000000000000000000000000000000000815260040161132190614c41565b60405180910390fd5b600073ffffffffffffffffffffffffffffffffffffffff168173ffffffffffffffffffffffffffffffffffffffff16141561139a576040517f08c379a000000000000000000000000000000000000000000000000000000000815260040161139190614b61565b60405180910390fd5b60008473__MusicLib______________________________63877295e3909185603760008773ffffffffffffffffffffffffffffffffffffffff1673ffffffffffffffffffffffffffffffffffffffff168152602001908152602001600020546040518463ffffffff1660e01b815260040161141893929190614e02565b60206040518083038186803b15801561143057600080fd5b505af4158015611444573d6000803e3d6000fd5b505050506040513d601f19601f8201168201806040525061146891908101906139c1565b90506000611477828685612e4f565b90506000603660009054906101000a900473ffffffffffffffffffffffffffffffffffffffff1673ffffffffffffffffffffffffffffffffffffffff1663e97fac0583876040518363ffffffff1660e01b81526004016114d8929190614870565b602060405180830381600087803b1580156114f257600080fd5b505af1158015611506573d6000803e3d6000fd5b505050506040513d601f19601f8201168201806040525061152a919081019061390a565b9050808760a0019073ffffffffffffffffffffffffffffffffffffffff16908173ffffffffffffffffffffffffffffffffffffffff16815250506000611570605761301d565b9050876038600083815260200190815260200160002060008201518160000190805190602001906115a29291906132c7565b5060208201518160010190805190602001906115bf9291906132c7565b50604082015181600201556060820151816003015560808201518160040190805190602001906115f0929190613347565b5060a08201518160050160006101000a81548173ffffffffffffffffffffffffffffffffffffffff021916908373ffffffffffffffffffffffffffffffffffffffff1602179055509050508173ffffffffffffffffffffffffffffffffffffffff168860400151827f536986f0d8d2607b9be527be5930cce11519189cb7d87901a0ce33d3b45cbd448b600001518c602001518d606001518e6080015160405161169d949392919061497a565b60405180910390a45050505050505050565b6038602052806000526040600020600091509050806000018054600181600116156101000203166002900480601f01602080910402602001604051908101604052809291908181526020018280546001816001161561010002031660029004801561175b5780601f106117305761010080835404028352916020019161175b565b820191906000526020600020905b81548152906001019060200180831161173e57829003601f168201915b505050505090806001018054600181600116156101000203166002900480601f0160208091040260200160405190810160405280929190818152602001828054600181600116156101000203166002900480156117f95780601f106117ce576101008083540402835291602001916117f9565b820191906000526020600020905b8154815290600101906020018083116117dc57829003601f168201915b5050505050908060020154908060030154908060050160009054906101000a900473ffffffffffffffffffffffffffffffffffffffff16905085565b83816000801b82141561187d576040517f08c379a000000000000000000000000000000000000000000000000000000000815260040161187490614b81565b60405180910390fd5b600073ffffffffffffffffffffffffffffffffffffffff168173ffffffffffffffffffffffffffffffffffffffff1614156118ed576040517f08c379a00000000000000000000000000000000000000000000000000000000081526004016118e490614d39565b60405180910390fd5b6000605760ff168360006020811061190157fe5b1a60f81b60f81c60ff16141561194f576038600084815260200190815260200160002060050160009054906101000a900473ffffffffffffffffffffffffffffffffffffffff1690506119ac565b605260ff168360006020811061196157fe5b1a60f81b60f81c60ff1614156119ab576039600084815260200190815260200160002060070160009054906101000a900473ffffffffffffffffffffffffffffffffffffffff1690505b5b600073ffffffffffffffffffffffffffffffffffffffff168173ffffffffffffffffffffffffffffffffffffffff161415611a1c576040517f08c379a0000000000000000000000000000000000000000000000000000000008152600401611a1390614b21565b60405180910390fd5b60008173ffffffffffffffffffffffffffffffffffffffff16632420a3fa611a4385610a19565b6040518263ffffffff1660e01b8152600401611a5f919061482c565b60206040518083038186803b158015611a7757600080fd5b505afa158015611a8b573d6000803e3d6000fd5b505050506040513d601f19601f82011682018060405250611aaf9190810190613d09565b11611aef576040517f08c379a0000000000000000000000000000000000000000000000000000000008152600401611ae690614ba1565b60405180910390fd5b600073ffffffffffffffffffffffffffffffffffffffff166038600089815260200190815260200160002060050160009054906101000a900473ffffffffffffffffffffffffffffffffffffffff1673ffffffffffffffffffffffffffffffffffffffff161415611b95576040517f08c379a0000000000000000000000000000000000000000000000000000000008152600401611b8c90614c61565b60405180910390fd5b600086600001515111611bdd576040517f08c379a0000000000000000000000000000000000000000000000000000000008152600401611bd490614c21565b60405180910390fd5b6000855111611c21576040517f08c379a0000000000000000000000000000000000000000000000000000000008152600401611c1890614c41565b60405180910390fd5b60008673__MusicLib______________________________639ba9fb4e90918a603760008a73ffffffffffffffffffffffffffffffffffffffff1673ffffffffffffffffffffffffffffffffffffffff168152602001908152602001600020546040518463ffffffff1660e01b8152600401611c9f93929190614e5a565b60206040518083038186803b158015611cb757600080fd5b505af4158015611ccb573d6000803e3d6000fd5b505050506040513d601f19601f82011682018060405250611cef91908101906139c1565b9050611cfc818787612e4f565b506038600089815260200190815260200160002060050160009054906101000a900473ffffffffffffffffffffffffffffffffffffffff168760a0019073ffffffffffffffffffffffffffffffffffffffff16908173ffffffffffffffffffffffffffffffffffffffff168152505086603860008a81526020019081526020016000206000820151816000019080519060200190611d9b9291906132c7565b506020820151816001019080519060200190611db89291906132c7565b5060408201518160020155606082015181600301556080820151816004019080519060200190611de9929190613347565b5060a08201518160050160006101000a81548173ffffffffffffffffffffffffffffffffffffffff021916908373ffffffffffffffffffffffffffffffffffffffff1602179055509050508660a0015173ffffffffffffffffffffffffffffffffffffffff168760400151897f766c2b398fc12ef36d5cfe0139d502b8daf1c828fbcbb12ead8250c4afebdb2f8a600001518b602001518c606001518d60800151604051611e9a949392919061497a565b60405180910390a45050505050505050565b60345481565b83816000801b821415611efa576040517f08c379a0000000000000000000000000000000000000000000000000000000008152600401611ef190614b81565b60405180910390fd5b600073ffffffffffffffffffffffffffffffffffffffff168173ffffffffffffffffffffffffffffffffffffffff161415611f6a576040517f08c379a0000000000000000000000000000000000000000000000000000000008152600401611f6190614d39565b60405180910390fd5b6000605760ff1683600060208110611f7e57fe5b1a60f81b60f81c60ff161415611fcc576038600084815260200190815260200160002060050160009054906101000a900473ffffffffffffffffffffffffffffffffffffffff169050612029565b605260ff1683600060208110611fde57fe5b1a60f81b60f81c60ff161415612028576039600084815260200190815260200160002060070160009054906101000a900473ffffffffffffffffffffffffffffffffffffffff1690505b5b600073ffffffffffffffffffffffffffffffffffffffff168173ffffffffffffffffffffffffffffffffffffffff161415612099576040517f08c379a000000000000000000000000000000000000000000000000000000000815260040161209090614b21565b60405180910390fd5b60008173ffffffffffffffffffffffffffffffffffffffff16632420a3fa6120c085610a19565b6040518263ffffffff1660e01b81526004016120dc919061482c565b60206040518083038186803b1580156120f457600080fd5b505afa158015612108573d6000803e3d6000fd5b505050506040513d601f19601f8201168201806040525061212c9190810190613d09565b1161216c576040517f08c379a000000000000000000000000000000000000000000000000000000000815260040161216390614ba1565b60405180910390fd5b6000866000015151116121b4576040517f08c379a00000000000000000000000000000000000000000000000000000000081526004016121ab90614c21565b60405180910390fd5b60008551116121f8576040517f08c379a00000000000000000000000000000000000000000000000000000000081526004016121ef90614c41565b60405180910390fd5b60008673__MusicLib______________________________635033c68190918a603760008a73ffffffffffffffffffffffffffffffffffffffff1673ffffffffffffffffffffffffffffffffffffffff168152602001908152602001600020546040518463ffffffff1660e01b815260040161227693929190614db1565b60206040518083038186803b15801561228e57600080fd5b505af41580156122a2573d6000803e3d6000fd5b505050506040513d601f19601f820116820180604052506122c691908101906139c1565b90506122d3818787612e4f565b506039600089815260200190815260200160002060070160009054906101000a900473ffffffffffffffffffffffffffffffffffffffff168760e0019073ffffffffffffffffffffffffffffffffffffffff16908173ffffffffffffffffffffffffffffffffffffffff168152505086603960008a815260200190815260200160002060008201518160000190805190602001906123729291906132c7565b50602082015181600101908051906020019061238f9291906132c7565b5060408201518160020155606082015181600301556080820151816004015560a08201518160050190805190602001906123ca929190613347565b5060c08201518160060190805190602001906123e79291906133d1565b5060e08201518160070160006101000a81548173ffffffffffffffffffffffffffffffffffffffff021916908373ffffffffffffffffffffffffffffffffffffffff1602179055509050506039600089815260200190815260200160002060070160009054906101000a900473ffffffffffffffffffffffffffffffffffffffff1673ffffffffffffffffffffffffffffffffffffffff168760400151897fc573b57a1bf817edeab708e5ec1ccfcdbb192b52307024861381ee3d89f01db48a600001518b602001518c606001518d608001518e60a001518f60c001516040516124d696959493929190614a35565b60405180910390a45050505050505050565b60376020528060005260406000206000915090505481565b600061250d848484612e4f565b90509392505050565b605281565b600084600001515111612563576040517f08c379a000000000000000000000000000000000000000000000000000000000815260040161255a90614c21565b60405180910390fd5b60008351116125a7576040517f08c379a000000000000000000000000000000000000000000000000000000000815260040161259e90614c41565b60405180910390fd5b600073ffffffffffffffffffffffffffffffffffffffff168173ffffffffffffffffffffffffffffffffffffffff161415612617576040517f08c379a000000000000000000000000000000000000000000000000000000000815260040161260e90614b61565b60405180910390fd5b60008473__MusicLib______________________________6341f247a0909185603760008773ffffffffffffffffffffffffffffffffffffffff1673ffffffffffffffffffffffffffffffffffffffff168152602001908152602001600020546040518463ffffffff1660e01b815260040161269593929190614d59565b60206040518083038186803b1580156126ad57600080fd5b505af41580156126c1573d6000803e3d6000fd5b505050506040513d601f19601f820116820180604052506126e591908101906139c1565b90506000603660009054906101000a900473ffffffffffffffffffffffffffffffffffffffff1673ffffffffffffffffffffffffffffffffffffffff1663e97fac05612732848887612e4f565b866040518363ffffffff1660e01b8152600401612750929190614870565b602060405180830381600087803b15801561276a57600080fd5b505af115801561277e573d6000803e3d6000fd5b505050506040513d601f19601f820116820180604052506127a2919081019061390a565b9050808660e0019073ffffffffffffffffffffffffffffffffffffffff16908173ffffffffffffffffffffffffffffffffffffffff168152505060006127e8605261301d565b90508660396000838152602001908152602001600020600082015181600001908051906020019061281a9291906132c7565b5060208201518160010190805190602001906128379291906132c7565b5060408201518160020155606082015181600301556080820151816004015560a0820151816005019080519060200190612872929190613347565b5060c082015181600601908051906020019061288f9291906133d1565b5060e08201518160070160006101000a81548173ffffffffffffffffffffffffffffffffffffffff021916908373ffffffffffffffffffffffffffffffffffffffff1602179055509050508173ffffffffffffffffffffffffffffffffffffffff168760400151827f4274926b24cbc5e3b457f137031ac9d12493bf11a115bcf6ec44521bbbe15e298a600001518b602001518c606001518d608001518e60a001518f60c0015160405161294896959493929190614a35565b60405180910390a450505050505050565b6039602052806000526040600020600091509050806000018054600181600116156101000203166002900480601f016020809104026020016040519081016040528092919081815260200182805460018160011615610100020316600290048015612a055780601f106129da57610100808354040283529160200191612a05565b820191906000526020600020905b8154815290600101906020018083116129e857829003601f168201915b505050505090806001018054600181600116156101000203166002900480601f016020809104026020016040519081016040528092919081815260200182805460018160011615610100020316600290048015612aa35780601f10612a7857610100808354040283529160200191612aa3565b820191906000526020600020905b815481529060010190602001808311612a8657829003601f168201915b5050505050908060020154908060030154908060040154908060070160009054906101000a900473ffffffffffffffffffffffffffffffffffffffff16905086565b60356020528060005260406000206000915054906101000a900460ff1681565b606060396000838152602001908152602001600020600501805480602002602001604051908101604052809291908181526020018280548015612b9d57602002820191906000526020600020905b8160009054906101000a900473ffffffffffffffffffffffffffffffffffffffff1673ffffffffffffffffffffffffffffffffffffffff1681526020019060010190808311612b53575b50505050509050919050565b603660009054906101000a900473ffffffffffffffffffffffffffffffffffffffff1681565b603360009054906101000a900473ffffffffffffffffffffffffffffffffffffffff1681565b600060019054906101000a900460ff1680612c145750612c136130d9565b5b80612c2b57506000809054906101000a900460ff16155b612c6a576040517f08c379a0000000000000000000000000000000000000000000000000000000008152600401612c6190614c01565b60405180910390fd5b60008060019054906101000a900460ff161590508015612cba576001600060016101000a81548160ff02191690831515021790555060016000806101000a81548160ff0219169083151502179055505b612cc3836130ea565b81603660006101000a81548173ffffffffffffffffffffffffffffffffffffffff021916908373ffffffffffffffffffffffffffffffffffffffff1602179055508015612d255760008060016101000a81548160ff0219169083151502179055505b505050565b606060396000838152602001908152602001600020600601805480602002602001604051908101604052809291908181526020018280548015612d8c57602002820191906000526020600020905b815481526020019060010190808311612d78575b50505050509050919050565b6000603360009054906101000a900473ffffffffffffffffffffffffffffffffffffffff1673ffffffffffffffffffffffffffffffffffffffff1663fd2aa0b484846040518363ffffffff1660e01b8152600401612df7929190614847565b60206040518083038186803b158015612e0f57600080fd5b505afa158015612e23573d6000803e3d6000fd5b505050506040513d601f19601f82011682018060405250612e47919081019061396f565b905092915050565b60008060001b841415612e97576040517f08c379a0000000000000000000000000000000000000000000000000000000008152600401612e8e90614b41565b60405180910390fd5b6000835111612edb576040517f08c379a0000000000000000000000000000000000000000000000000000000008152600401612ed290614c81565b60405180910390fd5b600073ffffffffffffffffffffffffffffffffffffffff168273ffffffffffffffffffffffffffffffffffffffff161415612f4b576040517f08c379a0000000000000000000000000000000000000000000000000000000008152600401612f4290614cdd565b60405180910390fd5b603760008373ffffffffffffffffffffffffffffffffffffffff1673ffffffffffffffffffffffffffffffffffffffff16815260200190815260200160002060008154809291906001019190505550612fa684846000613165565b73ffffffffffffffffffffffffffffffffffffffff168273ffffffffffffffffffffffffffffffffffffffff1614613013576040517f08c379a000000000000000000000000000000000000000000000000000000000815260040161300a90614be1565b60405180910390fd5b8190509392505050565b600080603460008154809291906001019190505560001b905061304081846131dc565b90506035600082815260200190815260200160002060009054906101000a900460ff161561306d57600080fd5b60016035600083815260200190815260200160002060006101000a81548160ff0219169083151502179055507f8b222dfb61492c0e76f692ad8bec6f8ec75dda958c940fc804b24f453e64a6d3816040516130c891906148ff565b60405180910390a180915050919050565b600080303b90506000811491505090565b80603360006101000a81548173ffffffffffffffffffffffffffffffffffffffff021916908373ffffffffffffffffffffffffffffffffffffffff1602179055507f43bb990ead28e2cb3ea8b26e045448500f1cd58ccf150c95dd8e7e14dd12b7fa8160405161315a919061482c565b60405180910390a150565b600080600080613175868661320e565b809350819450829550505050600187848484604051600081526020016040526040516131a4949392919061491a565b6020604051602081039080840390855afa1580156131c6573d6000803e3d6000fd5b5050506020604051035193505050509392505050565b60008160f81b7effffffffffffffffffffffffffffffffffffffffffffffffffffffffffffff19168317905092915050565b60008060008360410260208101860151925060408101860151915060ff60418201870151169350509250925092565b50805460018160011615610100020316600290046000825580601f106132635750613282565b601f016020900490600052602060002090810190613281919061341e565b5b50565b50805460008255906000526020600020908101906132a3919061341e565b50565b50805460008255906000526020600020908101906132c49190613443565b50565b828054600181600116156101000203166002900490600052602060002090601f016020900481019282601f1061330857805160ff1916838001178555613336565b82800160010185558215613336579182015b8281111561333557825182559160200191906001019061331a565b5b509050613343919061341e565b5090565b8280548282559060005260206000209081019282156133c0579160200282015b828111156133bf5782518260006101000a81548173ffffffffffffffffffffffffffffffffffffffff021916908373ffffffffffffffffffffffffffffffffffffffff16021790555091602001919060010190613367565b5b5090506133cd9190613468565b5090565b82805482825590600052602060002090810192821561340d579160200282015b8281111561340c5782518255916020019190600101906133f1565b5b50905061341a9190613443565b5090565b61344091905b8082111561343c576000816000905550600101613424565b5090565b90565b61346591905b80821115613461576000816000905550600101613449565b5090565b90565b6134a891905b808211156134a457600081816101000a81549073ffffffffffffffffffffffffffffffffffffffff02191690555060010161346e565b5090565b90565b6000813590506134ba816151db565b92915050565b6000815190506134cf816151db565b92915050565b600082601f8301126134e657600080fd5b81356134f96134f482614f0e565b614ee1565b9150818183526020840193506020810190508385602084028201111561351e57600080fd5b60005b8381101561354e578161353488826134ab565b845260208401935060208301925050600181019050613521565b5050505092915050565b600082601f83011261356957600080fd5b813561357c61357782614f36565b614ee1565b915081818352602084019350602081019050838560208402820111156135a157600080fd5b60005b838110156135d157816135b788826135f0565b8452602084019350602083019250506001810190506135a4565b5050505092915050565b6000815190506135ea816151f2565b92915050565b6000813590506135ff81615209565b92915050565b60008151905061361481615209565b92915050565b600082601f83011261362b57600080fd5b813561363e61363982614f5e565b614ee1565b9150808252602083016020830185838301111561365a57600080fd5b613665838284615188565b50505092915050565b600082601f83011261367f57600080fd5b813561369261368d82614f8a565b614ee1565b915080825260208301602083018583830111156136ae57600080fd5b6136b9838284615188565b50505092915050565b600061010082840312156136d557600080fd5b6136e0610100614ee1565b9050600082013567ffffffffffffffff8111156136fc57600080fd5b6137088482850161366e565b600083015250602082013567ffffffffffffffff81111561372857600080fd5b6137348482850161366e565b6020830152506040613748848285016135f0565b604083015250606061375c848285016135f0565b6060830152506080613770848285016135f0565b60808301525060a082013567ffffffffffffffff81111561379057600080fd5b61379c848285016134d5565b60a08301525060c082013567ffffffffffffffff8111156137bc57600080fd5b6137c884828501613558565b60c08301525060e06137dc848285016134ab565b60e08301525092915050565b600060c082840312156137fa57600080fd5b61380460c0614ee1565b9050600082013567ffffffffffffffff81111561382057600080fd5b61382c8482850161366e565b600083015250602082013567ffffffffffffffff81111561384c57600080fd5b6138588482850161366e565b602083015250604061386c848285016135f0565b6040830152506060613880848285016135f0565b606083015250608082013567ffffffffffffffff8111156138a057600080fd5b6138ac848285016134d5565b60808301525060a06138c0848285016134ab565b60a08301525092915050565b6000815190506138db81615220565b92915050565b6000602082840312156138f357600080fd5b6000613901848285016134ab565b91505092915050565b60006020828403121561391c57600080fd5b600061392a848285016134c0565b91505092915050565b6000806040838503121561394657600080fd5b6000613954858286016134ab565b9250506020613965858286016134ab565b9150509250929050565b60006020828403121561398157600080fd5b600061398f848285016135db565b91505092915050565b6000602082840312156139aa57600080fd5b60006139b8848285016135f0565b91505092915050565b6000602082840312156139d357600080fd5b60006139e184828501613605565b91505092915050565b600080604083850312156139fd57600080fd5b6000613a0b858286016135f0565b9250506020613a1c858286016134ab565b9150509250929050565b600080600060608486031215613a3b57600080fd5b6000613a49868287016135f0565b935050602084013567ffffffffffffffff811115613a6657600080fd5b613a728682870161361a565b9250506040613a83868287016134ab565b9150509250925092565b60008060008060808587031215613aa357600080fd5b6000613ab1878288016135f0565b945050602085013567ffffffffffffffff811115613ace57600080fd5b613ada878288016136c2565b935050604085013567ffffffffffffffff811115613af757600080fd5b613b038782880161361a565b9250506060613b14878288016134ab565b91505092959194509250565b60008060008060808587031215613b3657600080fd5b6000613b44878288016135f0565b945050602085013567ffffffffffffffff811115613b6157600080fd5b613b6d878288016137e8565b935050604085013567ffffffffffffffff811115613b8a57600080fd5b613b968782880161361a565b9250506060613ba7878288016134ab565b91505092959194509250565b60008060008060808587031215613bc957600080fd5b600085013567ffffffffffffffff811115613be357600080fd5b613bef878288016136c2565b945050602085013567ffffffffffffffff811115613c0c57600080fd5b613c188782880161361a565b935050604085013567ffffffffffffffff811115613c3557600080fd5b613c418782880161361a565b9250506060613c52878288016134ab565b91505092959194509250565b60008060008060808587031215613c7457600080fd5b600085013567ffffffffffffffff811115613c8e57600080fd5b613c9a878288016137e8565b945050602085013567ffffffffffffffff811115613cb757600080fd5b613cc38782880161361a565b935050604085013567ffffffffffffffff811115613ce057600080fd5b613cec8782880161361a565b9250506060613cfd878288016134ab565b91505092959194509250565b600060208284031215613d1b57600080fd5b6000613d29848285016138cc565b91505092915050565b6000613d3e8383613d92565b60208301905092915050565b6000613d568383613db0565b60208301905092915050565b6000613d6e8383614002565b60208301905092915050565b6000613d86838361402f565b60208301905092915050565b613d9b81615105565b82525050565b613daa81615105565b82525050565b613db981615105565b82525050565b6000613dca82615001565b613dd4818561506c565b9350613ddf83614fc6565b8060005b83811015613e10578151613df78882613d32565b9750613e0283615045565b925050600181019050613de3565b5085935050505092915050565b6000613e2882614ff6565b613e32818561506c565b9350613e3d83614fb6565b8060005b83811015613e6e578151613e558882613d32565b9750613e6083615038565b925050600181019050613e41565b5085935050505092915050565b6000613e8682614ff6565b613e90818561507d565b9350613e9b83614fb6565b8060005b83811015613ecc578151613eb38882613d4a565b9750613ebe83615038565b925050600181019050613e9f565b5085935050505092915050565b6000613ee482615017565b613eee818561508e565b9350613ef983614fe6565b8060005b83811015613f2a578151613f118882613d62565b9750613f1c8361505f565b925050600181019050613efd565b5085935050505092915050565b6000613f428261500c565b613f4c818561508e565b9350613f5783614fd6565b8060005b83811015613f88578151613f6f8882613d62565b9750613f7a83615052565b925050600181019050613f5b565b5085935050505092915050565b6000613fa08261500c565b613faa818561509f565b9350613fb583614fd6565b8060005b83811015613fe6578151613fcd8882613d7a565b9750613fd883615052565b925050600181019050613fb9565b5085935050505092915050565b613ffc81615117565b82525050565b61400b81615123565b82525050565b61401a81615123565b82525050565b61402981615123565b82525050565b61403881615123565b82525050565b600061404982615022565b61405381856150b0565b9350614063818560208601615197565b61406c816151ca565b840191505092915050565b600061408282615022565b61408c81856150c1565b935061409c818560208601615197565b6140a5816151ca565b840191505092915050565b6140b981615164565b82525050565b60006140ca8261502d565b6140d481856150d2565b93506140e4818560208601615197565b6140ed816151ca565b840191505092915050565b60006141038261502d565b61410d81856150f4565b935061411d818560208601615197565b614126816151ca565b840191505092915050565b600061413e6011836150e3565b91507f72656769737465725265636f7264696e670000000000000000000000000000006000830152602082019050919050565b600061417e6020836150d2565b91507f6f776e657273686970436f6e74726163742063616e6e6f74206265207a65726f6000830152602082019050919050565b60006141be6014836150d2565b91507f686173682063616e6e6f7420626520656d7074790000000000000000000000006000830152602082019050919050565b60006141fe6012836150d2565b91507f7369676e657220697320726571756972656400000000000000000000000000006000830152602082019050919050565b600061423e6015836150d2565b91507f70726f6a656374496420697320726571756972656400000000000000000000006000830152602082019050919050565b600061427e600c836150e3565b91507f7265676973746572576f726b00000000000000000000000000000000000000006000830152602082019050919050565b60006142be601a836150d2565b91507f73656e646572206d7573742068617665206f776e6572736869700000000000006000830152602082019050919050565b60006142fe6031836150d2565b91507f307830204964656e74697479206973206e6f7420616c6c6f77656420746f207060008301527f6572666f726d20616e7920616374696f6e0000000000000000000000000000006020830152604082019050919050565b6000614364602e836150d2565b91507f4d65737361676520686173206e6f74206265656e207369676e65642070726f7060008301527f65726c79206279207369676e65720000000000000000000000000000000000006020830152604082019050919050565b60006143ca602e836150d2565b91507f436f6e747261637420696e7374616e63652068617320616c726561647920626560008301527f656e20696e697469616c697a65640000000000000000000000000000000000006020830152604082019050919050565b6000614430601a836150d2565b91507f6d657461646174612e7469746c652069732072657175697265640000000000006000830152602082019050919050565b60006144706015836150d2565b91507f7369676e617475726520697320726571756972656400000000000000000000006000830152602082019050919050565b60006144b0600f836150d2565b91507f576f726b206d75737420657869737400000000000000000000000000000000006000830152602082019050919050565b60006144f06019836150d2565b91507f7369676e61747572652063616e6e6f7420626520656d707479000000000000006000830152602082019050919050565b6000614530600a836150e3565b91507f72656d6f7665576f726b000000000000000000000000000000000000000000006000830152602082019050919050565b6000614570600a836150e3565b91507f757064617465576f726b000000000000000000000000000000000000000000006000830152602082019050919050565b60006145b0601e836150d2565b91507f7369676e657220616464726573732063616e6e6f7420626520656d70747900006000830152602082019050919050565b60006145f0600f836150e3565b91507f72656d6f76655265636f7264696e6700000000000000000000000000000000006000830152602082019050919050565b6000614630600f836150e3565b91507f7570646174655265636f7264696e6700000000000000000000000000000000006000830152602082019050919050565b60006146706012836150d2565b91507f73656e64657220697320726571756972656400000000000000000000000000006000830152602082019050919050565b60006101008301600083015184820360008601526146c182826140f8565b915050602083015184820360208601526146db82826140f8565b91505060408301516146f0604086018261402f565b506060830151614703606086018261402f565b506080830151614716608086018261402f565b5060a083015184820360a086015261472e8282613e7b565b91505060c083015184820360c08601526147488282613f95565b91505060e083015161475d60e0860182613db0565b508091505092915050565b600060c083016000830151848203600086015261478582826140f8565b9150506020830151848203602086015261479f82826140f8565b91505060408301516147b4604086018261402f565b5060608301516147c7606086018261402f565b50608083015184820360808601526147df8282613e7b565b91505060a08301516147f460a0860182613db0565b508091505092915050565b6148088161514d565b82525050565b6148178161514d565b82525050565b61482681615157565b82525050565b60006020820190506148416000830184613da1565b92915050565b600060408201905061485c6000830185613da1565b6148696020830184613da1565b9392505050565b60006040820190506148856000830185613da1565b8181036020830152614897818461403e565b90509392505050565b600060208201905081810360008301526148ba8184613dbf565b905092915050565b600060208201905081810360008301526148dc8184613ed9565b905092915050565b60006020820190506148f96000830184613ff3565b92915050565b60006020820190506149146000830184614011565b92915050565b600060808201905061492f6000830187614011565b61493c602083018661481d565b6149496040830185614011565b6149566060830184614011565b95945050505050565b600060208201905061497460008301846140b0565b92915050565b6000608082019050818103600083015261499481876140bf565b905081810360208301526149a881866140bf565b90506149b76040830185614011565b81810360608301526149c98184613e1d565b905095945050505050565b600060a08201905081810360008301526149ee81886140bf565b90508181036020830152614a0281876140bf565b9050614a116040830186614011565b614a1e6060830185614011565b614a2b6080830184613da1565b9695505050505050565b600060c0820190508181036000830152614a4f81896140bf565b90508181036020830152614a6381886140bf565b9050614a726040830187614011565b614a7f6060830186614011565b8181036080830152614a918185613e1d565b905081810360a0830152614aa58184613f37565b9050979650505050505050565b600060c0820190508181036000830152614acc81896140bf565b90508181036020830152614ae081886140bf565b9050614aef6040830187614011565b614afc6060830186614011565b614b096080830185614011565b614b1660a0830184613da1565b979650505050505050565b60006020820190508181036000830152614b3a81614171565b9050919050565b60006020820190508181036000830152614b5a816141b1565b9050919050565b60006020820190508181036000830152614b7a816141f1565b9050919050565b60006020820190508181036000830152614b9a81614231565b9050919050565b60006020820190508181036000830152614bba816142b1565b9050919050565b60006020820190508181036000830152614bda816142f1565b9050919050565b60006020820190508181036000830152614bfa81614357565b9050919050565b60006020820190508181036000830152614c1a816143bd565b9050919050565b60006020820190508181036000830152614c3a81614423565b9050919050565b60006020820190508181036000830152614c5a81614463565b9050919050565b60006020820190508181036000830152614c7a816144a3565b9050919050565b60006020820190508181036000830152614c9a816144e3565b9050919050565b60006060820190508181036000830152614cba81614523565b9050614cc96020830185614020565b614cd6604083018461480e565b9392505050565b60006020820190508181036000830152614cf6816145a3565b9050919050565b60006060820190508181036000830152614d16816145e3565b9050614d256020830185614020565b614d32604083018461480e565b9392505050565b60006020820190508181036000830152614d5281614663565b9050919050565b60006080820190508181036000830152614d7381866146a3565b90508181036020830152614d8681614131565b90508181036040830152614d9a8185614077565b9050614da9606083018461480e565b949350505050565b60006080820190508181036000830152614dcb81866146a3565b90508181036020830152614dde81614623565b9050614ded6040830185614020565b614dfa606083018461480e565b949350505050565b60006080820190508181036000830152614e1c8186614768565b90508181036020830152614e2f81614271565b90508181036040830152614e438185614077565b9050614e52606083018461480e565b949350505050565b60006080820190508181036000830152614e748186614768565b90508181036020830152614e8781614563565b9050614e966040830185614020565b614ea3606083018461480e565b949350505050565b6000602082019050614ec060008301846147ff565b92915050565b6000602082019050614edb600083018461481d565b92915050565b6000604051905081810181811067ffffffffffffffff82111715614f0457600080fd5b8060405250919050565b600067ffffffffffffffff821115614f2557600080fd5b602082029050602081019050919050565b600067ffffffffffffffff821115614f4d57600080fd5b602082029050602081019050919050565b600067ffffffffffffffff821115614f7557600080fd5b601f19601f8301169050602081019050919050565b600067ffffffffffffffff821115614fa157600080fd5b601f19601f8301169050602081019050919050565b6000819050602082019050919050565b6000819050602082019050919050565b6000819050602082019050919050565b6000819050602082019050919050565b600081519050919050565b600081519050919050565b600081519050919050565b600081519050919050565b600081519050919050565b600081519050919050565b6000602082019050919050565b6000602082019050919050565b6000602082019050919050565b6000602082019050919050565b600082825260208201905092915050565b600082825260208201905092915050565b600082825260208201905092915050565b600082825260208201905092915050565b600082825260208201905092915050565b600082825260208201905092915050565b600082825260208201905092915050565b600082825260208201905092915050565b600082825260208201905092915050565b60006151108261512d565b9050919050565b60008115159050919050565b6000819050919050565b600073ffffffffffffffffffffffffffffffffffffffff82169050919050565b6000819050919050565b600060ff82169050919050565b600061516f82615176565b9050919050565b60006151818261512d565b9050919050565b82818337600083830152505050565b60005b838110156151b557808201518184015260208101905061519a565b838111156151c4576000848401525b50505050565b6000601f19601f8301169050919050565b6151e481615105565b81146151ef57600080fd5b50565b6151fb81615117565b811461520657600080fd5b50565b61521281615123565b811461521d57600080fd5b50565b6152298161514d565b811461523457600080fd5b5056fea365627a7a723058200ff60ab787f3af314cf6f229edd14a7ea52c5584ab5e65da55ff3edfe31c43166c6578706572696d656e74616cf564736f6c634300050a0040",
  "source": "pragma solidity >=0.5.0 <0.6.0;\npragma experimental \"ABIEncoderV2\";\n\nimport \"../MusicRegistry.sol\";\n\ncontract MusicRegistryPublic is MusicRegistry {\n    function validateSignature(bytes32 hash, bytes memory signature, address signer)\n        public\n        returns (address)\n    {\n        return _validateSignature(hash, signature, signer);\n    }\n}\n",
  "sourcePath": "/Users/tom/www/music-smart-contracts/contracts/mock/MusicRegistryPublic.sol",
  "compiler": {
    "name": "solc",
    "version": "0.5.10+commit.5a6ea5b1.Emscripten.clang"
  },
  "schemaVersion": "3.0.11",
  "updatedAt": "2019-08-04T21:19:33.311Z",
  "devdoc": {
    "methods": {}
  },
  "userdoc": {
    "methods": {}
  }
}