{
  "contractName": "MusicRegistryPublic",
  "abi": [
    {
      "constant": true,
      "inputs": [],
      "name": "WORK_FLAG",
      "outputs": [
        {
          "name": "",
          "type": "uint8"
        }
      ],
      "payable": false,
      "stateMutability": "view",
      "type": "function"
    },
    {
      "constant": true,
      "inputs": [
        {
          "name": "projectId",
          "type": "bytes32"
        }
      ],
      "name": "getPublishers",
      "outputs": [
        {
          "name": "",
          "type": "address[]"
        }
      ],
      "payable": false,
      "stateMutability": "view",
      "type": "function"
    },
    {
      "constant": false,
      "inputs": [
        {
          "name": "recordingId",
          "type": "bytes32"
        },
        {
          "name": "signature",
          "type": "bytes"
        },
        {
          "name": "signer",
          "type": "address"
        }
      ],
      "name": "removeRecording",
      "outputs": [],
      "payable": false,
      "stateMutability": "nonpayable",
      "type": "function"
    },
    {
      "constant": true,
      "inputs": [
        {
          "name": "actor",
          "type": "address"
        }
      ],
      "name": "getIdentity",
      "outputs": [
        {
          "name": "",
          "type": "address"
        }
      ],
      "payable": false,
      "stateMutability": "view",
      "type": "function"
    },
    {
      "constant": true,
      "inputs": [
        {
          "name": "projectId",
          "type": "bytes32"
        },
        {
          "name": "sender",
          "type": "address"
        }
      ],
      "name": "isOwner",
      "outputs": [
        {
          "name": "",
          "type": "bool"
        }
      ],
      "payable": false,
      "stateMutability": "view",
      "type": "function"
    },
    {
      "constant": false,
      "inputs": [
        {
          "name": "workId",
          "type": "bytes32"
        },
        {
          "name": "signature",
          "type": "bytes"
        },
        {
          "name": "signer",
          "type": "address"
        }
      ],
      "name": "removeWork",
      "outputs": [],
      "payable": false,
      "stateMutability": "nonpayable",
      "type": "function"
    },
    {
      "constant": false,
      "inputs": [
        {
          "components": [
            {
              "name": "title",
              "type": "string"
            },
            {
              "name": "titleSoundRecording",
              "type": "string"
            },
            {
              "name": "iswc",
              "type": "bytes32"
            },
            {
              "name": "territory",
              "type": "bytes32"
            },
            {
              "name": "publishers",
              "type": "address[]"
            },
            {
              "name": "ownershipContract",
              "type": "address"
            }
          ],
          "name": "metadata",
          "type": "tuple"
        },
        {
          "name": "signature",
          "type": "bytes"
        },
        {
          "name": "data",
          "type": "bytes"
        },
        {
          "name": "signer",
          "type": "address"
        }
      ],
      "name": "registerWork",
      "outputs": [],
      "payable": false,
      "stateMutability": "nonpayable",
      "type": "function"
    },
    {
      "constant": true,
      "inputs": [
        {
          "name": "",
          "type": "bytes32"
        }
      ],
      "name": "works",
      "outputs": [
        {
          "name": "title",
          "type": "string"
        },
        {
          "name": "titleSoundRecording",
          "type": "string"
        },
        {
          "name": "iswc",
          "type": "bytes32"
        },
        {
          "name": "territory",
          "type": "bytes32"
        },
        {
          "name": "ownershipContract",
          "type": "address"
        }
      ],
      "payable": false,
      "stateMutability": "view",
      "type": "function"
    },
    {
      "constant": false,
      "inputs": [
        {
          "name": "workId",
          "type": "bytes32"
        },
        {
          "components": [
            {
              "name": "title",
              "type": "string"
            },
            {
              "name": "titleSoundRecording",
              "type": "string"
            },
            {
              "name": "iswc",
              "type": "bytes32"
            },
            {
              "name": "territory",
              "type": "bytes32"
            },
            {
              "name": "publishers",
              "type": "address[]"
            },
            {
              "name": "ownershipContract",
              "type": "address"
            }
          ],
          "name": "metadata",
          "type": "tuple"
        },
        {
          "name": "signature",
          "type": "bytes"
        },
        {
          "name": "signer",
          "type": "address"
        }
      ],
      "name": "updateWork",
      "outputs": [],
      "payable": false,
      "stateMutability": "nonpayable",
      "type": "function"
    },
    {
      "constant": true,
      "inputs": [],
      "name": "counter",
      "outputs": [
        {
          "name": "",
          "type": "uint256"
        }
      ],
      "payable": false,
      "stateMutability": "view",
      "type": "function"
    },
    {
      "constant": false,
      "inputs": [
        {
          "name": "recordingId",
          "type": "bytes32"
        },
        {
          "components": [
            {
              "name": "title",
              "type": "string"
            },
            {
              "name": "versionTitle",
              "type": "string"
            },
            {
              "name": "isrc",
              "type": "bytes32"
            },
            {
              "name": "territory",
              "type": "bytes32"
            },
            {
              "name": "album_upc",
              "type": "bytes32"
            },
            {
              "name": "labels",
              "type": "address[]"
            },
            {
              "name": "workIds",
              "type": "bytes32[]"
            },
            {
              "name": "ownershipContract",
              "type": "address"
            }
          ],
          "name": "metadata",
          "type": "tuple"
        },
        {
          "name": "signature",
          "type": "bytes"
        },
        {
          "name": "signer",
          "type": "address"
        }
      ],
      "name": "updateRecording",
      "outputs": [],
      "payable": false,
      "stateMutability": "nonpayable",
      "type": "function"
    },
    {
      "constant": true,
      "inputs": [
        {
          "name": "",
          "type": "address"
        }
      ],
      "name": "nonce",
      "outputs": [
        {
          "name": "",
          "type": "uint256"
        }
      ],
      "payable": false,
      "stateMutability": "view",
      "type": "function"
    },
    {
      "constant": true,
      "inputs": [],
      "name": "RECORDING_FLAG",
      "outputs": [
        {
          "name": "",
          "type": "uint8"
        }
      ],
      "payable": false,
      "stateMutability": "view",
      "type": "function"
    },
    {
      "constant": false,
      "inputs": [
        {
          "components": [
            {
              "name": "title",
              "type": "string"
            },
            {
              "name": "versionTitle",
              "type": "string"
            },
            {
              "name": "isrc",
              "type": "bytes32"
            },
            {
              "name": "territory",
              "type": "bytes32"
            },
            {
              "name": "album_upc",
              "type": "bytes32"
            },
            {
              "name": "labels",
              "type": "address[]"
            },
            {
              "name": "workIds",
              "type": "bytes32[]"
            },
            {
              "name": "ownershipContract",
              "type": "address"
            }
          ],
          "name": "metadata",
          "type": "tuple"
        },
        {
          "name": "signature",
          "type": "bytes"
        },
        {
          "name": "data",
          "type": "bytes"
        },
        {
          "name": "signer",
          "type": "address"
        }
      ],
      "name": "registerRecording",
      "outputs": [],
      "payable": false,
      "stateMutability": "nonpayable",
      "type": "function"
    },
    {
      "constant": true,
      "inputs": [
        {
          "name": "",
          "type": "bytes32"
        }
      ],
      "name": "recordings",
      "outputs": [
        {
          "name": "title",
          "type": "string"
        },
        {
          "name": "versionTitle",
          "type": "string"
        },
        {
          "name": "isrc",
          "type": "bytes32"
        },
        {
          "name": "territory",
          "type": "bytes32"
        },
        {
          "name": "album_upc",
          "type": "bytes32"
        },
        {
          "name": "ownershipContract",
          "type": "address"
        }
      ],
      "payable": false,
      "stateMutability": "view",
      "type": "function"
    },
    {
      "constant": true,
      "inputs": [
        {
          "name": "",
          "type": "bytes32"
        }
      ],
      "name": "usedUUIDs",
      "outputs": [
        {
          "name": "",
          "type": "bool"
        }
      ],
      "payable": false,
      "stateMutability": "view",
      "type": "function"
    },
    {
      "constant": true,
      "inputs": [
        {
          "name": "projectId",
          "type": "bytes32"
        }
      ],
      "name": "getLabels",
      "outputs": [
        {
          "name": "",
          "type": "address[]"
        }
      ],
      "payable": false,
      "stateMutability": "view",
      "type": "function"
    },
    {
      "constant": true,
      "inputs": [],
      "name": "proxyFactory",
      "outputs": [
        {
          "name": "",
          "type": "address"
        }
      ],
      "payable": false,
      "stateMutability": "view",
      "type": "function"
    },
    {
      "constant": true,
      "inputs": [],
      "name": "ethDIDReg",
      "outputs": [
        {
          "name": "",
          "type": "address"
        }
      ],
      "payable": false,
      "stateMutability": "view",
      "type": "function"
    },
    {
      "constant": false,
      "inputs": [
        {
          "name": "ethDIDAddress",
          "type": "address"
        },
        {
          "name": "factory",
          "type": "address"
        }
      ],
      "name": "init",
      "outputs": [],
      "payable": false,
      "stateMutability": "nonpayable",
      "type": "function"
    },
    {
      "constant": true,
      "inputs": [
        {
          "name": "projectId",
          "type": "bytes32"
        }
      ],
      "name": "getWorkIds",
      "outputs": [
        {
          "name": "",
          "type": "bytes32[]"
        }
      ],
      "payable": false,
      "stateMutability": "view",
      "type": "function"
    },
    {
      "constant": true,
      "inputs": [
        {
          "name": "identity",
          "type": "address"
        },
        {
          "name": "actor",
          "type": "address"
        }
      ],
      "name": "isIdentityOwner",
      "outputs": [
        {
          "name": "",
          "type": "bool"
        }
      ],
      "payable": false,
      "stateMutability": "view",
      "type": "function"
    },
    {
      "anonymous": false,
      "inputs": [
        {
          "indexed": true,
          "name": "workId",
          "type": "bytes32"
        },
        {
          "indexed": false,
          "name": "title",
          "type": "string"
        },
        {
          "indexed": false,
          "name": "titleSoundRecording",
          "type": "string"
        },
        {
          "indexed": true,
          "name": "iswc",
          "type": "bytes32"
        },
        {
          "indexed": false,
          "name": "territory",
          "type": "bytes32"
        },
        {
          "indexed": false,
          "name": "publishers",
          "type": "address[]"
        },
        {
          "indexed": true,
          "name": "ownershipContract",
          "type": "address"
        }
      ],
      "name": "WorkRegistered",
      "type": "event"
    },
    {
      "anonymous": false,
      "inputs": [
        {
          "indexed": true,
          "name": "workId",
          "type": "bytes32"
        },
        {
          "indexed": false,
          "name": "title",
          "type": "string"
        },
        {
          "indexed": false,
          "name": "titleSoundRecording",
          "type": "string"
        },
        {
          "indexed": true,
          "name": "iswc",
          "type": "bytes32"
        },
        {
          "indexed": false,
          "name": "territory",
          "type": "bytes32"
        },
        {
          "indexed": false,
          "name": "publishers",
          "type": "address[]"
        },
        {
          "indexed": true,
          "name": "ownershipContract",
          "type": "address"
        }
      ],
      "name": "WorkUpdated",
      "type": "event"
    },
    {
      "anonymous": false,
      "inputs": [
        {
          "indexed": false,
          "name": "workId",
          "type": "bytes32"
        }
      ],
      "name": "WorkRemoved",
      "type": "event"
    },
    {
      "anonymous": false,
      "inputs": [
        {
          "indexed": true,
          "name": "recordingId",
          "type": "bytes32"
        },
        {
          "indexed": false,
          "name": "title",
          "type": "string"
        },
        {
          "indexed": false,
          "name": "versionTitle",
          "type": "string"
        },
        {
          "indexed": true,
          "name": "isrc",
          "type": "bytes32"
        },
        {
          "indexed": false,
          "name": "territory",
          "type": "bytes32"
        },
        {
          "indexed": false,
          "name": "album_upc",
          "type": "bytes32"
        },
        {
          "indexed": false,
          "name": "labels",
          "type": "address[]"
        },
        {
          "indexed": false,
          "name": "workIds",
          "type": "bytes32[]"
        },
        {
          "indexed": true,
          "name": "ownershipContract",
          "type": "address"
        }
      ],
      "name": "RecordingRegistered",
      "type": "event"
    },
    {
      "anonymous": false,
      "inputs": [
        {
          "indexed": true,
          "name": "recordingId",
          "type": "bytes32"
        },
        {
          "indexed": false,
          "name": "title",
          "type": "string"
        },
        {
          "indexed": false,
          "name": "versionTitle",
          "type": "string"
        },
        {
          "indexed": true,
          "name": "isrc",
          "type": "bytes32"
        },
        {
          "indexed": false,
          "name": "territory",
          "type": "bytes32"
        },
        {
          "indexed": false,
          "name": "album_upc",
          "type": "bytes32"
        },
        {
          "indexed": false,
          "name": "labels",
          "type": "address[]"
        },
        {
          "indexed": false,
          "name": "workIds",
          "type": "bytes32[]"
        },
        {
          "indexed": true,
          "name": "ownershipContract",
          "type": "address"
        }
      ],
      "name": "RecordingUpdated",
      "type": "event"
    },
    {
      "anonymous": false,
      "inputs": [
        {
          "indexed": false,
          "name": "recordingId",
          "type": "bytes32"
        }
      ],
      "name": "RecordingRemoved",
      "type": "event"
    },
    {
      "anonymous": false,
      "inputs": [
        {
          "indexed": false,
          "name": "uuid",
          "type": "bytes32"
        }
      ],
      "name": "UUID",
      "type": "event"
    },
    {
      "anonymous": false,
      "inputs": [
        {
          "indexed": false,
          "name": "reg",
          "type": "address"
        }
      ],
      "name": "EthRegistrySet",
      "type": "event"
    },
    {
      "constant": false,
      "inputs": [
        {
          "name": "hash",
          "type": "bytes32"
        },
        {
          "name": "signature",
          "type": "bytes"
        },
        {
          "name": "signer",
          "type": "address"
        }
      ],
      "name": "validateSignature",
      "outputs": [
        {
          "name": "",
          "type": "address"
        }
      ],
      "payable": false,
      "stateMutability": "nonpayable",
      "type": "function"
    }
  ],
  "bytecode": "0x6080604052600160345534801561001557600080fd5b50615310806100256000396000f3fe608060405234801561001057600080fd5b506004361061014d5760003560e01c806370ae92d2116100c3578063a14119991161007c578063a1411999146103dd578063c10f1a751461040d578063e71758131461042b578063f09a401614610449578063faf2edc114610465578063fd2aa0b4146104955761014d565b806370ae92d2146102de5780637810e19f1461030e5780638a6a25df1461033e57806392ca5ae41461035c57806396524c3b14610378578063977c9073146103ad5761014d565b80634fcaf892116101155780634fcaf8921461021c57806353e88f901461023857806356da50371461025457806357f655aa1461028857806361bc221a146102a45780636d352efb146102c25761014d565b806312f0dff61461015257806322bab537146101705780632c3d6428146101a05780632fea7b81146101bc5780633fb56671146101ec575b600080fd5b61015a6104c5565b6040516101679190614f5c565b60405180910390f35b61018a600480360361018591908101906139ce565b6104ca565b6040516101979190614916565b60405180910390f35b6101ba60048036036101b59190810190613a5c565b61056e565b005b6101d660048036036101d19190810190613917565b610a19565b6040516101e391906148a2565b60405180910390f35b61020660048036036102019190810190613a20565b610b42565b604051610213919061495a565b60405180910390f35b61023660048036036102319190810190613a5c565b610e0b565b005b610252600480360361024d9190810190613c94565b61129e565b005b61026e600480360361026991908101906139ce565b6116af565b60405161027f959493929190614a4a565b60405180910390f35b6102a2600480360361029d9190810190613b56565b611835565b005b6102ac611eac565b6040516102b99190614f41565b60405180910390f35b6102dc60048036036102d79190810190613ac3565b611eb2565b005b6102f860048036036102f39190810190613917565b6124e8565b6040516103059190614f41565b60405180910390f35b61032860048036036103239190810190613a5c565b612500565b60405161033591906148a2565b60405180910390f35b610346612516565b6040516103539190614f5c565b60405180910390f35b61037660048036036103719190810190613be9565b61251b565b005b610392600480360361038d91908101906139ce565b612959565b6040516103a496959493929190614b28565b60405180910390f35b6103c760048036036103c291908101906139ce565b612ae5565b6040516103d4919061495a565b60405180910390f35b6103f760048036036103f291908101906139ce565b612b05565b6040516104049190614916565b60405180910390f35b610415612ba9565b60405161042291906149d5565b60405180910390f35b610433612bcf565b60405161044091906148a2565b60405180910390f35b610463600480360361045e9190810190613969565b612bf5565b005b61047f600480360361047a91908101906139ce565b612d2a565b60405161048c9190614938565b60405180910390f35b6104af60048036036104aa9190810190613969565b612d98565b6040516104bc919061495a565b60405180910390f35b605781565b60606038600083815260200190815260200160002060040180548060200260200160405190810160405280929190818152602001828054801561056257602002820191906000526020600020905b8160009054906101000a900473ffffffffffffffffffffffffffffffffffffffff1673ffffffffffffffffffffffffffffffffffffffff1681526020019060010190808311610518575b50505050509050919050565b82816000801b8214156105b6576040517f08c379a00000000000000000000000000000000000000000000000000000000081526004016105ad90614c17565b60405180910390fd5b600073ffffffffffffffffffffffffffffffffffffffff168173ffffffffffffffffffffffffffffffffffffffff161415610626576040517f08c379a000000000000000000000000000000000000000000000000000000000815260040161061d90614dcf565b60405180910390fd5b6000605760ff168360006020811061063a57fe5b1a60f81b60f81c60ff161415610688576038600084815260200190815260200160002060050160009054906101000a900473ffffffffffffffffffffffffffffffffffffffff1690506106e5565b605260ff168360006020811061069a57fe5b1a60f81b60f81c60ff1614156106e4576039600084815260200190815260200160002060070160009054906101000a900473ffffffffffffffffffffffffffffffffffffffff1690505b5b600073ffffffffffffffffffffffffffffffffffffffff168173ffffffffffffffffffffffffffffffffffffffff161415610755576040517f08c379a000000000000000000000000000000000000000000000000000000000815260040161074c90614b97565b60405180910390fd5b60008173ffffffffffffffffffffffffffffffffffffffff16632420a3fa61077c85610a19565b6040518263ffffffff1660e01b815260040161079891906148a2565b60206040518083038186803b1580156107b057600080fd5b505afa1580156107c4573d6000803e3d6000fd5b505050506040513d601f19601f820116820180604052506107e89190810190613d3f565b11610828576040517f08c379a000000000000000000000000000000000000000000000000000000000815260040161081f90614c37565b60405180910390fd5b600085511161086c576040517f08c379a000000000000000000000000000000000000000000000000000000000815260040161086390614cd7565b60405180910390fd5b600073__MusicLib______________________________6334f27c8088603760008973ffffffffffffffffffffffffffffffffffffffff1673ffffffffffffffffffffffffffffffffffffffff168152602001908152602001600020546040518363ffffffff1660e01b81526004016108e6929190614d93565b60206040518083038186803b1580156108fe57600080fd5b505af4158015610912573d6000803e3d6000fd5b505050506040513d601f19601f8201168201806040525061093691908101906139f7565b9050610943818787612e4f565b5060396000888152602001908152602001600020600080820160006109689190613273565b6001820160006109789190613273565b6002820160009055600382016000905560048201600090556005820160006109a091906132bb565b6006820160006109b091906132dc565b6007820160006101000a81549073ffffffffffffffffffffffffffffffffffffffff021916905550507f75ca86a1b05fc26f4d5f87a8f1f717519006df2c556770243d136f2dafe908bc87604051610a089190614975565b60405180910390a150505050505050565b600080603360009054906101000a900473ffffffffffffffffffffffffffffffffffffffff1673ffffffffffffffffffffffffffffffffffffffff16632fea7b81846040518263ffffffff1660e01b8152600401610a7791906148a2565b60206040518083038186803b158015610a8f57600080fd5b505afa158015610aa3573d6000803e3d6000fd5b505050506040513d601f19601f82011682018060405250610ac79190810190613940565b9050600073ffffffffffffffffffffffffffffffffffffffff168173ffffffffffffffffffffffffffffffffffffffff161415610b39576040517f08c379a0000000000000000000000000000000000000000000000000000000008152600401610b3090614c57565b60405180910390fd5b80915050919050565b600082826000801b821415610b8c576040517f08c379a0000000000000000000000000000000000000000000000000000000008152600401610b8390614c17565b60405180910390fd5b600073ffffffffffffffffffffffffffffffffffffffff168173ffffffffffffffffffffffffffffffffffffffff161415610bfc576040517f08c379a0000000000000000000000000000000000000000000000000000000008152600401610bf390614dcf565b60405180910390fd5b6000605760ff1683600060208110610c1057fe5b1a60f81b60f81c60ff161415610c5e576038600084815260200190815260200160002060050160009054906101000a900473ffffffffffffffffffffffffffffffffffffffff169050610cbb565b605260ff1683600060208110610c7057fe5b1a60f81b60f81c60ff161415610cba576039600084815260200190815260200160002060070160009054906101000a900473ffffffffffffffffffffffffffffffffffffffff1690505b5b600073ffffffffffffffffffffffffffffffffffffffff168173ffffffffffffffffffffffffffffffffffffffff161415610d2b576040517f08c379a0000000000000000000000000000000000000000000000000000000008152600401610d2290614b97565b60405180910390fd5b60008173ffffffffffffffffffffffffffffffffffffffff16632420a3fa610d5285610a19565b6040518263ffffffff1660e01b8152600401610d6e91906148a2565b60206040518083038186803b158015610d8657600080fd5b505afa158015610d9a573d6000803e3d6000fd5b505050506040513d601f19601f82011682018060405250610dbe9190810190613d3f565b11610dfe576040517f08c379a0000000000000000000000000000000000000000000000000000000008152600401610df590614c37565b60405180910390fd5b6001935050505092915050565b82816000801b821415610e53576040517f08c379a0000000000000000000000000000000000000000000000000000000008152600401610e4a90614c17565b60405180910390fd5b600073ffffffffffffffffffffffffffffffffffffffff168173ffffffffffffffffffffffffffffffffffffffff161415610ec3576040517f08c379a0000000000000000000000000000000000000000000000000000000008152600401610eba90614dcf565b60405180910390fd5b6000605760ff1683600060208110610ed757fe5b1a60f81b60f81c60ff161415610f25576038600084815260200190815260200160002060050160009054906101000a900473ffffffffffffffffffffffffffffffffffffffff169050610f82565b605260ff1683600060208110610f3757fe5b1a60f81b60f81c60ff161415610f81576039600084815260200190815260200160002060070160009054906101000a900473ffffffffffffffffffffffffffffffffffffffff1690505b5b600073ffffffffffffffffffffffffffffffffffffffff168173ffffffffffffffffffffffffffffffffffffffff161415610ff2576040517f08c379a0000000000000000000000000000000000000000000000000000000008152600401610fe990614b97565b60405180910390fd5b60008173ffffffffffffffffffffffffffffffffffffffff16632420a3fa61101985610a19565b6040518263ffffffff1660e01b815260040161103591906148a2565b60206040518083038186803b15801561104d57600080fd5b505afa158015611061573d6000803e3d6000fd5b505050506040513d601f19601f820116820180604052506110859190810190613d3f565b116110c5576040517f08c379a00000000000000000000000000000000000000000000000000000000081526004016110bc90614c37565b60405180910390fd5b6000855111611109576040517f08c379a000000000000000000000000000000000000000000000000000000000815260040161110090614cd7565b60405180910390fd5b600073__MusicLib______________________________63de3ca29688603760008973ffffffffffffffffffffffffffffffffffffffff1673ffffffffffffffffffffffffffffffffffffffff168152602001908152602001600020546040518363ffffffff1660e01b8152600401611183929190614d37565b60206040518083038186803b15801561119b57600080fd5b505af41580156111af573d6000803e3d6000fd5b505050506040513d601f19601f820116820180604052506111d391908101906139f7565b90506111e0818787612e4f565b5060386000888152602001908152602001600020600080820160006112059190613273565b6001820160006112159190613273565b6002820160009055600382016000905560048201600061123591906132bb565b6005820160006101000a81549073ffffffffffffffffffffffffffffffffffffffff021916905550507f4a49bc9996686e18feec23b502027cce21e8edf8d6685bec56e8f5a070fdd73d8760405161128d9190614975565b60405180910390a150505050505050565b6000846000015151116112e6576040517f08c379a00000000000000000000000000000000000000000000000000000000081526004016112dd90614cb7565b60405180910390fd5b600083511161132a576040517f08c379a000000000000000000000000000000000000000000000000000000000815260040161132190614cd7565b60405180910390fd5b600073ffffffffffffffffffffffffffffffffffffffff168173ffffffffffffffffffffffffffffffffffffffff16141561139a576040517f08c379a000000000000000000000000000000000000000000000000000000000815260040161139190614bd7565b60405180910390fd5b60008473__MusicLib______________________________63877295e3909185603760008773ffffffffffffffffffffffffffffffffffffffff1673ffffffffffffffffffffffffffffffffffffffff168152602001908152602001600020546040518463ffffffff1660e01b815260040161141893929190614e98565b60206040518083038186803b15801561143057600080fd5b505af4158015611444573d6000803e3d6000fd5b505050506040513d601f19601f8201168201806040525061146891908101906139f7565b90506000611477828685612e4f565b90506000603660009054906101000a900473ffffffffffffffffffffffffffffffffffffffff1673ffffffffffffffffffffffffffffffffffffffff1663e97fac0583876040518363ffffffff1660e01b81526004016114d89291906148e6565b602060405180830381600087803b1580156114f257600080fd5b505af1158015611506573d6000803e3d6000fd5b505050506040513d601f19601f8201168201806040525061152a9190810190613940565b9050808760a0019073ffffffffffffffffffffffffffffffffffffffff16908173ffffffffffffffffffffffffffffffffffffffff16815250506000611570605761301d565b9050876038600083815260200190815260200160002060008201518160000190805190602001906115a29291906132fd565b5060208201518160010190805190602001906115bf9291906132fd565b50604082015181600201556060820151816003015560808201518160040190805190602001906115f092919061337d565b5060a08201518160050160006101000a81548173ffffffffffffffffffffffffffffffffffffffff021916908373ffffffffffffffffffffffffffffffffffffffff1602179055509050508173ffffffffffffffffffffffffffffffffffffffff168860400151827f536986f0d8d2607b9be527be5930cce11519189cb7d87901a0ce33d3b45cbd448b600001518c602001518d606001518e6080015160405161169d94939291906149f0565b60405180910390a45050505050505050565b6038602052806000526040600020600091509050806000018054600181600116156101000203166002900480601f01602080910402602001604051908101604052809291908181526020018280546001816001161561010002031660029004801561175b5780601f106117305761010080835404028352916020019161175b565b820191906000526020600020905b81548152906001019060200180831161173e57829003601f168201915b505050505090806001018054600181600116156101000203166002900480601f0160208091040260200160405190810160405280929190818152602001828054600181600116156101000203166002900480156117f95780601f106117ce576101008083540402835291602001916117f9565b820191906000526020600020905b8154815290600101906020018083116117dc57829003601f168201915b5050505050908060020154908060030154908060050160009054906101000a900473ffffffffffffffffffffffffffffffffffffffff16905085565b83816000801b82141561187d576040517f08c379a000000000000000000000000000000000000000000000000000000000815260040161187490614c17565b60405180910390fd5b600073ffffffffffffffffffffffffffffffffffffffff168173ffffffffffffffffffffffffffffffffffffffff1614156118ed576040517f08c379a00000000000000000000000000000000000000000000000000000000081526004016118e490614dcf565b60405180910390fd5b6000605760ff168360006020811061190157fe5b1a60f81b60f81c60ff16141561194f576038600084815260200190815260200160002060050160009054906101000a900473ffffffffffffffffffffffffffffffffffffffff1690506119ac565b605260ff168360006020811061196157fe5b1a60f81b60f81c60ff1614156119ab576039600084815260200190815260200160002060070160009054906101000a900473ffffffffffffffffffffffffffffffffffffffff1690505b5b600073ffffffffffffffffffffffffffffffffffffffff168173ffffffffffffffffffffffffffffffffffffffff161415611a1c576040517f08c379a0000000000000000000000000000000000000000000000000000000008152600401611a1390614b97565b60405180910390fd5b60008173ffffffffffffffffffffffffffffffffffffffff16632420a3fa611a4385610a19565b6040518263ffffffff1660e01b8152600401611a5f91906148a2565b60206040518083038186803b158015611a7757600080fd5b505afa158015611a8b573d6000803e3d6000fd5b505050506040513d601f19601f82011682018060405250611aaf9190810190613d3f565b11611aef576040517f08c379a0000000000000000000000000000000000000000000000000000000008152600401611ae690614c37565b60405180910390fd5b600073ffffffffffffffffffffffffffffffffffffffff166038600089815260200190815260200160002060050160009054906101000a900473ffffffffffffffffffffffffffffffffffffffff1673ffffffffffffffffffffffffffffffffffffffff161415611b95576040517f08c379a0000000000000000000000000000000000000000000000000000000008152600401611b8c90614cf7565b60405180910390fd5b600086600001515111611bdd576040517f08c379a0000000000000000000000000000000000000000000000000000000008152600401611bd490614cb7565b60405180910390fd5b6000855111611c21576040517f08c379a0000000000000000000000000000000000000000000000000000000008152600401611c1890614cd7565b60405180910390fd5b60008673__MusicLib______________________________639ba9fb4e90918a603760008a73ffffffffffffffffffffffffffffffffffffffff1673ffffffffffffffffffffffffffffffffffffffff168152602001908152602001600020546040518463ffffffff1660e01b8152600401611c9f93929190614ef0565b60206040518083038186803b158015611cb757600080fd5b505af4158015611ccb573d6000803e3d6000fd5b505050506040513d601f19601f82011682018060405250611cef91908101906139f7565b9050611cfc818787612e4f565b506038600089815260200190815260200160002060050160009054906101000a900473ffffffffffffffffffffffffffffffffffffffff168760a0019073ffffffffffffffffffffffffffffffffffffffff16908173ffffffffffffffffffffffffffffffffffffffff168152505086603860008a81526020019081526020016000206000820151816000019080519060200190611d9b9291906132fd565b506020820151816001019080519060200190611db89291906132fd565b5060408201518160020155606082015181600301556080820151816004019080519060200190611de992919061337d565b5060a08201518160050160006101000a81548173ffffffffffffffffffffffffffffffffffffffff021916908373ffffffffffffffffffffffffffffffffffffffff1602179055509050508660a0015173ffffffffffffffffffffffffffffffffffffffff168760400151897f766c2b398fc12ef36d5cfe0139d502b8daf1c828fbcbb12ead8250c4afebdb2f8a600001518b602001518c606001518d60800151604051611e9a94939291906149f0565b60405180910390a45050505050505050565b60345481565b83816000801b821415611efa576040517f08c379a0000000000000000000000000000000000000000000000000000000008152600401611ef190614c17565b60405180910390fd5b600073ffffffffffffffffffffffffffffffffffffffff168173ffffffffffffffffffffffffffffffffffffffff161415611f6a576040517f08c379a0000000000000000000000000000000000000000000000000000000008152600401611f6190614dcf565b60405180910390fd5b6000605760ff1683600060208110611f7e57fe5b1a60f81b60f81c60ff161415611fcc576038600084815260200190815260200160002060050160009054906101000a900473ffffffffffffffffffffffffffffffffffffffff169050612029565b605260ff1683600060208110611fde57fe5b1a60f81b60f81c60ff161415612028576039600084815260200190815260200160002060070160009054906101000a900473ffffffffffffffffffffffffffffffffffffffff1690505b5b600073ffffffffffffffffffffffffffffffffffffffff168173ffffffffffffffffffffffffffffffffffffffff161415612099576040517f08c379a000000000000000000000000000000000000000000000000000000000815260040161209090614b97565b60405180910390fd5b60008173ffffffffffffffffffffffffffffffffffffffff16632420a3fa6120c085610a19565b6040518263ffffffff1660e01b81526004016120dc91906148a2565b60206040518083038186803b1580156120f457600080fd5b505afa158015612108573d6000803e3d6000fd5b505050506040513d601f19601f8201168201806040525061212c9190810190613d3f565b1161216c576040517f08c379a000000000000000000000000000000000000000000000000000000000815260040161216390614c37565b60405180910390fd5b6000866000015151116121b4576040517f08c379a00000000000000000000000000000000000000000000000000000000081526004016121ab90614cb7565b60405180910390fd5b60008551116121f8576040517f08c379a00000000000000000000000000000000000000000000000000000000081526004016121ef90614cd7565b60405180910390fd5b60008673__MusicLib______________________________635033c68190918a603760008a73ffffffffffffffffffffffffffffffffffffffff1673ffffffffffffffffffffffffffffffffffffffff168152602001908152602001600020546040518463ffffffff1660e01b815260040161227693929190614e47565b60206040518083038186803b15801561228e57600080fd5b505af41580156122a2573d6000803e3d6000fd5b505050506040513d601f19601f820116820180604052506122c691908101906139f7565b90506122d3818787612e4f565b506039600089815260200190815260200160002060070160009054906101000a900473ffffffffffffffffffffffffffffffffffffffff168760e0019073ffffffffffffffffffffffffffffffffffffffff16908173ffffffffffffffffffffffffffffffffffffffff168152505086603960008a815260200190815260200160002060008201518160000190805190602001906123729291906132fd565b50602082015181600101908051906020019061238f9291906132fd565b5060408201518160020155606082015181600301556080820151816004015560a08201518160050190805190602001906123ca92919061337d565b5060c08201518160060190805190602001906123e7929190613407565b5060e08201518160070160006101000a81548173ffffffffffffffffffffffffffffffffffffffff021916908373ffffffffffffffffffffffffffffffffffffffff1602179055509050506039600089815260200190815260200160002060070160009054906101000a900473ffffffffffffffffffffffffffffffffffffffff1673ffffffffffffffffffffffffffffffffffffffff168760400151897fc573b57a1bf817edeab708e5ec1ccfcdbb192b52307024861381ee3d89f01db48a600001518b602001518c606001518d608001518e60a001518f60c001516040516124d696959493929190614aab565b60405180910390a45050505050505050565b60376020528060005260406000206000915090505481565b600061250d848484612e4f565b90509392505050565b605281565b600084600001515111612563576040517f08c379a000000000000000000000000000000000000000000000000000000000815260040161255a90614cb7565b60405180910390fd5b60008351116125a7576040517f08c379a000000000000000000000000000000000000000000000000000000000815260040161259e90614cd7565b60405180910390fd5b600073ffffffffffffffffffffffffffffffffffffffff168173ffffffffffffffffffffffffffffffffffffffff161415612617576040517f08c379a000000000000000000000000000000000000000000000000000000000815260040161260e90614bd7565b60405180910390fd5b60008473__MusicLib______________________________6341f247a0909185603760008773ffffffffffffffffffffffffffffffffffffffff1673ffffffffffffffffffffffffffffffffffffffff168152602001908152602001600020546040518463ffffffff1660e01b815260040161269593929190614def565b60206040518083038186803b1580156126ad57600080fd5b505af41580156126c1573d6000803e3d6000fd5b505050506040513d601f19601f820116820180604052506126e591908101906139f7565b90506000603660009054906101000a900473ffffffffffffffffffffffffffffffffffffffff1673ffffffffffffffffffffffffffffffffffffffff1663e97fac05612732848887612e4f565b866040518363ffffffff1660e01b81526004016127509291906148e6565b602060405180830381600087803b15801561276a57600080fd5b505af115801561277e573d6000803e3d6000fd5b505050506040513d601f19601f820116820180604052506127a29190810190613940565b9050808660e0019073ffffffffffffffffffffffffffffffffffffffff16908173ffffffffffffffffffffffffffffffffffffffff168152505060006127e8605261301d565b90508660396000838152602001908152602001600020600082015181600001908051906020019061281a9291906132fd565b5060208201518160010190805190602001906128379291906132fd565b5060408201518160020155606082015181600301556080820151816004015560a082015181600501908051906020019061287292919061337d565b5060c082015181600601908051906020019061288f929190613407565b5060e08201518160070160006101000a81548173ffffffffffffffffffffffffffffffffffffffff021916908373ffffffffffffffffffffffffffffffffffffffff1602179055509050508173ffffffffffffffffffffffffffffffffffffffff168760400151827f4274926b24cbc5e3b457f137031ac9d12493bf11a115bcf6ec44521bbbe15e298a600001518b602001518c606001518d608001518e60a001518f60c0015160405161294896959493929190614aab565b60405180910390a450505050505050565b6039602052806000526040600020600091509050806000018054600181600116156101000203166002900480601f016020809104026020016040519081016040528092919081815260200182805460018160011615610100020316600290048015612a055780601f106129da57610100808354040283529160200191612a05565b820191906000526020600020905b8154815290600101906020018083116129e857829003601f168201915b505050505090806001018054600181600116156101000203166002900480601f016020809104026020016040519081016040528092919081815260200182805460018160011615610100020316600290048015612aa35780601f10612a7857610100808354040283529160200191612aa3565b820191906000526020600020905b815481529060010190602001808311612a8657829003601f168201915b5050505050908060020154908060030154908060040154908060070160009054906101000a900473ffffffffffffffffffffffffffffffffffffffff16905086565b60356020528060005260406000206000915054906101000a900460ff1681565b606060396000838152602001908152602001600020600501805480602002602001604051908101604052809291908181526020018280548015612b9d57602002820191906000526020600020905b8160009054906101000a900473ffffffffffffffffffffffffffffffffffffffff1673ffffffffffffffffffffffffffffffffffffffff1681526020019060010190808311612b53575b50505050509050919050565b603660009054906101000a900473ffffffffffffffffffffffffffffffffffffffff1681565b603360009054906101000a900473ffffffffffffffffffffffffffffffffffffffff1681565b600060019054906101000a900460ff1680612c145750612c1361310f565b5b80612c2b57506000809054906101000a900460ff16155b612c6a576040517f08c379a0000000000000000000000000000000000000000000000000000000008152600401612c6190614c97565b60405180910390fd5b60008060019054906101000a900460ff161590508015612cba576001600060016101000a81548160ff02191690831515021790555060016000806101000a81548160ff0219169083151502179055505b612cc383613120565b81603660006101000a81548173ffffffffffffffffffffffffffffffffffffffff021916908373ffffffffffffffffffffffffffffffffffffffff1602179055508015612d255760008060016101000a81548160ff0219169083151502179055505b505050565b606060396000838152602001908152602001600020600601805480602002602001604051908101604052809291908181526020018280548015612d8c57602002820191906000526020600020905b815481526020019060010190808311612d78575b50505050509050919050565b6000603360009054906101000a900473ffffffffffffffffffffffffffffffffffffffff1673ffffffffffffffffffffffffffffffffffffffff1663fd2aa0b484846040518363ffffffff1660e01b8152600401612df79291906148bd565b60206040518083038186803b158015612e0f57600080fd5b505afa158015612e23573d6000803e3d6000fd5b505050506040513d601f19601f82011682018060405250612e4791908101906139a5565b905092915050565b60008060001b841415612e97576040517f08c379a0000000000000000000000000000000000000000000000000000000008152600401612e8e90614bb7565b60405180910390fd5b6000835111612edb576040517f08c379a0000000000000000000000000000000000000000000000000000000008152600401612ed290614d17565b60405180910390fd5b600073ffffffffffffffffffffffffffffffffffffffff168273ffffffffffffffffffffffffffffffffffffffff161415612f4b576040517f08c379a0000000000000000000000000000000000000000000000000000000008152600401612f4290614d73565b60405180910390fd5b603760008373ffffffffffffffffffffffffffffffffffffffff1673ffffffffffffffffffffffffffffffffffffffff16815260200190815260200160002060008154809291906001019190505550612fa68484600061319b565b73ffffffffffffffffffffffffffffffffffffffff168273ffffffffffffffffffffffffffffffffffffffff1614613013576040517f08c379a000000000000000000000000000000000000000000000000000000000815260040161300a90614c77565b60405180910390fd5b8190509392505050565b600080603460008154809291906001019190505560001b90506130408184613212565b90506035600082815260200190815260200160002060009054906101000a900460ff16156130a3576040517f08c379a000000000000000000000000000000000000000000000000000000000815260040161309a90614bf7565b60405180910390fd5b60016035600083815260200190815260200160002060006101000a81548160ff0219169083151502179055507f8b222dfb61492c0e76f692ad8bec6f8ec75dda958c940fc804b24f453e64a6d3816040516130fe9190614975565b60405180910390a180915050919050565b600080303b90506000811491505090565b80603360006101000a81548173ffffffffffffffffffffffffffffffffffffffff021916908373ffffffffffffffffffffffffffffffffffffffff1602179055507f43bb990ead28e2cb3ea8b26e045448500f1cd58ccf150c95dd8e7e14dd12b7fa8160405161319091906148a2565b60405180910390a150565b6000806000806131ab8686613244565b809350819450829550505050600187848484604051600081526020016040526040516131da9493929190614990565b6020604051602081039080840390855afa1580156131fc573d6000803e3d6000fd5b5050506020604051035193505050509392505050565b60008160f81b7effffffffffffffffffffffffffffffffffffffffffffffffffffffffffffff19168317905092915050565b60008060008360410260208101860151925060408101860151915060ff60418201870151169350509250925092565b50805460018160011615610100020316600290046000825580601f1061329957506132b8565b601f0160209004906000526020600020908101906132b79190613454565b5b50565b50805460008255906000526020600020908101906132d99190613454565b50565b50805460008255906000526020600020908101906132fa9190613479565b50565b828054600181600116156101000203166002900490600052602060002090601f016020900481019282601f1061333e57805160ff191683800117855561336c565b8280016001018555821561336c579182015b8281111561336b578251825591602001919060010190613350565b5b5090506133799190613454565b5090565b8280548282559060005260206000209081019282156133f6579160200282015b828111156133f55782518260006101000a81548173ffffffffffffffffffffffffffffffffffffffff021916908373ffffffffffffffffffffffffffffffffffffffff1602179055509160200191906001019061339d565b5b509050613403919061349e565b5090565b828054828255906000526020600020908101928215613443579160200282015b82811115613442578251825591602001919060010190613427565b5b5090506134509190613479565b5090565b61347691905b8082111561347257600081600090555060010161345a565b5090565b90565b61349b91905b8082111561349757600081600090555060010161347f565b5090565b90565b6134de91905b808211156134da57600081816101000a81549073ffffffffffffffffffffffffffffffffffffffff0219169055506001016134a4565b5090565b90565b6000813590506134f081615271565b92915050565b60008151905061350581615271565b92915050565b600082601f83011261351c57600080fd5b813561352f61352a82614fa4565b614f77565b9150818183526020840193506020810190508385602084028201111561355457600080fd5b60005b83811015613584578161356a88826134e1565b845260208401935060208301925050600181019050613557565b5050505092915050565b600082601f83011261359f57600080fd5b81356135b26135ad82614fcc565b614f77565b915081818352602084019350602081019050838560208402820111156135d757600080fd5b60005b8381101561360757816135ed8882613626565b8452602084019350602083019250506001810190506135da565b5050505092915050565b60008151905061362081615288565b92915050565b6000813590506136358161529f565b92915050565b60008151905061364a8161529f565b92915050565b600082601f83011261366157600080fd5b813561367461366f82614ff4565b614f77565b9150808252602083016020830185838301111561369057600080fd5b61369b83828461521e565b50505092915050565b600082601f8301126136b557600080fd5b81356136c86136c382615020565b614f77565b915080825260208301602083018583830111156136e457600080fd5b6136ef83828461521e565b50505092915050565b6000610100828403121561370b57600080fd5b613716610100614f77565b9050600082013567ffffffffffffffff81111561373257600080fd5b61373e848285016136a4565b600083015250602082013567ffffffffffffffff81111561375e57600080fd5b61376a848285016136a4565b602083015250604061377e84828501613626565b604083015250606061379284828501613626565b60608301525060806137a684828501613626565b60808301525060a082013567ffffffffffffffff8111156137c657600080fd5b6137d28482850161350b565b60a08301525060c082013567ffffffffffffffff8111156137f257600080fd5b6137fe8482850161358e565b60c08301525060e0613812848285016134e1565b60e08301525092915050565b600060c0828403121561383057600080fd5b61383a60c0614f77565b9050600082013567ffffffffffffffff81111561385657600080fd5b613862848285016136a4565b600083015250602082013567ffffffffffffffff81111561388257600080fd5b61388e848285016136a4565b60208301525060406138a284828501613626565b60408301525060606138b684828501613626565b606083015250608082013567ffffffffffffffff8111156138d657600080fd5b6138e28482850161350b565b60808301525060a06138f6848285016134e1565b60a08301525092915050565b600081519050613911816152b6565b92915050565b60006020828403121561392957600080fd5b6000613937848285016134e1565b91505092915050565b60006020828403121561395257600080fd5b6000613960848285016134f6565b91505092915050565b6000806040838503121561397c57600080fd5b600061398a858286016134e1565b925050602061399b858286016134e1565b9150509250929050565b6000602082840312156139b757600080fd5b60006139c584828501613611565b91505092915050565b6000602082840312156139e057600080fd5b60006139ee84828501613626565b91505092915050565b600060208284031215613a0957600080fd5b6000613a178482850161363b565b91505092915050565b60008060408385031215613a3357600080fd5b6000613a4185828601613626565b9250506020613a52858286016134e1565b9150509250929050565b600080600060608486031215613a7157600080fd5b6000613a7f86828701613626565b935050602084013567ffffffffffffffff811115613a9c57600080fd5b613aa886828701613650565b9250506040613ab9868287016134e1565b9150509250925092565b60008060008060808587031215613ad957600080fd5b6000613ae787828801613626565b945050602085013567ffffffffffffffff811115613b0457600080fd5b613b10878288016136f8565b935050604085013567ffffffffffffffff811115613b2d57600080fd5b613b3987828801613650565b9250506060613b4a878288016134e1565b91505092959194509250565b60008060008060808587031215613b6c57600080fd5b6000613b7a87828801613626565b945050602085013567ffffffffffffffff811115613b9757600080fd5b613ba38782880161381e565b935050604085013567ffffffffffffffff811115613bc057600080fd5b613bcc87828801613650565b9250506060613bdd878288016134e1565b91505092959194509250565b60008060008060808587031215613bff57600080fd5b600085013567ffffffffffffffff811115613c1957600080fd5b613c25878288016136f8565b945050602085013567ffffffffffffffff811115613c4257600080fd5b613c4e87828801613650565b935050604085013567ffffffffffffffff811115613c6b57600080fd5b613c7787828801613650565b9250506060613c88878288016134e1565b91505092959194509250565b60008060008060808587031215613caa57600080fd5b600085013567ffffffffffffffff811115613cc457600080fd5b613cd08782880161381e565b945050602085013567ffffffffffffffff811115613ced57600080fd5b613cf987828801613650565b935050604085013567ffffffffffffffff811115613d1657600080fd5b613d2287828801613650565b9250506060613d33878288016134e1565b91505092959194509250565b600060208284031215613d5157600080fd5b6000613d5f84828501613902565b91505092915050565b6000613d748383613dc8565b60208301905092915050565b6000613d8c8383613de6565b60208301905092915050565b6000613da48383614038565b60208301905092915050565b6000613dbc8383614065565b60208301905092915050565b613dd18161519b565b82525050565b613de08161519b565b82525050565b613def8161519b565b82525050565b6000613e0082615097565b613e0a8185615102565b9350613e158361505c565b8060005b83811015613e46578151613e2d8882613d68565b9750613e38836150db565b925050600181019050613e19565b5085935050505092915050565b6000613e5e8261508c565b613e688185615102565b9350613e738361504c565b8060005b83811015613ea4578151613e8b8882613d68565b9750613e96836150ce565b925050600181019050613e77565b5085935050505092915050565b6000613ebc8261508c565b613ec68185615113565b9350613ed18361504c565b8060005b83811015613f02578151613ee98882613d80565b9750613ef4836150ce565b925050600181019050613ed5565b5085935050505092915050565b6000613f1a826150ad565b613f248185615124565b9350613f2f8361507c565b8060005b83811015613f60578151613f478882613d98565b9750613f52836150f5565b925050600181019050613f33565b5085935050505092915050565b6000613f78826150a2565b613f828185615124565b9350613f8d8361506c565b8060005b83811015613fbe578151613fa58882613d98565b9750613fb0836150e8565b925050600181019050613f91565b5085935050505092915050565b6000613fd6826150a2565b613fe08185615135565b9350613feb8361506c565b8060005b8381101561401c5781516140038882613db0565b975061400e836150e8565b925050600181019050613fef565b5085935050505092915050565b614032816151ad565b82525050565b614041816151b9565b82525050565b614050816151b9565b82525050565b61405f816151b9565b82525050565b61406e816151b9565b82525050565b600061407f826150b8565b6140898185615146565b935061409981856020860161522d565b6140a281615260565b840191505092915050565b60006140b8826150b8565b6140c28185615157565b93506140d281856020860161522d565b6140db81615260565b840191505092915050565b6140ef816151fa565b82525050565b6000614100826150c3565b61410a8185615168565b935061411a81856020860161522d565b61412381615260565b840191505092915050565b6000614139826150c3565b614143818561518a565b935061415381856020860161522d565b61415c81615260565b840191505092915050565b6000614174601183615179565b91507f72656769737465725265636f7264696e670000000000000000000000000000006000830152602082019050919050565b60006141b4602083615168565b91507f6f776e657273686970436f6e74726163742063616e6e6f74206265207a65726f6000830152602082019050919050565b60006141f4601483615168565b91507f686173682063616e6e6f7420626520656d7074790000000000000000000000006000830152602082019050919050565b6000614234601283615168565b91507f7369676e657220697320726571756972656400000000000000000000000000006000830152602082019050919050565b6000614274601a83615168565b91507f7575696420686173206265656e20616c726561647920757365640000000000006000830152602082019050919050565b60006142b4601583615168565b91507f70726f6a656374496420697320726571756972656400000000000000000000006000830152602082019050919050565b60006142f4600c83615179565b91507f7265676973746572576f726b00000000000000000000000000000000000000006000830152602082019050919050565b6000614334601a83615168565b91507f73656e646572206d7573742068617665206f776e6572736869700000000000006000830152602082019050919050565b6000614374603183615168565b91507f307830204964656e74697479206973206e6f7420616c6c6f77656420746f207060008301527f6572666f726d20616e7920616374696f6e0000000000000000000000000000006020830152604082019050919050565b60006143da602e83615168565b91507f4d65737361676520686173206e6f74206265656e207369676e65642070726f7060008301527f65726c79206279207369676e65720000000000000000000000000000000000006020830152604082019050919050565b6000614440602e83615168565b91507f436f6e747261637420696e7374616e63652068617320616c726561647920626560008301527f656e20696e697469616c697a65640000000000000000000000000000000000006020830152604082019050919050565b60006144a6601a83615168565b91507f6d657461646174612e7469746c652069732072657175697265640000000000006000830152602082019050919050565b60006144e6601583615168565b91507f7369676e617475726520697320726571756972656400000000000000000000006000830152602082019050919050565b6000614526600f83615168565b91507f576f726b206d75737420657869737400000000000000000000000000000000006000830152602082019050919050565b6000614566601983615168565b91507f7369676e61747572652063616e6e6f7420626520656d707479000000000000006000830152602082019050919050565b60006145a6600a83615179565b91507f72656d6f7665576f726b000000000000000000000000000000000000000000006000830152602082019050919050565b60006145e6600a83615179565b91507f757064617465576f726b000000000000000000000000000000000000000000006000830152602082019050919050565b6000614626601e83615168565b91507f7369676e657220616464726573732063616e6e6f7420626520656d70747900006000830152602082019050919050565b6000614666600f83615179565b91507f72656d6f76655265636f7264696e6700000000000000000000000000000000006000830152602082019050919050565b60006146a6600f83615179565b91507f7570646174655265636f7264696e6700000000000000000000000000000000006000830152602082019050919050565b60006146e6601283615168565b91507f73656e64657220697320726571756972656400000000000000000000000000006000830152602082019050919050565b6000610100830160008301518482036000860152614737828261412e565b91505060208301518482036020860152614751828261412e565b91505060408301516147666040860182614065565b5060608301516147796060860182614065565b50608083015161478c6080860182614065565b5060a083015184820360a08601526147a48282613eb1565b91505060c083015184820360c08601526147be8282613fcb565b91505060e08301516147d360e0860182613de6565b508091505092915050565b600060c08301600083015184820360008601526147fb828261412e565b91505060208301518482036020860152614815828261412e565b915050604083015161482a6040860182614065565b50606083015161483d6060860182614065565b50608083015184820360808601526148558282613eb1565b91505060a083015161486a60a0860182613de6565b508091505092915050565b61487e816151e3565b82525050565b61488d816151e3565b82525050565b61489c816151ed565b82525050565b60006020820190506148b76000830184613dd7565b92915050565b60006040820190506148d26000830185613dd7565b6148df6020830184613dd7565b9392505050565b60006040820190506148fb6000830185613dd7565b818103602083015261490d8184614074565b90509392505050565b600060208201905081810360008301526149308184613df5565b905092915050565b600060208201905081810360008301526149528184613f0f565b905092915050565b600060208201905061496f6000830184614029565b92915050565b600060208201905061498a6000830184614047565b92915050565b60006080820190506149a56000830187614047565b6149b26020830186614893565b6149bf6040830185614047565b6149cc6060830184614047565b95945050505050565b60006020820190506149ea60008301846140e6565b92915050565b60006080820190508181036000830152614a0a81876140f5565b90508181036020830152614a1e81866140f5565b9050614a2d6040830185614047565b8181036060830152614a3f8184613e53565b905095945050505050565b600060a0820190508181036000830152614a6481886140f5565b90508181036020830152614a7881876140f5565b9050614a876040830186614047565b614a946060830185614047565b614aa16080830184613dd7565b9695505050505050565b600060c0820190508181036000830152614ac581896140f5565b90508181036020830152614ad981886140f5565b9050614ae86040830187614047565b614af56060830186614047565b8181036080830152614b078185613e53565b905081810360a0830152614b1b8184613f6d565b9050979650505050505050565b600060c0820190508181036000830152614b4281896140f5565b90508181036020830152614b5681886140f5565b9050614b656040830187614047565b614b726060830186614047565b614b7f6080830185614047565b614b8c60a0830184613dd7565b979650505050505050565b60006020820190508181036000830152614bb0816141a7565b9050919050565b60006020820190508181036000830152614bd0816141e7565b9050919050565b60006020820190508181036000830152614bf081614227565b9050919050565b60006020820190508181036000830152614c1081614267565b9050919050565b60006020820190508181036000830152614c30816142a7565b9050919050565b60006020820190508181036000830152614c5081614327565b9050919050565b60006020820190508181036000830152614c7081614367565b9050919050565b60006020820190508181036000830152614c90816143cd565b9050919050565b60006020820190508181036000830152614cb081614433565b9050919050565b60006020820190508181036000830152614cd081614499565b9050919050565b60006020820190508181036000830152614cf0816144d9565b9050919050565b60006020820190508181036000830152614d1081614519565b9050919050565b60006020820190508181036000830152614d3081614559565b9050919050565b60006060820190508181036000830152614d5081614599565b9050614d5f6020830185614056565b614d6c6040830184614884565b9392505050565b60006020820190508181036000830152614d8c81614619565b9050919050565b60006060820190508181036000830152614dac81614659565b9050614dbb6020830185614056565b614dc86040830184614884565b9392505050565b60006020820190508181036000830152614de8816146d9565b9050919050565b60006080820190508181036000830152614e098186614719565b90508181036020830152614e1c81614167565b90508181036040830152614e3081856140ad565b9050614e3f6060830184614884565b949350505050565b60006080820190508181036000830152614e618186614719565b90508181036020830152614e7481614699565b9050614e836040830185614056565b614e906060830184614884565b949350505050565b60006080820190508181036000830152614eb281866147de565b90508181036020830152614ec5816142e7565b90508181036040830152614ed981856140ad565b9050614ee86060830184614884565b949350505050565b60006080820190508181036000830152614f0a81866147de565b90508181036020830152614f1d816145d9565b9050614f2c6040830185614056565b614f396060830184614884565b949350505050565b6000602082019050614f566000830184614875565b92915050565b6000602082019050614f716000830184614893565b92915050565b6000604051905081810181811067ffffffffffffffff82111715614f9a57600080fd5b8060405250919050565b600067ffffffffffffffff821115614fbb57600080fd5b602082029050602081019050919050565b600067ffffffffffffffff821115614fe357600080fd5b602082029050602081019050919050565b600067ffffffffffffffff82111561500b57600080fd5b601f19601f8301169050602081019050919050565b600067ffffffffffffffff82111561503757600080fd5b601f19601f8301169050602081019050919050565b6000819050602082019050919050565b6000819050602082019050919050565b6000819050602082019050919050565b6000819050602082019050919050565b600081519050919050565b600081519050919050565b600081519050919050565b600081519050919050565b600081519050919050565b600081519050919050565b6000602082019050919050565b6000602082019050919050565b6000602082019050919050565b6000602082019050919050565b600082825260208201905092915050565b600082825260208201905092915050565b600082825260208201905092915050565b600082825260208201905092915050565b600082825260208201905092915050565b600082825260208201905092915050565b600082825260208201905092915050565b600082825260208201905092915050565b600082825260208201905092915050565b60006151a6826151c3565b9050919050565b60008115159050919050565b6000819050919050565b600073ffffffffffffffffffffffffffffffffffffffff82169050919050565b6000819050919050565b600060ff82169050919050565b60006152058261520c565b9050919050565b6000615217826151c3565b9050919050565b82818337600083830152505050565b60005b8381101561524b578082015181840152602081019050615230565b8381111561525a576000848401525b50505050565b6000601f19601f8301169050919050565b61527a8161519b565b811461528557600080fd5b50565b615291816151ad565b811461529c57600080fd5b50565b6152a8816151b9565b81146152b357600080fd5b50565b6152bf816151e3565b81146152ca57600080fd5b5056fea365627a7a72305820e1e8668b6cebc51db995457a15af498d1722e3937740e9a5b7a0e79bed66e4ed6c6578706572696d656e74616cf564736f6c634300050a0040",
  "source": "pragma solidity >=0.5.0 <0.6.0;\npragma experimental \"ABIEncoderV2\";\n\nimport \"../MusicRegistry.sol\";\n\ncontract MusicRegistryPublic is MusicRegistry {\n    function validateSignature(bytes32 hash, bytes memory signature, address signer)\n        public\n        returns (address)\n    {\n        return _validateSignature(hash, signature, signer);\n    }\n}\n",
  "sourcePath": "/Users/tom/www/music-smart-contracts/contracts/mock/MusicRegistryPublic.sol",
  "compiler": {
    "name": "solc",
    "version": "0.5.10+commit.5a6ea5b1.Emscripten.clang"
  },
  "schemaVersion": "3.0.11",
  "updatedAt": "2019-09-01T01:06:26.121Z",
  "devdoc": {
    "methods": {}
  },
  "userdoc": {
    "methods": {}
  }
}