{
  "contractName": "MusicLib",
  "abi": [
    {
      "constant": true,
      "inputs": [
        {
          "components": [
            {
              "name": "title",
              "type": "string"
            },
            {
              "name": "titleSoundRecording",
              "type": "string"
            },
            {
              "name": "iswc",
              "type": "bytes32"
            },
            {
              "name": "territory",
              "type": "bytes32"
            },
            {
              "name": "publishers",
              "type": "address[]"
            },
            {
              "name": "ownershipContract",
              "type": "address"
            }
          ],
          "name": "metadata",
          "type": "tuple"
        },
        {
          "name": "func",
          "type": "string"
        },
        {
          "name": "data",
          "type": "bytes"
        },
        {
          "name": "nonce",
          "type": "uint256"
        }
      ],
      "name": "getWorkHash",
      "outputs": [
        {
          "name": "",
          "type": "bytes32"
        }
      ],
      "payable": false,
      "stateMutability": "view",
      "type": "function"
    },
    {
      "constant": true,
      "inputs": [
        {
          "components": [
            {
              "name": "title",
              "type": "string"
            },
            {
              "name": "titleSoundRecording",
              "type": "string"
            },
            {
              "name": "iswc",
              "type": "bytes32"
            },
            {
              "name": "territory",
              "type": "bytes32"
            },
            {
              "name": "publishers",
              "type": "address[]"
            },
            {
              "name": "ownershipContract",
              "type": "address"
            }
          ],
          "name": "metadata",
          "type": "tuple"
        },
        {
          "name": "func",
          "type": "string"
        },
        {
          "name": "workId",
          "type": "bytes32"
        },
        {
          "name": "nonce",
          "type": "uint256"
        }
      ],
      "name": "getWorkHash",
      "outputs": [
        {
          "name": "",
          "type": "bytes32"
        }
      ],
      "payable": false,
      "stateMutability": "view",
      "type": "function"
    },
    {
      "constant": true,
      "inputs": [
        {
          "name": "func",
          "type": "string"
        },
        {
          "name": "workId",
          "type": "bytes32"
        },
        {
          "name": "nonce",
          "type": "uint256"
        }
      ],
      "name": "getWorkHash",
      "outputs": [
        {
          "name": "",
          "type": "bytes32"
        }
      ],
      "payable": false,
      "stateMutability": "view",
      "type": "function"
    },
    {
      "constant": true,
      "inputs": [
        {
          "name": "func",
          "type": "string"
        },
        {
          "name": "recordingId",
          "type": "bytes32"
        },
        {
          "name": "nonce",
          "type": "uint256"
        }
      ],
      "name": "getRecordingHash",
      "outputs": [
        {
          "name": "",
          "type": "bytes32"
        }
      ],
      "payable": false,
      "stateMutability": "view",
      "type": "function"
    },
    {
      "constant": true,
      "inputs": [
        {
          "components": [
            {
              "name": "title",
              "type": "string"
            },
            {
              "name": "versionTitle",
              "type": "string"
            },
            {
              "name": "isrc",
              "type": "bytes32"
            },
            {
              "name": "territory",
              "type": "bytes32"
            },
            {
              "name": "album_upc",
              "type": "bytes32"
            },
            {
              "name": "labels",
              "type": "address[]"
            },
            {
              "name": "workIds",
              "type": "bytes32[]"
            },
            {
              "name": "ownershipContract",
              "type": "address"
            }
          ],
          "name": "metadata",
          "type": "tuple"
        },
        {
          "name": "func",
          "type": "string"
        },
        {
          "name": "data",
          "type": "bytes"
        },
        {
          "name": "nonce",
          "type": "uint256"
        }
      ],
      "name": "getRecordingHash",
      "outputs": [
        {
          "name": "",
          "type": "bytes32"
        }
      ],
      "payable": false,
      "stateMutability": "view",
      "type": "function"
    },
    {
      "constant": true,
      "inputs": [
        {
          "components": [
            {
              "name": "title",
              "type": "string"
            },
            {
              "name": "versionTitle",
              "type": "string"
            },
            {
              "name": "isrc",
              "type": "bytes32"
            },
            {
              "name": "territory",
              "type": "bytes32"
            },
            {
              "name": "album_upc",
              "type": "bytes32"
            },
            {
              "name": "labels",
              "type": "address[]"
            },
            {
              "name": "workIds",
              "type": "bytes32[]"
            },
            {
              "name": "ownershipContract",
              "type": "address"
            }
          ],
          "name": "metadata",
          "type": "tuple"
        },
        {
          "name": "func",
          "type": "string"
        },
        {
          "name": "recordingId",
          "type": "bytes32"
        },
        {
          "name": "nonce",
          "type": "uint256"
        }
      ],
      "name": "getRecordingHash",
      "outputs": [
        {
          "name": "",
          "type": "bytes32"
        }
      ],
      "payable": false,
      "stateMutability": "view",
      "type": "function"
    }
  ],
  "bytecode": "0x611494610026600b82828239805160001a60731461001957fe5b30600052607381538281f3fe730000000000000000000000000000000000000000301460806040526004361061006c5760003560e01c806334f27c801461007157806341f247a0146100a15780635033c681146100d1578063877295e3146101015780639ba9fb4e14610131578063de3ca29614610161575b600080fd5b61008b6004803603610086919081019061093e565b610191565b6040516100989190611150565b60405180910390f35b6100bb60048036036100b69190810190610a38565b6101d5565b6040516100c89190611150565b60405180910390f35b6100eb60048036036100e691908101906109a5565b6102a1565b6040516100f89190611150565b60405180910390f35b61011b60048036036101169190810190610b76565b61036d565b6040516101289190611150565b60405180910390f35b61014b60048036036101469190810190610ae3565b61040e565b6040516101589190611150565b60405180910390f35b61017b6004803603610176919081019061093e565b6104af565b6040516101889190611150565b60405180910390f35b6000601960f81b600060f81b308686866040516020016101b696959493929190610eb5565b6040516020818303038152906040528051906020012090509392505050565b6000601960f81b600060f81b30866040516020016101f69493929190610e6b565b604051602081830303815290604052856000015186602001518760400151886060015189608001516040516020016102329594939291906110f9565b6040516020818303038152906040528660a001518760c0015186866040516020016102609493929190610e29565b60405160208183030381529060405260405160200161028193929190611057565b604051602081830303815290604052805190602001209050949350505050565b6000601960f81b600060f81b30866040516020016102c29493929190610e6b565b6040516020818303038152906040528386600001518760200151886040015189606001516040516020016102fa959493929190610f67565b60405160208183030381529060405286608001518760a001518860c001518660405160200161032c9493929190610f21565b60405160208183030381529060405260405160200161034d93929190611057565b604051602081830303815290604052805190602001209050949350505050565b6000601960f81b600060f81b308660405160200161038e9493929190610e6b565b6040516020818303038152906040528560000151866020015187604001518860600151896080015188886040516020016103ce9796959493929190611088565b6040516020818303038152906040526040516020016103ee929190611033565b604051602081830303815290604052805190602001209050949350505050565b6000601960f81b600060f81b308660405160200161042f9493929190610e6b565b6040516020818303038152906040528386600001518760200151886040015189606001518a608001518860405160200161046f9796959493929190610fbe565b60405160208183030381529060405260405160200161048f929190611033565b604051602081830303815290604052805190602001209050949350505050565b6000601960f81b600060f81b308686866040516020016104d496959493929190610eb5565b6040516020818303038152906040528051906020012090509392505050565b6000813590506105028161140c565b92915050565b600082601f83011261051957600080fd5b813561052c61052782611198565b61116b565b9150818183526020840193506020810190508385602084028201111561055157600080fd5b60005b83811015610581578161056788826104f3565b845260208401935060208301925050600181019050610554565b5050505092915050565b600082601f83011261059c57600080fd5b81356105af6105aa826111c0565b61116b565b915081818352602084019350602081019050838560208402820111156105d457600080fd5b60005b8381101561060457816105ea888261060e565b8452602084019350602083019250506001810190506105d7565b5050505092915050565b60008135905061061d81611423565b92915050565b600082601f83011261063457600080fd5b8135610647610642826111e8565b61116b565b9150808252602083016020830185838301111561066357600080fd5b61066e83828461137b565b50505092915050565b600082601f83011261068857600080fd5b813561069b61069682611214565b61116b565b915080825260208301602083018583830111156106b757600080fd5b6106c283828461137b565b50505092915050565b600082601f8301126106dc57600080fd5b81356106ef6106ea82611240565b61116b565b9150808252602083016020830185838301111561070b57600080fd5b61071683828461137b565b50505092915050565b6000610100828403121561073257600080fd5b61073d61010061116b565b9050600082013567ffffffffffffffff81111561075957600080fd5b61076584828501610677565b600083015250602082013567ffffffffffffffff81111561078557600080fd5b61079184828501610677565b60208301525060406107a58482850161060e565b60408301525060606107b98482850161060e565b60608301525060806107cd8482850161060e565b60808301525060a082013567ffffffffffffffff8111156107ed57600080fd5b6107f984828501610508565b60a08301525060c082013567ffffffffffffffff81111561081957600080fd5b6108258482850161058b565b60c08301525060e0610839848285016104f3565b60e08301525092915050565b600060c0828403121561085757600080fd5b61086160c061116b565b9050600082013567ffffffffffffffff81111561087d57600080fd5b61088984828501610677565b600083015250602082013567ffffffffffffffff8111156108a957600080fd5b6108b584828501610677565b60208301525060406108c98482850161060e565b60408301525060606108dd8482850161060e565b606083015250608082013567ffffffffffffffff8111156108fd57600080fd5b61090984828501610508565b60808301525060a061091d848285016104f3565b60a08301525092915050565b6000813590506109388161143a565b92915050565b60008060006060848603121561095357600080fd5b600084013567ffffffffffffffff81111561096d57600080fd5b610979868287016106cb565b935050602061098a8682870161060e565b925050604061099b86828701610929565b9150509250925092565b600080600080608085870312156109bb57600080fd5b600085013567ffffffffffffffff8111156109d557600080fd5b6109e18782880161071f565b945050602085013567ffffffffffffffff8111156109fe57600080fd5b610a0a878288016106cb565b9350506040610a1b8782880161060e565b9250506060610a2c87828801610929565b91505092959194509250565b60008060008060808587031215610a4e57600080fd5b600085013567ffffffffffffffff811115610a6857600080fd5b610a748782880161071f565b945050602085013567ffffffffffffffff811115610a9157600080fd5b610a9d878288016106cb565b935050604085013567ffffffffffffffff811115610aba57600080fd5b610ac687828801610623565b9250506060610ad787828801610929565b91505092959194509250565b60008060008060808587031215610af957600080fd5b600085013567ffffffffffffffff811115610b1357600080fd5b610b1f87828801610845565b945050602085013567ffffffffffffffff811115610b3c57600080fd5b610b48878288016106cb565b9350506040610b598782880161060e565b9250506060610b6a87828801610929565b91505092959194509250565b60008060008060808587031215610b8c57600080fd5b600085013567ffffffffffffffff811115610ba657600080fd5b610bb287828801610845565b945050602085013567ffffffffffffffff811115610bcf57600080fd5b610bdb878288016106cb565b935050604085013567ffffffffffffffff811115610bf857600080fd5b610c0487828801610623565b9250506060610c1587828801610929565b91505092959194509250565b6000610c2d8383610c51565b60208301905092915050565b6000610c458383610d59565b60208301905092915050565b610c5a81611309565b82525050565b610c71610c6c82611309565b6113bd565b82525050565b6000610c828261128c565b610c8c81856112dd565b9350610c978361126c565b8060005b83811015610cc8578151610caf8882610c21565b9750610cba836112c3565b925050600181019050610c9b565b5085935050505092915050565b6000610ce082611297565b610cea81856112e8565b9350610cf58361127c565b8060005b83811015610d26578151610d0d8882610c39565b9750610d18836112d0565b925050600181019050610cf9565b5085935050505092915050565b610d44610d3f8261131b565b6113cf565b82525050565b610d5381611347565b82525050565b610d6281611347565b82525050565b610d79610d7482611347565b6113d9565b82525050565b6000610d8a826112a2565b610d9481856112f3565b9350610da481856020860161138a565b80840191505092915050565b6000610dbb826112b8565b610dc581856112fe565b9350610dd581856020860161138a565b80840191505092915050565b6000610dec826112ad565b610df681856112fe565b9350610e0681856020860161138a565b80840191505092915050565b610e23610e1e82611371565b6113f5565b82525050565b6000610e358287610c77565b9150610e418286610cd5565b9150610e4d8285610d7f565b9150610e598284610e12565b60208201915081905095945050505050565b6000610e778287610d33565b600182019150610e878286610d33565b600182019150610e978285610c60565b601482019150610ea78284610db0565b915081905095945050505050565b6000610ec18289610d33565b600182019150610ed18288610d33565b600182019150610ee18287610c60565b601482019150610ef18286610db0565b9150610efd8285610d68565b602082019150610f0d8284610e12565b602082019150819050979650505050505050565b6000610f2d8287610d68565b602082019150610f3d8286610c77565b9150610f498285610cd5565b9150610f558284610e12565b60208201915081905095945050505050565b6000610f738288610d68565b602082019150610f838287610de1565b9150610f8f8286610de1565b9150610f9b8285610d68565b602082019150610fab8284610d68565b6020820191508190509695505050505050565b6000610fca828a610d68565b602082019150610fda8289610de1565b9150610fe68288610de1565b9150610ff28287610d68565b6020820191506110028286610d68565b6020820191506110128285610c77565b915061101e8284610e12565b60208201915081905098975050505050505050565b600061103f8285610d7f565b915061104b8284610d7f565b91508190509392505050565b60006110638286610d7f565b915061106f8285610d7f565b915061107b8284610d7f565b9150819050949350505050565b6000611094828a610de1565b91506110a08289610de1565b91506110ac8288610d68565b6020820191506110bc8287610d68565b6020820191506110cc8286610c77565b91506110d88285610d7f565b91506110e48284610e12565b60208201915081905098975050505050505050565b60006111058288610de1565b91506111118287610de1565b915061111d8286610d68565b60208201915061112d8285610d68565b60208201915061113d8284610d68565b6020820191508190509695505050505050565b60006020820190506111656000830184610d4a565b92915050565b6000604051905081810181811067ffffffffffffffff8211171561118e57600080fd5b8060405250919050565b600067ffffffffffffffff8211156111af57600080fd5b602082029050602081019050919050565b600067ffffffffffffffff8211156111d757600080fd5b602082029050602081019050919050565b600067ffffffffffffffff8211156111ff57600080fd5b601f19601f8301169050602081019050919050565b600067ffffffffffffffff82111561122b57600080fd5b601f19601f8301169050602081019050919050565b600067ffffffffffffffff82111561125757600080fd5b601f19601f8301169050602081019050919050565b6000819050602082019050919050565b6000819050602082019050919050565b600081519050919050565b600081519050919050565b600081519050919050565b600081519050919050565b600081519050919050565b6000602082019050919050565b6000602082019050919050565b600081905092915050565b600081905092915050565b600081905092915050565b600081905092915050565b600061131482611351565b9050919050565b60007fff0000000000000000000000000000000000000000000000000000000000000082169050919050565b6000819050919050565b600073ffffffffffffffffffffffffffffffffffffffff82169050919050565b6000819050919050565b82818337600083830152505050565b60005b838110156113a857808201518184015260208101905061138d565b838111156113b7576000848401525b50505050565b60006113c8826113e3565b9050919050565b6000819050919050565b6000819050919050565b60006113ee826113ff565b9050919050565b6000819050919050565b60008160601b9050919050565b61141581611309565b811461142057600080fd5b50565b61142c81611347565b811461143757600080fd5b50565b61144381611371565b811461144e57600080fd5b5056fea365627a7a72305820ef6b368eeacd5dd3316749a687b48a69356df000635be5b24240114d39320aa06c6578706572696d656e74616cf564736f6c634300050a0040",
  "source": "pragma solidity >=0.5.0 <0.6.0;\npragma experimental \"ABIEncoderV2\";\n\nlibrary MusicLib {\n\n    /**\n     * For now, alternateTitles and alternate_TitleSoundRecording are strings storing\n     * comma separated titles ie. \"title1,title2,title3\"\n     */\n    struct Work {\n        string title;\n        string titleSoundRecording;\n        bytes32 iswc;\n        bytes32 territory;\n        address[] publishers;\n        address ownershipContract;\n    }\n\n    /**\n     * For new work\n     */\n    function getWorkHash(Work memory metadata, string memory func, bytes memory data, uint256 nonce)\n        public\n        view\n        returns (bytes32)\n    {\n        return keccak256(\n            abi.encodePacked(\n                abi.encodePacked(\n                    byte(0x19), byte(0), address(this),\n                    func\n                ),\n                abi.encodePacked(\n                    metadata.title,\n                    metadata.titleSoundRecording,\n                    metadata.iswc,\n                    metadata.territory,\n                    metadata.publishers,\n                    data,\n                    nonce\n                )\n            )\n        );\n    }\n\n    /**\n     * For current work\n     */\n    function getWorkHash(Work memory metadata, string memory func, bytes32 workId, uint256 nonce)\n        public\n        view\n        returns (bytes32)\n    {\n        return keccak256(\n            abi.encodePacked(\n                abi.encodePacked(\n                    byte(0x19), byte(0), address(this),\n                    func\n                ),\n                abi.encodePacked(\n                    workId,\n                    metadata.title,\n                    metadata.titleSoundRecording,\n                    metadata.iswc,\n                    metadata.territory,\n                    metadata.publishers,\n                    nonce\n                )\n            )\n        );\n    }\n\n    /**\n     * For deleted work\n     */\n    function getWorkHash(string memory func, bytes32 workId, uint256 nonce)\n        public\n        view\n        returns (bytes32)\n    {\n        return keccak256(\n            abi.encodePacked(\n                byte(0x19), byte(0), address(this),\n                func,\n                workId,\n                nonce\n            )\n        );\n    }\n\n    struct Recording {\n        string title;\n        string versionTitle;\n        bytes32 isrc;\n        bytes32 territory;\n        bytes32 album_upc;\n        address[] labels;\n        bytes32[] workIds;\n        address ownershipContract;\n    }\n\n    /**\n     * For new recording\n     */\n    function getRecordingHash(Recording memory metadata, string memory func, bytes memory data, uint256 nonce)\n        public\n        view\n        returns (bytes32)\n    {\n        return keccak256(\n            abi.encodePacked(\n                abi.encodePacked(\n                    byte(0x19), byte(0), address(this),\n                    func\n                ),\n                abi.encodePacked(\n                    metadata.title,\n                    metadata.versionTitle,\n                    metadata.isrc,\n                    metadata.territory,\n                    metadata.album_upc\n                ),\n                abi.encodePacked(\n                    metadata.labels,\n                    metadata.workIds,\n                    data,\n                    nonce\n                )\n            )\n        );\n    }\n\n    /**\n     * For current recording\n     */\n    function getRecordingHash(Recording memory metadata, string memory func, bytes32 recordingId, uint256 nonce)\n        public\n        view\n        returns (bytes32)\n    {\n        return keccak256(\n            abi.encodePacked(\n                abi.encodePacked(\n                    byte(0x19), byte(0), address(this),\n                    func\n                ),\n                abi.encodePacked(\n                    recordingId,\n                    metadata.title,\n                    metadata.versionTitle,\n                    metadata.isrc,\n                    metadata.territory\n                ),\n                abi.encodePacked(\n                    metadata.album_upc,\n                    metadata.labels,\n                    metadata.workIds,\n                    nonce\n                )\n            )\n        );\n    }\n\n    /**\n     * For deleted recording\n     */\n    function getRecordingHash(string memory func, bytes32 recordingId, uint256 nonce)\n        public\n        view\n        returns (bytes32)\n    {\n        return keccak256(\n            abi.encodePacked(\n                byte(0x19), byte(0), address(this),\n                func,\n                recordingId,\n                nonce\n            )\n        );\n    }\n\n}\n",
  "sourcePath": "/Users/tom/www/music-smart-contracts/contracts/library/MusicLib.sol",
  "compiler": {
    "name": "solc",
    "version": "0.5.10+commit.5a6ea5b1.Emscripten.clang"
  },
  "schemaVersion": "3.0.11",
  "updatedAt": "2019-08-05T03:34:02.654Z",
  "devdoc": {
    "methods": {}
  },
  "userdoc": {
    "methods": {
      "getRecordingHash(MusicLib.Recording,string,bytes,uint256)": {
        "notice": "For new recording"
      },
      "getRecordingHash(MusicLib.Recording,string,bytes32,uint256)": {
        "notice": "For current recording"
      },
      "getRecordingHash(string,bytes32,uint256)": {
        "notice": "For deleted recording"
      },
      "getWorkHash(MusicLib.Work,string,bytes,uint256)": {
        "notice": "For new work"
      },
      "getWorkHash(MusicLib.Work,string,bytes32,uint256)": {
        "notice": "For current work"
      },
      "getWorkHash(string,bytes32,uint256)": {
        "notice": "For deleted work"
      }
    }
  }
}