{
  "contractName": "MusicRegistry",
  "abi": [
    {
      "constant": true,
      "inputs": [],
      "name": "WORK_FLAG",
      "outputs": [
        {
          "name": "",
          "type": "uint8"
        }
      ],
      "payable": false,
      "stateMutability": "view",
      "type": "function"
    },
    {
      "constant": true,
      "inputs": [
        {
          "name": "actor",
          "type": "address"
        }
      ],
      "name": "getIdentity",
      "outputs": [
        {
          "name": "",
          "type": "address"
        }
      ],
      "payable": false,
      "stateMutability": "view",
      "type": "function"
    },
    {
      "constant": true,
      "inputs": [
        {
          "name": "",
          "type": "bytes32"
        }
      ],
      "name": "works",
      "outputs": [
        {
          "name": "title",
          "type": "string"
        },
        {
          "name": "titleSoundRecording",
          "type": "string"
        },
        {
          "name": "iswc",
          "type": "bytes32"
        },
        {
          "name": "territory",
          "type": "bytes32"
        },
        {
          "name": "ownershipContract",
          "type": "address"
        }
      ],
      "payable": false,
      "stateMutability": "view",
      "type": "function"
    },
    {
      "constant": true,
      "inputs": [],
      "name": "counter",
      "outputs": [
        {
          "name": "",
          "type": "uint256"
        }
      ],
      "payable": false,
      "stateMutability": "view",
      "type": "function"
    },
    {
      "constant": true,
      "inputs": [
        {
          "name": "",
          "type": "address"
        }
      ],
      "name": "nonce",
      "outputs": [
        {
          "name": "",
          "type": "uint256"
        }
      ],
      "payable": false,
      "stateMutability": "view",
      "type": "function"
    },
    {
      "constant": true,
      "inputs": [],
      "name": "RECORDING_FLAG",
      "outputs": [
        {
          "name": "",
          "type": "uint8"
        }
      ],
      "payable": false,
      "stateMutability": "view",
      "type": "function"
    },
    {
      "constant": true,
      "inputs": [
        {
          "name": "",
          "type": "bytes32"
        }
      ],
      "name": "recordings",
      "outputs": [
        {
          "name": "title",
          "type": "string"
        },
        {
          "name": "versionTitle",
          "type": "string"
        },
        {
          "name": "isrc",
          "type": "bytes32"
        },
        {
          "name": "territory",
          "type": "bytes32"
        },
        {
          "name": "album_upc",
          "type": "bytes32"
        },
        {
          "name": "ownershipContract",
          "type": "address"
        }
      ],
      "payable": false,
      "stateMutability": "view",
      "type": "function"
    },
    {
      "constant": true,
      "inputs": [
        {
          "name": "",
          "type": "bytes32"
        }
      ],
      "name": "usedUUIDs",
      "outputs": [
        {
          "name": "",
          "type": "bool"
        }
      ],
      "payable": false,
      "stateMutability": "view",
      "type": "function"
    },
    {
      "constant": true,
      "inputs": [],
      "name": "proxyFactory",
      "outputs": [
        {
          "name": "",
          "type": "address"
        }
      ],
      "payable": false,
      "stateMutability": "view",
      "type": "function"
    },
    {
      "constant": true,
      "inputs": [],
      "name": "ethDIDReg",
      "outputs": [
        {
          "name": "",
          "type": "address"
        }
      ],
      "payable": false,
      "stateMutability": "view",
      "type": "function"
    },
    {
      "constant": true,
      "inputs": [
        {
          "name": "identity",
          "type": "address"
        },
        {
          "name": "actor",
          "type": "address"
        }
      ],
      "name": "isIdentityOwner",
      "outputs": [
        {
          "name": "",
          "type": "bool"
        }
      ],
      "payable": false,
      "stateMutability": "view",
      "type": "function"
    },
    {
      "anonymous": false,
      "inputs": [
        {
          "indexed": true,
          "name": "workId",
          "type": "bytes32"
        },
        {
          "indexed": false,
          "name": "title",
          "type": "string"
        },
        {
          "indexed": false,
          "name": "titleSoundRecording",
          "type": "string"
        },
        {
          "indexed": true,
          "name": "iswc",
          "type": "bytes32"
        },
        {
          "indexed": false,
          "name": "territory",
          "type": "bytes32"
        },
        {
          "indexed": false,
          "name": "publishers",
          "type": "address[]"
        },
        {
          "indexed": true,
          "name": "ownershipContract",
          "type": "address"
        }
      ],
      "name": "WorkRegistered",
      "type": "event"
    },
    {
      "anonymous": false,
      "inputs": [
        {
          "indexed": true,
          "name": "workId",
          "type": "bytes32"
        },
        {
          "indexed": false,
          "name": "title",
          "type": "string"
        },
        {
          "indexed": false,
          "name": "titleSoundRecording",
          "type": "string"
        },
        {
          "indexed": true,
          "name": "iswc",
          "type": "bytes32"
        },
        {
          "indexed": false,
          "name": "territory",
          "type": "bytes32"
        },
        {
          "indexed": false,
          "name": "publishers",
          "type": "address[]"
        },
        {
          "indexed": true,
          "name": "ownershipContract",
          "type": "address"
        }
      ],
      "name": "WorkUpdated",
      "type": "event"
    },
    {
      "anonymous": false,
      "inputs": [
        {
          "indexed": false,
          "name": "workId",
          "type": "bytes32"
        }
      ],
      "name": "WorkRemoved",
      "type": "event"
    },
    {
      "anonymous": false,
      "inputs": [
        {
          "indexed": true,
          "name": "recordingId",
          "type": "bytes32"
        },
        {
          "indexed": false,
          "name": "title",
          "type": "string"
        },
        {
          "indexed": false,
          "name": "versionTitle",
          "type": "string"
        },
        {
          "indexed": true,
          "name": "isrc",
          "type": "bytes32"
        },
        {
          "indexed": false,
          "name": "territory",
          "type": "bytes32"
        },
        {
          "indexed": false,
          "name": "album_upc",
          "type": "bytes32"
        },
        {
          "indexed": false,
          "name": "labels",
          "type": "address[]"
        },
        {
          "indexed": false,
          "name": "workIds",
          "type": "bytes32[]"
        },
        {
          "indexed": true,
          "name": "ownershipContract",
          "type": "address"
        }
      ],
      "name": "RecordingRegistered",
      "type": "event"
    },
    {
      "anonymous": false,
      "inputs": [
        {
          "indexed": true,
          "name": "recordingId",
          "type": "bytes32"
        },
        {
          "indexed": false,
          "name": "title",
          "type": "string"
        },
        {
          "indexed": false,
          "name": "versionTitle",
          "type": "string"
        },
        {
          "indexed": true,
          "name": "isrc",
          "type": "bytes32"
        },
        {
          "indexed": false,
          "name": "territory",
          "type": "bytes32"
        },
        {
          "indexed": false,
          "name": "album_upc",
          "type": "bytes32"
        },
        {
          "indexed": false,
          "name": "labels",
          "type": "address[]"
        },
        {
          "indexed": false,
          "name": "workIds",
          "type": "bytes32[]"
        },
        {
          "indexed": true,
          "name": "ownershipContract",
          "type": "address"
        }
      ],
      "name": "RecordingUpdated",
      "type": "event"
    },
    {
      "anonymous": false,
      "inputs": [
        {
          "indexed": false,
          "name": "recordingId",
          "type": "bytes32"
        }
      ],
      "name": "RecordingRemoved",
      "type": "event"
    },
    {
      "anonymous": false,
      "inputs": [
        {
          "indexed": false,
          "name": "uuid",
          "type": "bytes32"
        }
      ],
      "name": "UUID",
      "type": "event"
    },
    {
      "anonymous": false,
      "inputs": [
        {
          "indexed": false,
          "name": "reg",
          "type": "address"
        }
      ],
      "name": "EthRegistrySet",
      "type": "event"
    },
    {
      "constant": false,
      "inputs": [
        {
          "name": "ethDIDAddress",
          "type": "address"
        },
        {
          "name": "factory",
          "type": "address"
        }
      ],
      "name": "init",
      "outputs": [],
      "payable": false,
      "stateMutability": "nonpayable",
      "type": "function"
    },
    {
      "constant": true,
      "inputs": [
        {
          "name": "projectId",
          "type": "bytes32"
        },
        {
          "name": "sender",
          "type": "address"
        }
      ],
      "name": "isOwner",
      "outputs": [
        {
          "name": "",
          "type": "bool"
        }
      ],
      "payable": false,
      "stateMutability": "view",
      "type": "function"
    },
    {
      "constant": true,
      "inputs": [
        {
          "name": "projectId",
          "type": "bytes32"
        }
      ],
      "name": "getPublishers",
      "outputs": [
        {
          "name": "",
          "type": "address[]"
        }
      ],
      "payable": false,
      "stateMutability": "view",
      "type": "function"
    },
    {
      "constant": true,
      "inputs": [
        {
          "name": "projectId",
          "type": "bytes32"
        }
      ],
      "name": "getLabels",
      "outputs": [
        {
          "name": "",
          "type": "address[]"
        }
      ],
      "payable": false,
      "stateMutability": "view",
      "type": "function"
    },
    {
      "constant": true,
      "inputs": [
        {
          "name": "projectId",
          "type": "bytes32"
        }
      ],
      "name": "getWorkIds",
      "outputs": [
        {
          "name": "",
          "type": "bytes32[]"
        }
      ],
      "payable": false,
      "stateMutability": "view",
      "type": "function"
    },
    {
      "constant": false,
      "inputs": [
        {
          "components": [
            {
              "name": "title",
              "type": "string"
            },
            {
              "name": "titleSoundRecording",
              "type": "string"
            },
            {
              "name": "iswc",
              "type": "bytes32"
            },
            {
              "name": "territory",
              "type": "bytes32"
            },
            {
              "name": "publishers",
              "type": "address[]"
            },
            {
              "name": "ownershipContract",
              "type": "address"
            }
          ],
          "name": "metadata",
          "type": "tuple"
        },
        {
          "name": "signature",
          "type": "bytes"
        },
        {
          "name": "data",
          "type": "bytes"
        },
        {
          "name": "signer",
          "type": "address"
        }
      ],
      "name": "registerWork",
      "outputs": [],
      "payable": false,
      "stateMutability": "nonpayable",
      "type": "function"
    },
    {
      "constant": false,
      "inputs": [
        {
          "name": "workId",
          "type": "bytes32"
        },
        {
          "components": [
            {
              "name": "title",
              "type": "string"
            },
            {
              "name": "titleSoundRecording",
              "type": "string"
            },
            {
              "name": "iswc",
              "type": "bytes32"
            },
            {
              "name": "territory",
              "type": "bytes32"
            },
            {
              "name": "publishers",
              "type": "address[]"
            },
            {
              "name": "ownershipContract",
              "type": "address"
            }
          ],
          "name": "metadata",
          "type": "tuple"
        },
        {
          "name": "signature",
          "type": "bytes"
        },
        {
          "name": "signer",
          "type": "address"
        }
      ],
      "name": "updateWork",
      "outputs": [],
      "payable": false,
      "stateMutability": "nonpayable",
      "type": "function"
    },
    {
      "constant": false,
      "inputs": [
        {
          "name": "workId",
          "type": "bytes32"
        },
        {
          "name": "signature",
          "type": "bytes"
        },
        {
          "name": "signer",
          "type": "address"
        }
      ],
      "name": "removeWork",
      "outputs": [],
      "payable": false,
      "stateMutability": "nonpayable",
      "type": "function"
    },
    {
      "constant": false,
      "inputs": [
        {
          "components": [
            {
              "name": "title",
              "type": "string"
            },
            {
              "name": "versionTitle",
              "type": "string"
            },
            {
              "name": "isrc",
              "type": "bytes32"
            },
            {
              "name": "territory",
              "type": "bytes32"
            },
            {
              "name": "album_upc",
              "type": "bytes32"
            },
            {
              "name": "labels",
              "type": "address[]"
            },
            {
              "name": "workIds",
              "type": "bytes32[]"
            },
            {
              "name": "ownershipContract",
              "type": "address"
            }
          ],
          "name": "metadata",
          "type": "tuple"
        },
        {
          "name": "signature",
          "type": "bytes"
        },
        {
          "name": "data",
          "type": "bytes"
        },
        {
          "name": "signer",
          "type": "address"
        }
      ],
      "name": "registerRecording",
      "outputs": [],
      "payable": false,
      "stateMutability": "nonpayable",
      "type": "function"
    },
    {
      "constant": false,
      "inputs": [
        {
          "name": "recordingId",
          "type": "bytes32"
        },
        {
          "components": [
            {
              "name": "title",
              "type": "string"
            },
            {
              "name": "versionTitle",
              "type": "string"
            },
            {
              "name": "isrc",
              "type": "bytes32"
            },
            {
              "name": "territory",
              "type": "bytes32"
            },
            {
              "name": "album_upc",
              "type": "bytes32"
            },
            {
              "name": "labels",
              "type": "address[]"
            },
            {
              "name": "workIds",
              "type": "bytes32[]"
            },
            {
              "name": "ownershipContract",
              "type": "address"
            }
          ],
          "name": "metadata",
          "type": "tuple"
        },
        {
          "name": "signature",
          "type": "bytes"
        },
        {
          "name": "signer",
          "type": "address"
        }
      ],
      "name": "updateRecording",
      "outputs": [],
      "payable": false,
      "stateMutability": "nonpayable",
      "type": "function"
    },
    {
      "constant": false,
      "inputs": [
        {
          "name": "recordingId",
          "type": "bytes32"
        },
        {
          "name": "signature",
          "type": "bytes"
        },
        {
          "name": "signer",
          "type": "address"
        }
      ],
      "name": "removeRecording",
      "outputs": [],
      "payable": false,
      "stateMutability": "nonpayable",
      "type": "function"
    }
  ],
  "bytecode": "0x6080604052600160345534801561001557600080fd5b506152bf806100256000396000f3fe608060405234801561001057600080fd5b50600436106101425760003560e01c806370ae92d2116100b8578063a14119991161007c578063a1411999146103a2578063c10f1a75146103d2578063e7175813146103f0578063f09a40161461040e578063faf2edc11461042a578063fd2aa0b41461045a57610142565b806370ae92d2146102d35780638a6a25df1461030357806392ca5ae41461032157806396524c3b1461033d578063977c90731461037257610142565b80634fcaf8921161010a5780634fcaf8921461021157806353e88f901461022d57806356da50371461024957806357f655aa1461027d57806361bc221a146102995780636d352efb146102b757610142565b806312f0dff61461014757806322bab537146101655780632c3d6428146101955780632fea7b81146101b15780633fb56671146101e1575b600080fd5b61014f61048a565b60405161015c9190614f0b565b60405180910390f35b61017f600480360361017a919081019061397d565b61048f565b60405161018c91906148c5565b60405180910390f35b6101af60048036036101aa9190810190613a0b565b610533565b005b6101cb60048036036101c691908101906138c6565b6109de565b6040516101d89190614851565b60405180910390f35b6101fb60048036036101f691908101906139cf565b610b07565b6040516102089190614909565b60405180910390f35b61022b60048036036102269190810190613a0b565b610dd0565b005b61024760048036036102429190810190613c43565b611263565b005b610263600480360361025e919081019061397d565b611674565b6040516102749594939291906149f9565b60405180910390f35b61029760048036036102929190810190613b05565b6117fa565b005b6102a1611e71565b6040516102ae9190614ef0565b60405180910390f35b6102d160048036036102cc9190810190613a72565b611e77565b005b6102ed60048036036102e891908101906138c6565b6124ad565b6040516102fa9190614ef0565b60405180910390f35b61030b6124c5565b6040516103189190614f0b565b60405180910390f35b61033b60048036036103369190810190613b98565b6124ca565b005b6103576004803603610352919081019061397d565b612908565b60405161036996959493929190614ad7565b60405180910390f35b61038c6004803603610387919081019061397d565b612a94565b6040516103999190614909565b60405180910390f35b6103bc60048036036103b7919081019061397d565b612ab4565b6040516103c991906148c5565b60405180910390f35b6103da612b58565b6040516103e79190614984565b60405180910390f35b6103f8612b7e565b6040516104059190614851565b60405180910390f35b61042860048036036104239190810190613918565b612ba4565b005b610444600480360361043f919081019061397d565b612cd9565b60405161045191906148e7565b60405180910390f35b610474600480360361046f9190810190613918565b612d47565b6040516104819190614909565b60405180910390f35b605781565b60606038600083815260200190815260200160002060040180548060200260200160405190810160405280929190818152602001828054801561052757602002820191906000526020600020905b8160009054906101000a900473ffffffffffffffffffffffffffffffffffffffff1673ffffffffffffffffffffffffffffffffffffffff16815260200190600101908083116104dd575b50505050509050919050565b82816000801b82141561057b576040517f08c379a000000000000000000000000000000000000000000000000000000000815260040161057290614bc6565b60405180910390fd5b600073ffffffffffffffffffffffffffffffffffffffff168173ffffffffffffffffffffffffffffffffffffffff1614156105eb576040517f08c379a00000000000000000000000000000000000000000000000000000000081526004016105e290614d7e565b60405180910390fd5b6000605760ff16836000602081106105ff57fe5b1a60f81b60f81c60ff16141561064d576038600084815260200190815260200160002060050160009054906101000a900473ffffffffffffffffffffffffffffffffffffffff1690506106aa565b605260ff168360006020811061065f57fe5b1a60f81b60f81c60ff1614156106a9576039600084815260200190815260200160002060070160009054906101000a900473ffffffffffffffffffffffffffffffffffffffff1690505b5b600073ffffffffffffffffffffffffffffffffffffffff168173ffffffffffffffffffffffffffffffffffffffff16141561071a576040517f08c379a000000000000000000000000000000000000000000000000000000000815260040161071190614b46565b60405180910390fd5b60008173ffffffffffffffffffffffffffffffffffffffff16632420a3fa610741856109de565b6040518263ffffffff1660e01b815260040161075d9190614851565b60206040518083038186803b15801561077557600080fd5b505afa158015610789573d6000803e3d6000fd5b505050506040513d601f19601f820116820180604052506107ad9190810190613cee565b116107ed576040517f08c379a00000000000000000000000000000000000000000000000000000000081526004016107e490614be6565b60405180910390fd5b6000855111610831576040517f08c379a000000000000000000000000000000000000000000000000000000000815260040161082890614c86565b60405180910390fd5b600073__MusicLib______________________________6334f27c8088603760008973ffffffffffffffffffffffffffffffffffffffff1673ffffffffffffffffffffffffffffffffffffffff168152602001908152602001600020546040518363ffffffff1660e01b81526004016108ab929190614d42565b60206040518083038186803b1580156108c357600080fd5b505af41580156108d7573d6000803e3d6000fd5b505050506040513d601f19601f820116820180604052506108fb91908101906139a6565b9050610908818787612dfe565b50603960008881526020019081526020016000206000808201600061092d9190613222565b60018201600061093d9190613222565b600282016000905560038201600090556004820160009055600582016000610965919061326a565b600682016000610975919061328b565b6007820160006101000a81549073ffffffffffffffffffffffffffffffffffffffff021916905550507f75ca86a1b05fc26f4d5f87a8f1f717519006df2c556770243d136f2dafe908bc876040516109cd9190614924565b60405180910390a150505050505050565b600080603360009054906101000a900473ffffffffffffffffffffffffffffffffffffffff1673ffffffffffffffffffffffffffffffffffffffff16632fea7b81846040518263ffffffff1660e01b8152600401610a3c9190614851565b60206040518083038186803b158015610a5457600080fd5b505afa158015610a68573d6000803e3d6000fd5b505050506040513d601f19601f82011682018060405250610a8c91908101906138ef565b9050600073ffffffffffffffffffffffffffffffffffffffff168173ffffffffffffffffffffffffffffffffffffffff161415610afe576040517f08c379a0000000000000000000000000000000000000000000000000000000008152600401610af590614c06565b60405180910390fd5b80915050919050565b600082826000801b821415610b51576040517f08c379a0000000000000000000000000000000000000000000000000000000008152600401610b4890614bc6565b60405180910390fd5b600073ffffffffffffffffffffffffffffffffffffffff168173ffffffffffffffffffffffffffffffffffffffff161415610bc1576040517f08c379a0000000000000000000000000000000000000000000000000000000008152600401610bb890614d7e565b60405180910390fd5b6000605760ff1683600060208110610bd557fe5b1a60f81b60f81c60ff161415610c23576038600084815260200190815260200160002060050160009054906101000a900473ffffffffffffffffffffffffffffffffffffffff169050610c80565b605260ff1683600060208110610c3557fe5b1a60f81b60f81c60ff161415610c7f576039600084815260200190815260200160002060070160009054906101000a900473ffffffffffffffffffffffffffffffffffffffff1690505b5b600073ffffffffffffffffffffffffffffffffffffffff168173ffffffffffffffffffffffffffffffffffffffff161415610cf0576040517f08c379a0000000000000000000000000000000000000000000000000000000008152600401610ce790614b46565b60405180910390fd5b60008173ffffffffffffffffffffffffffffffffffffffff16632420a3fa610d17856109de565b6040518263ffffffff1660e01b8152600401610d339190614851565b60206040518083038186803b158015610d4b57600080fd5b505afa158015610d5f573d6000803e3d6000fd5b505050506040513d601f19601f82011682018060405250610d839190810190613cee565b11610dc3576040517f08c379a0000000000000000000000000000000000000000000000000000000008152600401610dba90614be6565b60405180910390fd5b6001935050505092915050565b82816000801b821415610e18576040517f08c379a0000000000000000000000000000000000000000000000000000000008152600401610e0f90614bc6565b60405180910390fd5b600073ffffffffffffffffffffffffffffffffffffffff168173ffffffffffffffffffffffffffffffffffffffff161415610e88576040517f08c379a0000000000000000000000000000000000000000000000000000000008152600401610e7f90614d7e565b60405180910390fd5b6000605760ff1683600060208110610e9c57fe5b1a60f81b60f81c60ff161415610eea576038600084815260200190815260200160002060050160009054906101000a900473ffffffffffffffffffffffffffffffffffffffff169050610f47565b605260ff1683600060208110610efc57fe5b1a60f81b60f81c60ff161415610f46576039600084815260200190815260200160002060070160009054906101000a900473ffffffffffffffffffffffffffffffffffffffff1690505b5b600073ffffffffffffffffffffffffffffffffffffffff168173ffffffffffffffffffffffffffffffffffffffff161415610fb7576040517f08c379a0000000000000000000000000000000000000000000000000000000008152600401610fae90614b46565b60405180910390fd5b60008173ffffffffffffffffffffffffffffffffffffffff16632420a3fa610fde856109de565b6040518263ffffffff1660e01b8152600401610ffa9190614851565b60206040518083038186803b15801561101257600080fd5b505afa158015611026573d6000803e3d6000fd5b505050506040513d601f19601f8201168201806040525061104a9190810190613cee565b1161108a576040517f08c379a000000000000000000000000000000000000000000000000000000000815260040161108190614be6565b60405180910390fd5b60008551116110ce576040517f08c379a00000000000000000000000000000000000000000000000000000000081526004016110c590614c86565b60405180910390fd5b600073__MusicLib______________________________63de3ca29688603760008973ffffffffffffffffffffffffffffffffffffffff1673ffffffffffffffffffffffffffffffffffffffff168152602001908152602001600020546040518363ffffffff1660e01b8152600401611148929190614ce6565b60206040518083038186803b15801561116057600080fd5b505af4158015611174573d6000803e3d6000fd5b505050506040513d601f19601f8201168201806040525061119891908101906139a6565b90506111a5818787612dfe565b5060386000888152602001908152602001600020600080820160006111ca9190613222565b6001820160006111da9190613222565b600282016000905560038201600090556004820160006111fa919061326a565b6005820160006101000a81549073ffffffffffffffffffffffffffffffffffffffff021916905550507f4a49bc9996686e18feec23b502027cce21e8edf8d6685bec56e8f5a070fdd73d876040516112529190614924565b60405180910390a150505050505050565b6000846000015151116112ab576040517f08c379a00000000000000000000000000000000000000000000000000000000081526004016112a290614c66565b60405180910390fd5b60008351116112ef576040517f08c379a00000000000000000000000000000000000000000000000000000000081526004016112e690614c86565b60405180910390fd5b600073ffffffffffffffffffffffffffffffffffffffff168173ffffffffffffffffffffffffffffffffffffffff16141561135f576040517f08c379a000000000000000000000000000000000000000000000000000000000815260040161135690614b86565b60405180910390fd5b60008473__MusicLib______________________________63877295e3909185603760008773ffffffffffffffffffffffffffffffffffffffff1673ffffffffffffffffffffffffffffffffffffffff168152602001908152602001600020546040518463ffffffff1660e01b81526004016113dd93929190614e47565b60206040518083038186803b1580156113f557600080fd5b505af4158015611409573d6000803e3d6000fd5b505050506040513d601f19601f8201168201806040525061142d91908101906139a6565b9050600061143c828685612dfe565b90506000603660009054906101000a900473ffffffffffffffffffffffffffffffffffffffff1673ffffffffffffffffffffffffffffffffffffffff1663e97fac0583876040518363ffffffff1660e01b815260040161149d929190614895565b602060405180830381600087803b1580156114b757600080fd5b505af11580156114cb573d6000803e3d6000fd5b505050506040513d601f19601f820116820180604052506114ef91908101906138ef565b9050808760a0019073ffffffffffffffffffffffffffffffffffffffff16908173ffffffffffffffffffffffffffffffffffffffff168152505060006115356057612fcc565b9050876038600083815260200190815260200160002060008201518160000190805190602001906115679291906132ac565b5060208201518160010190805190602001906115849291906132ac565b50604082015181600201556060820151816003015560808201518160040190805190602001906115b592919061332c565b5060a08201518160050160006101000a81548173ffffffffffffffffffffffffffffffffffffffff021916908373ffffffffffffffffffffffffffffffffffffffff1602179055509050508173ffffffffffffffffffffffffffffffffffffffff168860400151827f536986f0d8d2607b9be527be5930cce11519189cb7d87901a0ce33d3b45cbd448b600001518c602001518d606001518e60800151604051611662949392919061499f565b60405180910390a45050505050505050565b6038602052806000526040600020600091509050806000018054600181600116156101000203166002900480601f0160208091040260200160405190810160405280929190818152602001828054600181600116156101000203166002900480156117205780601f106116f557610100808354040283529160200191611720565b820191906000526020600020905b81548152906001019060200180831161170357829003601f168201915b505050505090806001018054600181600116156101000203166002900480601f0160208091040260200160405190810160405280929190818152602001828054600181600116156101000203166002900480156117be5780601f10611793576101008083540402835291602001916117be565b820191906000526020600020905b8154815290600101906020018083116117a157829003601f168201915b5050505050908060020154908060030154908060050160009054906101000a900473ffffffffffffffffffffffffffffffffffffffff16905085565b83816000801b821415611842576040517f08c379a000000000000000000000000000000000000000000000000000000000815260040161183990614bc6565b60405180910390fd5b600073ffffffffffffffffffffffffffffffffffffffff168173ffffffffffffffffffffffffffffffffffffffff1614156118b2576040517f08c379a00000000000000000000000000000000000000000000000000000000081526004016118a990614d7e565b60405180910390fd5b6000605760ff16836000602081106118c657fe5b1a60f81b60f81c60ff161415611914576038600084815260200190815260200160002060050160009054906101000a900473ffffffffffffffffffffffffffffffffffffffff169050611971565b605260ff168360006020811061192657fe5b1a60f81b60f81c60ff161415611970576039600084815260200190815260200160002060070160009054906101000a900473ffffffffffffffffffffffffffffffffffffffff1690505b5b600073ffffffffffffffffffffffffffffffffffffffff168173ffffffffffffffffffffffffffffffffffffffff1614156119e1576040517f08c379a00000000000000000000000000000000000000000000000000000000081526004016119d890614b46565b60405180910390fd5b60008173ffffffffffffffffffffffffffffffffffffffff16632420a3fa611a08856109de565b6040518263ffffffff1660e01b8152600401611a249190614851565b60206040518083038186803b158015611a3c57600080fd5b505afa158015611a50573d6000803e3d6000fd5b505050506040513d601f19601f82011682018060405250611a749190810190613cee565b11611ab4576040517f08c379a0000000000000000000000000000000000000000000000000000000008152600401611aab90614be6565b60405180910390fd5b600073ffffffffffffffffffffffffffffffffffffffff166038600089815260200190815260200160002060050160009054906101000a900473ffffffffffffffffffffffffffffffffffffffff1673ffffffffffffffffffffffffffffffffffffffff161415611b5a576040517f08c379a0000000000000000000000000000000000000000000000000000000008152600401611b5190614ca6565b60405180910390fd5b600086600001515111611ba2576040517f08c379a0000000000000000000000000000000000000000000000000000000008152600401611b9990614c66565b60405180910390fd5b6000855111611be6576040517f08c379a0000000000000000000000000000000000000000000000000000000008152600401611bdd90614c86565b60405180910390fd5b60008673__MusicLib______________________________639ba9fb4e90918a603760008a73ffffffffffffffffffffffffffffffffffffffff1673ffffffffffffffffffffffffffffffffffffffff168152602001908152602001600020546040518463ffffffff1660e01b8152600401611c6493929190614e9f565b60206040518083038186803b158015611c7c57600080fd5b505af4158015611c90573d6000803e3d6000fd5b505050506040513d601f19601f82011682018060405250611cb491908101906139a6565b9050611cc1818787612dfe565b506038600089815260200190815260200160002060050160009054906101000a900473ffffffffffffffffffffffffffffffffffffffff168760a0019073ffffffffffffffffffffffffffffffffffffffff16908173ffffffffffffffffffffffffffffffffffffffff168152505086603860008a81526020019081526020016000206000820151816000019080519060200190611d609291906132ac565b506020820151816001019080519060200190611d7d9291906132ac565b5060408201518160020155606082015181600301556080820151816004019080519060200190611dae92919061332c565b5060a08201518160050160006101000a81548173ffffffffffffffffffffffffffffffffffffffff021916908373ffffffffffffffffffffffffffffffffffffffff1602179055509050508660a0015173ffffffffffffffffffffffffffffffffffffffff168760400151897f766c2b398fc12ef36d5cfe0139d502b8daf1c828fbcbb12ead8250c4afebdb2f8a600001518b602001518c606001518d60800151604051611e5f949392919061499f565b60405180910390a45050505050505050565b60345481565b83816000801b821415611ebf576040517f08c379a0000000000000000000000000000000000000000000000000000000008152600401611eb690614bc6565b60405180910390fd5b600073ffffffffffffffffffffffffffffffffffffffff168173ffffffffffffffffffffffffffffffffffffffff161415611f2f576040517f08c379a0000000000000000000000000000000000000000000000000000000008152600401611f2690614d7e565b60405180910390fd5b6000605760ff1683600060208110611f4357fe5b1a60f81b60f81c60ff161415611f91576038600084815260200190815260200160002060050160009054906101000a900473ffffffffffffffffffffffffffffffffffffffff169050611fee565b605260ff1683600060208110611fa357fe5b1a60f81b60f81c60ff161415611fed576039600084815260200190815260200160002060070160009054906101000a900473ffffffffffffffffffffffffffffffffffffffff1690505b5b600073ffffffffffffffffffffffffffffffffffffffff168173ffffffffffffffffffffffffffffffffffffffff16141561205e576040517f08c379a000000000000000000000000000000000000000000000000000000000815260040161205590614b46565b60405180910390fd5b60008173ffffffffffffffffffffffffffffffffffffffff16632420a3fa612085856109de565b6040518263ffffffff1660e01b81526004016120a19190614851565b60206040518083038186803b1580156120b957600080fd5b505afa1580156120cd573d6000803e3d6000fd5b505050506040513d601f19601f820116820180604052506120f19190810190613cee565b11612131576040517f08c379a000000000000000000000000000000000000000000000000000000000815260040161212890614be6565b60405180910390fd5b600086600001515111612179576040517f08c379a000000000000000000000000000000000000000000000000000000000815260040161217090614c66565b60405180910390fd5b60008551116121bd576040517f08c379a00000000000000000000000000000000000000000000000000000000081526004016121b490614c86565b60405180910390fd5b60008673__MusicLib______________________________635033c68190918a603760008a73ffffffffffffffffffffffffffffffffffffffff1673ffffffffffffffffffffffffffffffffffffffff168152602001908152602001600020546040518463ffffffff1660e01b815260040161223b93929190614df6565b60206040518083038186803b15801561225357600080fd5b505af4158015612267573d6000803e3d6000fd5b505050506040513d601f19601f8201168201806040525061228b91908101906139a6565b9050612298818787612dfe565b506039600089815260200190815260200160002060070160009054906101000a900473ffffffffffffffffffffffffffffffffffffffff168760e0019073ffffffffffffffffffffffffffffffffffffffff16908173ffffffffffffffffffffffffffffffffffffffff168152505086603960008a815260200190815260200160002060008201518160000190805190602001906123379291906132ac565b5060208201518160010190805190602001906123549291906132ac565b5060408201518160020155606082015181600301556080820151816004015560a082015181600501908051906020019061238f92919061332c565b5060c08201518160060190805190602001906123ac9291906133b6565b5060e08201518160070160006101000a81548173ffffffffffffffffffffffffffffffffffffffff021916908373ffffffffffffffffffffffffffffffffffffffff1602179055509050506039600089815260200190815260200160002060070160009054906101000a900473ffffffffffffffffffffffffffffffffffffffff1673ffffffffffffffffffffffffffffffffffffffff168760400151897fc573b57a1bf817edeab708e5ec1ccfcdbb192b52307024861381ee3d89f01db48a600001518b602001518c606001518d608001518e60a001518f60c0015160405161249b96959493929190614a5a565b60405180910390a45050505050505050565b60376020528060005260406000206000915090505481565b605281565b600084600001515111612512576040517f08c379a000000000000000000000000000000000000000000000000000000000815260040161250990614c66565b60405180910390fd5b6000835111612556576040517f08c379a000000000000000000000000000000000000000000000000000000000815260040161254d90614c86565b60405180910390fd5b600073ffffffffffffffffffffffffffffffffffffffff168173ffffffffffffffffffffffffffffffffffffffff1614156125c6576040517f08c379a00000000000000000000000000000000000000000000000000000000081526004016125bd90614b86565b60405180910390fd5b60008473__MusicLib______________________________6341f247a0909185603760008773ffffffffffffffffffffffffffffffffffffffff1673ffffffffffffffffffffffffffffffffffffffff168152602001908152602001600020546040518463ffffffff1660e01b815260040161264493929190614d9e565b60206040518083038186803b15801561265c57600080fd5b505af4158015612670573d6000803e3d6000fd5b505050506040513d601f19601f8201168201806040525061269491908101906139a6565b90506000603660009054906101000a900473ffffffffffffffffffffffffffffffffffffffff1673ffffffffffffffffffffffffffffffffffffffff1663e97fac056126e1848887612dfe565b866040518363ffffffff1660e01b81526004016126ff929190614895565b602060405180830381600087803b15801561271957600080fd5b505af115801561272d573d6000803e3d6000fd5b505050506040513d601f19601f8201168201806040525061275191908101906138ef565b9050808660e0019073ffffffffffffffffffffffffffffffffffffffff16908173ffffffffffffffffffffffffffffffffffffffff168152505060006127976052612fcc565b9050866039600083815260200190815260200160002060008201518160000190805190602001906127c99291906132ac565b5060208201518160010190805190602001906127e69291906132ac565b5060408201518160020155606082015181600301556080820151816004015560a082015181600501908051906020019061282192919061332c565b5060c082015181600601908051906020019061283e9291906133b6565b5060e08201518160070160006101000a81548173ffffffffffffffffffffffffffffffffffffffff021916908373ffffffffffffffffffffffffffffffffffffffff1602179055509050508173ffffffffffffffffffffffffffffffffffffffff168760400151827f4274926b24cbc5e3b457f137031ac9d12493bf11a115bcf6ec44521bbbe15e298a600001518b602001518c606001518d608001518e60a001518f60c001516040516128f796959493929190614a5a565b60405180910390a450505050505050565b6039602052806000526040600020600091509050806000018054600181600116156101000203166002900480601f0160208091040260200160405190810160405280929190818152602001828054600181600116156101000203166002900480156129b45780601f10612989576101008083540402835291602001916129b4565b820191906000526020600020905b81548152906001019060200180831161299757829003601f168201915b505050505090806001018054600181600116156101000203166002900480601f016020809104026020016040519081016040528092919081815260200182805460018160011615610100020316600290048015612a525780601f10612a2757610100808354040283529160200191612a52565b820191906000526020600020905b815481529060010190602001808311612a3557829003601f168201915b5050505050908060020154908060030154908060040154908060070160009054906101000a900473ffffffffffffffffffffffffffffffffffffffff16905086565b60356020528060005260406000206000915054906101000a900460ff1681565b606060396000838152602001908152602001600020600501805480602002602001604051908101604052809291908181526020018280548015612b4c57602002820191906000526020600020905b8160009054906101000a900473ffffffffffffffffffffffffffffffffffffffff1673ffffffffffffffffffffffffffffffffffffffff1681526020019060010190808311612b02575b50505050509050919050565b603660009054906101000a900473ffffffffffffffffffffffffffffffffffffffff1681565b603360009054906101000a900473ffffffffffffffffffffffffffffffffffffffff1681565b600060019054906101000a900460ff1680612bc35750612bc26130be565b5b80612bda57506000809054906101000a900460ff16155b612c19576040517f08c379a0000000000000000000000000000000000000000000000000000000008152600401612c1090614c46565b60405180910390fd5b60008060019054906101000a900460ff161590508015612c69576001600060016101000a81548160ff02191690831515021790555060016000806101000a81548160ff0219169083151502179055505b612c72836130cf565b81603660006101000a81548173ffffffffffffffffffffffffffffffffffffffff021916908373ffffffffffffffffffffffffffffffffffffffff1602179055508015612cd45760008060016101000a81548160ff0219169083151502179055505b505050565b606060396000838152602001908152602001600020600601805480602002602001604051908101604052809291908181526020018280548015612d3b57602002820191906000526020600020905b815481526020019060010190808311612d27575b50505050509050919050565b6000603360009054906101000a900473ffffffffffffffffffffffffffffffffffffffff1673ffffffffffffffffffffffffffffffffffffffff1663fd2aa0b484846040518363ffffffff1660e01b8152600401612da692919061486c565b60206040518083038186803b158015612dbe57600080fd5b505afa158015612dd2573d6000803e3d6000fd5b505050506040513d601f19601f82011682018060405250612df69190810190613954565b905092915050565b60008060001b841415612e46576040517f08c379a0000000000000000000000000000000000000000000000000000000008152600401612e3d90614b66565b60405180910390fd5b6000835111612e8a576040517f08c379a0000000000000000000000000000000000000000000000000000000008152600401612e8190614cc6565b60405180910390fd5b600073ffffffffffffffffffffffffffffffffffffffff168273ffffffffffffffffffffffffffffffffffffffff161415612efa576040517f08c379a0000000000000000000000000000000000000000000000000000000008152600401612ef190614d22565b60405180910390fd5b603760008373ffffffffffffffffffffffffffffffffffffffff1673ffffffffffffffffffffffffffffffffffffffff16815260200190815260200160002060008154809291906001019190505550612f558484600061314a565b73ffffffffffffffffffffffffffffffffffffffff168273ffffffffffffffffffffffffffffffffffffffff1614612fc2576040517f08c379a0000000000000000000000000000000000000000000000000000000008152600401612fb990614c26565b60405180910390fd5b8190509392505050565b600080603460008154809291906001019190505560001b9050612fef81846131c1565b90506035600082815260200190815260200160002060009054906101000a900460ff1615613052576040517f08c379a000000000000000000000000000000000000000000000000000000000815260040161304990614ba6565b60405180910390fd5b60016035600083815260200190815260200160002060006101000a81548160ff0219169083151502179055507f8b222dfb61492c0e76f692ad8bec6f8ec75dda958c940fc804b24f453e64a6d3816040516130ad9190614924565b60405180910390a180915050919050565b600080303b90506000811491505090565b80603360006101000a81548173ffffffffffffffffffffffffffffffffffffffff021916908373ffffffffffffffffffffffffffffffffffffffff1602179055507f43bb990ead28e2cb3ea8b26e045448500f1cd58ccf150c95dd8e7e14dd12b7fa8160405161313f9190614851565b60405180910390a150565b60008060008061315a86866131f3565b80935081945082955050505060018784848460405160008152602001604052604051613189949392919061493f565b6020604051602081039080840390855afa1580156131ab573d6000803e3d6000fd5b5050506020604051035193505050509392505050565b60008160f81b7effffffffffffffffffffffffffffffffffffffffffffffffffffffffffffff19168317905092915050565b60008060008360410260208101860151925060408101860151915060ff60418201870151169350509250925092565b50805460018160011615610100020316600290046000825580601f106132485750613267565b601f0160209004906000526020600020908101906132669190613403565b5b50565b50805460008255906000526020600020908101906132889190613403565b50565b50805460008255906000526020600020908101906132a99190613428565b50565b828054600181600116156101000203166002900490600052602060002090601f016020900481019282601f106132ed57805160ff191683800117855561331b565b8280016001018555821561331b579182015b8281111561331a5782518255916020019190600101906132ff565b5b5090506133289190613403565b5090565b8280548282559060005260206000209081019282156133a5579160200282015b828111156133a45782518260006101000a81548173ffffffffffffffffffffffffffffffffffffffff021916908373ffffffffffffffffffffffffffffffffffffffff1602179055509160200191906001019061334c565b5b5090506133b2919061344d565b5090565b8280548282559060005260206000209081019282156133f2579160200282015b828111156133f15782518255916020019190600101906133d6565b5b5090506133ff9190613428565b5090565b61342591905b80821115613421576000816000905550600101613409565b5090565b90565b61344a91905b8082111561344657600081600090555060010161342e565b5090565b90565b61348d91905b8082111561348957600081816101000a81549073ffffffffffffffffffffffffffffffffffffffff021916905550600101613453565b5090565b90565b60008135905061349f81615220565b92915050565b6000815190506134b481615220565b92915050565b600082601f8301126134cb57600080fd5b81356134de6134d982614f53565b614f26565b9150818183526020840193506020810190508385602084028201111561350357600080fd5b60005b8381101561353357816135198882613490565b845260208401935060208301925050600181019050613506565b5050505092915050565b600082601f83011261354e57600080fd5b813561356161355c82614f7b565b614f26565b9150818183526020840193506020810190508385602084028201111561358657600080fd5b60005b838110156135b6578161359c88826135d5565b845260208401935060208301925050600181019050613589565b5050505092915050565b6000815190506135cf81615237565b92915050565b6000813590506135e48161524e565b92915050565b6000815190506135f98161524e565b92915050565b600082601f83011261361057600080fd5b813561362361361e82614fa3565b614f26565b9150808252602083016020830185838301111561363f57600080fd5b61364a8382846151cd565b50505092915050565b600082601f83011261366457600080fd5b813561367761367282614fcf565b614f26565b9150808252602083016020830185838301111561369357600080fd5b61369e8382846151cd565b50505092915050565b600061010082840312156136ba57600080fd5b6136c5610100614f26565b9050600082013567ffffffffffffffff8111156136e157600080fd5b6136ed84828501613653565b600083015250602082013567ffffffffffffffff81111561370d57600080fd5b61371984828501613653565b602083015250604061372d848285016135d5565b6040830152506060613741848285016135d5565b6060830152506080613755848285016135d5565b60808301525060a082013567ffffffffffffffff81111561377557600080fd5b613781848285016134ba565b60a08301525060c082013567ffffffffffffffff8111156137a157600080fd5b6137ad8482850161353d565b60c08301525060e06137c184828501613490565b60e08301525092915050565b600060c082840312156137df57600080fd5b6137e960c0614f26565b9050600082013567ffffffffffffffff81111561380557600080fd5b61381184828501613653565b600083015250602082013567ffffffffffffffff81111561383157600080fd5b61383d84828501613653565b6020830152506040613851848285016135d5565b6040830152506060613865848285016135d5565b606083015250608082013567ffffffffffffffff81111561388557600080fd5b613891848285016134ba565b60808301525060a06138a584828501613490565b60a08301525092915050565b6000815190506138c081615265565b92915050565b6000602082840312156138d857600080fd5b60006138e684828501613490565b91505092915050565b60006020828403121561390157600080fd5b600061390f848285016134a5565b91505092915050565b6000806040838503121561392b57600080fd5b600061393985828601613490565b925050602061394a85828601613490565b9150509250929050565b60006020828403121561396657600080fd5b6000613974848285016135c0565b91505092915050565b60006020828403121561398f57600080fd5b600061399d848285016135d5565b91505092915050565b6000602082840312156139b857600080fd5b60006139c6848285016135ea565b91505092915050565b600080604083850312156139e257600080fd5b60006139f0858286016135d5565b9250506020613a0185828601613490565b9150509250929050565b600080600060608486031215613a2057600080fd5b6000613a2e868287016135d5565b935050602084013567ffffffffffffffff811115613a4b57600080fd5b613a57868287016135ff565b9250506040613a6886828701613490565b9150509250925092565b60008060008060808587031215613a8857600080fd5b6000613a96878288016135d5565b945050602085013567ffffffffffffffff811115613ab357600080fd5b613abf878288016136a7565b935050604085013567ffffffffffffffff811115613adc57600080fd5b613ae8878288016135ff565b9250506060613af987828801613490565b91505092959194509250565b60008060008060808587031215613b1b57600080fd5b6000613b29878288016135d5565b945050602085013567ffffffffffffffff811115613b4657600080fd5b613b52878288016137cd565b935050604085013567ffffffffffffffff811115613b6f57600080fd5b613b7b878288016135ff565b9250506060613b8c87828801613490565b91505092959194509250565b60008060008060808587031215613bae57600080fd5b600085013567ffffffffffffffff811115613bc857600080fd5b613bd4878288016136a7565b945050602085013567ffffffffffffffff811115613bf157600080fd5b613bfd878288016135ff565b935050604085013567ffffffffffffffff811115613c1a57600080fd5b613c26878288016135ff565b9250506060613c3787828801613490565b91505092959194509250565b60008060008060808587031215613c5957600080fd5b600085013567ffffffffffffffff811115613c7357600080fd5b613c7f878288016137cd565b945050602085013567ffffffffffffffff811115613c9c57600080fd5b613ca8878288016135ff565b935050604085013567ffffffffffffffff811115613cc557600080fd5b613cd1878288016135ff565b9250506060613ce287828801613490565b91505092959194509250565b600060208284031215613d0057600080fd5b6000613d0e848285016138b1565b91505092915050565b6000613d238383613d77565b60208301905092915050565b6000613d3b8383613d95565b60208301905092915050565b6000613d538383613fe7565b60208301905092915050565b6000613d6b8383614014565b60208301905092915050565b613d808161514a565b82525050565b613d8f8161514a565b82525050565b613d9e8161514a565b82525050565b6000613daf82615046565b613db981856150b1565b9350613dc48361500b565b8060005b83811015613df5578151613ddc8882613d17565b9750613de78361508a565b925050600181019050613dc8565b5085935050505092915050565b6000613e0d8261503b565b613e1781856150b1565b9350613e2283614ffb565b8060005b83811015613e53578151613e3a8882613d17565b9750613e458361507d565b925050600181019050613e26565b5085935050505092915050565b6000613e6b8261503b565b613e7581856150c2565b9350613e8083614ffb565b8060005b83811015613eb1578151613e988882613d2f565b9750613ea38361507d565b925050600181019050613e84565b5085935050505092915050565b6000613ec98261505c565b613ed381856150d3565b9350613ede8361502b565b8060005b83811015613f0f578151613ef68882613d47565b9750613f01836150a4565b925050600181019050613ee2565b5085935050505092915050565b6000613f2782615051565b613f3181856150d3565b9350613f3c8361501b565b8060005b83811015613f6d578151613f548882613d47565b9750613f5f83615097565b925050600181019050613f40565b5085935050505092915050565b6000613f8582615051565b613f8f81856150e4565b9350613f9a8361501b565b8060005b83811015613fcb578151613fb28882613d5f565b9750613fbd83615097565b925050600181019050613f9e565b5085935050505092915050565b613fe18161515c565b82525050565b613ff081615168565b82525050565b613fff81615168565b82525050565b61400e81615168565b82525050565b61401d81615168565b82525050565b600061402e82615067565b61403881856150f5565b93506140488185602086016151dc565b6140518161520f565b840191505092915050565b600061406782615067565b6140718185615106565b93506140818185602086016151dc565b61408a8161520f565b840191505092915050565b61409e816151a9565b82525050565b60006140af82615072565b6140b98185615117565b93506140c98185602086016151dc565b6140d28161520f565b840191505092915050565b60006140e882615072565b6140f28185615139565b93506141028185602086016151dc565b61410b8161520f565b840191505092915050565b6000614123601183615128565b91507f72656769737465725265636f7264696e670000000000000000000000000000006000830152602082019050919050565b6000614163602083615117565b91507f6f776e657273686970436f6e74726163742063616e6e6f74206265207a65726f6000830152602082019050919050565b60006141a3601483615117565b91507f686173682063616e6e6f7420626520656d7074790000000000000000000000006000830152602082019050919050565b60006141e3601283615117565b91507f7369676e657220697320726571756972656400000000000000000000000000006000830152602082019050919050565b6000614223601a83615117565b91507f7575696420686173206265656e20616c726561647920757365640000000000006000830152602082019050919050565b6000614263601583615117565b91507f70726f6a656374496420697320726571756972656400000000000000000000006000830152602082019050919050565b60006142a3600c83615128565b91507f7265676973746572576f726b00000000000000000000000000000000000000006000830152602082019050919050565b60006142e3601a83615117565b91507f73656e646572206d7573742068617665206f776e6572736869700000000000006000830152602082019050919050565b6000614323603183615117565b91507f307830204964656e74697479206973206e6f7420616c6c6f77656420746f207060008301527f6572666f726d20616e7920616374696f6e0000000000000000000000000000006020830152604082019050919050565b6000614389602e83615117565b91507f4d65737361676520686173206e6f74206265656e207369676e65642070726f7060008301527f65726c79206279207369676e65720000000000000000000000000000000000006020830152604082019050919050565b60006143ef602e83615117565b91507f436f6e747261637420696e7374616e63652068617320616c726561647920626560008301527f656e20696e697469616c697a65640000000000000000000000000000000000006020830152604082019050919050565b6000614455601a83615117565b91507f6d657461646174612e7469746c652069732072657175697265640000000000006000830152602082019050919050565b6000614495601583615117565b91507f7369676e617475726520697320726571756972656400000000000000000000006000830152602082019050919050565b60006144d5600f83615117565b91507f576f726b206d75737420657869737400000000000000000000000000000000006000830152602082019050919050565b6000614515601983615117565b91507f7369676e61747572652063616e6e6f7420626520656d707479000000000000006000830152602082019050919050565b6000614555600a83615128565b91507f72656d6f7665576f726b000000000000000000000000000000000000000000006000830152602082019050919050565b6000614595600a83615128565b91507f757064617465576f726b000000000000000000000000000000000000000000006000830152602082019050919050565b60006145d5601e83615117565b91507f7369676e657220616464726573732063616e6e6f7420626520656d70747900006000830152602082019050919050565b6000614615600f83615128565b91507f72656d6f76655265636f7264696e6700000000000000000000000000000000006000830152602082019050919050565b6000614655600f83615128565b91507f7570646174655265636f7264696e6700000000000000000000000000000000006000830152602082019050919050565b6000614695601283615117565b91507f73656e64657220697320726571756972656400000000000000000000000000006000830152602082019050919050565b60006101008301600083015184820360008601526146e682826140dd565b9150506020830151848203602086015261470082826140dd565b91505060408301516147156040860182614014565b5060608301516147286060860182614014565b50608083015161473b6080860182614014565b5060a083015184820360a08601526147538282613e60565b91505060c083015184820360c086015261476d8282613f7a565b91505060e083015161478260e0860182613d95565b508091505092915050565b600060c08301600083015184820360008601526147aa82826140dd565b915050602083015184820360208601526147c482826140dd565b91505060408301516147d96040860182614014565b5060608301516147ec6060860182614014565b50608083015184820360808601526148048282613e60565b91505060a083015161481960a0860182613d95565b508091505092915050565b61482d81615192565b82525050565b61483c81615192565b82525050565b61484b8161519c565b82525050565b60006020820190506148666000830184613d86565b92915050565b60006040820190506148816000830185613d86565b61488e6020830184613d86565b9392505050565b60006040820190506148aa6000830185613d86565b81810360208301526148bc8184614023565b90509392505050565b600060208201905081810360008301526148df8184613da4565b905092915050565b600060208201905081810360008301526149018184613ebe565b905092915050565b600060208201905061491e6000830184613fd8565b92915050565b60006020820190506149396000830184613ff6565b92915050565b60006080820190506149546000830187613ff6565b6149616020830186614842565b61496e6040830185613ff6565b61497b6060830184613ff6565b95945050505050565b60006020820190506149996000830184614095565b92915050565b600060808201905081810360008301526149b981876140a4565b905081810360208301526149cd81866140a4565b90506149dc6040830185613ff6565b81810360608301526149ee8184613e02565b905095945050505050565b600060a0820190508181036000830152614a1381886140a4565b90508181036020830152614a2781876140a4565b9050614a366040830186613ff6565b614a436060830185613ff6565b614a506080830184613d86565b9695505050505050565b600060c0820190508181036000830152614a7481896140a4565b90508181036020830152614a8881886140a4565b9050614a976040830187613ff6565b614aa46060830186613ff6565b8181036080830152614ab68185613e02565b905081810360a0830152614aca8184613f1c565b9050979650505050505050565b600060c0820190508181036000830152614af181896140a4565b90508181036020830152614b0581886140a4565b9050614b146040830187613ff6565b614b216060830186613ff6565b614b2e6080830185613ff6565b614b3b60a0830184613d86565b979650505050505050565b60006020820190508181036000830152614b5f81614156565b9050919050565b60006020820190508181036000830152614b7f81614196565b9050919050565b60006020820190508181036000830152614b9f816141d6565b9050919050565b60006020820190508181036000830152614bbf81614216565b9050919050565b60006020820190508181036000830152614bdf81614256565b9050919050565b60006020820190508181036000830152614bff816142d6565b9050919050565b60006020820190508181036000830152614c1f81614316565b9050919050565b60006020820190508181036000830152614c3f8161437c565b9050919050565b60006020820190508181036000830152614c5f816143e2565b9050919050565b60006020820190508181036000830152614c7f81614448565b9050919050565b60006020820190508181036000830152614c9f81614488565b9050919050565b60006020820190508181036000830152614cbf816144c8565b9050919050565b60006020820190508181036000830152614cdf81614508565b9050919050565b60006060820190508181036000830152614cff81614548565b9050614d0e6020830185614005565b614d1b6040830184614833565b9392505050565b60006020820190508181036000830152614d3b816145c8565b9050919050565b60006060820190508181036000830152614d5b81614608565b9050614d6a6020830185614005565b614d776040830184614833565b9392505050565b60006020820190508181036000830152614d9781614688565b9050919050565b60006080820190508181036000830152614db881866146c8565b90508181036020830152614dcb81614116565b90508181036040830152614ddf818561405c565b9050614dee6060830184614833565b949350505050565b60006080820190508181036000830152614e1081866146c8565b90508181036020830152614e2381614648565b9050614e326040830185614005565b614e3f6060830184614833565b949350505050565b60006080820190508181036000830152614e61818661478d565b90508181036020830152614e7481614296565b90508181036040830152614e88818561405c565b9050614e976060830184614833565b949350505050565b60006080820190508181036000830152614eb9818661478d565b90508181036020830152614ecc81614588565b9050614edb6040830185614005565b614ee86060830184614833565b949350505050565b6000602082019050614f056000830184614824565b92915050565b6000602082019050614f206000830184614842565b92915050565b6000604051905081810181811067ffffffffffffffff82111715614f4957600080fd5b8060405250919050565b600067ffffffffffffffff821115614f6a57600080fd5b602082029050602081019050919050565b600067ffffffffffffffff821115614f9257600080fd5b602082029050602081019050919050565b600067ffffffffffffffff821115614fba57600080fd5b601f19601f8301169050602081019050919050565b600067ffffffffffffffff821115614fe657600080fd5b601f19601f8301169050602081019050919050565b6000819050602082019050919050565b6000819050602082019050919050565b6000819050602082019050919050565b6000819050602082019050919050565b600081519050919050565b600081519050919050565b600081519050919050565b600081519050919050565b600081519050919050565b600081519050919050565b6000602082019050919050565b6000602082019050919050565b6000602082019050919050565b6000602082019050919050565b600082825260208201905092915050565b600082825260208201905092915050565b600082825260208201905092915050565b600082825260208201905092915050565b600082825260208201905092915050565b600082825260208201905092915050565b600082825260208201905092915050565b600082825260208201905092915050565b600082825260208201905092915050565b600061515582615172565b9050919050565b60008115159050919050565b6000819050919050565b600073ffffffffffffffffffffffffffffffffffffffff82169050919050565b6000819050919050565b600060ff82169050919050565b60006151b4826151bb565b9050919050565b60006151c682615172565b9050919050565b82818337600083830152505050565b60005b838110156151fa5780820151818401526020810190506151df565b83811115615209576000848401525b50505050565b6000601f19601f8301169050919050565b6152298161514a565b811461523457600080fd5b50565b6152408161515c565b811461524b57600080fd5b50565b61525781615168565b811461526257600080fd5b50565b61526e81615192565b811461527957600080fd5b5056fea365627a7a7230582047d9a01e0a2956a93b0d31ec8904e09bcd20add143368b06b4076e220f460a416c6578706572696d656e74616cf564736f6c634300050a0040",
  "source": "pragma solidity >=0.5.0 <0.6.0;\npragma experimental \"ABIEncoderV2\";\n\n\nimport \"zos-lib/contracts/Initializable.sol\";\nimport \"./interface/OwnershipRoyaltiesAgreementsI.sol\";\nimport \"./interface/ProxyFactoryI.sol\";\nimport \"./UUIDCounter.sol\";\nimport \"./EthereumDIDResolver.sol\";\nimport \"./SignatureDecoder.sol\";\nimport \"./library/MusicLib.sol\";\n\n/**\n * @title Music Registry Smart Contract\n *\n * @dev Smart Contract that stores Compositions and Recordings metadata. Data stored is\n *      bassed on Open Music Initiative API.\n *\n * See https://omi01.docs.apiary.io/#reference/work-related-apis/works-collection/register-a-work\n *\n */\ncontract MusicRegistry is Initializable, EthereumDIDResolver, UUIDCounter, SignatureDecoder {\n\n    using MusicLib for MusicLib.Work;\n    using MusicLib for MusicLib.Recording;\n\n    uint8 public constant WORK_FLAG = 87;\n    uint8 public constant RECORDING_FLAG = 82;\n\n    ProxyFactoryI public proxyFactory;\n\n    mapping(address => uint256) public nonce;\n\n    mapping(bytes32 => MusicLib.Work) public works;\n\n    event WorkRegistered(\n        bytes32 indexed workId,\n        string title,\n        string titleSoundRecording,\n        bytes32 indexed iswc,\n        bytes32 territory,\n        address[] publishers,\n        address indexed ownershipContract);\n\n    event WorkUpdated(\n        bytes32 indexed workId,\n        string title,\n        string titleSoundRecording,\n        bytes32 indexed iswc,\n        bytes32 territory,\n        address[] publishers,\n        address indexed ownershipContract);\n\n    event WorkRemoved(bytes32 workId);\n\n    mapping(bytes32 => MusicLib.Recording) public recordings;\n\n    event RecordingRegistered(\n        bytes32 indexed recordingId,\n        string title,\n        string versionTitle,\n        bytes32 indexed isrc,\n        bytes32 territory,\n        bytes32 album_upc,\n        address[] labels,\n        bytes32[] workIds,\n        address indexed ownershipContract);\n\n    event RecordingUpdated(\n        bytes32 indexed recordingId,\n        string title,\n        string versionTitle,\n        bytes32 indexed isrc,\n        bytes32 territory,\n        bytes32 album_upc,\n        address[] labels,\n        bytes32[] workIds,\n        address indexed ownershipContract);\n\n    event RecordingRemoved(bytes32 recordingId);\n\n\n    modifier onlyOwner(bytes32 projectId, address sender) {\n        require(projectId != bytes32(0), \"projectId is required\");\n        require(sender != address(0), \"sender is required\");\n\n        address ownershipContract;\n        if (uint8(projectId[0]) == WORK_FLAG)\n            ownershipContract = works[projectId].ownershipContract;\n        else if (uint8(projectId[0]) == RECORDING_FLAG)\n            ownershipContract = recordings[projectId].ownershipContract;\n        require(ownershipContract != address(0), 'ownershipContract cannot be zero');\n        require(OwnershipRoyaltiesAgreementsI(ownershipContract)\n            .balanceOfOwnership(getIdentity(sender)) > 0, 'sender must have ownership');\n        _;\n    }\n\n    function init(address ethDIDAddress, address factory) public initializer {\n        setRegistry(ethDIDAddress);\n        proxyFactory = ProxyFactoryI(factory);\n    }\n\n    function isOwner(bytes32 projectId, address sender)\n        public\n        view\n        onlyOwner(projectId, sender)\n        returns (bool)\n    {\n        return true;\n    }\n\n    function getPublishers(bytes32 projectId) public view returns (address[] memory) {\n        return works[projectId].publishers;\n    }\n\n    function getLabels(bytes32 projectId) public view returns (address[] memory) {\n        return recordings[projectId].labels;\n    }\n\n    function getWorkIds(bytes32 projectId) public view returns (bytes32[] memory) {\n        return recordings[projectId].workIds;\n    }\n\n    function registerWork(\n        MusicLib.Work memory metadata,\n        bytes memory signature,\n        bytes memory data,\n        address signer\n    ) public {\n        require(bytes(metadata.title).length > 0, \"metadata.title is required\");\n        // require(bytes(metadata.titleSoundRecording).length > 0, \"metadata.titleSoundRecording is required\");\n        require(signature.length > 0, \"signature is required\");\n        require(signer != address(0), \"signer is required\");\n\n        bytes32 hash = metadata.getWorkHash(\"registerWork\", data, nonce[signer]);\n        address admin = _validateSignature(hash, signature, signer);\n        address proxyAddress = proxyFactory.deploy(admin, data);\n        metadata.ownershipContract = proxyAddress;\n        bytes32 workId = newID(WORK_FLAG);\n        works[workId] = metadata;\n\n        emit WorkRegistered(\n            workId,\n            metadata.title,\n            metadata.titleSoundRecording,\n            metadata.iswc,\n            metadata.territory,\n            metadata.publishers,\n            proxyAddress);\n    }\n\n    function updateWork(\n        bytes32 workId,\n        MusicLib.Work memory metadata,\n        bytes memory signature,\n        address signer\n    ) public onlyOwner(workId, signer) {\n        require(works[workId].ownershipContract != address(0), 'Work must exist');\n        require(bytes(metadata.title).length > 0, \"metadata.title is required\");\n        // require(bytes(metadata.titleSoundRecording).length > 0, \"metadata.titleSoundRecording is required\");\n        require(signature.length > 0, \"signature is required\");\n\n        bytes32 hash = metadata.getWorkHash(\"updateWork\", workId, nonce[signer]);\n        _validateSignature(hash, signature, signer);\n        // do not allow for ownership contract address change\n        metadata.ownershipContract = works[workId].ownershipContract;\n        works[workId] = metadata;\n\n        emit WorkUpdated(\n            workId,\n            metadata.title,\n            metadata.titleSoundRecording,\n            metadata.iswc,\n            metadata.territory,\n            metadata.publishers,\n            metadata.ownershipContract);\n    }\n\n    function removeWork(bytes32 workId, bytes memory signature, address signer)\n        public\n        onlyOwner(workId, signer)\n    {\n        require(signature.length > 0, \"signature is required\");\n\n        bytes32 hash = MusicLib.getWorkHash(\"removeWork\", workId, nonce[signer]);\n        _validateSignature(hash, signature, signer);\n\n        delete works[workId];\n        emit WorkRemoved(workId);\n    }\n\n    function registerRecording(\n        MusicLib.Recording memory metadata,\n        bytes memory signature,\n        bytes memory data,\n        address signer\n    ) public {\n        require(bytes(metadata.title).length > 0, \"metadata.title is required\");\n        require(signature.length > 0, \"signature is required\");\n        require(signer != address(0), \"signer is required\");\n\n        // saving usage of variables as workaround for stack too deep error\n        bytes32 hash = metadata.getRecordingHash(\"registerRecording\", data, nonce[signer]);\n        address proxyAddress = proxyFactory.deploy(\n            _validateSignature(hash, signature, signer),\n            data\n        );\n        metadata.ownershipContract = proxyAddress;\n        bytes32 recordingId = newID(RECORDING_FLAG);\n        recordings[recordingId] = metadata;\n\n        emit RecordingRegistered(\n            recordingId,\n            metadata.title,\n            metadata.versionTitle,\n            metadata.isrc,\n            metadata.territory,\n            metadata.album_upc,\n            metadata.labels,\n            metadata.workIds,\n            proxyAddress);\n    }\n\n    function updateRecording(\n        bytes32 recordingId,\n        MusicLib.Recording memory metadata,\n        bytes memory signature,\n        address signer\n    ) public onlyOwner(recordingId, signer) {\n        require(bytes(metadata.title).length > 0, \"metadata.title is required\");\n        require(signature.length > 0, \"signature is required\");\n\n        bytes32 hash = metadata.getRecordingHash(\"updateRecording\", recordingId, nonce[signer]);\n        _validateSignature(hash, signature, signer);\n        // do not allow for ownership contract address change\n        metadata.ownershipContract = recordings[recordingId].ownershipContract;\n        recordings[recordingId] = metadata;\n\n        emit RecordingUpdated(\n            recordingId,\n            metadata.title,\n            metadata.versionTitle,\n            metadata.isrc,\n            metadata.territory,\n            metadata.album_upc,\n            metadata.labels,\n            metadata.workIds,\n            recordings[recordingId].ownershipContract);\n    }\n\n    function removeRecording(bytes32 recordingId, bytes memory signature, address signer)\n        public\n        onlyOwner(recordingId, signer)\n    {\n        require(signature.length > 0, \"signature is required\");\n\n        bytes32 hash = MusicLib.getRecordingHash(\"removeRecording\", recordingId, nonce[signer]);\n        _validateSignature(hash, signature, signer);\n\n        delete recordings[recordingId];\n        emit RecordingRemoved(recordingId);\n    }\n\n    function _validateSignature(bytes32 hash, bytes memory signature, address signer)\n        internal\n        returns (address)\n    {\n        require(hash != bytes32(0), 'hash cannot be empty');\n        require(signature.length > 0, 'signature cannot be empty');\n        require(signer != address(0), 'signer address cannot be empty');\n\n        // 5k gas\n        nonce[signer]++;\n\n        // 5k gas\n        require(signer == recoverKey(hash, signature, 0),\n            'Message has not been signed properly by signer');\n\n        return signer;\n    }\n}\n",
  "sourcePath": "/Users/tom/www/music-smart-contracts/contracts/MusicRegistry.sol",
  "compiler": {
    "name": "solc",
    "version": "0.5.10+commit.5a6ea5b1.Emscripten.clang"
  },
  "schemaVersion": "3.0.11",
  "updatedAt": "2019-09-01T04:31:56.449Z",
  "devdoc": {
    "details": "Smart Contract that stores Compositions and Recordings metadata. Data stored is     bassed on Open Music Initiative API. * See https://omi01.docs.apiary.io/#reference/work-related-apis/works-collection/register-a-work ",
    "methods": {},
    "title": "Music Registry Smart Contract"
  },
  "userdoc": {
    "methods": {}
  }
}