{
  "contractName": "MusicLibPublic",
  "abi": [
    {
      "constant": true,
      "inputs": [
        {
          "components": [
            {
              "name": "title",
              "type": "string"
            },
            {
              "name": "titleSoundRecording",
              "type": "string"
            },
            {
              "name": "iswc",
              "type": "bytes32"
            },
            {
              "name": "territory",
              "type": "bytes32"
            },
            {
              "name": "publishers",
              "type": "address[]"
            },
            {
              "name": "ownershipContract",
              "type": "address"
            }
          ],
          "name": "metadata",
          "type": "tuple"
        },
        {
          "name": "func",
          "type": "string"
        },
        {
          "name": "data",
          "type": "bytes"
        },
        {
          "name": "nonce",
          "type": "uint256"
        }
      ],
      "name": "getWorkHash",
      "outputs": [
        {
          "name": "",
          "type": "bytes32"
        }
      ],
      "payable": false,
      "stateMutability": "view",
      "type": "function"
    },
    {
      "constant": true,
      "inputs": [
        {
          "components": [
            {
              "name": "title",
              "type": "string"
            },
            {
              "name": "titleSoundRecording",
              "type": "string"
            },
            {
              "name": "iswc",
              "type": "bytes32"
            },
            {
              "name": "territory",
              "type": "bytes32"
            },
            {
              "name": "publishers",
              "type": "address[]"
            },
            {
              "name": "ownershipContract",
              "type": "address"
            }
          ],
          "name": "metadata",
          "type": "tuple"
        },
        {
          "name": "func",
          "type": "string"
        },
        {
          "name": "workId",
          "type": "bytes32"
        },
        {
          "name": "nonce",
          "type": "uint256"
        }
      ],
      "name": "getWorkHash",
      "outputs": [
        {
          "name": "",
          "type": "bytes32"
        }
      ],
      "payable": false,
      "stateMutability": "view",
      "type": "function"
    },
    {
      "constant": true,
      "inputs": [
        {
          "name": "func",
          "type": "string"
        },
        {
          "name": "workId",
          "type": "bytes32"
        },
        {
          "name": "nonce",
          "type": "uint256"
        }
      ],
      "name": "getWorkHash",
      "outputs": [
        {
          "name": "",
          "type": "bytes32"
        }
      ],
      "payable": false,
      "stateMutability": "view",
      "type": "function"
    },
    {
      "constant": true,
      "inputs": [
        {
          "components": [
            {
              "name": "title",
              "type": "string"
            },
            {
              "name": "versionTitle",
              "type": "string"
            },
            {
              "name": "isrc",
              "type": "bytes32"
            },
            {
              "name": "territory",
              "type": "bytes32"
            },
            {
              "name": "album_upc",
              "type": "bytes32"
            },
            {
              "name": "labels",
              "type": "address[]"
            },
            {
              "name": "workIds",
              "type": "bytes32[]"
            },
            {
              "name": "ownershipContract",
              "type": "address"
            }
          ],
          "name": "metadata",
          "type": "tuple"
        },
        {
          "name": "func",
          "type": "string"
        },
        {
          "name": "recordingId",
          "type": "bytes32"
        },
        {
          "name": "nonce",
          "type": "uint256"
        }
      ],
      "name": "getRecordingHash",
      "outputs": [
        {
          "name": "",
          "type": "bytes32"
        }
      ],
      "payable": false,
      "stateMutability": "view",
      "type": "function"
    },
    {
      "constant": true,
      "inputs": [
        {
          "name": "func",
          "type": "string"
        },
        {
          "name": "recordingId",
          "type": "bytes32"
        },
        {
          "name": "nonce",
          "type": "uint256"
        }
      ],
      "name": "getRecordingHash",
      "outputs": [
        {
          "name": "",
          "type": "bytes32"
        }
      ],
      "payable": false,
      "stateMutability": "view",
      "type": "function"
    },
    {
      "constant": true,
      "inputs": [
        {
          "components": [
            {
              "name": "title",
              "type": "string"
            },
            {
              "name": "versionTitle",
              "type": "string"
            },
            {
              "name": "isrc",
              "type": "bytes32"
            },
            {
              "name": "territory",
              "type": "bytes32"
            },
            {
              "name": "album_upc",
              "type": "bytes32"
            },
            {
              "name": "labels",
              "type": "address[]"
            },
            {
              "name": "workIds",
              "type": "bytes32[]"
            },
            {
              "name": "ownershipContract",
              "type": "address"
            }
          ],
          "name": "metadata",
          "type": "tuple"
        },
        {
          "name": "func",
          "type": "string"
        },
        {
          "name": "data",
          "type": "bytes"
        },
        {
          "name": "nonce",
          "type": "uint256"
        }
      ],
      "name": "getRecordingHash",
      "outputs": [
        {
          "name": "",
          "type": "bytes32"
        }
      ],
      "payable": false,
      "stateMutability": "view",
      "type": "function"
    }
  ],
  "bytecode": "0x608060405234801561001057600080fd5b50611464806100206000396000f3fe608060405234801561001057600080fd5b50600436106100625760003560e01c80630a6c97b31461006757806334f27c80146100975780636bab1563146100c75780638be768b0146100f7578063bc5b806d14610127578063de3ca29614610157575b600080fd5b610081600480360361007c9190810190610a0f565b610187565b60405161008e9190610fc9565b60405180910390f35b6100b160048036036100ac91908101906109a8565b610222565b6040516100be9190610fc9565b60405180910390f35b6100e160048036036100dc9190810190610aa2565b6102b8565b6040516100ee9190610fc9565b60405180910390f35b610111600480360361010c9190810190610be0565b610353565b60405161011e9190610fc9565b60405180910390f35b610141600480360361013c9190810190610b4d565b6103ee565b60405161014e9190610fc9565b60405180910390f35b610171600480360361016c91908101906109a8565b610489565b60405161017e9190610fc9565b60405180910390f35b60008473__MusicLib______________________________635033c68190918686866040518563ffffffff1660e01b81526004016101c89493929190611022565b60206040518083038186803b1580156101e057600080fd5b505af41580156101f4573d6000803e3d6000fd5b505050506040513d601f19601f82011682018060405250610218919081019061097f565b9050949350505050565b600073__MusicLib______________________________6334f27c808585856040518463ffffffff1660e01b815260040161025f93929190610fe4565b60206040518083038186803b15801561027757600080fd5b505af415801561028b573d6000803e3d6000fd5b505050506040513d601f19601f820116820180604052506102af919081019061097f565b90509392505050565b60008473__MusicLib______________________________6341f247a090918686866040518563ffffffff1660e01b81526004016102f99493929190611075565b60206040518083038186803b15801561031157600080fd5b505af4158015610325573d6000803e3d6000fd5b505050506040513d601f19601f82011682018060405250610349919081019061097f565b9050949350505050565b60008473__MusicLib______________________________63877295e390918686866040518563ffffffff1660e01b81526004016103949493929190611122565b60206040518083038186803b1580156103ac57600080fd5b505af41580156103c0573d6000803e3d6000fd5b505050506040513d601f19601f820116820180604052506103e4919081019061097f565b9050949350505050565b60008473__MusicLib______________________________639ba9fb4e90918686866040518563ffffffff1660e01b815260040161042f94939291906110cf565b60206040518083038186803b15801561044757600080fd5b505af415801561045b573d6000803e3d6000fd5b505050506040513d601f19601f8201168201806040525061047f919081019061097f565b9050949350505050565b600073__MusicLib______________________________63de3ca2968585856040518463ffffffff1660e01b81526004016104c693929190610fe4565b60206040518083038186803b1580156104de57600080fd5b505af41580156104f2573d6000803e3d6000fd5b505050506040513d601f19601f82011682018060405250610516919081019061097f565b90509392505050565b60008135905061052e816113dc565b92915050565b600082601f83011261054557600080fd5b8135610558610553826111a9565b61117c565b9150818183526020840193506020810190508385602084028201111561057d57600080fd5b60005b838110156105ad5781610593888261051f565b845260208401935060208301925050600181019050610580565b5050505092915050565b600082601f8301126105c857600080fd5b81356105db6105d6826111d1565b61117c565b9150818183526020840193506020810190508385602084028201111561060057600080fd5b60005b838110156106305781610616888261063a565b845260208401935060208301925050600181019050610603565b5050505092915050565b600081359050610649816113f3565b92915050565b60008151905061065e816113f3565b92915050565b600082601f83011261067557600080fd5b8135610688610683826111f9565b61117c565b915080825260208301602083018583830111156106a457600080fd5b6106af838284611389565b50505092915050565b600082601f8301126106c957600080fd5b81356106dc6106d782611225565b61117c565b915080825260208301602083018583830111156106f857600080fd5b610703838284611389565b50505092915050565b600082601f83011261071d57600080fd5b813561073061072b82611251565b61117c565b9150808252602083016020830185838301111561074c57600080fd5b610757838284611389565b50505092915050565b6000610100828403121561077357600080fd5b61077e61010061117c565b9050600082013567ffffffffffffffff81111561079a57600080fd5b6107a6848285016106b8565b600083015250602082013567ffffffffffffffff8111156107c657600080fd5b6107d2848285016106b8565b60208301525060406107e68482850161063a565b60408301525060606107fa8482850161063a565b606083015250608061080e8482850161063a565b60808301525060a082013567ffffffffffffffff81111561082e57600080fd5b61083a84828501610534565b60a08301525060c082013567ffffffffffffffff81111561085a57600080fd5b610866848285016105b7565b60c08301525060e061087a8482850161051f565b60e08301525092915050565b600060c0828403121561089857600080fd5b6108a260c061117c565b9050600082013567ffffffffffffffff8111156108be57600080fd5b6108ca848285016106b8565b600083015250602082013567ffffffffffffffff8111156108ea57600080fd5b6108f6848285016106b8565b602083015250604061090a8482850161063a565b604083015250606061091e8482850161063a565b606083015250608082013567ffffffffffffffff81111561093e57600080fd5b61094a84828501610534565b60808301525060a061095e8482850161051f565b60a08301525092915050565b6000813590506109798161140a565b92915050565b60006020828403121561099157600080fd5b600061099f8482850161064f565b91505092915050565b6000806000606084860312156109bd57600080fd5b600084013567ffffffffffffffff8111156109d757600080fd5b6109e38682870161070c565b93505060206109f48682870161063a565b9250506040610a058682870161096a565b9150509250925092565b60008060008060808587031215610a2557600080fd5b600085013567ffffffffffffffff811115610a3f57600080fd5b610a4b87828801610760565b945050602085013567ffffffffffffffff811115610a6857600080fd5b610a748782880161070c565b9350506040610a858782880161063a565b9250506060610a968782880161096a565b91505092959194509250565b60008060008060808587031215610ab857600080fd5b600085013567ffffffffffffffff811115610ad257600080fd5b610ade87828801610760565b945050602085013567ffffffffffffffff811115610afb57600080fd5b610b078782880161070c565b935050604085013567ffffffffffffffff811115610b2457600080fd5b610b3087828801610664565b9250506060610b418782880161096a565b91505092959194509250565b60008060008060808587031215610b6357600080fd5b600085013567ffffffffffffffff811115610b7d57600080fd5b610b8987828801610886565b945050602085013567ffffffffffffffff811115610ba657600080fd5b610bb28782880161070c565b9350506040610bc38782880161063a565b9250506060610bd48782880161096a565b91505092959194509250565b60008060008060808587031215610bf657600080fd5b600085013567ffffffffffffffff811115610c1057600080fd5b610c1c87828801610886565b945050602085013567ffffffffffffffff811115610c3957600080fd5b610c458782880161070c565b935050604085013567ffffffffffffffff811115610c6257600080fd5b610c6e87828801610664565b9250506060610c7f8782880161096a565b91505092959194509250565b6000610c978383610cbb565b60208301905092915050565b6000610caf8383610da4565b60208301905092915050565b610cc481611343565b82525050565b6000610cd58261129d565b610cdf81856112ee565b9350610cea8361127d565b8060005b83811015610d1b578151610d028882610c8b565b9750610d0d836112d4565b925050600181019050610cee565b5085935050505092915050565b6000610d33826112a8565b610d3d81856112ff565b9350610d488361128d565b8060005b83811015610d79578151610d608882610ca3565b9750610d6b836112e1565b925050600181019050610d4c565b5085935050505092915050565b610d8f81611355565b82525050565b610d9e81611355565b82525050565b610dad81611355565b82525050565b6000610dbe826112b3565b610dc88185611310565b9350610dd8818560208601611398565b610de1816113cb565b840191505092915050565b6000610df7826112c9565b610e018185611321565b9350610e11818560208601611398565b610e1a816113cb565b840191505092915050565b6000610e30826112be565b610e3a8185611332565b9350610e4a818560208601611398565b610e53816113cb565b840191505092915050565b6000610100830160008301518482036000860152610e7c8282610e25565b91505060208301518482036020860152610e968282610e25565b9150506040830151610eab6040860182610da4565b506060830151610ebe6060860182610da4565b506080830151610ed16080860182610da4565b5060a083015184820360a0860152610ee98282610cca565b91505060c083015184820360c0860152610f038282610d28565b91505060e0830151610f1860e0860182610cbb565b508091505092915050565b600060c0830160008301518482036000860152610f408282610e25565b91505060208301518482036020860152610f5a8282610e25565b9150506040830151610f6f6040860182610da4565b506060830151610f826060860182610da4565b5060808301518482036080860152610f9a8282610cca565b91505060a0830151610faf60a0860182610cbb565b508091505092915050565b610fc38161137f565b82525050565b6000602082019050610fde6000830184610d86565b92915050565b60006060820190508181036000830152610ffe8186610dec565b905061100d6020830185610d95565b61101a6040830184610fba565b949350505050565b6000608082019050818103600083015261103c8187610e5e565b905081810360208301526110508186610dec565b905061105f6040830185610d95565b61106c6060830184610fba565b95945050505050565b6000608082019050818103600083015261108f8187610e5e565b905081810360208301526110a38186610dec565b905081810360408301526110b78185610db3565b90506110c66060830184610fba565b95945050505050565b600060808201905081810360008301526110e98187610f23565b905081810360208301526110fd8186610dec565b905061110c6040830185610d95565b6111196060830184610fba565b95945050505050565b6000608082019050818103600083015261113c8187610f23565b905081810360208301526111508186610dec565b905081810360408301526111648185610db3565b90506111736060830184610fba565b95945050505050565b6000604051905081810181811067ffffffffffffffff8211171561119f57600080fd5b8060405250919050565b600067ffffffffffffffff8211156111c057600080fd5b602082029050602081019050919050565b600067ffffffffffffffff8211156111e857600080fd5b602082029050602081019050919050565b600067ffffffffffffffff82111561121057600080fd5b601f19601f8301169050602081019050919050565b600067ffffffffffffffff82111561123c57600080fd5b601f19601f8301169050602081019050919050565b600067ffffffffffffffff82111561126857600080fd5b601f19601f8301169050602081019050919050565b6000819050602082019050919050565b6000819050602082019050919050565b600081519050919050565b600081519050919050565b600081519050919050565b600081519050919050565b600081519050919050565b6000602082019050919050565b6000602082019050919050565b600082825260208201905092915050565b600082825260208201905092915050565b600082825260208201905092915050565b600082825260208201905092915050565b600082825260208201905092915050565b600061134e8261135f565b9050919050565b6000819050919050565b600073ffffffffffffffffffffffffffffffffffffffff82169050919050565b6000819050919050565b82818337600083830152505050565b60005b838110156113b657808201518184015260208101905061139b565b838111156113c5576000848401525b50505050565b6000601f19601f8301169050919050565b6113e581611343565b81146113f057600080fd5b50565b6113fc81611355565b811461140757600080fd5b50565b6114138161137f565b811461141e57600080fd5b5056fea365627a7a7230582077497e677a7828aed28e13684354317440833d9b03249dae64c61bbe659591e46c6578706572696d656e74616cf564736f6c634300050a0040",
  "source": "pragma solidity >=0.5.0 <0.6.0;\npragma experimental \"ABIEncoderV2\";\n\nimport \"../library/MusicLib.sol\";\n\ncontract MusicLibPublic {\n    using MusicLib for MusicLib.Work;\n    using MusicLib for MusicLib.Recording;\n\n    function getWorkHash(MusicLib.Work memory metadata, string memory func, bytes memory data, uint256 nonce)\n        public\n        view\n        returns (bytes32)\n    {\n        return metadata.getWorkHash(func, data, nonce);\n    }\n\n    function getWorkHash(MusicLib.Work memory metadata, string memory func, bytes32 workId, uint256 nonce)\n        public\n        view\n        returns (bytes32)\n    {\n        return metadata.getWorkHash(func, workId, nonce);\n    }\n\n    function getWorkHash(string memory func, bytes32 workId, uint256 nonce)\n        public\n        view\n        returns (bytes32)\n    {\n        return MusicLib.getWorkHash(func, workId, nonce);\n    }\n\n    function getRecordingHash(MusicLib.Recording memory metadata, string memory func, bytes memory data, uint256 nonce)\n        public\n        view\n        returns (bytes32)\n    {\n        return metadata.getRecordingHash(func, data, nonce);\n    }\n\n    function getRecordingHash(MusicLib.Recording memory metadata, string memory func, bytes32 recordingId, uint256 nonce)\n        public\n        view\n        returns (bytes32)\n    {\n        return metadata.getRecordingHash(func, recordingId, nonce);\n    }\n\n    function getRecordingHash(string memory func, bytes32 recordingId, uint256 nonce)\n        public\n        view\n        returns (bytes32)\n    {\n        return MusicLib.getRecordingHash(func, recordingId, nonce);\n    }\n}\n",
  "sourcePath": "/Users/tom/www/music-smart-contracts/contracts/mock/MusicLibPublic.sol",
  "compiler": {
    "name": "solc",
    "version": "0.5.10+commit.5a6ea5b1.Emscripten.clang"
  },
  "schemaVersion": "3.0.11",
  "updatedAt": "2019-08-04T21:19:33.304Z",
  "devdoc": {
    "methods": {}
  },
  "userdoc": {
    "methods": {}
  }
}