{
  "contractName": "OwnershipRoyaltiesAgreementsPublic",
  "abi": [
    {
      "constant": true,
      "inputs": [
        {
          "name": "owner",
          "type": "address"
        }
      ],
      "name": "balanceOfRoyalties",
      "outputs": [
        {
          "name": "",
          "type": "uint256"
        }
      ],
      "payable": false,
      "stateMutability": "view",
      "type": "function"
    },
    {
      "constant": true,
      "inputs": [
        {
          "name": "owner",
          "type": "address"
        }
      ],
      "name": "balanceOfOwnership",
      "outputs": [
        {
          "name": "",
          "type": "uint256"
        }
      ],
      "payable": false,
      "stateMutability": "view",
      "type": "function"
    },
    {
      "constant": true,
      "inputs": [
        {
          "name": "actor",
          "type": "address"
        }
      ],
      "name": "getIdentity",
      "outputs": [
        {
          "name": "",
          "type": "address"
        }
      ],
      "payable": false,
      "stateMutability": "view",
      "type": "function"
    },
    {
      "constant": true,
      "inputs": [
        {
          "name": "signer",
          "type": "address"
        },
        {
          "name": "transferType",
          "type": "string"
        },
        {
          "name": "templateHash",
          "type": "bytes32"
        },
        {
          "name": "identities",
          "type": "address[2]"
        },
        {
          "name": "value",
          "type": "uint256"
        }
      ],
      "name": "getHash",
      "outputs": [
        {
          "name": "",
          "type": "bytes32"
        }
      ],
      "payable": false,
      "stateMutability": "view",
      "type": "function"
    },
    {
      "constant": true,
      "inputs": [],
      "name": "totalSupplyOwnership",
      "outputs": [
        {
          "name": "",
          "type": "uint256"
        }
      ],
      "payable": false,
      "stateMutability": "view",
      "type": "function"
    },
    {
      "constant": false,
      "inputs": [
        {
          "name": "templateHash",
          "type": "bytes32"
        },
        {
          "name": "templateVersion",
          "type": "string"
        },
        {
          "name": "sigSenders",
          "type": "bytes"
        },
        {
          "name": "sigReceivers",
          "type": "bytes"
        },
        {
          "name": "senderSigners",
          "type": "address[]"
        },
        {
          "name": "receiverSigners",
          "type": "address[]"
        },
        {
          "name": "values",
          "type": "uint256[]"
        }
      ],
      "name": "newRoyaltiesTransferAgreement",
      "outputs": [],
      "payable": false,
      "stateMutability": "nonpayable",
      "type": "function"
    },
    {
      "constant": true,
      "inputs": [],
      "name": "totalSupplyRoyalties",
      "outputs": [
        {
          "name": "",
          "type": "uint256"
        }
      ],
      "payable": false,
      "stateMutability": "view",
      "type": "function"
    },
    {
      "constant": true,
      "inputs": [
        {
          "name": "owner",
          "type": "address"
        }
      ],
      "name": "nonceFor",
      "outputs": [
        {
          "name": "",
          "type": "uint256"
        }
      ],
      "payable": false,
      "stateMutability": "view",
      "type": "function"
    },
    {
      "constant": false,
      "inputs": [
        {
          "name": "templateHash",
          "type": "bytes32"
        },
        {
          "name": "templateVersion",
          "type": "string"
        },
        {
          "name": "sigSenders",
          "type": "bytes"
        },
        {
          "name": "sigReceivers",
          "type": "bytes"
        },
        {
          "name": "senderSigners",
          "type": "address[]"
        },
        {
          "name": "receiverSigners",
          "type": "address[]"
        },
        {
          "name": "values",
          "type": "uint256[]"
        }
      ],
      "name": "newOwnershipTransferAgreement",
      "outputs": [],
      "payable": false,
      "stateMutability": "nonpayable",
      "type": "function"
    },
    {
      "constant": true,
      "inputs": [],
      "name": "ethDIDReg",
      "outputs": [
        {
          "name": "",
          "type": "address"
        }
      ],
      "payable": false,
      "stateMutability": "view",
      "type": "function"
    },
    {
      "constant": false,
      "inputs": [
        {
          "name": "_ownerKey",
          "type": "address"
        },
        {
          "name": "_ethDID",
          "type": "address"
        }
      ],
      "name": "init",
      "outputs": [],
      "payable": false,
      "stateMutability": "nonpayable",
      "type": "function"
    },
    {
      "constant": true,
      "inputs": [
        {
          "name": "identity",
          "type": "address"
        },
        {
          "name": "actor",
          "type": "address"
        }
      ],
      "name": "isIdentityOwner",
      "outputs": [
        {
          "name": "",
          "type": "bool"
        }
      ],
      "payable": false,
      "stateMutability": "view",
      "type": "function"
    },
    {
      "anonymous": false,
      "inputs": [
        {
          "indexed": false,
          "name": "templateVersion",
          "type": "string"
        },
        {
          "indexed": false,
          "name": "templateHash",
          "type": "bytes32"
        },
        {
          "indexed": false,
          "name": "sigSenders",
          "type": "bytes"
        },
        {
          "indexed": false,
          "name": "sigReceivers",
          "type": "bytes"
        },
        {
          "indexed": false,
          "name": "senderSigners",
          "type": "address[]"
        },
        {
          "indexed": false,
          "name": "senderIdentities",
          "type": "address[]"
        },
        {
          "indexed": false,
          "name": "receiverSigners",
          "type": "address[]"
        },
        {
          "indexed": false,
          "name": "receiverIdentities",
          "type": "address[]"
        },
        {
          "indexed": false,
          "name": "values",
          "type": "uint256[]"
        }
      ],
      "name": "NewOwnershipAgreement",
      "type": "event"
    },
    {
      "anonymous": false,
      "inputs": [
        {
          "indexed": false,
          "name": "templateVersion",
          "type": "string"
        },
        {
          "indexed": false,
          "name": "templateHash",
          "type": "bytes32"
        },
        {
          "indexed": false,
          "name": "sigSenders",
          "type": "bytes"
        },
        {
          "indexed": false,
          "name": "sigReceivers",
          "type": "bytes"
        },
        {
          "indexed": false,
          "name": "senderSigners",
          "type": "address[]"
        },
        {
          "indexed": false,
          "name": "senderIdentities",
          "type": "address[]"
        },
        {
          "indexed": false,
          "name": "receiverSigners",
          "type": "address[]"
        },
        {
          "indexed": false,
          "name": "receiverIdentities",
          "type": "address[]"
        },
        {
          "indexed": false,
          "name": "values",
          "type": "uint256[]"
        }
      ],
      "name": "NewRoyaltiesAgreement",
      "type": "event"
    },
    {
      "anonymous": false,
      "inputs": [
        {
          "indexed": false,
          "name": "from",
          "type": "address"
        },
        {
          "indexed": false,
          "name": "to",
          "type": "address"
        },
        {
          "indexed": false,
          "name": "value",
          "type": "uint256"
        }
      ],
      "name": "OwnershipTransfer",
      "type": "event"
    },
    {
      "anonymous": false,
      "inputs": [
        {
          "indexed": false,
          "name": "from",
          "type": "address"
        },
        {
          "indexed": false,
          "name": "to",
          "type": "address"
        },
        {
          "indexed": false,
          "name": "value",
          "type": "uint256"
        }
      ],
      "name": "RoyaltiesTransfer",
      "type": "event"
    },
    {
      "anonymous": false,
      "inputs": [
        {
          "indexed": false,
          "name": "reg",
          "type": "address"
        }
      ],
      "name": "EthRegistrySet",
      "type": "event"
    },
    {
      "constant": false,
      "inputs": [
        {
          "name": "trasnferType",
          "type": "string"
        },
        {
          "name": "templateHash",
          "type": "bytes32"
        },
        {
          "name": "senderSigner",
          "type": "address"
        },
        {
          "name": "receiverSigner",
          "type": "address"
        },
        {
          "name": "value",
          "type": "uint256"
        },
        {
          "name": "sigSenders",
          "type": "bytes"
        },
        {
          "name": "sigReceivers",
          "type": "bytes"
        },
        {
          "name": "i",
          "type": "uint8"
        }
      ],
      "name": "validateSignatures",
      "outputs": [
        {
          "name": "senderId",
          "type": "address"
        },
        {
          "name": "receiverId",
          "type": "address"
        }
      ],
      "payable": false,
      "stateMutability": "nonpayable",
      "type": "function"
    },
    {
      "constant": false,
      "inputs": [
        {
          "name": "from",
          "type": "address"
        },
        {
          "name": "to",
          "type": "address"
        },
        {
          "name": "value",
          "type": "uint256"
        }
      ],
      "name": "_transferOwnership",
      "outputs": [],
      "payable": false,
      "stateMutability": "nonpayable",
      "type": "function"
    },
    {
      "constant": false,
      "inputs": [
        {
          "name": "from",
          "type": "address"
        },
        {
          "name": "to",
          "type": "address"
        },
        {
          "name": "value",
          "type": "uint256"
        }
      ],
      "name": "_transferRoyalties",
      "outputs": [],
      "payable": false,
      "stateMutability": "nonpayable",
      "type": "function"
    }
  ],
  "bytecode": "0x608060405234801561001057600080fd5b50613997806100206000396000f3fe608060405234801561001057600080fd5b50600436106100f55760003560e01c80636db65d9c11610097578063d16c4c7811610066578063d16c4c7814610296578063e7175813146102c7578063f09a4016146102e5578063fd2aa0b414610301576100f5565b80636db65d9c14610210578063976ec92b1461022e578063a32890d31461025e578063c36fb5f21461027a576100f5565b80633bfc4c1b116100d35780633bfc4c1b1461018a578063403078a1146101ba578063418995ac146101d85780635945dad1146101f4576100f5565b806318294496146100fa5780632420a3fa1461012a5780632fea7b811461015a575b600080fd5b610114600480360361010f9190810190612444565b610331565b60405161012191906135b7565b60405180910390f35b610144600480360361013f9190810190612444565b61037a565b60405161015191906135b7565b60405180910390f35b610174600480360361016f9190810190612444565b6103c3565b6040516101819190613165565b60405180910390f35b6101a4600480360361019f9190810190612521565b6104ec565b6040516101b19190613232565b60405180910390f35b6101c2610599565b6040516101cf91906135b7565b60405180910390f35b6101f260048036036101ed91908101906124d2565b6105a3565b005b61020e600480360361020991908101906125d9565b6105b3565b005b610218610907565b60405161022591906135b7565b60405180910390f35b61024860048036036102439190810190612444565b610911565b60405161025591906135b7565b60405180910390f35b610278600480360361027391908101906125d9565b61095a565b005b610294600480360361028f91908101906124d2565b610cae565b005b6102b060048036036102ab9190810190612707565b610cbe565b6040516102be9291906131b7565b60405180910390f35b6102cf610ce6565b6040516102dc9190613165565b60405180910390f35b6102ff60048036036102fa9190810190612496565b610d0c565b005b61031b60048036036103169190810190612496565b610e1c565b6040516103289190613217565b60405180910390f35b6000603660008373ffffffffffffffffffffffffffffffffffffffff1673ffffffffffffffffffffffffffffffffffffffff168152602001908152602001600020549050919050565b6000603460008373ffffffffffffffffffffffffffffffffffffffff1673ffffffffffffffffffffffffffffffffffffffff168152602001908152602001600020549050919050565b600080603360009054906101000a900473ffffffffffffffffffffffffffffffffffffffff1673ffffffffffffffffffffffffffffffffffffffff16632fea7b81846040518263ffffffff1660e01b81526004016104219190613165565b60206040518083038186803b15801561043957600080fd5b505afa15801561044d573d6000803e3d6000fd5b505050506040513d601f19601f82011682018060405250610471919081019061246d565b9050600073ffffffffffffffffffffffffffffffffffffffff168173ffffffffffffffffffffffffffffffffffffffff1614156104e3576040517f08c379a00000000000000000000000000000000000000000000000000000000081526004016104da906134b7565b60405180910390fd5b80915050919050565b6000601960f81b600060f81b3087878760006002811061050857fe5b60200201518860016002811061051a57fe5b602002015188603860008f73ffffffffffffffffffffffffffffffffffffffff1673ffffffffffffffffffffffffffffffffffffffff16815260200190815260200160002054604051602001610578999897969594939291906130c6565b60405160208183030381529060405280519060200120905095945050505050565b6000603554905090565b6105ae838383610ed3565b505050565b606081516040519080825280602002602001820160405280156105e55781602001602082028038833980820191505090505b5090506060825160405190808252806020026020018201604052801561061a5781602001602082028038833980820191505090505b5090506000801b891415610663576040517f08c379a000000000000000000000000000000000000000000000000000000000815260040161065a90613357565b60405180910390fd5b60008851116106a7576040517f08c379a000000000000000000000000000000000000000000000000000000000815260040161069e90613577565b60405180910390fd5b604183510287511480156106bc575085518751145b6106fb576040517f08c379a00000000000000000000000000000000000000000000000000000000081526004016106f290613477565b60405180910390fd5b8351855114801561070d575082518451145b61074c576040517f08c379a0000000000000000000000000000000000000000000000000000000008152600401610743906133f7565b60405180910390fd5b60008060008090505b85518160ff1610156108b2576107e86040518060400160405280601181526020017f526f79616c746965735472616e736665720000000000000000000000000000008152508d8a8460ff16815181106107aa57fe5b60200260200101518a8560ff16815181106107c157fe5b60200260200101518a8660ff16815181106107d857fe5b60200260200101518f8f88611204565b809350819450505082858260ff168151811061080057fe5b602002602001019073ffffffffffffffffffffffffffffffffffffffff16908173ffffffffffffffffffffffffffffffffffffffff168152505081848260ff168151811061084a57fe5b602002602001019073ffffffffffffffffffffffffffffffffffffffff16908173ffffffffffffffffffffffffffffffffffffffff16815250506108a58383888460ff168151811061089857fe5b6020026020010151610ed3565b8080600101915050610755565b507f1ea3aee78f0a8c63d9448d8664e8a8366da7deb1959db6a080ccd85fdca2babf8a8c8b8b8b898c8a8d6040516108f299989796959493929190613292565b60405180910390a15050505050505050505050565b6000603754905090565b6000603860008373ffffffffffffffffffffffffffffffffffffffff1673ffffffffffffffffffffffffffffffffffffffff168152602001908152602001600020549050919050565b6060815160405190808252806020026020018201604052801561098c5781602001602082028038833980820191505090505b509050606082516040519080825280602002602001820160405280156109c15781602001602082028038833980820191505090505b5090506000801b891415610a0a576040517f08c379a0000000000000000000000000000000000000000000000000000000008152600401610a0190613357565b60405180910390fd5b6000885111610a4e576040517f08c379a0000000000000000000000000000000000000000000000000000000008152600401610a4590613577565b60405180910390fd5b60418351028751148015610a63575085518751145b610aa2576040517f08c379a0000000000000000000000000000000000000000000000000000000008152600401610a9990613477565b60405180910390fd5b83518551148015610ab4575082518451145b610af3576040517f08c379a0000000000000000000000000000000000000000000000000000000008152600401610aea906133f7565b60405180910390fd5b60008060008090505b85518160ff161015610c5957610b8f6040518060400160405280601181526020017f4f776e6572736869705472616e736665720000000000000000000000000000008152508d8a8460ff1681518110610b5157fe5b60200260200101518a8560ff1681518110610b6857fe5b60200260200101518a8660ff1681518110610b7f57fe5b60200260200101518f8f88611204565b809350819450505082858260ff1681518110610ba757fe5b602002602001019073ffffffffffffffffffffffffffffffffffffffff16908173ffffffffffffffffffffffffffffffffffffffff168152505081848260ff1681518110610bf157fe5b602002602001019073ffffffffffffffffffffffffffffffffffffffff16908173ffffffffffffffffffffffffffffffffffffffff1681525050610c4c8383888460ff1681518110610c3f57fe5b60200260200101516115da565b8080600101915050610afc565b507ff0b9764fbf6acd9ef6891f8b220eb49e44f81ec0ad504d540a5a93e60ff59ab18a8c8b8b8b898c8a8d604051610c9999989796959493929190613292565b60405180910390a15050505050505050505050565b610cb98383836115da565b505050565b600080610cd18a8a8a8a8a8a8a8a611204565b80925081935050509850989650505050505050565b603360009054906101000a900473ffffffffffffffffffffffffffffffffffffffff1681565b600060019054906101000a900460ff1680610d2b5750610d2a611cdf565b5b80610d4257506000809054906101000a900460ff16155b610d81576040517f08c379a0000000000000000000000000000000000000000000000000000000008152600401610d78906134f7565b60405180910390fd5b60008060019054906101000a900460ff161590508015610dd1576001600060016101000a81548160ff02191690831515021790555060016000806101000a81548160ff0219169083151502179055505b610dda82611cf0565b610df5610de6846103c3565b68056bc75e2d63100000611d6b565b508015610e175760008060016101000a81548160ff0219169083151502179055505b505050565b6000603360009054906101000a900473ffffffffffffffffffffffffffffffffffffffff1673ffffffffffffffffffffffffffffffffffffffff1663fd2aa0b484846040518363ffffffff1660e01b8152600401610e7b9291906131b7565b60206040518083038186803b158015610e9357600080fd5b505afa158015610ea7573d6000803e3d6000fd5b505050506040513d601f19601f82011682018060405250610ecb91908101906125b0565b905092915050565b603660008473ffffffffffffffffffffffffffffffffffffffff1673ffffffffffffffffffffffffffffffffffffffff16815260200190815260200160002054811115610f55576040517f08c379a0000000000000000000000000000000000000000000000000000000008152600401610f4c906133d7565b60405180910390fd5b600073ffffffffffffffffffffffffffffffffffffffff168273ffffffffffffffffffffffffffffffffffffffff161415610fc5576040517f08c379a0000000000000000000000000000000000000000000000000000000008152600401610fbc90613537565b60405180910390fd5b67016345785d8a0000811015611010576040517f08c379a000000000000000000000000000000000000000000000000000000000815260040161100790613597565b60405180910390fd5b61106281603660008673ffffffffffffffffffffffffffffffffffffffff1673ffffffffffffffffffffffffffffffffffffffff16815260200190815260200160002054611f8790919063ffffffff16565b603660008573ffffffffffffffffffffffffffffffffffffffff1673ffffffffffffffffffffffffffffffffffffffff168152602001908152602001600020819055506110f781603660008573ffffffffffffffffffffffffffffffffffffffff1673ffffffffffffffffffffffffffffffffffffffff16815260200190815260200160002054611fdd90919063ffffffff16565b603660008473ffffffffffffffffffffffffffffffffffffffff1673ffffffffffffffffffffffffffffffffffffffff1681526020019081526020016000208190555067016345785d8a0000603660008573ffffffffffffffffffffffffffffffffffffffff1673ffffffffffffffffffffffffffffffffffffffff1681526020019081526020016000205410156111c4576040517f08c379a00000000000000000000000000000000000000000000000000000000081526004016111bb90613557565b60405180910390fd5b7f65bf1c6c791f37841df40c02435859d92cca39e7b8cd1003c19ecb9ff2f222cf8383836040516111f7939291906131e0565b60405180910390a1505050565b600080600073ffffffffffffffffffffffffffffffffffffffff168873ffffffffffffffffffffffffffffffffffffffff161415611277576040517f08c379a000000000000000000000000000000000000000000000000000000000815260040161126e90613397565b60405180910390fd5b600073ffffffffffffffffffffffffffffffffffffffff168773ffffffffffffffffffffffffffffffffffffffff1614156112e7576040517f08c379a00000000000000000000000000000000000000000000000000000000081526004016112de90613517565b60405180910390fd5b6000861161132a576040517f08c379a000000000000000000000000000000000000000000000000000000000815260040161132190613377565b60405180910390fd5b611333886103c3565b915061133e876103c3565b905060006113bb898c8c60405180604001604052808873ffffffffffffffffffffffffffffffffffffffff1673ffffffffffffffffffffffffffffffffffffffff1681526020018773ffffffffffffffffffffffffffffffffffffffff1673ffffffffffffffffffffffffffffffffffffffff168152508b6104ec565b9050603860008a73ffffffffffffffffffffffffffffffffffffffff1673ffffffffffffffffffffffffffffffffffffffff1681526020019081526020016000206000815480929190600101919050555061141a81878660ff16612032565b73ffffffffffffffffffffffffffffffffffffffff168973ffffffffffffffffffffffffffffffffffffffff1614611487576040517f08c379a000000000000000000000000000000000000000000000000000000000815260040161147e90613497565b60405180910390fd5b611500888c8c60405180604001604052808873ffffffffffffffffffffffffffffffffffffffff1673ffffffffffffffffffffffffffffffffffffffff1681526020018773ffffffffffffffffffffffffffffffffffffffff1673ffffffffffffffffffffffffffffffffffffffff168152508b6104ec565b9050603860008973ffffffffffffffffffffffffffffffffffffffff1673ffffffffffffffffffffffffffffffffffffffff1681526020019081526020016000206000815480929190600101919050555061155f81868660ff16612032565b73ffffffffffffffffffffffffffffffffffffffff168873ffffffffffffffffffffffffffffffffffffffff16146115cc576040517f08c379a00000000000000000000000000000000000000000000000000000000081526004016115c390613417565b60405180910390fd5b509850989650505050505050565b600061167f603460008673ffffffffffffffffffffffffffffffffffffffff1673ffffffffffffffffffffffffffffffffffffffff1681526020019081526020016000205461167184603660008973ffffffffffffffffffffffffffffffffffffffff1673ffffffffffffffffffffffffffffffffffffffff168152602001908152602001600020546120a990919063ffffffff16565b61211990919063ffffffff16565b9050603460008573ffffffffffffffffffffffffffffffffffffffff1673ffffffffffffffffffffffffffffffffffffffff16815260200190815260200160002054821115611703576040517f08c379a00000000000000000000000000000000000000000000000000000000081526004016116fa906133d7565b60405180910390fd5b600073ffffffffffffffffffffffffffffffffffffffff168373ffffffffffffffffffffffffffffffffffffffff161415611773576040517f08c379a000000000000000000000000000000000000000000000000000000000815260040161176a90613537565b60405180910390fd5b67016345785d8a00008210156117be576040517f08c379a00000000000000000000000000000000000000000000000000000000081526004016117b590613597565b60405180910390fd5b61181082603460008773ffffffffffffffffffffffffffffffffffffffff1673ffffffffffffffffffffffffffffffffffffffff16815260200190815260200160002054611f8790919063ffffffff16565b603460008673ffffffffffffffffffffffffffffffffffffffff1673ffffffffffffffffffffffffffffffffffffffff168152602001908152602001600020819055506118a582603460008673ffffffffffffffffffffffffffffffffffffffff1673ffffffffffffffffffffffffffffffffffffffff16815260200190815260200160002054611fdd90919063ffffffff16565b603460008573ffffffffffffffffffffffffffffffffffffffff1673ffffffffffffffffffffffffffffffffffffffff1681526020019081526020016000208190555067016345785d8a0000603460008673ffffffffffffffffffffffffffffffffffffffff1673ffffffffffffffffffffffffffffffffffffffff168152602001908152602001600020541015611972576040517f08c379a000000000000000000000000000000000000000000000000000000000815260040161196990613557565b60405180910390fd5b7f4b561bec749abb701e51772ccc461627db033e876cb892e2c8699742617566608484846040516119a5939291906131e0565b60405180910390a1603660008573ffffffffffffffffffffffffffffffffffffffff1673ffffffffffffffffffffffffffffffffffffffff16815260200190815260200160002054811115611a2f576040517f08c379a0000000000000000000000000000000000000000000000000000000008152600401611a26906133d7565b60405180910390fd5b600073ffffffffffffffffffffffffffffffffffffffff168373ffffffffffffffffffffffffffffffffffffffff161415611a9f576040517f08c379a0000000000000000000000000000000000000000000000000000000008152600401611a9690613537565b60405180910390fd5b67016345785d8a0000811015611aea576040517f08c379a0000000000000000000000000000000000000000000000000000000008152600401611ae190613597565b60405180910390fd5b611b3c81603660008773ffffffffffffffffffffffffffffffffffffffff1673ffffffffffffffffffffffffffffffffffffffff16815260200190815260200160002054611f8790919063ffffffff16565b603660008673ffffffffffffffffffffffffffffffffffffffff1673ffffffffffffffffffffffffffffffffffffffff16815260200190815260200160002081905550611bd181603660008673ffffffffffffffffffffffffffffffffffffffff1673ffffffffffffffffffffffffffffffffffffffff16815260200190815260200160002054611fdd90919063ffffffff16565b603660008573ffffffffffffffffffffffffffffffffffffffff1673ffffffffffffffffffffffffffffffffffffffff1681526020019081526020016000208190555067016345785d8a0000603660008673ffffffffffffffffffffffffffffffffffffffff1673ffffffffffffffffffffffffffffffffffffffff168152602001908152602001600020541015611c9e576040517f08c379a0000000000000000000000000000000000000000000000000000000008152600401611c9590613557565b60405180910390fd5b7f65bf1c6c791f37841df40c02435859d92cca39e7b8cd1003c19ecb9ff2f222cf848483604051611cd1939291906131e0565b60405180910390a150505050565b600080303b90506000811491505090565b80603360006101000a81548173ffffffffffffffffffffffffffffffffffffffff021916908373ffffffffffffffffffffffffffffffffffffffff1602179055507f43bb990ead28e2cb3ea8b26e045448500f1cd58ccf150c95dd8e7e14dd12b7fa81604051611d609190613165565b60405180910390a150565b60008073ffffffffffffffffffffffffffffffffffffffff168373ffffffffffffffffffffffffffffffffffffffff161415611da657600080fd5b611df882603460008673ffffffffffffffffffffffffffffffffffffffff1673ffffffffffffffffffffffffffffffffffffffff16815260200190815260200160002054611fdd90919063ffffffff16565b603460008573ffffffffffffffffffffffffffffffffffffffff1673ffffffffffffffffffffffffffffffffffffffff16815260200190815260200160002081905550611e5082603554611fdd90919063ffffffff16565b6035819055507f4b561bec749abb701e51772ccc461627db033e876cb892e2c86997426175666060008484604051611e8a93929190613180565b60405180910390a1611ee482603660008673ffffffffffffffffffffffffffffffffffffffff1673ffffffffffffffffffffffffffffffffffffffff16815260200190815260200160002054611fdd90919063ffffffff16565b603660008573ffffffffffffffffffffffffffffffffffffffff1673ffffffffffffffffffffffffffffffffffffffff16815260200190815260200160002081905550611f3c82603754611fdd90919063ffffffff16565b6037819055507f65bf1c6c791f37841df40c02435859d92cca39e7b8cd1003c19ecb9ff2f222cf60008484604051611f7693929190613180565b60405180910390a181905092915050565b600082821115611fcc576040517f08c379a0000000000000000000000000000000000000000000000000000000008152600401611fc390613437565b60405180910390fd5b600082840390508091505092915050565b600080828401905083811015612028576040517f08c379a000000000000000000000000000000000000000000000000000000000815260040161201f906133b7565b60405180910390fd5b8091505092915050565b6000806000806120428686612175565b80935081945082955050505060018784848460405160008152602001604052604051612071949392919061324d565b6020604051602081039080840390855afa158015612093573d6000803e3d6000fd5b5050506020604051035193505050509392505050565b6000808314156120bc5760009050612113565b60008284029050828482816120cd57fe5b041461210e576040517f08c379a0000000000000000000000000000000000000000000000000000000008152600401612105906134d7565b60405180910390fd5b809150505b92915050565b600080821161215d576040517f08c379a000000000000000000000000000000000000000000000000000000000815260040161215490613457565b60405180910390fd5b600082848161216857fe5b0490508091505092915050565b60008060008360410260208101860151925060408101860151915060ff60418201870151169350509250925092565b6000813590506121b3816138e1565b92915050565b6000815190506121c8816138e1565b92915050565b600082601f8301126121df57600080fd5b60026121f26121ed826135ff565b6135d2565b9150818385602084028201111561220857600080fd5b60005b83811015612238578161221e88826121a4565b84526020840193506020830192505060018101905061220b565b5050505092915050565b600082601f83011261225357600080fd5b813561226661226182613621565b6135d2565b9150818183526020840193506020810190508385602084028201111561228b57600080fd5b60005b838110156122bb57816122a188826121a4565b84526020840193506020830192505060018101905061228e565b5050505092915050565b600082601f8301126122d657600080fd5b81356122e96122e482613649565b6135d2565b9150818183526020840193506020810190508385602084028201111561230e57600080fd5b60005b8381101561233e5781612324888261241a565b845260208401935060208301925050600181019050612311565b5050505092915050565b600081519050612357816138f8565b92915050565b60008135905061236c8161390f565b92915050565b600082601f83011261238357600080fd5b813561239661239182613671565b6135d2565b915080825260208301602083018583830111156123b257600080fd5b6123bd83828461383f565b50505092915050565b600082601f8301126123d757600080fd5b81356123ea6123e58261369d565b6135d2565b9150808252602083016020830185838301111561240657600080fd5b61241183828461383f565b50505092915050565b60008135905061242981613926565b92915050565b60008135905061243e8161393d565b92915050565b60006020828403121561245657600080fd5b6000612464848285016121a4565b91505092915050565b60006020828403121561247f57600080fd5b600061248d848285016121b9565b91505092915050565b600080604083850312156124a957600080fd5b60006124b7858286016121a4565b92505060206124c8858286016121a4565b9150509250929050565b6000806000606084860312156124e757600080fd5b60006124f5868287016121a4565b9350506020612506868287016121a4565b92505060406125178682870161241a565b9150509250925092565b600080600080600060c0868803121561253957600080fd5b6000612547888289016121a4565b955050602086013567ffffffffffffffff81111561256457600080fd5b612570888289016123c6565b94505060406125818882890161235d565b9350506060612592888289016121ce565b92505060a06125a38882890161241a565b9150509295509295909350565b6000602082840312156125c257600080fd5b60006125d084828501612348565b91505092915050565b600080600080600080600060e0888a0312156125f457600080fd5b60006126028a828b0161235d565b975050602088013567ffffffffffffffff81111561261f57600080fd5b61262b8a828b016123c6565b965050604088013567ffffffffffffffff81111561264857600080fd5b6126548a828b01612372565b955050606088013567ffffffffffffffff81111561267157600080fd5b61267d8a828b01612372565b945050608088013567ffffffffffffffff81111561269a57600080fd5b6126a68a828b01612242565b93505060a088013567ffffffffffffffff8111156126c357600080fd5b6126cf8a828b01612242565b92505060c088013567ffffffffffffffff8111156126ec57600080fd5b6126f88a828b016122c5565b91505092959891949750929550565b600080600080600080600080610100898b03121561272457600080fd5b600089013567ffffffffffffffff81111561273e57600080fd5b61274a8b828c016123c6565b985050602061275b8b828c0161235d565b975050604061276c8b828c016121a4565b965050606061277d8b828c016121a4565b955050608061278e8b828c0161241a565b94505060a089013567ffffffffffffffff8111156127ab57600080fd5b6127b78b828c01612372565b93505060c089013567ffffffffffffffff8111156127d457600080fd5b6127e08b828c01612372565b92505060e06127f18b828c0161242f565b9150509295985092959890939650565b600061280d8383612840565b60208301905092915050565b60006128258383613082565b60208301905092915050565b61283a81613809565b82525050565b6128498161377e565b82525050565b6128588161377e565b82525050565b61286f61286a8261377e565b613881565b82525050565b6000612880826136e9565b61288a818561372f565b9350612895836136c9565b8060005b838110156128c65781516128ad8882612801565b97506128b883613715565b925050600181019050612899565b5085935050505092915050565b60006128de826136f4565b6128e88185613740565b93506128f3836136d9565b8060005b8381101561292457815161290b8882612819565b975061291683613722565b9250506001810190506128f7565b5085935050505092915050565b61293a81613790565b82525050565b61295161294c8261379c565b613893565b82525050565b612960816137c8565b82525050565b612977612972826137c8565b61389d565b82525050565b6000612988826136ff565b6129928185613751565b93506129a281856020860161384e565b6129ab816138c3565b840191505092915050565b60006129c18261370a565b6129cb8185613762565b93506129db81856020860161384e565b6129e4816138c3565b840191505092915050565b60006129fa8261370a565b612a048185613773565b9350612a1481856020860161384e565b80840191505092915050565b6000612a2d601c83613762565b91507f74656d706c617465486173682063616e6e6f7420626520656d707479000000006000830152602082019050919050565b6000612a6d601f83613762565b91507f56616c7565206d7573742062652067726561746572207468616e207a65726f006000830152602082019050919050565b6000612aad601b83613762565b91507f5a65726f20616464726573732063616e6e6f742073656e6420545800000000006000830152602082019050919050565b6000612aed601b83613762565b91507f536166654d6174683a206164646974696f6e206f766572666c6f7700000000006000830152602082019050919050565b6000612b2d602983613762565b91507f43616e6e6f74207472616e73666572206269676765722076616c75652074686160008301527f6e2062616c616e636500000000000000000000000000000000000000000000006020830152604082019050919050565b6000612b93603a83613762565b91507f73656e6465725369676e6572732c2072656365697665725369676e657273206160008301527f6e642076616c7565206c656e677468206d757374206d617463680000000000006020830152604082019050919050565b6000612bf9603083613762565b91507f4d65737361676520686173206e6f74206265656e207369676e65642070726f7060008301527f65726c79206279207265636569766572000000000000000000000000000000006020830152604082019050919050565b6000612c5f601e83613762565b91507f536166654d6174683a207375627472616374696f6e206f766572666c6f7700006000830152602082019050919050565b6000612c9f601a83613762565b91507f536166654d6174683a206469766973696f6e206279207a65726f0000000000006000830152602082019050919050565b6000612cdf602b83613762565b91507f456163682076616c756520747261736e6665722073686f756c6420686176652060008301527f61207369676e61747572650000000000000000000000000000000000000000006020830152604082019050919050565b6000612d45602e83613762565b91507f4d65737361676520686173206e6f74206265656e207369676e65642070726f7060008301527f65726c792062792073656e6465720000000000000000000000000000000000006020830152604082019050919050565b6000612dab603183613762565b91507f307830204964656e74697479206973206e6f7420616c6c6f77656420746f207060008301527f6572666f726d20616e7920616374696f6e0000000000000000000000000000006020830152604082019050919050565b6000612e11602183613762565b91507f536166654d6174683a206d756c7469706c69636174696f6e206f766572666c6f60008301527f77000000000000000000000000000000000000000000000000000000000000006020830152604082019050919050565b6000612e77602e83613762565b91507f436f6e747261637420696e7374616e63652068617320616c726561647920626560008301527f656e20696e697469616c697a65640000000000000000000000000000000000006020830152604082019050919050565b6000612edd602283613762565b91507f5a65726f20616464726573732063616e6e6f742072656365697665207269676860008301527f74730000000000000000000000000000000000000000000000000000000000006020830152604082019050919050565b6000612f43601f83613762565b91507f43616e6e6f74207472616e7366657220746f207a65726f2061646472657373006000830152602082019050919050565b6000612f83603983613762565b91507f53656e6465722062616c616e63652063616e6e6f7420626520736d616c6c657260008301527f207468616e20302e3125206166746572207472616e73666572000000000000006020830152604082019050919050565b6000612fe9601f83613762565b91507f74656d706c61746556657273696f6e2063616e6e6f7420626520656d707479006000830152602082019050919050565b6000613029602c83613762565b91507f526571756972652070657263656e74616765207472616e73666572206174206c60008301527f65617374206f6620302e312500000000000000000000000000000000000000006020830152604082019050919050565b61308b816137f2565b82525050565b61309a816137f2565b82525050565b6130b16130ac826137f2565b6138b9565b82525050565b6130c0816137fc565b82525050565b60006130d2828c612940565b6001820191506130e2828b612940565b6001820191506130f2828a61285e565b60148201915061310282896129ef565b915061310e8288612966565b60208201915061311e828761285e565b60148201915061312e828661285e565b60148201915061313e82856130a0565b60208201915061314e82846130a0565b6020820191508190509a9950505050505050505050565b600060208201905061317a600083018461284f565b92915050565b60006060820190506131956000830186612831565b6131a2602083018561284f565b6131af6040830184613091565b949350505050565b60006040820190506131cc600083018561284f565b6131d9602083018461284f565b9392505050565b60006060820190506131f5600083018661284f565b613202602083018561284f565b61320f6040830184613091565b949350505050565b600060208201905061322c6000830184612931565b92915050565b60006020820190506132476000830184612957565b92915050565b60006080820190506132626000830187612957565b61326f60208301866130b7565b61327c6040830185612957565b6132896060830184612957565b95945050505050565b60006101208201905081810360008301526132ad818c6129b6565b90506132bc602083018b612957565b81810360408301526132ce818a61297d565b905081810360608301526132e2818961297d565b905081810360808301526132f68188612875565b905081810360a083015261330a8187612875565b905081810360c083015261331e8186612875565b905081810360e08301526133328185612875565b905081810361010083015261334781846128d3565b90509a9950505050505050505050565b6000602082019050818103600083015261337081612a20565b9050919050565b6000602082019050818103600083015261339081612a60565b9050919050565b600060208201905081810360008301526133b081612aa0565b9050919050565b600060208201905081810360008301526133d081612ae0565b9050919050565b600060208201905081810360008301526133f081612b20565b9050919050565b6000602082019050818103600083015261341081612b86565b9050919050565b6000602082019050818103600083015261343081612bec565b9050919050565b6000602082019050818103600083015261345081612c52565b9050919050565b6000602082019050818103600083015261347081612c92565b9050919050565b6000602082019050818103600083015261349081612cd2565b9050919050565b600060208201905081810360008301526134b081612d38565b9050919050565b600060208201905081810360008301526134d081612d9e565b9050919050565b600060208201905081810360008301526134f081612e04565b9050919050565b6000602082019050818103600083015261351081612e6a565b9050919050565b6000602082019050818103600083015261353081612ed0565b9050919050565b6000602082019050818103600083015261355081612f36565b9050919050565b6000602082019050818103600083015261357081612f76565b9050919050565b6000602082019050818103600083015261359081612fdc565b9050919050565b600060208201905081810360008301526135b08161301c565b9050919050565b60006020820190506135cc6000830184613091565b92915050565b6000604051905081810181811067ffffffffffffffff821117156135f557600080fd5b8060405250919050565b600067ffffffffffffffff82111561361657600080fd5b602082029050919050565b600067ffffffffffffffff82111561363857600080fd5b602082029050602081019050919050565b600067ffffffffffffffff82111561366057600080fd5b602082029050602081019050919050565b600067ffffffffffffffff82111561368857600080fd5b601f19601f8301169050602081019050919050565b600067ffffffffffffffff8211156136b457600080fd5b601f19601f8301169050602081019050919050565b6000819050602082019050919050565b6000819050602082019050919050565b600081519050919050565b600081519050919050565b600081519050919050565b600081519050919050565b6000602082019050919050565b6000602082019050919050565b600082825260208201905092915050565b600082825260208201905092915050565b600082825260208201905092915050565b600082825260208201905092915050565b600081905092915050565b6000613789826137d2565b9050919050565b60008115159050919050565b60007fff0000000000000000000000000000000000000000000000000000000000000082169050919050565b6000819050919050565b600073ffffffffffffffffffffffffffffffffffffffff82169050919050565b6000819050919050565b600060ff82169050919050565b60006138148261381b565b9050919050565b60006138268261382d565b9050919050565b6000613838826137d2565b9050919050565b82818337600083830152505050565b60005b8381101561386c578082015181840152602081019050613851565b8381111561387b576000848401525b50505050565b600061388c826138a7565b9050919050565b6000819050919050565b6000819050919050565b60006138b2826138d4565b9050919050565b6000819050919050565b6000601f19601f8301169050919050565b60008160601b9050919050565b6138ea8161377e565b81146138f557600080fd5b50565b61390181613790565b811461390c57600080fd5b50565b613918816137c8565b811461392357600080fd5b50565b61392f816137f2565b811461393a57600080fd5b50565b613946816137fc565b811461395157600080fd5b5056fea365627a7a7230582045fca6122f05a82a83a92c946dcf09a851ba07cd1cae1ad9b1e8865145de35666c6578706572696d656e74616cf564736f6c634300050a0040",
  "source": "pragma solidity >=0.5.0 <0.6.0;\npragma experimental \"ABIEncoderV2\";\n\n\nimport \"../OwnershipRoyaltiesAgreements.sol\";\n\n\ncontract OwnershipRoyaltiesAgreementsPublic is OwnershipRoyaltiesAgreements {\n\n    function validateSignatures(\n        string memory trasnferType,\n        bytes32 templateHash,\n        address senderSigner,\n        address receiverSigner,\n        uint256 value,\n        bytes memory sigSenders,\n        bytes memory sigReceivers,\n        uint8 i\n    ) public returns (address senderId, address receiverId) {\n        (senderId, receiverId) = super._validateSignatures(trasnferType, templateHash, senderSigner, receiverSigner, value, sigSenders, sigReceivers, i);\n    }\n\n    function _transferOwnership(\n        address from,\n        address to,\n        uint256 value\n    ) public {\n        super.transferOwnership(from, to, value);\n    }\n\n    function _transferRoyalties(\n        address from,\n        address to,\n        uint256 value\n    ) public {\n        super.transferRoyalties(from, to, value);\n    }\n}\n",
  "sourcePath": "/Users/tom/www/music-smart-contracts/contracts/mock/OwnershipRoyaltiesAgreementsPublic.sol",
  "compiler": {
    "name": "solc",
    "version": "0.5.10+commit.5a6ea5b1.Emscripten.clang"
  },
  "schemaVersion": "3.0.11",
  "updatedAt": "2019-07-06T21:23:25.139Z",
  "devdoc": {
    "methods": {
      "balanceOfOwnership(address)": {
        "details": "Gets the ownership of the specified address.",
        "params": {
          "owner": "The address to query the balance of."
        },
        "return": "An uint256 representing the amount owned by the passed address."
      },
      "balanceOfRoyalties(address)": {
        "details": "Gets the ownership of the specified address.",
        "params": {
          "owner": "The address to query the balance of."
        },
        "return": "An uint256 representing the amount owned by the passed address."
      },
      "newOwnershipTransferAgreement(bytes32,string,bytes,bytes,address[],address[],uint256[])": {
        "details": "56020 gas for sent data (includes 21k min fee)",
        "params": {
          "receiverSigners": "addresses of receivers used to sign the tx",
          "senderSigners": "addresses of senders used to sign the tx",
          "sigReceivers": "signatures of receivers in compact form",
          "sigSenders": "singatures of senders in compact from",
          "templateHash": "ipfs compatible hash of legal file timplate",
          "templateVersion": "legal template file version",
          "values": "value of the trasnfer (1 ETH == 1%)"
        }
      },
      "newRoyaltiesTransferAgreement(bytes32,string,bytes,bytes,address[],address[],uint256[])": {
        "params": {
          "receiverSigners": "addresses of receivers used to sign the tx",
          "senderSigners": "addresses of senders used to sign the tx",
          "sigReceivers": "signatures of receivers in compact form",
          "sigSenders": "singatures of senders in compact from",
          "templateHash": "ipfs compatible hash of legal file timplate",
          "templateVersion": "legal template file version",
          "values": "value of the trasnfer (1 ETH == 1%)"
        }
      },
      "totalSupplyOwnership()": {
        "details": "Total number of tokens in existence"
      },
      "totalSupplyRoyalties()": {
        "details": "Total number of tokens in existence"
      }
    }
  },
  "userdoc": {
    "methods": {
      "newOwnershipTransferAgreement(bytes32,string,bytes,bytes,address[],address[],uint256[])": {
        "notice": "Creates new agreement for ownership transfer"
      },
      "newRoyaltiesTransferAgreement(bytes32,string,bytes,bytes,address[],address[],uint256[])": {
        "notice": "Creates new agreement for royalties transfer"
      }
    }
  }
}