{
  "contractName": "OwnershipRoyaltiesAgreements",
  "abi": [
    {
      "constant": true,
      "inputs": [
        {
          "name": "actor",
          "type": "address"
        }
      ],
      "name": "getIdentity",
      "outputs": [
        {
          "name": "",
          "type": "address"
        }
      ],
      "payable": false,
      "stateMutability": "view",
      "type": "function"
    },
    {
      "constant": true,
      "inputs": [],
      "name": "ethDIDReg",
      "outputs": [
        {
          "name": "",
          "type": "address"
        }
      ],
      "payable": false,
      "stateMutability": "view",
      "type": "function"
    },
    {
      "constant": true,
      "inputs": [
        {
          "name": "identity",
          "type": "address"
        },
        {
          "name": "actor",
          "type": "address"
        }
      ],
      "name": "isIdentityOwner",
      "outputs": [
        {
          "name": "",
          "type": "bool"
        }
      ],
      "payable": false,
      "stateMutability": "view",
      "type": "function"
    },
    {
      "anonymous": false,
      "inputs": [
        {
          "indexed": false,
          "name": "templateVersion",
          "type": "string"
        },
        {
          "indexed": false,
          "name": "templateHash",
          "type": "bytes32"
        },
        {
          "indexed": false,
          "name": "sigSenders",
          "type": "bytes"
        },
        {
          "indexed": false,
          "name": "sigReceivers",
          "type": "bytes"
        },
        {
          "indexed": false,
          "name": "senderSigners",
          "type": "address[]"
        },
        {
          "indexed": false,
          "name": "senderIdentities",
          "type": "address[]"
        },
        {
          "indexed": false,
          "name": "receiverSigners",
          "type": "address[]"
        },
        {
          "indexed": false,
          "name": "receiverIdentities",
          "type": "address[]"
        },
        {
          "indexed": false,
          "name": "values",
          "type": "uint256[]"
        }
      ],
      "name": "NewOwnershipAgreement",
      "type": "event"
    },
    {
      "anonymous": false,
      "inputs": [
        {
          "indexed": false,
          "name": "templateVersion",
          "type": "string"
        },
        {
          "indexed": false,
          "name": "templateHash",
          "type": "bytes32"
        },
        {
          "indexed": false,
          "name": "sigSenders",
          "type": "bytes"
        },
        {
          "indexed": false,
          "name": "sigReceivers",
          "type": "bytes"
        },
        {
          "indexed": false,
          "name": "senderSigners",
          "type": "address[]"
        },
        {
          "indexed": false,
          "name": "senderIdentities",
          "type": "address[]"
        },
        {
          "indexed": false,
          "name": "receiverSigners",
          "type": "address[]"
        },
        {
          "indexed": false,
          "name": "receiverIdentities",
          "type": "address[]"
        },
        {
          "indexed": false,
          "name": "values",
          "type": "uint256[]"
        }
      ],
      "name": "NewRoyaltiesAgreement",
      "type": "event"
    },
    {
      "anonymous": false,
      "inputs": [
        {
          "indexed": false,
          "name": "from",
          "type": "address"
        },
        {
          "indexed": false,
          "name": "to",
          "type": "address"
        },
        {
          "indexed": false,
          "name": "value",
          "type": "uint256"
        }
      ],
      "name": "OwnershipTransfer",
      "type": "event"
    },
    {
      "anonymous": false,
      "inputs": [
        {
          "indexed": false,
          "name": "from",
          "type": "address"
        },
        {
          "indexed": false,
          "name": "to",
          "type": "address"
        },
        {
          "indexed": false,
          "name": "value",
          "type": "uint256"
        }
      ],
      "name": "RoyaltiesTransfer",
      "type": "event"
    },
    {
      "anonymous": false,
      "inputs": [
        {
          "indexed": false,
          "name": "reg",
          "type": "address"
        }
      ],
      "name": "EthRegistrySet",
      "type": "event"
    },
    {
      "constant": false,
      "inputs": [
        {
          "name": "_ownerKey",
          "type": "address"
        },
        {
          "name": "_ethDID",
          "type": "address"
        }
      ],
      "name": "init",
      "outputs": [],
      "payable": false,
      "stateMutability": "nonpayable",
      "type": "function"
    },
    {
      "constant": true,
      "inputs": [
        {
          "name": "owner",
          "type": "address"
        }
      ],
      "name": "nonceFor",
      "outputs": [
        {
          "name": "",
          "type": "uint256"
        }
      ],
      "payable": false,
      "stateMutability": "view",
      "type": "function"
    },
    {
      "constant": true,
      "inputs": [],
      "name": "totalSupplyOwnership",
      "outputs": [
        {
          "name": "",
          "type": "uint256"
        }
      ],
      "payable": false,
      "stateMutability": "view",
      "type": "function"
    },
    {
      "constant": true,
      "inputs": [
        {
          "name": "owner",
          "type": "address"
        }
      ],
      "name": "balanceOfOwnership",
      "outputs": [
        {
          "name": "",
          "type": "uint256"
        }
      ],
      "payable": false,
      "stateMutability": "view",
      "type": "function"
    },
    {
      "constant": true,
      "inputs": [],
      "name": "totalSupplyRoyalties",
      "outputs": [
        {
          "name": "",
          "type": "uint256"
        }
      ],
      "payable": false,
      "stateMutability": "view",
      "type": "function"
    },
    {
      "constant": true,
      "inputs": [
        {
          "name": "owner",
          "type": "address"
        }
      ],
      "name": "balanceOfRoyalties",
      "outputs": [
        {
          "name": "",
          "type": "uint256"
        }
      ],
      "payable": false,
      "stateMutability": "view",
      "type": "function"
    },
    {
      "constant": false,
      "inputs": [
        {
          "name": "templateHash",
          "type": "bytes32"
        },
        {
          "name": "templateVersion",
          "type": "string"
        },
        {
          "name": "sigSenders",
          "type": "bytes"
        },
        {
          "name": "sigReceivers",
          "type": "bytes"
        },
        {
          "name": "senderSigners",
          "type": "address[]"
        },
        {
          "name": "receiverSigners",
          "type": "address[]"
        },
        {
          "name": "values",
          "type": "uint256[]"
        }
      ],
      "name": "newOwnershipTransferAgreement",
      "outputs": [],
      "payable": false,
      "stateMutability": "nonpayable",
      "type": "function"
    },
    {
      "constant": false,
      "inputs": [
        {
          "name": "templateHash",
          "type": "bytes32"
        },
        {
          "name": "templateVersion",
          "type": "string"
        },
        {
          "name": "sigSenders",
          "type": "bytes"
        },
        {
          "name": "sigReceivers",
          "type": "bytes"
        },
        {
          "name": "senderSigners",
          "type": "address[]"
        },
        {
          "name": "receiverSigners",
          "type": "address[]"
        },
        {
          "name": "values",
          "type": "uint256[]"
        }
      ],
      "name": "newRoyaltiesTransferAgreement",
      "outputs": [],
      "payable": false,
      "stateMutability": "nonpayable",
      "type": "function"
    },
    {
      "constant": true,
      "inputs": [
        {
          "name": "signer",
          "type": "address"
        },
        {
          "name": "transferType",
          "type": "string"
        },
        {
          "name": "templateHash",
          "type": "bytes32"
        },
        {
          "name": "identities",
          "type": "address[2]"
        },
        {
          "name": "value",
          "type": "uint256"
        }
      ],
      "name": "getHash",
      "outputs": [
        {
          "name": "",
          "type": "bytes32"
        }
      ],
      "payable": false,
      "stateMutability": "view",
      "type": "function"
    }
  ],
  "bytecode": "0x608060405234801561001057600080fd5b50613730806100206000396000f3fe608060405234801561001057600080fd5b50600436106100b45760003560e01c80636db65d9c116100715780636db65d9c146101b3578063976ec92b146101d1578063a32890d314610201578063e71758131461021d578063f09a40161461023b578063fd2aa0b414610257576100b4565b806318294496146100b95780632420a3fa146100e95780632fea7b81146101195780633bfc4c1b14610149578063403078a1146101795780635945dad114610197575b600080fd5b6100d360048036036100ce919081019061233d565b610287565b6040516100e09190613367565b60405180910390f35b61010360048036036100fe919081019061233d565b6102d0565b6040516101109190613367565b60405180910390f35b610133600480360361012e919081019061233d565b610319565b6040516101409190612f15565b60405180910390f35b610163600480360361015e91908101906123cb565b610442565b6040516101709190612fe2565b60405180910390f35b6101816104ef565b60405161018e9190613367565b60405180910390f35b6101b160048036036101ac9190810190612483565b6104f9565b005b6101bb61084d565b6040516101c89190613367565b60405180910390f35b6101eb60048036036101e6919081019061233d565b610857565b6040516101f89190613367565b60405180910390f35b61021b60048036036102169190810190612483565b6108a0565b005b610225610bf4565b6040516102329190612f15565b60405180910390f35b6102556004803603610250919081019061238f565b610c1a565b005b610271600480360361026c919081019061238f565b610d2a565b60405161027e9190612fc7565b60405180910390f35b6000603660008373ffffffffffffffffffffffffffffffffffffffff1673ffffffffffffffffffffffffffffffffffffffff168152602001908152602001600020549050919050565b6000603460008373ffffffffffffffffffffffffffffffffffffffff1673ffffffffffffffffffffffffffffffffffffffff168152602001908152602001600020549050919050565b600080603360009054906101000a900473ffffffffffffffffffffffffffffffffffffffff1673ffffffffffffffffffffffffffffffffffffffff16632fea7b81846040518263ffffffff1660e01b81526004016103779190612f15565b60206040518083038186803b15801561038f57600080fd5b505afa1580156103a3573d6000803e3d6000fd5b505050506040513d601f19601f820116820180604052506103c79190810190612366565b9050600073ffffffffffffffffffffffffffffffffffffffff168173ffffffffffffffffffffffffffffffffffffffff161415610439576040517f08c379a000000000000000000000000000000000000000000000000000000000815260040161043090613267565b60405180910390fd5b80915050919050565b6000601960f81b600060f81b3087878760006002811061045e57fe5b60200201518860016002811061047057fe5b602002015188603860008f73ffffffffffffffffffffffffffffffffffffffff1673ffffffffffffffffffffffffffffffffffffffff168152602001908152602001600020546040516020016104ce99989796959493929190612e76565b60405160208183030381529060405280519060200120905095945050505050565b6000603554905090565b6060815160405190808252806020026020018201604052801561052b5781602001602082028038833980820191505090505b509050606082516040519080825280602002602001820160405280156105605781602001602082028038833980820191505090505b5090506000801b8914156105a9576040517f08c379a00000000000000000000000000000000000000000000000000000000081526004016105a090613107565b60405180910390fd5b60008851116105ed576040517f08c379a00000000000000000000000000000000000000000000000000000000081526004016105e490613327565b60405180910390fd5b60418351028751148015610602575085518751145b610641576040517f08c379a000000000000000000000000000000000000000000000000000000000815260040161063890613227565b60405180910390fd5b83518551148015610653575082518451145b610692576040517f08c379a0000000000000000000000000000000000000000000000000000000008152600401610689906131a7565b60405180910390fd5b60008060008090505b85518160ff1610156107f85761072e6040518060400160405280601181526020017f526f79616c746965735472616e736665720000000000000000000000000000008152508d8a8460ff16815181106106f057fe5b60200260200101518a8560ff168151811061070757fe5b60200260200101518a8660ff168151811061071e57fe5b60200260200101518f8f88610de1565b809350819450505082858260ff168151811061074657fe5b602002602001019073ffffffffffffffffffffffffffffffffffffffff16908173ffffffffffffffffffffffffffffffffffffffff168152505081848260ff168151811061079057fe5b602002602001019073ffffffffffffffffffffffffffffffffffffffff16908173ffffffffffffffffffffffffffffffffffffffff16815250506107eb8383888460ff16815181106107de57fe5b60200260200101516111b7565b808060010191505061069b565b507f1ea3aee78f0a8c63d9448d8664e8a8366da7deb1959db6a080ccd85fdca2babf8a8c8b8b8b898c8a8d60405161083899989796959493929190613042565b60405180910390a15050505050505050505050565b6000603754905090565b6000603860008373ffffffffffffffffffffffffffffffffffffffff1673ffffffffffffffffffffffffffffffffffffffff168152602001908152602001600020549050919050565b606081516040519080825280602002602001820160405280156108d25781602001602082028038833980820191505090505b509050606082516040519080825280602002602001820160405280156109075781602001602082028038833980820191505090505b5090506000801b891415610950576040517f08c379a000000000000000000000000000000000000000000000000000000000815260040161094790613107565b60405180910390fd5b6000885111610994576040517f08c379a000000000000000000000000000000000000000000000000000000000815260040161098b90613327565b60405180910390fd5b604183510287511480156109a9575085518751145b6109e8576040517f08c379a00000000000000000000000000000000000000000000000000000000081526004016109df90613227565b60405180910390fd5b835185511480156109fa575082518451145b610a39576040517f08c379a0000000000000000000000000000000000000000000000000000000008152600401610a30906131a7565b60405180910390fd5b60008060008090505b85518160ff161015610b9f57610ad56040518060400160405280601181526020017f4f776e6572736869705472616e736665720000000000000000000000000000008152508d8a8460ff1681518110610a9757fe5b60200260200101518a8560ff1681518110610aae57fe5b60200260200101518a8660ff1681518110610ac557fe5b60200260200101518f8f88610de1565b809350819450505082858260ff1681518110610aed57fe5b602002602001019073ffffffffffffffffffffffffffffffffffffffff16908173ffffffffffffffffffffffffffffffffffffffff168152505081848260ff1681518110610b3757fe5b602002602001019073ffffffffffffffffffffffffffffffffffffffff16908173ffffffffffffffffffffffffffffffffffffffff1681525050610b928383888460ff1681518110610b8557fe5b60200260200101516114e8565b8080600101915050610a42565b507ff0b9764fbf6acd9ef6891f8b220eb49e44f81ec0ad504d540a5a93e60ff59ab18a8c8b8b8b898c8a8d604051610bdf99989796959493929190613042565b60405180910390a15050505050505050505050565b603360009054906101000a900473ffffffffffffffffffffffffffffffffffffffff1681565b600060019054906101000a900460ff1680610c395750610c38611bed565b5b80610c5057506000809054906101000a900460ff16155b610c8f576040517f08c379a0000000000000000000000000000000000000000000000000000000008152600401610c86906132a7565b60405180910390fd5b60008060019054906101000a900460ff161590508015610cdf576001600060016101000a81548160ff02191690831515021790555060016000806101000a81548160ff0219169083151502179055505b610ce882611bfe565b610d03610cf484610319565b68056bc75e2d63100000611c79565b508015610d255760008060016101000a81548160ff0219169083151502179055505b505050565b6000603360009054906101000a900473ffffffffffffffffffffffffffffffffffffffff1673ffffffffffffffffffffffffffffffffffffffff1663fd2aa0b484846040518363ffffffff1660e01b8152600401610d89929190612f67565b60206040518083038186803b158015610da157600080fd5b505afa158015610db5573d6000803e3d6000fd5b505050506040513d601f19601f82011682018060405250610dd9919081019061245a565b905092915050565b600080600073ffffffffffffffffffffffffffffffffffffffff168873ffffffffffffffffffffffffffffffffffffffff161415610e54576040517f08c379a0000000000000000000000000000000000000000000000000000000008152600401610e4b90613147565b60405180910390fd5b600073ffffffffffffffffffffffffffffffffffffffff168773ffffffffffffffffffffffffffffffffffffffff161415610ec4576040517f08c379a0000000000000000000000000000000000000000000000000000000008152600401610ebb906132c7565b60405180910390fd5b60008611610f07576040517f08c379a0000000000000000000000000000000000000000000000000000000008152600401610efe90613127565b60405180910390fd5b610f1088610319565b9150610f1b87610319565b90506000610f98898c8c60405180604001604052808873ffffffffffffffffffffffffffffffffffffffff1673ffffffffffffffffffffffffffffffffffffffff1681526020018773ffffffffffffffffffffffffffffffffffffffff1673ffffffffffffffffffffffffffffffffffffffff168152508b610442565b9050603860008a73ffffffffffffffffffffffffffffffffffffffff1673ffffffffffffffffffffffffffffffffffffffff16815260200190815260200160002060008154809291906001019190505550610ff781878660ff16611e95565b73ffffffffffffffffffffffffffffffffffffffff168973ffffffffffffffffffffffffffffffffffffffff1614611064576040517f08c379a000000000000000000000000000000000000000000000000000000000815260040161105b90613247565b60405180910390fd5b6110dd888c8c60405180604001604052808873ffffffffffffffffffffffffffffffffffffffff1673ffffffffffffffffffffffffffffffffffffffff1681526020018773ffffffffffffffffffffffffffffffffffffffff1673ffffffffffffffffffffffffffffffffffffffff168152508b610442565b9050603860008973ffffffffffffffffffffffffffffffffffffffff1673ffffffffffffffffffffffffffffffffffffffff1681526020019081526020016000206000815480929190600101919050555061113c81868660ff16611e95565b73ffffffffffffffffffffffffffffffffffffffff168873ffffffffffffffffffffffffffffffffffffffff16146111a9576040517f08c379a00000000000000000000000000000000000000000000000000000000081526004016111a0906131c7565b60405180910390fd5b509850989650505050505050565b603660008473ffffffffffffffffffffffffffffffffffffffff1673ffffffffffffffffffffffffffffffffffffffff16815260200190815260200160002054811115611239576040517f08c379a000000000000000000000000000000000000000000000000000000000815260040161123090613187565b60405180910390fd5b600073ffffffffffffffffffffffffffffffffffffffff168273ffffffffffffffffffffffffffffffffffffffff1614156112a9576040517f08c379a00000000000000000000000000000000000000000000000000000000081526004016112a0906132e7565b60405180910390fd5b67016345785d8a00008110156112f4576040517f08c379a00000000000000000000000000000000000000000000000000000000081526004016112eb90613347565b60405180910390fd5b61134681603660008673ffffffffffffffffffffffffffffffffffffffff1673ffffffffffffffffffffffffffffffffffffffff16815260200190815260200160002054611f0c90919063ffffffff16565b603660008573ffffffffffffffffffffffffffffffffffffffff1673ffffffffffffffffffffffffffffffffffffffff168152602001908152602001600020819055506113db81603660008573ffffffffffffffffffffffffffffffffffffffff1673ffffffffffffffffffffffffffffffffffffffff16815260200190815260200160002054611f6290919063ffffffff16565b603660008473ffffffffffffffffffffffffffffffffffffffff1673ffffffffffffffffffffffffffffffffffffffff1681526020019081526020016000208190555067016345785d8a0000603660008573ffffffffffffffffffffffffffffffffffffffff1673ffffffffffffffffffffffffffffffffffffffff1681526020019081526020016000205410156114a8576040517f08c379a000000000000000000000000000000000000000000000000000000000815260040161149f90613307565b60405180910390fd5b7f65bf1c6c791f37841df40c02435859d92cca39e7b8cd1003c19ecb9ff2f222cf8383836040516114db93929190612f90565b60405180910390a1505050565b600061158d603460008673ffffffffffffffffffffffffffffffffffffffff1673ffffffffffffffffffffffffffffffffffffffff1681526020019081526020016000205461157f84603660008973ffffffffffffffffffffffffffffffffffffffff1673ffffffffffffffffffffffffffffffffffffffff16815260200190815260200160002054611fb790919063ffffffff16565b61202790919063ffffffff16565b9050603460008573ffffffffffffffffffffffffffffffffffffffff1673ffffffffffffffffffffffffffffffffffffffff16815260200190815260200160002054821115611611576040517f08c379a000000000000000000000000000000000000000000000000000000000815260040161160890613187565b60405180910390fd5b600073ffffffffffffffffffffffffffffffffffffffff168373ffffffffffffffffffffffffffffffffffffffff161415611681576040517f08c379a0000000000000000000000000000000000000000000000000000000008152600401611678906132e7565b60405180910390fd5b67016345785d8a00008210156116cc576040517f08c379a00000000000000000000000000000000000000000000000000000000081526004016116c390613347565b60405180910390fd5b61171e82603460008773ffffffffffffffffffffffffffffffffffffffff1673ffffffffffffffffffffffffffffffffffffffff16815260200190815260200160002054611f0c90919063ffffffff16565b603460008673ffffffffffffffffffffffffffffffffffffffff1673ffffffffffffffffffffffffffffffffffffffff168152602001908152602001600020819055506117b382603460008673ffffffffffffffffffffffffffffffffffffffff1673ffffffffffffffffffffffffffffffffffffffff16815260200190815260200160002054611f6290919063ffffffff16565b603460008573ffffffffffffffffffffffffffffffffffffffff1673ffffffffffffffffffffffffffffffffffffffff1681526020019081526020016000208190555067016345785d8a0000603460008673ffffffffffffffffffffffffffffffffffffffff1673ffffffffffffffffffffffffffffffffffffffff168152602001908152602001600020541015611880576040517f08c379a000000000000000000000000000000000000000000000000000000000815260040161187790613307565b60405180910390fd5b7f4b561bec749abb701e51772ccc461627db033e876cb892e2c8699742617566608484846040516118b393929190612f90565b60405180910390a1603660008573ffffffffffffffffffffffffffffffffffffffff1673ffffffffffffffffffffffffffffffffffffffff1681526020019081526020016000205481111561193d576040517f08c379a000000000000000000000000000000000000000000000000000000000815260040161193490613187565b60405180910390fd5b600073ffffffffffffffffffffffffffffffffffffffff168373ffffffffffffffffffffffffffffffffffffffff1614156119ad576040517f08c379a00000000000000000000000000000000000000000000000000000000081526004016119a4906132e7565b60405180910390fd5b67016345785d8a00008110156119f8576040517f08c379a00000000000000000000000000000000000000000000000000000000081526004016119ef90613347565b60405180910390fd5b611a4a81603660008773ffffffffffffffffffffffffffffffffffffffff1673ffffffffffffffffffffffffffffffffffffffff16815260200190815260200160002054611f0c90919063ffffffff16565b603660008673ffffffffffffffffffffffffffffffffffffffff1673ffffffffffffffffffffffffffffffffffffffff16815260200190815260200160002081905550611adf81603660008673ffffffffffffffffffffffffffffffffffffffff1673ffffffffffffffffffffffffffffffffffffffff16815260200190815260200160002054611f6290919063ffffffff16565b603660008573ffffffffffffffffffffffffffffffffffffffff1673ffffffffffffffffffffffffffffffffffffffff1681526020019081526020016000208190555067016345785d8a0000603660008673ffffffffffffffffffffffffffffffffffffffff1673ffffffffffffffffffffffffffffffffffffffff168152602001908152602001600020541015611bac576040517f08c379a0000000000000000000000000000000000000000000000000000000008152600401611ba390613307565b60405180910390fd5b7f65bf1c6c791f37841df40c02435859d92cca39e7b8cd1003c19ecb9ff2f222cf848483604051611bdf93929190612f90565b60405180910390a150505050565b600080303b90506000811491505090565b80603360006101000a81548173ffffffffffffffffffffffffffffffffffffffff021916908373ffffffffffffffffffffffffffffffffffffffff1602179055507f43bb990ead28e2cb3ea8b26e045448500f1cd58ccf150c95dd8e7e14dd12b7fa81604051611c6e9190612f15565b60405180910390a150565b60008073ffffffffffffffffffffffffffffffffffffffff168373ffffffffffffffffffffffffffffffffffffffff161415611cb457600080fd5b611d0682603460008673ffffffffffffffffffffffffffffffffffffffff1673ffffffffffffffffffffffffffffffffffffffff16815260200190815260200160002054611f6290919063ffffffff16565b603460008573ffffffffffffffffffffffffffffffffffffffff1673ffffffffffffffffffffffffffffffffffffffff16815260200190815260200160002081905550611d5e82603554611f6290919063ffffffff16565b6035819055507f4b561bec749abb701e51772ccc461627db033e876cb892e2c86997426175666060008484604051611d9893929190612f30565b60405180910390a1611df282603660008673ffffffffffffffffffffffffffffffffffffffff1673ffffffffffffffffffffffffffffffffffffffff16815260200190815260200160002054611f6290919063ffffffff16565b603660008573ffffffffffffffffffffffffffffffffffffffff1673ffffffffffffffffffffffffffffffffffffffff16815260200190815260200160002081905550611e4a82603754611f6290919063ffffffff16565b6037819055507f65bf1c6c791f37841df40c02435859d92cca39e7b8cd1003c19ecb9ff2f222cf60008484604051611e8493929190612f30565b60405180910390a181905092915050565b600080600080611ea58686612083565b80935081945082955050505060018784848460405160008152602001604052604051611ed49493929190612ffd565b6020604051602081039080840390855afa158015611ef6573d6000803e3d6000fd5b5050506020604051035193505050509392505050565b600082821115611f51576040517f08c379a0000000000000000000000000000000000000000000000000000000008152600401611f48906131e7565b60405180910390fd5b600082840390508091505092915050565b600080828401905083811015611fad576040517f08c379a0000000000000000000000000000000000000000000000000000000008152600401611fa490613167565b60405180910390fd5b8091505092915050565b600080831415611fca5760009050612021565b6000828402905082848281611fdb57fe5b041461201c576040517f08c379a000000000000000000000000000000000000000000000000000000000815260040161201390613287565b60405180910390fd5b809150505b92915050565b600080821161206b576040517f08c379a000000000000000000000000000000000000000000000000000000000815260040161206290613207565b60405180910390fd5b600082848161207657fe5b0490508091505092915050565b60008060008360410260208101860151925060408101860151915060ff60418201870151169350509250925092565b6000813590506120c181613691565b92915050565b6000815190506120d681613691565b92915050565b600082601f8301126120ed57600080fd5b60026121006120fb826133af565b613382565b9150818385602084028201111561211657600080fd5b60005b83811015612146578161212c88826120b2565b845260208401935060208301925050600181019050612119565b5050505092915050565b600082601f83011261216157600080fd5b813561217461216f826133d1565b613382565b9150818183526020840193506020810190508385602084028201111561219957600080fd5b60005b838110156121c957816121af88826120b2565b84526020840193506020830192505060018101905061219c565b5050505092915050565b600082601f8301126121e457600080fd5b81356121f76121f2826133f9565b613382565b9150818183526020840193506020810190508385602084028201111561221c57600080fd5b60005b8381101561224c57816122328882612328565b84526020840193506020830192505060018101905061221f565b5050505092915050565b600081519050612265816136a8565b92915050565b60008135905061227a816136bf565b92915050565b600082601f83011261229157600080fd5b81356122a461229f82613421565b613382565b915080825260208301602083018583830111156122c057600080fd5b6122cb8382846135ef565b50505092915050565b600082601f8301126122e557600080fd5b81356122f86122f38261344d565b613382565b9150808252602083016020830185838301111561231457600080fd5b61231f8382846135ef565b50505092915050565b600081359050612337816136d6565b92915050565b60006020828403121561234f57600080fd5b600061235d848285016120b2565b91505092915050565b60006020828403121561237857600080fd5b6000612386848285016120c7565b91505092915050565b600080604083850312156123a257600080fd5b60006123b0858286016120b2565b92505060206123c1858286016120b2565b9150509250929050565b600080600080600060c086880312156123e357600080fd5b60006123f1888289016120b2565b955050602086013567ffffffffffffffff81111561240e57600080fd5b61241a888289016122d4565b945050604061242b8882890161226b565b935050606061243c888289016120dc565b92505060a061244d88828901612328565b9150509295509295909350565b60006020828403121561246c57600080fd5b600061247a84828501612256565b91505092915050565b600080600080600080600060e0888a03121561249e57600080fd5b60006124ac8a828b0161226b565b975050602088013567ffffffffffffffff8111156124c957600080fd5b6124d58a828b016122d4565b965050604088013567ffffffffffffffff8111156124f257600080fd5b6124fe8a828b01612280565b955050606088013567ffffffffffffffff81111561251b57600080fd5b6125278a828b01612280565b945050608088013567ffffffffffffffff81111561254457600080fd5b6125508a828b01612150565b93505060a088013567ffffffffffffffff81111561256d57600080fd5b6125798a828b01612150565b92505060c088013567ffffffffffffffff81111561259657600080fd5b6125a28a828b016121d3565b91505092959891949750929550565b60006125bd83836125f0565b60208301905092915050565b60006125d58383612e32565b60208301905092915050565b6125ea816135b9565b82525050565b6125f98161352e565b82525050565b6126088161352e565b82525050565b61261f61261a8261352e565b613631565b82525050565b600061263082613499565b61263a81856134df565b935061264583613479565b8060005b8381101561267657815161265d88826125b1565b9750612668836134c5565b925050600181019050612649565b5085935050505092915050565b600061268e826134a4565b61269881856134f0565b93506126a383613489565b8060005b838110156126d45781516126bb88826125c9565b97506126c6836134d2565b9250506001810190506126a7565b5085935050505092915050565b6126ea81613540565b82525050565b6127016126fc8261354c565b613643565b82525050565b61271081613578565b82525050565b61272761272282613578565b61364d565b82525050565b6000612738826134af565b6127428185613501565b93506127528185602086016135fe565b61275b81613673565b840191505092915050565b6000612771826134ba565b61277b8185613512565b935061278b8185602086016135fe565b61279481613673565b840191505092915050565b60006127aa826134ba565b6127b48185613523565b93506127c48185602086016135fe565b80840191505092915050565b60006127dd601c83613512565b91507f74656d706c617465486173682063616e6e6f7420626520656d707479000000006000830152602082019050919050565b600061281d601f83613512565b91507f56616c7565206d7573742062652067726561746572207468616e207a65726f006000830152602082019050919050565b600061285d601b83613512565b91507f5a65726f20616464726573732063616e6e6f742073656e6420545800000000006000830152602082019050919050565b600061289d601b83613512565b91507f536166654d6174683a206164646974696f6e206f766572666c6f7700000000006000830152602082019050919050565b60006128dd602983613512565b91507f43616e6e6f74207472616e73666572206269676765722076616c75652074686160008301527f6e2062616c616e636500000000000000000000000000000000000000000000006020830152604082019050919050565b6000612943603a83613512565b91507f73656e6465725369676e6572732c2072656365697665725369676e657273206160008301527f6e642076616c7565206c656e677468206d757374206d617463680000000000006020830152604082019050919050565b60006129a9603083613512565b91507f4d65737361676520686173206e6f74206265656e207369676e65642070726f7060008301527f65726c79206279207265636569766572000000000000000000000000000000006020830152604082019050919050565b6000612a0f601e83613512565b91507f536166654d6174683a207375627472616374696f6e206f766572666c6f7700006000830152602082019050919050565b6000612a4f601a83613512565b91507f536166654d6174683a206469766973696f6e206279207a65726f0000000000006000830152602082019050919050565b6000612a8f602b83613512565b91507f456163682076616c756520747261736e6665722073686f756c6420686176652060008301527f61207369676e61747572650000000000000000000000000000000000000000006020830152604082019050919050565b6000612af5602e83613512565b91507f4d65737361676520686173206e6f74206265656e207369676e65642070726f7060008301527f65726c792062792073656e6465720000000000000000000000000000000000006020830152604082019050919050565b6000612b5b603183613512565b91507f307830204964656e74697479206973206e6f7420616c6c6f77656420746f207060008301527f6572666f726d20616e7920616374696f6e0000000000000000000000000000006020830152604082019050919050565b6000612bc1602183613512565b91507f536166654d6174683a206d756c7469706c69636174696f6e206f766572666c6f60008301527f77000000000000000000000000000000000000000000000000000000000000006020830152604082019050919050565b6000612c27602e83613512565b91507f436f6e747261637420696e7374616e63652068617320616c726561647920626560008301527f656e20696e697469616c697a65640000000000000000000000000000000000006020830152604082019050919050565b6000612c8d602283613512565b91507f5a65726f20616464726573732063616e6e6f742072656365697665207269676860008301527f74730000000000000000000000000000000000000000000000000000000000006020830152604082019050919050565b6000612cf3601f83613512565b91507f43616e6e6f74207472616e7366657220746f207a65726f2061646472657373006000830152602082019050919050565b6000612d33603983613512565b91507f53656e6465722062616c616e63652063616e6e6f7420626520736d616c6c657260008301527f207468616e20302e3125206166746572207472616e73666572000000000000006020830152604082019050919050565b6000612d99601f83613512565b91507f74656d706c61746556657273696f6e2063616e6e6f7420626520656d707479006000830152602082019050919050565b6000612dd9602c83613512565b91507f526571756972652070657263656e74616765207472616e73666572206174206c60008301527f65617374206f6620302e312500000000000000000000000000000000000000006020830152604082019050919050565b612e3b816135a2565b82525050565b612e4a816135a2565b82525050565b612e61612e5c826135a2565b613669565b82525050565b612e70816135ac565b82525050565b6000612e82828c6126f0565b600182019150612e92828b6126f0565b600182019150612ea2828a61260e565b601482019150612eb2828961279f565b9150612ebe8288612716565b602082019150612ece828761260e565b601482019150612ede828661260e565b601482019150612eee8285612e50565b602082019150612efe8284612e50565b6020820191508190509a9950505050505050505050565b6000602082019050612f2a60008301846125ff565b92915050565b6000606082019050612f4560008301866125e1565b612f5260208301856125ff565b612f5f6040830184612e41565b949350505050565b6000604082019050612f7c60008301856125ff565b612f8960208301846125ff565b9392505050565b6000606082019050612fa560008301866125ff565b612fb260208301856125ff565b612fbf6040830184612e41565b949350505050565b6000602082019050612fdc60008301846126e1565b92915050565b6000602082019050612ff76000830184612707565b92915050565b60006080820190506130126000830187612707565b61301f6020830186612e67565b61302c6040830185612707565b6130396060830184612707565b95945050505050565b600061012082019050818103600083015261305d818c612766565b905061306c602083018b612707565b818103604083015261307e818a61272d565b90508181036060830152613092818961272d565b905081810360808301526130a68188612625565b905081810360a08301526130ba8187612625565b905081810360c08301526130ce8186612625565b905081810360e08301526130e28185612625565b90508181036101008301526130f78184612683565b90509a9950505050505050505050565b60006020820190508181036000830152613120816127d0565b9050919050565b6000602082019050818103600083015261314081612810565b9050919050565b6000602082019050818103600083015261316081612850565b9050919050565b6000602082019050818103600083015261318081612890565b9050919050565b600060208201905081810360008301526131a0816128d0565b9050919050565b600060208201905081810360008301526131c081612936565b9050919050565b600060208201905081810360008301526131e08161299c565b9050919050565b6000602082019050818103600083015261320081612a02565b9050919050565b6000602082019050818103600083015261322081612a42565b9050919050565b6000602082019050818103600083015261324081612a82565b9050919050565b6000602082019050818103600083015261326081612ae8565b9050919050565b6000602082019050818103600083015261328081612b4e565b9050919050565b600060208201905081810360008301526132a081612bb4565b9050919050565b600060208201905081810360008301526132c081612c1a565b9050919050565b600060208201905081810360008301526132e081612c80565b9050919050565b6000602082019050818103600083015261330081612ce6565b9050919050565b6000602082019050818103600083015261332081612d26565b9050919050565b6000602082019050818103600083015261334081612d8c565b9050919050565b6000602082019050818103600083015261336081612dcc565b9050919050565b600060208201905061337c6000830184612e41565b92915050565b6000604051905081810181811067ffffffffffffffff821117156133a557600080fd5b8060405250919050565b600067ffffffffffffffff8211156133c657600080fd5b602082029050919050565b600067ffffffffffffffff8211156133e857600080fd5b602082029050602081019050919050565b600067ffffffffffffffff82111561341057600080fd5b602082029050602081019050919050565b600067ffffffffffffffff82111561343857600080fd5b601f19601f8301169050602081019050919050565b600067ffffffffffffffff82111561346457600080fd5b601f19601f8301169050602081019050919050565b6000819050602082019050919050565b6000819050602082019050919050565b600081519050919050565b600081519050919050565b600081519050919050565b600081519050919050565b6000602082019050919050565b6000602082019050919050565b600082825260208201905092915050565b600082825260208201905092915050565b600082825260208201905092915050565b600082825260208201905092915050565b600081905092915050565b600061353982613582565b9050919050565b60008115159050919050565b60007fff0000000000000000000000000000000000000000000000000000000000000082169050919050565b6000819050919050565b600073ffffffffffffffffffffffffffffffffffffffff82169050919050565b6000819050919050565b600060ff82169050919050565b60006135c4826135cb565b9050919050565b60006135d6826135dd565b9050919050565b60006135e882613582565b9050919050565b82818337600083830152505050565b60005b8381101561361c578082015181840152602081019050613601565b8381111561362b576000848401525b50505050565b600061363c82613657565b9050919050565b6000819050919050565b6000819050919050565b600061366282613684565b9050919050565b6000819050919050565b6000601f19601f8301169050919050565b60008160601b9050919050565b61369a8161352e565b81146136a557600080fd5b50565b6136b181613540565b81146136bc57600080fd5b50565b6136c881613578565b81146136d357600080fd5b50565b6136df816135a2565b81146136ea57600080fd5b5056fea365627a7a7230582031925ef9d9c79ddbd3fd15a9c31654e4126d385c4055f11f9e4db3fe5e0a9a546c6578706572696d656e74616cf564736f6c634300050a0040",
  "source": "pragma solidity >=0.5.0 <0.6.0;\npragma experimental \"ABIEncoderV2\";\n\n\nimport \"openzeppelin-solidity/contracts/math/SafeMath.sol\";\nimport \"zos-lib/contracts/Initializable.sol\";\nimport \"./EthereumDIDResolver.sol\";\nimport \"./SignatureDecoder.sol\";\n// import \"./library/Transfers.sol\";\n\n\ncontract OwnershipRoyaltiesAgreements is Initializable, EthereumDIDResolver, SignatureDecoder {\n    using SafeMath for uint256;\n    // use that lib after migration to slidity version 0.5.0\n    // using Transfers for *;\n\n    mapping (address => uint256) private _ownershipBalances;\n    uint256 private _ownershipTotalSupply;\n\n    mapping (address => uint256) private _royaltiesBalances;\n    uint256 private _royaltiesTotalSupply;\n\n    mapping(address => uint256) private nonce;\n\n    event NewOwnershipAgreement(\n        string templateVersion,\n        bytes32 templateHash,\n        bytes sigSenders,\n        bytes sigReceivers,\n        address[] senderSigners,\n        address[] senderIdentities,\n        address[] receiverSigners,\n        address[] receiverIdentities,\n        uint256[] values);\n\n    event NewRoyaltiesAgreement(\n        string templateVersion,\n        bytes32 templateHash,\n        bytes sigSenders,\n        bytes sigReceivers,\n        address[] senderSigners,\n        address[] senderIdentities,\n        address[] receiverSigners,\n        address[] receiverIdentities,\n        uint256[] values);\n\n    event OwnershipTransfer(\n        address from,\n        address to,\n        uint256 value);\n\n    event RoyaltiesTransfer(\n        address from,\n        address to,\n        uint256 value);\n\n\n    function init(address _ownerKey, address _ethDID) public initializer {\n        setRegistry(_ethDID);\n        mint(getIdentity(_ownerKey), 100 ether);\n    }\n\n    function nonceFor(address owner) public view returns (uint256) {\n        return  nonce[owner];\n    }\n\n    /**\n    * @dev Total number of tokens in existence\n    */\n    function totalSupplyOwnership() public view returns (uint256) {\n        return _ownershipTotalSupply;\n    }\n\n    /**\n    * @dev Gets the ownership of the specified address.\n    * @param owner The address to query the balance of.\n    * @return An uint256 representing the amount owned by the passed address.\n    */\n    function balanceOfOwnership(address owner) public view returns (uint256) {\n        return _ownershipBalances[owner];\n    }\n\n    /**\n    * @dev Total number of tokens in existence\n    */\n    function totalSupplyRoyalties() public view returns (uint256) {\n        return _royaltiesTotalSupply;\n    }\n\n    /**\n    * @dev Gets the ownership of the specified address.\n    * @param owner The address to query the balance of.\n    * @return An uint256 representing the amount owned by the passed address.\n    */\n    function balanceOfRoyalties(address owner) public view returns (uint256) {\n        return _royaltiesBalances[owner];\n    }\n\n    /**\n     * Creates new agreement for ownership transfer\n     * @dev 56020 gas for sent data (includes 21k min fee)\n     * @param  templateHash     ipfs compatible hash of legal file timplate\n     * @param  templateVersion  legal template file version\n     * @param  sigSenders       singatures of senders in compact from\n     * @param  sigReceivers     signatures of receivers in compact form\n     * @param  senderSigners    addresses of senders used to sign the tx\n     * @param  receiverSigners  addresses of receivers used to sign the tx\n     * @param  values           value of the trasnfer (1 ETH == 1%)\n     */\n    function newOwnershipTransferAgreement(\n        bytes32 templateHash,\n        string memory templateVersion,\n        bytes memory sigSenders,\n        bytes memory sigReceivers,\n        address[] memory senderSigners,\n        address[] memory receiverSigners,\n        uint256[] memory values\n    ) public {\n        // 780 gas\n        address[] memory senderIds = new address[](values.length);\n        // 780 gas\n        address[] memory receiverIds = new address[](values.length);\n\n        require(templateHash != bytes32(0), 'templateHash cannot be empty');\n        require(bytes(templateVersion).length > 0, 'templateVersion cannot be empty');\n        require(sigSenders.length == values.length * 65\n            && sigSenders.length == sigReceivers.length,\n            'Each value trasnfer should have a signature');\n        require(senderSigners.length == receiverSigners.length\n            && receiverSigners.length == values.length,\n            'senderSigners, receiverSigners and value length must match');\n        address senderId;\n        address receiverId;\n        for (uint8 i = 0; i < values.length; i++) {\n            // 53k gas\n            (senderId, receiverId) = _validateSignatures(\n                \"OwnershipTransfer\",\n                templateHash,\n                senderSigners[i],\n                receiverSigners[i],\n                values[i],\n                sigSenders,\n                sigReceivers,\n                i\n            );\n            senderIds[i] = senderId;\n            receiverIds[i] = receiverId;\n            // 58k gas per transfer\n            transferOwnership(senderId, receiverId, values[i]);\n        }\n\n        // 24k gas\n        emit NewOwnershipAgreement(\n            templateVersion,\n            templateHash,\n            sigSenders,\n            sigReceivers,\n            senderSigners,\n            senderIds,\n            receiverSigners,\n            receiverIds,\n            values\n        );\n    }\n\n    /**\n     * Creates new agreement for royalties transfer\n     * @param  templateHash     ipfs compatible hash of legal file timplate\n     * @param  templateVersion  legal template file version\n     * @param  sigSenders       singatures of senders in compact from\n     * @param  sigReceivers     signatures of receivers in compact form\n     * @param  senderSigners    addresses of senders used to sign the tx\n     * @param  receiverSigners  addresses of receivers used to sign the tx\n     * @param  values           value of the trasnfer (1 ETH == 1%)\n     */\n    function newRoyaltiesTransferAgreement(\n        bytes32 templateHash,\n        string memory templateVersion,\n        bytes memory sigSenders,\n        bytes memory sigReceivers,\n        address[] memory senderSigners,\n        address[] memory receiverSigners,\n        uint256[] memory values\n    ) public {\n        address[] memory senderIds = new address[](values.length);\n        address[] memory receiverIds = new address[](values.length);\n\n        require(templateHash != bytes32(0), 'templateHash cannot be empty');\n        require(bytes(templateVersion).length > 0, 'templateVersion cannot be empty');\n        require(sigSenders.length == values.length * 65\n            && sigSenders.length == sigReceivers.length,\n            'Each value trasnfer should have a signature');\n        require(senderSigners.length == receiverSigners.length\n            && receiverSigners.length == values.length,\n            'senderSigners, receiverSigners and value length must match');\n        address senderId;\n        address receiverId;\n        for (uint8 i = 0; i < values.length; i++) {\n            (senderId, receiverId) = _validateSignatures(\n                \"RoyaltiesTransfer\",\n                templateHash,\n                senderSigners[i],\n                receiverSigners[i],\n                values[i],\n                sigSenders,\n                sigReceivers,\n                i\n            );\n            senderIds[i] = senderId;\n            receiverIds[i] = receiverId;\n\n            transferRoyalties(senderId, receiverId, values[i]);\n        }\n\n        emit NewRoyaltiesAgreement(\n            templateVersion,\n            templateHash,\n            sigSenders,\n            sigReceivers,\n            senderSigners,\n            senderIds,\n            receiverSigners,\n            receiverIds,\n            values\n        );\n    }\n\n    function _validateSignatures(\n        string memory transferType,\n        bytes32 templateHash,\n        address senderSigner,\n        address receiverSigner,\n        uint256 value,\n        bytes memory sigSenders,\n        bytes memory sigReceivers,\n        uint8 i\n    ) internal returns (address senderId, address receiverId) {\n        require(senderSigner != address(0), 'Zero address cannot send TX');\n        require(receiverSigner != address(0), 'Zero address cannot receive rights');\n        require(value > 0, 'Value must be greater than zero');\n\n        // 4k gas\n        senderId = getIdentity(senderSigner);\n        // 4k gas\n        receiverId = getIdentity(receiverSigner);\n\n        // 1.5k gas\n        bytes32 hash = getHash(\n            senderSigner,\n            transferType,\n            templateHash,\n            [senderId, receiverId],\n            value\n        );\n        // 5k gas\n        nonce[senderSigner]++;\n        // 5k gas\n        require(senderSigner == recoverKey(hash, sigSenders, i),\n            'Message has not been signed properly by sender');\n\n        // 1.5k gas\n        hash = getHash(\n            receiverSigner,\n            transferType,\n            templateHash,\n            [senderId, receiverId],\n            value\n        );\n        // 20k gas (since it's most likely new owner)\n        nonce[receiverSigner]++;\n        // 5k gas\n        require(receiverSigner == recoverKey(hash, sigReceivers, i),\n            'Message has not been signed properly by receiver');\n    }\n\n    function getHash(\n        address signer,\n        string memory transferType,\n        bytes32 templateHash,\n        address[2] memory identities,\n        uint value\n    ) public view returns(bytes32) {\n        return keccak256(\n            abi.encodePacked(\n                byte(0x19), byte(0), address(this),\n                transferType,\n                templateHash,\n                identities[0],\n                identities[1],\n                value,\n                nonce[signer]\n            )\n        );\n    }\n\n    function transferOwnership(\n        address from,\n        address to,\n        uint256 value\n    ) internal {\n        uint256 royatlyValue = _royaltiesBalances[from].mul(value).div(_ownershipBalances[from]);\n\n        require(value <= _ownershipBalances[from], 'Cannot transfer bigger value than balance');\n        require(to != address(0), 'Cannot transfer to zero address');\n        require(value >= 0.1 ether, 'Require percentage transfer at least of 0.1%');\n\n        _ownershipBalances[from] = _ownershipBalances[from].sub(value);\n        _ownershipBalances[to] = _ownershipBalances[to].add(value);\n\n        require(_ownershipBalances[from] >= 0.1 ether, 'Sender balance cannot be smaller than 0.1% after transfer');\n        emit OwnershipTransfer(from, to, value);\n\n\n        require(royatlyValue <= _royaltiesBalances[from], 'Cannot transfer bigger value than balance');\n        require(to != address(0), 'Cannot transfer to zero address');\n        require(royatlyValue >= 0.1 ether, 'Require percentage transfer at least of 0.1%');\n\n        _royaltiesBalances[from] = _royaltiesBalances[from].sub(royatlyValue);\n        _royaltiesBalances[to] = _royaltiesBalances[to].add(royatlyValue);\n\n        require(_royaltiesBalances[from] >= 0.1 ether, 'Sender balance cannot be smaller than 0.1% after transfer');\n        emit RoyaltiesTransfer(from, to, royatlyValue);\n    }\n\n    function transferRoyalties(\n        address from,\n        address to,\n        uint256 value\n    ) internal {\n        require(value <= _royaltiesBalances[from], 'Cannot transfer bigger value than balance');\n        require(to != address(0), 'Cannot transfer to zero address');\n        require(value >= 0.1 ether, 'Require percentage transfer at least of 0.1%');\n\n        _royaltiesBalances[from] = _royaltiesBalances[from].sub(value);\n        _royaltiesBalances[to] = _royaltiesBalances[to].add(value);\n\n        require(_royaltiesBalances[from] >= 0.1 ether, 'Sender balance cannot be smaller than 0.1% after transfer');\n        emit RoyaltiesTransfer(from, to, value);\n    }\n\n    function mint(\n        address account,\n        uint256 value\n    ) internal returns (uint256) {\n        require(account != address(0));\n        _ownershipBalances[account] = _ownershipBalances[account].add(value);\n        _ownershipTotalSupply = _ownershipTotalSupply.add(value);\n        emit OwnershipTransfer(address(0), account, value);\n\n        _royaltiesBalances[account] = _royaltiesBalances[account].add(value);\n        _royaltiesTotalSupply = _royaltiesTotalSupply.add(value);\n        emit RoyaltiesTransfer(address(0), account, value);\n        return value;\n    }\n}\n",
  "sourcePath": "/Users/tom/www/music-smart-contracts/contracts/OwnershipRoyaltiesAgreements.sol",
  "compiler": {
    "name": "solc",
    "version": "0.5.10+commit.5a6ea5b1.Emscripten.clang"
  },
  "schemaVersion": "3.0.11",
  "updatedAt": "2019-08-04T22:47:37.901Z",
  "devdoc": {
    "methods": {
      "balanceOfOwnership(address)": {
        "details": "Gets the ownership of the specified address.",
        "params": {
          "owner": "The address to query the balance of."
        },
        "return": "An uint256 representing the amount owned by the passed address."
      },
      "balanceOfRoyalties(address)": {
        "details": "Gets the ownership of the specified address.",
        "params": {
          "owner": "The address to query the balance of."
        },
        "return": "An uint256 representing the amount owned by the passed address."
      },
      "newOwnershipTransferAgreement(bytes32,string,bytes,bytes,address[],address[],uint256[])": {
        "details": "56020 gas for sent data (includes 21k min fee)",
        "params": {
          "receiverSigners": "addresses of receivers used to sign the tx",
          "senderSigners": "addresses of senders used to sign the tx",
          "sigReceivers": "signatures of receivers in compact form",
          "sigSenders": "singatures of senders in compact from",
          "templateHash": "ipfs compatible hash of legal file timplate",
          "templateVersion": "legal template file version",
          "values": "value of the trasnfer (1 ETH == 1%)"
        }
      },
      "newRoyaltiesTransferAgreement(bytes32,string,bytes,bytes,address[],address[],uint256[])": {
        "params": {
          "receiverSigners": "addresses of receivers used to sign the tx",
          "senderSigners": "addresses of senders used to sign the tx",
          "sigReceivers": "signatures of receivers in compact form",
          "sigSenders": "singatures of senders in compact from",
          "templateHash": "ipfs compatible hash of legal file timplate",
          "templateVersion": "legal template file version",
          "values": "value of the trasnfer (1 ETH == 1%)"
        }
      },
      "totalSupplyOwnership()": {
        "details": "Total number of tokens in existence"
      },
      "totalSupplyRoyalties()": {
        "details": "Total number of tokens in existence"
      }
    }
  },
  "userdoc": {
    "methods": {
      "newOwnershipTransferAgreement(bytes32,string,bytes,bytes,address[],address[],uint256[])": {
        "notice": "Creates new agreement for ownership transfer"
      },
      "newRoyaltiesTransferAgreement(bytes32,string,bytes,bytes,address[],address[],uint256[])": {
        "notice": "Creates new agreement for royalties transfer"
      }
    }
  }
}