{
  "contractName": "ProxyFactory",
  "abi": [
    {
      "constant": true,
      "inputs": [],
      "name": "REGISTRY",
      "outputs": [
        {
          "name": "",
          "type": "string"
        }
      ],
      "payable": false,
      "stateMutability": "view",
      "type": "function"
    },
    {
      "constant": true,
      "inputs": [],
      "name": "OWNER",
      "outputs": [
        {
          "name": "",
          "type": "string"
        }
      ],
      "payable": false,
      "stateMutability": "view",
      "type": "function"
    },
    {
      "constant": true,
      "inputs": [
        {
          "name": "_operator",
          "type": "address"
        },
        {
          "name": "_role",
          "type": "string"
        }
      ],
      "name": "hasRole",
      "outputs": [
        {
          "name": "",
          "type": "bool"
        }
      ],
      "payable": false,
      "stateMutability": "view",
      "type": "function"
    },
    {
      "constant": true,
      "inputs": [],
      "name": "implementation",
      "outputs": [
        {
          "name": "",
          "type": "address"
        }
      ],
      "payable": false,
      "stateMutability": "view",
      "type": "function"
    },
    {
      "anonymous": false,
      "inputs": [
        {
          "indexed": true,
          "name": "oldImpl",
          "type": "address"
        },
        {
          "indexed": true,
          "name": "newImpl",
          "type": "address"
        }
      ],
      "name": "ImplementationUpdate",
      "type": "event"
    },
    {
      "anonymous": false,
      "inputs": [
        {
          "indexed": true,
          "name": "proxy",
          "type": "address"
        },
        {
          "indexed": false,
          "name": "admin",
          "type": "address"
        },
        {
          "indexed": false,
          "name": "sender",
          "type": "address"
        }
      ],
      "name": "ProxyDeploy",
      "type": "event"
    },
    {
      "anonymous": false,
      "inputs": [
        {
          "indexed": true,
          "name": "operator",
          "type": "address"
        },
        {
          "indexed": false,
          "name": "role",
          "type": "string"
        }
      ],
      "name": "RoleAdded",
      "type": "event"
    },
    {
      "anonymous": false,
      "inputs": [
        {
          "indexed": true,
          "name": "operator",
          "type": "address"
        },
        {
          "indexed": false,
          "name": "role",
          "type": "string"
        }
      ],
      "name": "RoleRemoved",
      "type": "event"
    },
    {
      "constant": false,
      "inputs": [
        {
          "name": "_owner",
          "type": "address"
        },
        {
          "name": "_registry",
          "type": "address"
        },
        {
          "name": "_implementation",
          "type": "address"
        }
      ],
      "name": "init",
      "outputs": [],
      "payable": false,
      "stateMutability": "nonpayable",
      "type": "function"
    },
    {
      "constant": false,
      "inputs": [
        {
          "name": "_implementation",
          "type": "address"
        }
      ],
      "name": "setImplementation",
      "outputs": [],
      "payable": false,
      "stateMutability": "nonpayable",
      "type": "function"
    },
    {
      "constant": false,
      "inputs": [
        {
          "name": "_admin",
          "type": "address"
        },
        {
          "name": "_data",
          "type": "bytes"
        }
      ],
      "name": "deploy",
      "outputs": [
        {
          "name": "",
          "type": "address"
        }
      ],
      "payable": false,
      "stateMutability": "nonpayable",
      "type": "function"
    }
  ],
  "bytecode": "0x608060405234801561001057600080fd5b5061197a806100206000396000f3fe60806040523480156200001157600080fd5b5060043610620000885760003560e01c8063217fe6c61162000063578063217fe6c614620002245780635c60da1b146200031d578063d784d4261462000369578063e97fac0514620003b05762000088565b806306433b1b146200008d578063117803e31462000115578063184b9559146200019d575b600080fd5b62000097620004d1565b6040518080602001828103825283818151815260200191508051906020019080838360005b83811015620000d9578082015181840152602081019050620000bc565b50505050905090810190601f168015620001075780820380516001836020036101000a031916815260200191505b509250505060405180910390f35b6200011f6200050a565b6040518080602001828103825283818151815260200191508051906020019080838360005b838110156200016157808201518184015260208101905062000144565b50505050905090810190601f1680156200018f5780820380516001836020036101000a031916815260200191505b509250505060405180910390f35b6200022260048036036060811015620001b557600080fd5b81019080803573ffffffffffffffffffffffffffffffffffffffff169060200190929190803573ffffffffffffffffffffffffffffffffffffffff169060200190929190803573ffffffffffffffffffffffffffffffffffffffff16906020019092919050505062000543565b005b62000303600480360360408110156200023c57600080fd5b81019080803573ffffffffffffffffffffffffffffffffffffffff169060200190929190803590602001906401000000008111156200027a57600080fd5b8201836020820111156200028d57600080fd5b80359060200191846001830284011164010000000083111715620002b057600080fd5b91908080601f016020809104026020016040519081016040528093929190818152602001838380828437600081840152601f19601f82011690508083019250505050505050919291929050505062000710565b604051808215151515815260200191505060405180910390f35b6200032762000799565b604051808273ffffffffffffffffffffffffffffffffffffffff1673ffffffffffffffffffffffffffffffffffffffff16815260200191505060405180910390f35b620003ae600480360360208110156200038157600080fd5b81019080803573ffffffffffffffffffffffffffffffffffffffff169060200190929190505050620007bf565b005b6200048f60048036036040811015620003c857600080fd5b81019080803573ffffffffffffffffffffffffffffffffffffffff169060200190929190803590602001906401000000008111156200040657600080fd5b8201836020820111156200041957600080fd5b803590602001918460018302840111640100000000831117156200043c57600080fd5b91908080601f016020809104026020016040519081016040528093929190818152602001838380828437600081840152601f19601f820116905080830192505050505050509192919290505050620008cc565b604051808273ffffffffffffffffffffffffffffffffffffffff1673ffffffffffffffffffffffffffffffffffffffff16815260200191505060405180910390f35b6040518060400160405280600881526020017f726567697374727900000000000000000000000000000000000000000000000081525081565b6040518060400160405280600581526020017f6f776e657200000000000000000000000000000000000000000000000000000081525081565b600060019054906101000a900460ff16806200056557506200056462000b00565b5b806200057d57506000809054906101000a900460ff16155b620005d4576040517f08c379a000000000000000000000000000000000000000000000000000000000815260040180806020018281038252602e81526020018062001918602e913960400191505060405180910390fd5b60008060019054906101000a900460ff16159050801562000625576001600060016101000a81548160ff02191690831515021790555060016000806101000a81548160ff0219169083151502179055505b62000666846040518060400160405280600581526020017f6f776e657200000000000000000000000000000000000000000000000000000081525062000b11565b620006a7836040518060400160405280600881526020017f726567697374727900000000000000000000000000000000000000000000000081525062000b11565b81603460006101000a81548173ffffffffffffffffffffffffffffffffffffffff021916908373ffffffffffffffffffffffffffffffffffffffff16021790555080156200070a5760008060016101000a81548160ff0219169083151502179055505b50505050565b600062000791836033846040518082805190602001908083835b602083106200074f57805182526020820191506020810190506020830392506200072a565b6001836020036101000a038019825116818451168082178552505050505050905001915050908152602001604051809103902062000c4a90919063ffffffff16565b905092915050565b603460009054906101000a900473ffffffffffffffffffffffffffffffffffffffff1681565b6040518060400160405280600581526020017f6f776e657200000000000000000000000000000000000000000000000000000081525062000801338262000710565b6200080b57600080fd5b8173ffffffffffffffffffffffffffffffffffffffff16603460009054906101000a900473ffffffffffffffffffffffffffffffffffffffff1673ffffffffffffffffffffffffffffffffffffffff167f5a44317a53db653e4c7c61e3223c67cef18fbca4d738ef13e29090f3ce77593f60405160405180910390a381603460006101000a81548173ffffffffffffffffffffffffffffffffffffffff021916908373ffffffffffffffffffffffffffffffffffffffff1602179055505050565b60006040518060400160405280600881526020017f726567697374727900000000000000000000000000000000000000000000000081525062000910338262000710565b6200091a57600080fd5b6000603460009054906101000a900473ffffffffffffffffffffffffffffffffffffffff1685856040516200094f9062000e08565b808473ffffffffffffffffffffffffffffffffffffffff1673ffffffffffffffffffffffffffffffffffffffff1681526020018373ffffffffffffffffffffffffffffffffffffffff1673ffffffffffffffffffffffffffffffffffffffff16815260200180602001828103825283818151815260200191508051906020019080838360005b83811015620009f2578082015181840152602081019050620009d5565b50505050905090810190601f16801562000a205780820380516001836020036101000a031916815260200191505b50945050505050604051809103906000f08015801562000a44573d6000803e3d6000fd5b5090508073ffffffffffffffffffffffffffffffffffffffff167fdcc82c74eeb56e38131e8b661a7f230637746d0c4b90760e93c9a0c5dc7b53558633604051808373ffffffffffffffffffffffffffffffffffffffff1673ffffffffffffffffffffffffffffffffffffffff1681526020018273ffffffffffffffffffffffffffffffffffffffff1673ffffffffffffffffffffffffffffffffffffffff1681526020019250505060405180910390a2809250505092915050565b600080303b90506000811491505090565b62000b90826033836040518082805190602001908083835b6020831062000b4e578051825260208201915060208101905060208303925062000b29565b6001836020036101000a038019825116818451168082178552505050505050905001915050908152602001604051809103902062000d2a90919063ffffffff16565b8173ffffffffffffffffffffffffffffffffffffffff167fbfec83d64eaa953f2708271a023ab9ee82057f8f3578d548c1a4ba0b5b700489826040518080602001828103825283818151815260200191508051906020019080838360005b8381101562000c0b57808201518184015260208101905062000bee565b50505050905090810190601f16801562000c395780820380516001836020036101000a031916815260200191505b509250505060405180910390a25050565b60008073ffffffffffffffffffffffffffffffffffffffff168273ffffffffffffffffffffffffffffffffffffffff16141562000cd3576040517f08c379a0000000000000000000000000000000000000000000000000000000008152600401808060200182810382526022815260200180620018f66022913960400191505060405180910390fd5b8260000160008373ffffffffffffffffffffffffffffffffffffffff1673ffffffffffffffffffffffffffffffffffffffff16815260200190815260200160002060009054906101000a900460ff16905092915050565b62000d36828262000c4a565b1562000daa576040517f08c379a000000000000000000000000000000000000000000000000000000000815260040180806020018281038252601f8152602001807f526f6c65733a206163636f756e7420616c72656164792068617320726f6c650081525060200191505060405180910390fd5b60018260000160008373ffffffffffffffffffffffffffffffffffffffff1673ffffffffffffffffffffffffffffffffffffffff16815260200190815260200160002060006101000a81548160ff0219169083151502179055505050565b610adf8062000e178339019056fe6080604052604051610adf380380610adf8339818101604052606081101561002657600080fd5b810190808051906020019092919080519060200190929190805164010000000081111561005257600080fd5b8281019050602081018481111561006857600080fd5b815185600182028301116401000000008211171561008557600080fd5b505092919050505082816040518080610a8160239139602301905060405180910390207f7050c9e0f4ca769c69bd3a8ef740bc37934f8e2c036e5a723fd8ee048ed3f8c360001b146100d357fe5b6100e28261022860201b60201c565b6000815111156101ae5760008273ffffffffffffffffffffffffffffffffffffffff16826040518082805190602001908083835b602083106101395780518252602082019150602081019050602083039250610116565b6001836020036101000a038019825116818451168082178552505050505050905001915050600060405180830381855af49150503d8060008114610199576040519150601f19603f3d011682016040523d82523d6000602084013e61019e565b606091505b50509050806101ac57600080fd5b505b505060405180807f6f72672e7a657070656c696e6f732e70726f78792e61646d696e000000000000815250601a01905060405180910390207f10d6a54a4754c8869d6886b5f5d7fbfa5b4522237ea5c60d11bc4e7a1ff9390b60001b1461021157fe5b610220826102bf60201b60201c565b505050610301565b61023b816102ee60201b6106b81760201c565b610290576040517f08c379a000000000000000000000000000000000000000000000000000000000815260040180806020018281038252603b815260200180610aa4603b913960400191505060405180910390fd5b60007f7050c9e0f4ca769c69bd3a8ef740bc37934f8e2c036e5a723fd8ee048ed3f8c360001b90508181555050565b60007f10d6a54a4754c8869d6886b5f5d7fbfa5b4522237ea5c60d11bc4e7a1ff9390b60001b90508181555050565b600080823b905060008111915050919050565b610771806103106000396000f3fe60806040526004361061004a5760003560e01c80633659cfe6146100545780634f1ef286146100a55780635c60da1b1461013e5780638f28397014610195578063f851a440146101e6575b61005261023d565b005b34801561006057600080fd5b506100a36004803603602081101561007757600080fd5b81019080803573ffffffffffffffffffffffffffffffffffffffff169060200190929190505050610257565b005b61013c600480360360408110156100bb57600080fd5b81019080803573ffffffffffffffffffffffffffffffffffffffff169060200190929190803590602001906401000000008111156100f857600080fd5b82018360208201111561010a57600080fd5b8035906020019184600183028401116401000000008311171561012c57600080fd5b90919293919293905050506102ac565b005b34801561014a57600080fd5b50610153610382565b604051808273ffffffffffffffffffffffffffffffffffffffff1673ffffffffffffffffffffffffffffffffffffffff16815260200191505060405180910390f35b3480156101a157600080fd5b506101e4600480360360208110156101b857600080fd5b81019080803573ffffffffffffffffffffffffffffffffffffffff169060200190929190505050610391565b005b3480156101f257600080fd5b506101fb61050a565b604051808273ffffffffffffffffffffffffffffffffffffffff1673ffffffffffffffffffffffffffffffffffffffff16815260200191505060405180910390f35b610245610519565b610255610250610523565b610554565b565b61025f61057a565b73ffffffffffffffffffffffffffffffffffffffff163373ffffffffffffffffffffffffffffffffffffffff1614156102a05761029b816105ab565b6102a9565b6102a861023d565b5b50565b6102b461057a565b73ffffffffffffffffffffffffffffffffffffffff163373ffffffffffffffffffffffffffffffffffffffff161415610374576102f0836105ab565b60008373ffffffffffffffffffffffffffffffffffffffff168383604051808383808284378083019250505092505050600060405180830381855af49150503d806000811461035b576040519150601f19603f3d011682016040523d82523d6000602084013e610360565b606091505b505090508061036e57600080fd5b5061037d565b61037c61023d565b5b505050565b600061038c610523565b905090565b61039961057a565b73ffffffffffffffffffffffffffffffffffffffff163373ffffffffffffffffffffffffffffffffffffffff1614156104fe57600073ffffffffffffffffffffffffffffffffffffffff168173ffffffffffffffffffffffffffffffffffffffff161415610452576040517f08c379a00000000000000000000000000000000000000000000000000000000081526004018080602001828103825260368152602001806106cc6036913960400191505060405180910390fd5b7f7e644d79422f17c01e4894b5f4f588d331ebfa28653d42ae832dc59e38c9798f61047b61057a565b82604051808373ffffffffffffffffffffffffffffffffffffffff1673ffffffffffffffffffffffffffffffffffffffff1681526020018273ffffffffffffffffffffffffffffffffffffffff1673ffffffffffffffffffffffffffffffffffffffff1681526020019250505060405180910390a16104f9816105fa565b610507565b61050661023d565b5b50565b600061051461057a565b905090565b610521610629565b565b6000807f7050c9e0f4ca769c69bd3a8ef740bc37934f8e2c036e5a723fd8ee048ed3f8c360001b9050805491505090565b3660008037600080366000845af43d6000803e8060008114610575573d6000f35b3d6000fd5b6000807f10d6a54a4754c8869d6886b5f5d7fbfa5b4522237ea5c60d11bc4e7a1ff9390b60001b9050805491505090565b6105b48161062b565b8073ffffffffffffffffffffffffffffffffffffffff167fbc7cd75a20ee27fd9adebab32041f755214dbc6bffa90cc0225b39da2e5c2d3b60405160405180910390a250565b60007f10d6a54a4754c8869d6886b5f5d7fbfa5b4522237ea5c60d11bc4e7a1ff9390b60001b90508181555050565b565b610634816106b8565b610689576040517f08c379a000000000000000000000000000000000000000000000000000000000815260040180806020018281038252603b815260200180610702603b913960400191505060405180910390fd5b60007f7050c9e0f4ca769c69bd3a8ef740bc37934f8e2c036e5a723fd8ee048ed3f8c360001b90508181555050565b600080823b90506000811191505091905056fe43616e6e6f74206368616e6765207468652061646d696e206f6620612070726f787920746f20746865207a65726f206164647265737343616e6e6f742073657420612070726f787920696d706c656d656e746174696f6e20746f2061206e6f6e2d636f6e74726163742061646472657373a265627a7a7230582061541731d47d9eb9e6361d3dee5732034a1f94ce6bc6efe82218c4e0127e902064736f6c634300050a00326f72672e7a657070656c696e6f732e70726f78792e696d706c656d656e746174696f6e43616e6e6f742073657420612070726f787920696d706c656d656e746174696f6e20746f2061206e6f6e2d636f6e74726163742061646472657373526f6c65733a206163636f756e7420697320746865207a65726f2061646472657373436f6e747261637420696e7374616e63652068617320616c7265616479206265656e20696e697469616c697a6564a265627a7a72305820d7baa317301230e0ef69bce7925b8e5d47d52e41a8f23cec35390f32b8a9f89064736f6c634300050a0032",
  "source": "pragma solidity >=0.5.0 <0.6.0;\n\n\nimport \"zos-lib/contracts/Initializable.sol\";\nimport \"./AdminUpgradeabilityProxy.sol\";\nimport \"./RBAC.sol\";\n\n\ncontract ProxyFactory is Initializable, RBAC {\n\n    string public constant OWNER = \"owner\";\n    string public constant REGISTRY = \"registry\";\n\n    address public implementation;\n\n    event ImplementationUpdate(address indexed oldImpl, address indexed newImpl);\n    event ProxyDeploy(address indexed proxy, address admin, address sender);\n\n    function init(address _owner, address _registry, address _implementation) public initializer {\n        addRole(_owner, OWNER);\n        addRole(_registry, REGISTRY);\n        implementation = _implementation;\n    }\n\n    function setImplementation(address _implementation) public onlyRole(OWNER) {\n        emit ImplementationUpdate(implementation, _implementation);\n        implementation = _implementation;\n    }\n\n    function deploy(address _admin, bytes memory _data) public onlyRole(REGISTRY) returns (address) {\n        AdminUpgradeabilityProxy proxy =\n            new AdminUpgradeabilityProxy(implementation, _admin, _data);\n        emit ProxyDeploy(address(proxy), _admin, msg.sender);\n        return address(proxy);\n    }\n}\n",
  "sourcePath": "/Users/tom/www/music-smart-contracts/contracts/ProxyFactory.sol",
  "compiler": {
    "name": "solc",
    "version": "0.5.10+commit.5a6ea5b1.Emscripten.clang"
  },
  "schemaVersion": "3.0.11",
  "updatedAt": "2019-08-05T03:34:47.472Z",
  "devdoc": {
    "methods": {
      "hasRole(address,string)": {
        "details": "determine if addr has role",
        "params": {
          "_operator": "address",
          "_role": "the name of the role"
        },
        "return": "bool"
      }
    }
  },
  "userdoc": {
    "methods": {}
  }
}