{
  "contractName": "SignatureDecoderPublic",
  "abi": [
    {
      "constant": true,
      "inputs": [
        {
          "name": "str",
          "type": "string"
        }
      ],
      "name": "getHash",
      "outputs": [
        {
          "name": "",
          "type": "bytes32"
        }
      ],
      "payable": false,
      "stateMutability": "pure",
      "type": "function"
    },
    {
      "constant": true,
      "inputs": [
        {
          "name": "txHash",
          "type": "bytes32"
        },
        {
          "name": "messageSignature",
          "type": "bytes"
        },
        {
          "name": "pos",
          "type": "uint256"
        }
      ],
      "name": "_recoverKey",
      "outputs": [
        {
          "name": "",
          "type": "address"
        }
      ],
      "payable": false,
      "stateMutability": "pure",
      "type": "function"
    },
    {
      "constant": true,
      "inputs": [
        {
          "name": "signatures",
          "type": "bytes"
        },
        {
          "name": "pos",
          "type": "uint256"
        }
      ],
      "name": "_signatureSplit",
      "outputs": [
        {
          "name": "v",
          "type": "uint8"
        },
        {
          "name": "r",
          "type": "bytes32"
        },
        {
          "name": "s",
          "type": "bytes32"
        }
      ],
      "payable": false,
      "stateMutability": "pure",
      "type": "function"
    }
  ],
  "bytecode": "0x608060405234801561001057600080fd5b506104b7806100206000396000f3fe608060405234801561001057600080fd5b50600436106100415760003560e01c80635b6beeb914610046578063cca8de2d14610115578063f931709314610224575b600080fd5b6100ff6004803603602081101561005c57600080fd5b810190808035906020019064010000000081111561007957600080fd5b82018360208201111561008b57600080fd5b803590602001918460018302840111640100000000831117156100ad57600080fd5b91908080601f016020809104026020016040519081016040528093929190818152602001838380828437600081840152601f19601f820116905080830192505050505050509192919290505050610311565b6040518082815260200191505060405180910390f35b6101e26004803603606081101561012b57600080fd5b81019080803590602001909291908035906020019064010000000081111561015257600080fd5b82018360208201111561016457600080fd5b8035906020019184600183028401116401000000008311171561018657600080fd5b91908080601f016020809104026020016040519081016040528093929190818152602001838380828437600081840152601f19601f8201169050808301925050505050505091929192908035906020019092919050505061038c565b604051808273ffffffffffffffffffffffffffffffffffffffff1673ffffffffffffffffffffffffffffffffffffffff16815260200191505060405180910390f35b6102e76004803603604081101561023a57600080fd5b810190808035906020019064010000000081111561025757600080fd5b82018360208201111561026957600080fd5b8035906020019184600183028401116401000000008311171561028b57600080fd5b91908080601f016020809104026020016040519081016040528093929190818152602001838380828437600081840152601f19601f820116905080830192505050505050509192919290803590602001909291905050506103a2565b604051808460ff1660ff168152602001838152602001828152602001935050505060405180910390f35b6000816040516020018082805190602001908083835b6020831061034a5780518252602082019150602081019050602083039250610327565b6001836020036101000a038019825116818451168082178552505050505050905001915050604051602081830303815290604052805190602001209050919050565b60006103998484846103c4565b90509392505050565b60008060006103b18585610453565b8093508194508295505050509250925092565b6000806000806103d48686610453565b80935081945082955050505060018784848460405160008152602001604052604051808581526020018460ff1660ff1681526020018381526020018281526020019450505050506020604051602081039080840390855afa15801561043d573d6000803e3d6000fd5b5050506020604051035193505050509392505050565b60008060008360410260208101860151925060408101860151915060ff6041820187015116935050925092509256fea265627a7a72305820bdc5724cd8aad29bddbc2acd644cf5233b33b50b09d38afefdc6e516f387771b64736f6c634300050a0032",
  "source": "pragma solidity >=0.5.0 <0.6.0;\n\nimport \"../SignatureDecoder.sol\";\n\ncontract SignatureDecoderPublic is SignatureDecoder{\n\n    function getHash(string memory str) public pure returns(bytes32) {\n        return keccak256(abi.encodePacked(str));\n    }\n    /// @dev Recovers address who signed the message\n    /// @param txHash operation ethereum signed message hash\n    /// @param messageSignature message `txHash` signature\n    /// @param pos which signature to read\n    function _recoverKey (\n        bytes32 txHash,\n        bytes memory messageSignature,\n        uint256 pos\n    )\n        pure\n        public\n        returns (address)\n    {\n        return super.recoverKey(txHash, messageSignature, pos);\n    }\n\n    /// @dev divides bytes signature into `uint8 v, bytes32 r, bytes32 s`\n    /// @param pos which signature to read\n    /// @param signatures concatenated rsv signatures\n    function _signatureSplit(bytes memory signatures, uint256 pos)\n        pure\n        public\n        returns (uint8 v, bytes32 r, bytes32 s)\n    {\n        (v, r, s) = super.signatureSplit(signatures, pos);\n    }\n}\n",
  "sourcePath": "/Users/tom/www/music-smart-contracts/contracts/mock/SignatureValidatorPublic.sol",
  "compiler": {
    "name": "solc",
    "version": "0.5.10+commit.5a6ea5b1.Emscripten.clang"
  },
  "schemaVersion": "3.0.11",
  "updatedAt": "2019-09-01T04:31:53.196Z",
  "devdoc": {
    "methods": {
      "_recoverKey(bytes32,bytes,uint256)": {
        "details": "Recovers address who signed the message",
        "params": {
          "messageSignature": "message `txHash` signature",
          "pos": "which signature to read",
          "txHash": "operation ethereum signed message hash"
        }
      },
      "_signatureSplit(bytes,uint256)": {
        "details": "divides bytes signature into `uint8 v, bytes32 r, bytes32 s`",
        "params": {
          "pos": "which signature to read",
          "signatures": "concatenated rsv signatures"
        }
      }
    }
  },
  "userdoc": {
    "methods": {}
  }
}