{
  "contractName": "UpgradedOwnershipRoyaltiesAgreementsPublic",
  "abi": [
    {
      "constant": true,
      "inputs": [
        {
          "name": "owner",
          "type": "address"
        }
      ],
      "name": "balanceOfRoyalties",
      "outputs": [
        {
          "name": "",
          "type": "uint256"
        }
      ],
      "payable": false,
      "stateMutability": "view",
      "type": "function"
    },
    {
      "constant": true,
      "inputs": [
        {
          "name": "owner",
          "type": "address"
        }
      ],
      "name": "balanceOfOwnership",
      "outputs": [
        {
          "name": "",
          "type": "uint256"
        }
      ],
      "payable": false,
      "stateMutability": "view",
      "type": "function"
    },
    {
      "constant": true,
      "inputs": [
        {
          "name": "actor",
          "type": "address"
        }
      ],
      "name": "getIdentity",
      "outputs": [
        {
          "name": "",
          "type": "address"
        }
      ],
      "payable": false,
      "stateMutability": "view",
      "type": "function"
    },
    {
      "constant": true,
      "inputs": [
        {
          "name": "signer",
          "type": "address"
        },
        {
          "name": "transferType",
          "type": "string"
        },
        {
          "name": "templateHash",
          "type": "bytes32"
        },
        {
          "name": "identities",
          "type": "address[2]"
        },
        {
          "name": "value",
          "type": "uint256"
        }
      ],
      "name": "getHash",
      "outputs": [
        {
          "name": "",
          "type": "bytes32"
        }
      ],
      "payable": false,
      "stateMutability": "view",
      "type": "function"
    },
    {
      "constant": true,
      "inputs": [],
      "name": "totalSupplyOwnership",
      "outputs": [
        {
          "name": "",
          "type": "uint256"
        }
      ],
      "payable": false,
      "stateMutability": "view",
      "type": "function"
    },
    {
      "constant": false,
      "inputs": [
        {
          "name": "templateHash",
          "type": "bytes32"
        },
        {
          "name": "templateVersion",
          "type": "string"
        },
        {
          "name": "sigSenders",
          "type": "bytes"
        },
        {
          "name": "sigReceivers",
          "type": "bytes"
        },
        {
          "name": "senderSigners",
          "type": "address[]"
        },
        {
          "name": "receiverSigners",
          "type": "address[]"
        },
        {
          "name": "values",
          "type": "uint256[]"
        }
      ],
      "name": "newRoyaltiesTransferAgreement",
      "outputs": [],
      "payable": false,
      "stateMutability": "nonpayable",
      "type": "function"
    },
    {
      "constant": true,
      "inputs": [],
      "name": "totalSupplyRoyalties",
      "outputs": [
        {
          "name": "",
          "type": "uint256"
        }
      ],
      "payable": false,
      "stateMutability": "view",
      "type": "function"
    },
    {
      "constant": true,
      "inputs": [
        {
          "name": "owner",
          "type": "address"
        }
      ],
      "name": "nonceFor",
      "outputs": [
        {
          "name": "",
          "type": "uint256"
        }
      ],
      "payable": false,
      "stateMutability": "view",
      "type": "function"
    },
    {
      "constant": false,
      "inputs": [
        {
          "name": "templateHash",
          "type": "bytes32"
        },
        {
          "name": "templateVersion",
          "type": "string"
        },
        {
          "name": "sigSenders",
          "type": "bytes"
        },
        {
          "name": "sigReceivers",
          "type": "bytes"
        },
        {
          "name": "senderSigners",
          "type": "address[]"
        },
        {
          "name": "receiverSigners",
          "type": "address[]"
        },
        {
          "name": "values",
          "type": "uint256[]"
        }
      ],
      "name": "newOwnershipTransferAgreement",
      "outputs": [],
      "payable": false,
      "stateMutability": "nonpayable",
      "type": "function"
    },
    {
      "constant": true,
      "inputs": [],
      "name": "ethDIDReg",
      "outputs": [
        {
          "name": "",
          "type": "address"
        }
      ],
      "payable": false,
      "stateMutability": "view",
      "type": "function"
    },
    {
      "constant": false,
      "inputs": [
        {
          "name": "_ownerKey",
          "type": "address"
        },
        {
          "name": "_ethDID",
          "type": "address"
        }
      ],
      "name": "init",
      "outputs": [],
      "payable": false,
      "stateMutability": "nonpayable",
      "type": "function"
    },
    {
      "constant": true,
      "inputs": [
        {
          "name": "identity",
          "type": "address"
        },
        {
          "name": "actor",
          "type": "address"
        }
      ],
      "name": "isIdentityOwner",
      "outputs": [
        {
          "name": "",
          "type": "bool"
        }
      ],
      "payable": false,
      "stateMutability": "view",
      "type": "function"
    },
    {
      "anonymous": false,
      "inputs": [
        {
          "indexed": false,
          "name": "templateVersion",
          "type": "string"
        },
        {
          "indexed": false,
          "name": "templateHash",
          "type": "bytes32"
        },
        {
          "indexed": false,
          "name": "sigSenders",
          "type": "bytes"
        },
        {
          "indexed": false,
          "name": "sigReceivers",
          "type": "bytes"
        },
        {
          "indexed": false,
          "name": "senderSigners",
          "type": "address[]"
        },
        {
          "indexed": false,
          "name": "senderIdentities",
          "type": "address[]"
        },
        {
          "indexed": false,
          "name": "receiverSigners",
          "type": "address[]"
        },
        {
          "indexed": false,
          "name": "receiverIdentities",
          "type": "address[]"
        },
        {
          "indexed": false,
          "name": "values",
          "type": "uint256[]"
        }
      ],
      "name": "NewOwnershipAgreement",
      "type": "event"
    },
    {
      "anonymous": false,
      "inputs": [
        {
          "indexed": false,
          "name": "templateVersion",
          "type": "string"
        },
        {
          "indexed": false,
          "name": "templateHash",
          "type": "bytes32"
        },
        {
          "indexed": false,
          "name": "sigSenders",
          "type": "bytes"
        },
        {
          "indexed": false,
          "name": "sigReceivers",
          "type": "bytes"
        },
        {
          "indexed": false,
          "name": "senderSigners",
          "type": "address[]"
        },
        {
          "indexed": false,
          "name": "senderIdentities",
          "type": "address[]"
        },
        {
          "indexed": false,
          "name": "receiverSigners",
          "type": "address[]"
        },
        {
          "indexed": false,
          "name": "receiverIdentities",
          "type": "address[]"
        },
        {
          "indexed": false,
          "name": "values",
          "type": "uint256[]"
        }
      ],
      "name": "NewRoyaltiesAgreement",
      "type": "event"
    },
    {
      "anonymous": false,
      "inputs": [
        {
          "indexed": false,
          "name": "from",
          "type": "address"
        },
        {
          "indexed": false,
          "name": "to",
          "type": "address"
        },
        {
          "indexed": false,
          "name": "value",
          "type": "uint256"
        }
      ],
      "name": "OwnershipTransfer",
      "type": "event"
    },
    {
      "anonymous": false,
      "inputs": [
        {
          "indexed": false,
          "name": "from",
          "type": "address"
        },
        {
          "indexed": false,
          "name": "to",
          "type": "address"
        },
        {
          "indexed": false,
          "name": "value",
          "type": "uint256"
        }
      ],
      "name": "RoyaltiesTransfer",
      "type": "event"
    },
    {
      "anonymous": false,
      "inputs": [
        {
          "indexed": false,
          "name": "reg",
          "type": "address"
        }
      ],
      "name": "EthRegistrySet",
      "type": "event"
    },
    {
      "constant": false,
      "inputs": [
        {
          "name": "trasnferType",
          "type": "string"
        },
        {
          "name": "templateHash",
          "type": "bytes32"
        },
        {
          "name": "senderSigner",
          "type": "address"
        },
        {
          "name": "receiverSigner",
          "type": "address"
        },
        {
          "name": "value",
          "type": "uint256"
        },
        {
          "name": "sigSenders",
          "type": "bytes"
        },
        {
          "name": "sigReceivers",
          "type": "bytes"
        },
        {
          "name": "i",
          "type": "uint8"
        }
      ],
      "name": "validateSignatures",
      "outputs": [
        {
          "name": "senderId",
          "type": "address"
        },
        {
          "name": "receiverId",
          "type": "address"
        }
      ],
      "payable": false,
      "stateMutability": "nonpayable",
      "type": "function"
    },
    {
      "constant": false,
      "inputs": [
        {
          "name": "from",
          "type": "address"
        },
        {
          "name": "to",
          "type": "address"
        },
        {
          "name": "value",
          "type": "uint256"
        }
      ],
      "name": "_transferOwnership",
      "outputs": [],
      "payable": false,
      "stateMutability": "nonpayable",
      "type": "function"
    },
    {
      "constant": false,
      "inputs": [
        {
          "name": "from",
          "type": "address"
        },
        {
          "name": "to",
          "type": "address"
        },
        {
          "name": "value",
          "type": "uint256"
        }
      ],
      "name": "_transferRoyalties",
      "outputs": [],
      "payable": false,
      "stateMutability": "nonpayable",
      "type": "function"
    },
    {
      "constant": true,
      "inputs": [
        {
          "name": "num",
          "type": "uint256"
        }
      ],
      "name": "getHashOfNumber",
      "outputs": [
        {
          "name": "",
          "type": "bytes32"
        }
      ],
      "payable": false,
      "stateMutability": "pure",
      "type": "function"
    }
  ],
  "bytecode": "0x608060405234801561001057600080fd5b50613a46806100206000396000f3fe608060405234801561001057600080fd5b50600436106101005760003560e01c80636db65d9c11610097578063d16c4c7811610066578063d16c4c78146102d1578063e717581314610302578063f09a401614610320578063fd2aa0b41461033c57610100565b80636db65d9c1461024b578063976ec92b14610269578063a32890d314610299578063c36fb5f2146102b557610100565b80633bfc4c1b116100d35780633bfc4c1b146101c5578063403078a1146101f5578063418995ac146102135780635945dad11461022f57610100565b80631829449614610105578063212eb0f0146101355780632420a3fa146101655780632fea7b8114610195575b600080fd5b61011f600480360361011a91908101906124af565b61036c565b60405161012c9190613666565b60405180910390f35b61014f600480360361014a919081019061286c565b6103b5565b60405161015c91906132e1565b60405180910390f35b61017f600480360361017a91908101906124af565b6103e5565b60405161018c9190613666565b60405180910390f35b6101af60048036036101aa91908101906124af565b61042e565b6040516101bc9190613214565b60405180910390f35b6101df60048036036101da919081019061258c565b610557565b6040516101ec91906132e1565b60405180910390f35b6101fd610604565b60405161020a9190613666565b60405180910390f35b61022d6004803603610228919081019061253d565b61060e565b005b61024960048036036102449190810190612644565b61061e565b005b610253610972565b6040516102609190613666565b60405180910390f35b610283600480360361027e91908101906124af565b61097c565b6040516102909190613666565b60405180910390f35b6102b360048036036102ae9190810190612644565b6109c5565b005b6102cf60048036036102ca919081019061253d565b610d19565b005b6102eb60048036036102e69190810190612772565b610d29565b6040516102f9929190613266565b60405180910390f35b61030a610d51565b6040516103179190613214565b60405180910390f35b61033a60048036036103359190810190612501565b610d77565b005b61035660048036036103519190810190612501565b610e87565b60405161036391906132c6565b60405180910390f35b6000603660008373ffffffffffffffffffffffffffffffffffffffff1673ffffffffffffffffffffffffffffffffffffffff168152602001908152602001600020549050919050565b6000816040516020016103c891906131f9565b604051602081830303815290604052805190602001209050919050565b6000603460008373ffffffffffffffffffffffffffffffffffffffff1673ffffffffffffffffffffffffffffffffffffffff168152602001908152602001600020549050919050565b600080603360009054906101000a900473ffffffffffffffffffffffffffffffffffffffff1673ffffffffffffffffffffffffffffffffffffffff16632fea7b81846040518263ffffffff1660e01b815260040161048c9190613214565b60206040518083038186803b1580156104a457600080fd5b505afa1580156104b8573d6000803e3d6000fd5b505050506040513d601f19601f820116820180604052506104dc91908101906124d8565b9050600073ffffffffffffffffffffffffffffffffffffffff168173ffffffffffffffffffffffffffffffffffffffff16141561054e576040517f08c379a000000000000000000000000000000000000000000000000000000000815260040161054590613566565b60405180910390fd5b80915050919050565b6000601960f81b600060f81b3087878760006002811061057357fe5b60200201518860016002811061058557fe5b602002015188603860008f73ffffffffffffffffffffffffffffffffffffffff1673ffffffffffffffffffffffffffffffffffffffff168152602001908152602001600020546040516020016105e39998979695949392919061315a565b60405160208183030381529060405280519060200120905095945050505050565b6000603554905090565b610619838383610f3e565b505050565b606081516040519080825280602002602001820160405280156106505781602001602082028038833980820191505090505b509050606082516040519080825280602002602001820160405280156106855781602001602082028038833980820191505090505b5090506000801b8914156106ce576040517f08c379a00000000000000000000000000000000000000000000000000000000081526004016106c590613406565b60405180910390fd5b6000885111610712576040517f08c379a000000000000000000000000000000000000000000000000000000000815260040161070990613626565b60405180910390fd5b60418351028751148015610727575085518751145b610766576040517f08c379a000000000000000000000000000000000000000000000000000000000815260040161075d90613526565b60405180910390fd5b83518551148015610778575082518451145b6107b7576040517f08c379a00000000000000000000000000000000000000000000000000000000081526004016107ae906134a6565b60405180910390fd5b60008060008090505b85518160ff16101561091d576108536040518060400160405280601181526020017f526f79616c746965735472616e736665720000000000000000000000000000008152508d8a8460ff168151811061081557fe5b60200260200101518a8560ff168151811061082c57fe5b60200260200101518a8660ff168151811061084357fe5b60200260200101518f8f8861126f565b809350819450505082858260ff168151811061086b57fe5b602002602001019073ffffffffffffffffffffffffffffffffffffffff16908173ffffffffffffffffffffffffffffffffffffffff168152505081848260ff16815181106108b557fe5b602002602001019073ffffffffffffffffffffffffffffffffffffffff16908173ffffffffffffffffffffffffffffffffffffffff16815250506109108383888460ff168151811061090357fe5b6020026020010151610f3e565b80806001019150506107c0565b507f1ea3aee78f0a8c63d9448d8664e8a8366da7deb1959db6a080ccd85fdca2babf8a8c8b8b8b898c8a8d60405161095d99989796959493929190613341565b60405180910390a15050505050505050505050565b6000603754905090565b6000603860008373ffffffffffffffffffffffffffffffffffffffff1673ffffffffffffffffffffffffffffffffffffffff168152602001908152602001600020549050919050565b606081516040519080825280602002602001820160405280156109f75781602001602082028038833980820191505090505b50905060608251604051908082528060200260200182016040528015610a2c5781602001602082028038833980820191505090505b5090506000801b891415610a75576040517f08c379a0000000000000000000000000000000000000000000000000000000008152600401610a6c90613406565b60405180910390fd5b6000885111610ab9576040517f08c379a0000000000000000000000000000000000000000000000000000000008152600401610ab090613626565b60405180910390fd5b60418351028751148015610ace575085518751145b610b0d576040517f08c379a0000000000000000000000000000000000000000000000000000000008152600401610b0490613526565b60405180910390fd5b83518551148015610b1f575082518451145b610b5e576040517f08c379a0000000000000000000000000000000000000000000000000000000008152600401610b55906134a6565b60405180910390fd5b60008060008090505b85518160ff161015610cc457610bfa6040518060400160405280601181526020017f4f776e6572736869705472616e736665720000000000000000000000000000008152508d8a8460ff1681518110610bbc57fe5b60200260200101518a8560ff1681518110610bd357fe5b60200260200101518a8660ff1681518110610bea57fe5b60200260200101518f8f8861126f565b809350819450505082858260ff1681518110610c1257fe5b602002602001019073ffffffffffffffffffffffffffffffffffffffff16908173ffffffffffffffffffffffffffffffffffffffff168152505081848260ff1681518110610c5c57fe5b602002602001019073ffffffffffffffffffffffffffffffffffffffff16908173ffffffffffffffffffffffffffffffffffffffff1681525050610cb78383888460ff1681518110610caa57fe5b6020026020010151611645565b8080600101915050610b67565b507ff0b9764fbf6acd9ef6891f8b220eb49e44f81ec0ad504d540a5a93e60ff59ab18a8c8b8b8b898c8a8d604051610d0499989796959493929190613341565b60405180910390a15050505050505050505050565b610d24838383611645565b505050565b600080610d3c8a8a8a8a8a8a8a8a61126f565b80925081935050509850989650505050505050565b603360009054906101000a900473ffffffffffffffffffffffffffffffffffffffff1681565b600060019054906101000a900460ff1680610d965750610d95611d4a565b5b80610dad57506000809054906101000a900460ff16155b610dec576040517f08c379a0000000000000000000000000000000000000000000000000000000008152600401610de3906135a6565b60405180910390fd5b60008060019054906101000a900460ff161590508015610e3c576001600060016101000a81548160ff02191690831515021790555060016000806101000a81548160ff0219169083151502179055505b610e4582611d5b565b610e60610e518461042e565b68056bc75e2d63100000611dd6565b508015610e825760008060016101000a81548160ff0219169083151502179055505b505050565b6000603360009054906101000a900473ffffffffffffffffffffffffffffffffffffffff1673ffffffffffffffffffffffffffffffffffffffff1663fd2aa0b484846040518363ffffffff1660e01b8152600401610ee6929190613266565b60206040518083038186803b158015610efe57600080fd5b505afa158015610f12573d6000803e3d6000fd5b505050506040513d601f19601f82011682018060405250610f36919081019061261b565b905092915050565b603660008473ffffffffffffffffffffffffffffffffffffffff1673ffffffffffffffffffffffffffffffffffffffff16815260200190815260200160002054811115610fc0576040517f08c379a0000000000000000000000000000000000000000000000000000000008152600401610fb790613486565b60405180910390fd5b600073ffffffffffffffffffffffffffffffffffffffff168273ffffffffffffffffffffffffffffffffffffffff161415611030576040517f08c379a0000000000000000000000000000000000000000000000000000000008152600401611027906135e6565b60405180910390fd5b67016345785d8a000081101561107b576040517f08c379a000000000000000000000000000000000000000000000000000000000815260040161107290613646565b60405180910390fd5b6110cd81603660008673ffffffffffffffffffffffffffffffffffffffff1673ffffffffffffffffffffffffffffffffffffffff16815260200190815260200160002054611ff290919063ffffffff16565b603660008573ffffffffffffffffffffffffffffffffffffffff1673ffffffffffffffffffffffffffffffffffffffff1681526020019081526020016000208190555061116281603660008573ffffffffffffffffffffffffffffffffffffffff1673ffffffffffffffffffffffffffffffffffffffff1681526020019081526020016000205461204890919063ffffffff16565b603660008473ffffffffffffffffffffffffffffffffffffffff1673ffffffffffffffffffffffffffffffffffffffff1681526020019081526020016000208190555067016345785d8a0000603660008573ffffffffffffffffffffffffffffffffffffffff1673ffffffffffffffffffffffffffffffffffffffff16815260200190815260200160002054101561122f576040517f08c379a000000000000000000000000000000000000000000000000000000000815260040161122690613606565b60405180910390fd5b7f65bf1c6c791f37841df40c02435859d92cca39e7b8cd1003c19ecb9ff2f222cf8383836040516112629392919061328f565b60405180910390a1505050565b600080600073ffffffffffffffffffffffffffffffffffffffff168873ffffffffffffffffffffffffffffffffffffffff1614156112e2576040517f08c379a00000000000000000000000000000000000000000000000000000000081526004016112d990613446565b60405180910390fd5b600073ffffffffffffffffffffffffffffffffffffffff168773ffffffffffffffffffffffffffffffffffffffff161415611352576040517f08c379a0000000000000000000000000000000000000000000000000000000008152600401611349906135c6565b60405180910390fd5b60008611611395576040517f08c379a000000000000000000000000000000000000000000000000000000000815260040161138c90613426565b60405180910390fd5b61139e8861042e565b91506113a98761042e565b90506000611426898c8c60405180604001604052808873ffffffffffffffffffffffffffffffffffffffff1673ffffffffffffffffffffffffffffffffffffffff1681526020018773ffffffffffffffffffffffffffffffffffffffff1673ffffffffffffffffffffffffffffffffffffffff168152508b610557565b9050603860008a73ffffffffffffffffffffffffffffffffffffffff1673ffffffffffffffffffffffffffffffffffffffff1681526020019081526020016000206000815480929190600101919050555061148581878660ff1661209d565b73ffffffffffffffffffffffffffffffffffffffff168973ffffffffffffffffffffffffffffffffffffffff16146114f2576040517f08c379a00000000000000000000000000000000000000000000000000000000081526004016114e990613546565b60405180910390fd5b61156b888c8c60405180604001604052808873ffffffffffffffffffffffffffffffffffffffff1673ffffffffffffffffffffffffffffffffffffffff1681526020018773ffffffffffffffffffffffffffffffffffffffff1673ffffffffffffffffffffffffffffffffffffffff168152508b610557565b9050603860008973ffffffffffffffffffffffffffffffffffffffff1673ffffffffffffffffffffffffffffffffffffffff168152602001908152602001600020600081548092919060010191905055506115ca81868660ff1661209d565b73ffffffffffffffffffffffffffffffffffffffff168873ffffffffffffffffffffffffffffffffffffffff1614611637576040517f08c379a000000000000000000000000000000000000000000000000000000000815260040161162e906134c6565b60405180910390fd5b509850989650505050505050565b60006116ea603460008673ffffffffffffffffffffffffffffffffffffffff1673ffffffffffffffffffffffffffffffffffffffff168152602001908152602001600020546116dc84603660008973ffffffffffffffffffffffffffffffffffffffff1673ffffffffffffffffffffffffffffffffffffffff1681526020019081526020016000205461211490919063ffffffff16565b61218490919063ffffffff16565b9050603460008573ffffffffffffffffffffffffffffffffffffffff1673ffffffffffffffffffffffffffffffffffffffff1681526020019081526020016000205482111561176e576040517f08c379a000000000000000000000000000000000000000000000000000000000815260040161176590613486565b60405180910390fd5b600073ffffffffffffffffffffffffffffffffffffffff168373ffffffffffffffffffffffffffffffffffffffff1614156117de576040517f08c379a00000000000000000000000000000000000000000000000000000000081526004016117d5906135e6565b60405180910390fd5b67016345785d8a0000821015611829576040517f08c379a000000000000000000000000000000000000000000000000000000000815260040161182090613646565b60405180910390fd5b61187b82603460008773ffffffffffffffffffffffffffffffffffffffff1673ffffffffffffffffffffffffffffffffffffffff16815260200190815260200160002054611ff290919063ffffffff16565b603460008673ffffffffffffffffffffffffffffffffffffffff1673ffffffffffffffffffffffffffffffffffffffff1681526020019081526020016000208190555061191082603460008673ffffffffffffffffffffffffffffffffffffffff1673ffffffffffffffffffffffffffffffffffffffff1681526020019081526020016000205461204890919063ffffffff16565b603460008573ffffffffffffffffffffffffffffffffffffffff1673ffffffffffffffffffffffffffffffffffffffff1681526020019081526020016000208190555067016345785d8a0000603460008673ffffffffffffffffffffffffffffffffffffffff1673ffffffffffffffffffffffffffffffffffffffff1681526020019081526020016000205410156119dd576040517f08c379a00000000000000000000000000000000000000000000000000000000081526004016119d490613606565b60405180910390fd5b7f4b561bec749abb701e51772ccc461627db033e876cb892e2c869974261756660848484604051611a109392919061328f565b60405180910390a1603660008573ffffffffffffffffffffffffffffffffffffffff1673ffffffffffffffffffffffffffffffffffffffff16815260200190815260200160002054811115611a9a576040517f08c379a0000000000000000000000000000000000000000000000000000000008152600401611a9190613486565b60405180910390fd5b600073ffffffffffffffffffffffffffffffffffffffff168373ffffffffffffffffffffffffffffffffffffffff161415611b0a576040517f08c379a0000000000000000000000000000000000000000000000000000000008152600401611b01906135e6565b60405180910390fd5b67016345785d8a0000811015611b55576040517f08c379a0000000000000000000000000000000000000000000000000000000008152600401611b4c90613646565b60405180910390fd5b611ba781603660008773ffffffffffffffffffffffffffffffffffffffff1673ffffffffffffffffffffffffffffffffffffffff16815260200190815260200160002054611ff290919063ffffffff16565b603660008673ffffffffffffffffffffffffffffffffffffffff1673ffffffffffffffffffffffffffffffffffffffff16815260200190815260200160002081905550611c3c81603660008673ffffffffffffffffffffffffffffffffffffffff1673ffffffffffffffffffffffffffffffffffffffff1681526020019081526020016000205461204890919063ffffffff16565b603660008573ffffffffffffffffffffffffffffffffffffffff1673ffffffffffffffffffffffffffffffffffffffff1681526020019081526020016000208190555067016345785d8a0000603660008673ffffffffffffffffffffffffffffffffffffffff1673ffffffffffffffffffffffffffffffffffffffff168152602001908152602001600020541015611d09576040517f08c379a0000000000000000000000000000000000000000000000000000000008152600401611d0090613606565b60405180910390fd5b7f65bf1c6c791f37841df40c02435859d92cca39e7b8cd1003c19ecb9ff2f222cf848483604051611d3c9392919061328f565b60405180910390a150505050565b600080303b90506000811491505090565b80603360006101000a81548173ffffffffffffffffffffffffffffffffffffffff021916908373ffffffffffffffffffffffffffffffffffffffff1602179055507f43bb990ead28e2cb3ea8b26e045448500f1cd58ccf150c95dd8e7e14dd12b7fa81604051611dcb9190613214565b60405180910390a150565b60008073ffffffffffffffffffffffffffffffffffffffff168373ffffffffffffffffffffffffffffffffffffffff161415611e1157600080fd5b611e6382603460008673ffffffffffffffffffffffffffffffffffffffff1673ffffffffffffffffffffffffffffffffffffffff1681526020019081526020016000205461204890919063ffffffff16565b603460008573ffffffffffffffffffffffffffffffffffffffff1673ffffffffffffffffffffffffffffffffffffffff16815260200190815260200160002081905550611ebb8260355461204890919063ffffffff16565b6035819055507f4b561bec749abb701e51772ccc461627db033e876cb892e2c86997426175666060008484604051611ef59392919061322f565b60405180910390a1611f4f82603660008673ffffffffffffffffffffffffffffffffffffffff1673ffffffffffffffffffffffffffffffffffffffff1681526020019081526020016000205461204890919063ffffffff16565b603660008573ffffffffffffffffffffffffffffffffffffffff1673ffffffffffffffffffffffffffffffffffffffff16815260200190815260200160002081905550611fa78260375461204890919063ffffffff16565b6037819055507f65bf1c6c791f37841df40c02435859d92cca39e7b8cd1003c19ecb9ff2f222cf60008484604051611fe19392919061322f565b60405180910390a181905092915050565b600082821115612037576040517f08c379a000000000000000000000000000000000000000000000000000000000815260040161202e906134e6565b60405180910390fd5b600082840390508091505092915050565b600080828401905083811015612093576040517f08c379a000000000000000000000000000000000000000000000000000000000815260040161208a90613466565b60405180910390fd5b8091505092915050565b6000806000806120ad86866121e0565b809350819450829550505050600187848484604051600081526020016040526040516120dc94939291906132fc565b6020604051602081039080840390855afa1580156120fe573d6000803e3d6000fd5b5050506020604051035193505050509392505050565b600080831415612127576000905061217e565b600082840290508284828161213857fe5b0414612179576040517f08c379a000000000000000000000000000000000000000000000000000000000815260040161217090613586565b60405180910390fd5b809150505b92915050565b60008082116121c8576040517f08c379a00000000000000000000000000000000000000000000000000000000081526004016121bf90613506565b60405180910390fd5b60008284816121d357fe5b0490508091505092915050565b60008060008360410260208101860151925060408101860151915060ff60418201870151169350509250925092565b60008135905061221e81613990565b92915050565b60008151905061223381613990565b92915050565b600082601f83011261224a57600080fd5b600261225d612258826136ae565b613681565b9150818385602084028201111561227357600080fd5b60005b838110156122a35781612289888261220f565b845260208401935060208301925050600181019050612276565b5050505092915050565b600082601f8301126122be57600080fd5b81356122d16122cc826136d0565b613681565b915081818352602084019350602081019050838560208402820111156122f657600080fd5b60005b83811015612326578161230c888261220f565b8452602084019350602083019250506001810190506122f9565b5050505092915050565b600082601f83011261234157600080fd5b813561235461234f826136f8565b613681565b9150818183526020840193506020810190508385602084028201111561237957600080fd5b60005b838110156123a9578161238f8882612485565b84526020840193506020830192505060018101905061237c565b5050505092915050565b6000815190506123c2816139a7565b92915050565b6000813590506123d7816139be565b92915050565b600082601f8301126123ee57600080fd5b81356124016123fc82613720565b613681565b9150808252602083016020830185838301111561241d57600080fd5b6124288382846138ee565b50505092915050565b600082601f83011261244257600080fd5b81356124556124508261374c565b613681565b9150808252602083016020830185838301111561247157600080fd5b61247c8382846138ee565b50505092915050565b600081359050612494816139d5565b92915050565b6000813590506124a9816139ec565b92915050565b6000602082840312156124c157600080fd5b60006124cf8482850161220f565b91505092915050565b6000602082840312156124ea57600080fd5b60006124f884828501612224565b91505092915050565b6000806040838503121561251457600080fd5b60006125228582860161220f565b92505060206125338582860161220f565b9150509250929050565b60008060006060848603121561255257600080fd5b60006125608682870161220f565b93505060206125718682870161220f565b925050604061258286828701612485565b9150509250925092565b600080600080600060c086880312156125a457600080fd5b60006125b28882890161220f565b955050602086013567ffffffffffffffff8111156125cf57600080fd5b6125db88828901612431565b94505060406125ec888289016123c8565b93505060606125fd88828901612239565b92505060a061260e88828901612485565b9150509295509295909350565b60006020828403121561262d57600080fd5b600061263b848285016123b3565b91505092915050565b600080600080600080600060e0888a03121561265f57600080fd5b600061266d8a828b016123c8565b975050602088013567ffffffffffffffff81111561268a57600080fd5b6126968a828b01612431565b965050604088013567ffffffffffffffff8111156126b357600080fd5b6126bf8a828b016123dd565b955050606088013567ffffffffffffffff8111156126dc57600080fd5b6126e88a828b016123dd565b945050608088013567ffffffffffffffff81111561270557600080fd5b6127118a828b016122ad565b93505060a088013567ffffffffffffffff81111561272e57600080fd5b61273a8a828b016122ad565b92505060c088013567ffffffffffffffff81111561275757600080fd5b6127638a828b01612330565b91505092959891949750929550565b600080600080600080600080610100898b03121561278f57600080fd5b600089013567ffffffffffffffff8111156127a957600080fd5b6127b58b828c01612431565b98505060206127c68b828c016123c8565b97505060406127d78b828c0161220f565b96505060606127e88b828c0161220f565b95505060806127f98b828c01612485565b94505060a089013567ffffffffffffffff81111561281657600080fd5b6128228b828c016123dd565b93505060c089013567ffffffffffffffff81111561283f57600080fd5b61284b8b828c016123dd565b92505060e061285c8b828c0161249a565b9150509295985092959890939650565b60006020828403121561287e57600080fd5b600061288c84828501612485565b91505092915050565b60006128a183836128d4565b60208301905092915050565b60006128b98383613116565b60208301905092915050565b6128ce816138b8565b82525050565b6128dd8161382d565b82525050565b6128ec8161382d565b82525050565b6129036128fe8261382d565b613930565b82525050565b600061291482613798565b61291e81856137de565b935061292983613778565b8060005b8381101561295a5781516129418882612895565b975061294c836137c4565b92505060018101905061292d565b5085935050505092915050565b6000612972826137a3565b61297c81856137ef565b935061298783613788565b8060005b838110156129b857815161299f88826128ad565b97506129aa836137d1565b92505060018101905061298b565b5085935050505092915050565b6129ce8161383f565b82525050565b6129e56129e08261384b565b613942565b82525050565b6129f481613877565b82525050565b612a0b612a0682613877565b61394c565b82525050565b6000612a1c826137ae565b612a268185613800565b9350612a368185602086016138fd565b612a3f81613972565b840191505092915050565b6000612a55826137b9565b612a5f8185613811565b9350612a6f8185602086016138fd565b612a7881613972565b840191505092915050565b6000612a8e826137b9565b612a988185613822565b9350612aa88185602086016138fd565b80840191505092915050565b6000612ac1601c83613811565b91507f74656d706c617465486173682063616e6e6f7420626520656d707479000000006000830152602082019050919050565b6000612b01601f83613811565b91507f56616c7565206d7573742062652067726561746572207468616e207a65726f006000830152602082019050919050565b6000612b41601b83613811565b91507f5a65726f20616464726573732063616e6e6f742073656e6420545800000000006000830152602082019050919050565b6000612b81601b83613811565b91507f536166654d6174683a206164646974696f6e206f766572666c6f7700000000006000830152602082019050919050565b6000612bc1602983613811565b91507f43616e6e6f74207472616e73666572206269676765722076616c75652074686160008301527f6e2062616c616e636500000000000000000000000000000000000000000000006020830152604082019050919050565b6000612c27603a83613811565b91507f73656e6465725369676e6572732c2072656365697665725369676e657273206160008301527f6e642076616c7565206c656e677468206d757374206d617463680000000000006020830152604082019050919050565b6000612c8d603083613811565b91507f4d65737361676520686173206e6f74206265656e207369676e65642070726f7060008301527f65726c79206279207265636569766572000000000000000000000000000000006020830152604082019050919050565b6000612cf3601e83613811565b91507f536166654d6174683a207375627472616374696f6e206f766572666c6f7700006000830152602082019050919050565b6000612d33601a83613811565b91507f536166654d6174683a206469766973696f6e206279207a65726f0000000000006000830152602082019050919050565b6000612d73602b83613811565b91507f456163682076616c756520747261736e6665722073686f756c6420686176652060008301527f61207369676e61747572650000000000000000000000000000000000000000006020830152604082019050919050565b6000612dd9602e83613811565b91507f4d65737361676520686173206e6f74206265656e207369676e65642070726f7060008301527f65726c792062792073656e6465720000000000000000000000000000000000006020830152604082019050919050565b6000612e3f603183613811565b91507f307830204964656e74697479206973206e6f7420616c6c6f77656420746f207060008301527f6572666f726d20616e7920616374696f6e0000000000000000000000000000006020830152604082019050919050565b6000612ea5602183613811565b91507f536166654d6174683a206d756c7469706c69636174696f6e206f766572666c6f60008301527f77000000000000000000000000000000000000000000000000000000000000006020830152604082019050919050565b6000612f0b602e83613811565b91507f436f6e747261637420696e7374616e63652068617320616c726561647920626560008301527f656e20696e697469616c697a65640000000000000000000000000000000000006020830152604082019050919050565b6000612f71602283613811565b91507f5a65726f20616464726573732063616e6e6f742072656365697665207269676860008301527f74730000000000000000000000000000000000000000000000000000000000006020830152604082019050919050565b6000612fd7601f83613811565b91507f43616e6e6f74207472616e7366657220746f207a65726f2061646472657373006000830152602082019050919050565b6000613017603983613811565b91507f53656e6465722062616c616e63652063616e6e6f7420626520736d616c6c657260008301527f207468616e20302e3125206166746572207472616e73666572000000000000006020830152604082019050919050565b600061307d601f83613811565b91507f74656d706c61746556657273696f6e2063616e6e6f7420626520656d707479006000830152602082019050919050565b60006130bd602c83613811565b91507f526571756972652070657263656e74616765207472616e73666572206174206c60008301527f65617374206f6620302e312500000000000000000000000000000000000000006020830152604082019050919050565b61311f816138a1565b82525050565b61312e816138a1565b82525050565b613145613140826138a1565b613968565b82525050565b613154816138ab565b82525050565b6000613166828c6129d4565b600182019150613176828b6129d4565b600182019150613186828a6128f2565b6014820191506131968289612a83565b91506131a282886129fa565b6020820191506131b282876128f2565b6014820191506131c282866128f2565b6014820191506131d28285613134565b6020820191506131e28284613134565b6020820191508190509a9950505050505050505050565b60006132058284613134565b60208201915081905092915050565b600060208201905061322960008301846128e3565b92915050565b600060608201905061324460008301866128c5565b61325160208301856128e3565b61325e6040830184613125565b949350505050565b600060408201905061327b60008301856128e3565b61328860208301846128e3565b9392505050565b60006060820190506132a460008301866128e3565b6132b160208301856128e3565b6132be6040830184613125565b949350505050565b60006020820190506132db60008301846129c5565b92915050565b60006020820190506132f660008301846129eb565b92915050565b600060808201905061331160008301876129eb565b61331e602083018661314b565b61332b60408301856129eb565b61333860608301846129eb565b95945050505050565b600061012082019050818103600083015261335c818c612a4a565b905061336b602083018b6129eb565b818103604083015261337d818a612a11565b905081810360608301526133918189612a11565b905081810360808301526133a58188612909565b905081810360a08301526133b98187612909565b905081810360c08301526133cd8186612909565b905081810360e08301526133e18185612909565b90508181036101008301526133f68184612967565b90509a9950505050505050505050565b6000602082019050818103600083015261341f81612ab4565b9050919050565b6000602082019050818103600083015261343f81612af4565b9050919050565b6000602082019050818103600083015261345f81612b34565b9050919050565b6000602082019050818103600083015261347f81612b74565b9050919050565b6000602082019050818103600083015261349f81612bb4565b9050919050565b600060208201905081810360008301526134bf81612c1a565b9050919050565b600060208201905081810360008301526134df81612c80565b9050919050565b600060208201905081810360008301526134ff81612ce6565b9050919050565b6000602082019050818103600083015261351f81612d26565b9050919050565b6000602082019050818103600083015261353f81612d66565b9050919050565b6000602082019050818103600083015261355f81612dcc565b9050919050565b6000602082019050818103600083015261357f81612e32565b9050919050565b6000602082019050818103600083015261359f81612e98565b9050919050565b600060208201905081810360008301526135bf81612efe565b9050919050565b600060208201905081810360008301526135df81612f64565b9050919050565b600060208201905081810360008301526135ff81612fca565b9050919050565b6000602082019050818103600083015261361f8161300a565b9050919050565b6000602082019050818103600083015261363f81613070565b9050919050565b6000602082019050818103600083015261365f816130b0565b9050919050565b600060208201905061367b6000830184613125565b92915050565b6000604051905081810181811067ffffffffffffffff821117156136a457600080fd5b8060405250919050565b600067ffffffffffffffff8211156136c557600080fd5b602082029050919050565b600067ffffffffffffffff8211156136e757600080fd5b602082029050602081019050919050565b600067ffffffffffffffff82111561370f57600080fd5b602082029050602081019050919050565b600067ffffffffffffffff82111561373757600080fd5b601f19601f8301169050602081019050919050565b600067ffffffffffffffff82111561376357600080fd5b601f19601f8301169050602081019050919050565b6000819050602082019050919050565b6000819050602082019050919050565b600081519050919050565b600081519050919050565b600081519050919050565b600081519050919050565b6000602082019050919050565b6000602082019050919050565b600082825260208201905092915050565b600082825260208201905092915050565b600082825260208201905092915050565b600082825260208201905092915050565b600081905092915050565b600061383882613881565b9050919050565b60008115159050919050565b60007fff0000000000000000000000000000000000000000000000000000000000000082169050919050565b6000819050919050565b600073ffffffffffffffffffffffffffffffffffffffff82169050919050565b6000819050919050565b600060ff82169050919050565b60006138c3826138ca565b9050919050565b60006138d5826138dc565b9050919050565b60006138e782613881565b9050919050565b82818337600083830152505050565b60005b8381101561391b578082015181840152602081019050613900565b8381111561392a576000848401525b50505050565b600061393b82613956565b9050919050565b6000819050919050565b6000819050919050565b600061396182613983565b9050919050565b6000819050919050565b6000601f19601f8301169050919050565b60008160601b9050919050565b6139998161382d565b81146139a457600080fd5b50565b6139b08161383f565b81146139bb57600080fd5b50565b6139c781613877565b81146139d257600080fd5b50565b6139de816138a1565b81146139e957600080fd5b50565b6139f5816138ab565b8114613a0057600080fd5b5056fea365627a7a7230582003c69e31a59a998ad2b0f3bf3f443f7e5f0d26da8676a24093fdceaeb8030d656c6578706572696d656e74616cf564736f6c634300050a0040",
  "source": "pragma solidity >=0.5.0 <0.6.0;\npragma experimental \"ABIEncoderV2\";\n\n\nimport \"../OwnershipRoyaltiesAgreements.sol\";\n\n\ncontract UpgradedOwnershipRoyaltiesAgreementsPublic is OwnershipRoyaltiesAgreements {\n\n    function validateSignatures(\n        string memory trasnferType,\n        bytes32 templateHash,\n        address senderSigner,\n        address receiverSigner,\n        uint256 value,\n        bytes memory sigSenders,\n        bytes memory sigReceivers,\n        uint8 i\n    ) public returns (address senderId, address receiverId) {\n        (senderId, receiverId) = super._validateSignatures(trasnferType, templateHash, senderSigner, receiverSigner, value, sigSenders, sigReceivers, i);\n    }\n\n    function _transferOwnership(\n        address from,\n        address to,\n        uint256 value\n    ) public {\n        super.transferOwnership(from, to, value);\n    }\n\n    function _transferRoyalties(\n        address from,\n        address to,\n        uint256 value\n    ) public {\n        super.transferRoyalties(from, to, value);\n    }\n\n    // new function\n    function getHashOfNumber(uint256 num) public pure returns (bytes32) {\n        return keccak256(abi.encodePacked(num));\n    }\n}\n",
  "sourcePath": "/Users/tom/www/music-smart-contracts/contracts/mock/UpgradedOwnershipRoyaltiesAgreementsPublic.sol",
  "compiler": {
    "name": "solc",
    "version": "0.5.10+commit.5a6ea5b1.Emscripten.clang"
  },
  "schemaVersion": "3.0.11",
  "updatedAt": "2019-08-04T21:19:33.336Z",
  "devdoc": {
    "methods": {
      "balanceOfOwnership(address)": {
        "details": "Gets the ownership of the specified address.",
        "params": {
          "owner": "The address to query the balance of."
        },
        "return": "An uint256 representing the amount owned by the passed address."
      },
      "balanceOfRoyalties(address)": {
        "details": "Gets the ownership of the specified address.",
        "params": {
          "owner": "The address to query the balance of."
        },
        "return": "An uint256 representing the amount owned by the passed address."
      },
      "newOwnershipTransferAgreement(bytes32,string,bytes,bytes,address[],address[],uint256[])": {
        "details": "56020 gas for sent data (includes 21k min fee)",
        "params": {
          "receiverSigners": "addresses of receivers used to sign the tx",
          "senderSigners": "addresses of senders used to sign the tx",
          "sigReceivers": "signatures of receivers in compact form",
          "sigSenders": "singatures of senders in compact from",
          "templateHash": "ipfs compatible hash of legal file timplate",
          "templateVersion": "legal template file version",
          "values": "value of the trasnfer (1 ETH == 1%)"
        }
      },
      "newRoyaltiesTransferAgreement(bytes32,string,bytes,bytes,address[],address[],uint256[])": {
        "params": {
          "receiverSigners": "addresses of receivers used to sign the tx",
          "senderSigners": "addresses of senders used to sign the tx",
          "sigReceivers": "signatures of receivers in compact form",
          "sigSenders": "singatures of senders in compact from",
          "templateHash": "ipfs compatible hash of legal file timplate",
          "templateVersion": "legal template file version",
          "values": "value of the trasnfer (1 ETH == 1%)"
        }
      },
      "totalSupplyOwnership()": {
        "details": "Total number of tokens in existence"
      },
      "totalSupplyRoyalties()": {
        "details": "Total number of tokens in existence"
      }
    }
  },
  "userdoc": {
    "methods": {
      "newOwnershipTransferAgreement(bytes32,string,bytes,bytes,address[],address[],uint256[])": {
        "notice": "Creates new agreement for ownership transfer"
      },
      "newRoyaltiesTransferAgreement(bytes32,string,bytes,bytes,address[],address[],uint256[])": {
        "notice": "Creates new agreement for royalties transfer"
      }
    }
  }
}