{
  "contractName": "UUIDCounterPublic",
  "abi": [
    {
      "constant": true,
      "inputs": [],
      "name": "counter",
      "outputs": [
        {
          "name": "",
          "type": "uint256"
        }
      ],
      "payable": false,
      "stateMutability": "view",
      "type": "function"
    },
    {
      "constant": true,
      "inputs": [
        {
          "name": "",
          "type": "bytes32"
        }
      ],
      "name": "usedUUIDs",
      "outputs": [
        {
          "name": "",
          "type": "bool"
        }
      ],
      "payable": false,
      "stateMutability": "view",
      "type": "function"
    },
    {
      "anonymous": false,
      "inputs": [
        {
          "indexed": false,
          "name": "uuid",
          "type": "bytes32"
        }
      ],
      "name": "UUID",
      "type": "event"
    },
    {
      "constant": true,
      "inputs": [
        {
          "name": "_uuid",
          "type": "bytes32"
        },
        {
          "name": "_flag",
          "type": "uint8"
        }
      ],
      "name": "perpendFlagPublic",
      "outputs": [
        {
          "name": "",
          "type": "bytes32"
        }
      ],
      "payable": false,
      "stateMutability": "pure",
      "type": "function"
    },
    {
      "constant": false,
      "inputs": [
        {
          "name": "workRecordingFlag",
          "type": "uint8"
        }
      ],
      "name": "newIDPublic",
      "outputs": [
        {
          "name": "",
          "type": "bytes32"
        }
      ],
      "payable": false,
      "stateMutability": "nonpayable",
      "type": "function"
    }
  ],
  "bytecode": "0x6080604052600160005534801561001557600080fd5b506102b4806100256000396000f3fe608060405234801561001057600080fd5b506004361061004c5760003560e01c80632799a00f1461005157806361bc221a14610096578063977c9073146100b45780639de9ce26146100fa575b600080fd5b6100806004803603602081101561006757600080fd5b81019080803560ff169060200190929190505050610149565b6040518082815260200191505060405180910390f35b61009e61015a565b6040518082815260200191505060405180910390f35b6100e0600480360360208110156100ca57600080fd5b8101908080359060200190929190505050610160565b604051808215151515815260200191505060405180910390f35b6101336004803603604081101561011057600080fd5b8101908080359060200190929190803560ff169060200190929190505050610180565b6040518082815260200191505060405180910390f35b600061015482610193565b50919050565b60005481565b60016020528060005260406000206000915054906101000a900460ff1681565b600061018c838361024d565b5092915050565b6000806000808154809291906001019190505560001b90506101b5818461024d565b90506001600082815260200190815260200160002060009054906101000a900460ff16156101e257600080fd5b600180600083815260200190815260200160002060006101000a81548160ff0219169083151502179055507f8b222dfb61492c0e76f692ad8bec6f8ec75dda958c940fc804b24f453e64a6d3816040518082815260200191505060405180910390a180915050919050565b60008160f81b7effffffffffffffffffffffffffffffffffffffffffffffffffffffffffffff1916831790509291505056fea265627a7a7230582073fda2954dd59a0be4fd8b1b5ed4422d7543fd6f8c187e9c0dfbac18826473f664736f6c634300050a0032",
  "source": "pragma solidity >=0.5.0 <0.6.0;\n\nimport \"../UUIDCounter.sol\";\n\ncontract UUIDCounterPublic is UUIDCounter {\n    function perpendFlagPublic(bytes32 _uuid, uint8 _flag) public pure returns (bytes32) {\n        perpendFlag(_uuid, _flag);\n    }\n    /**\n     * uint8 flag 87 for Work, 82 for Recording\n     **/\n    function newIDPublic(uint8 workRecordingFlag) public returns (bytes32) {\n        newID(workRecordingFlag);\n    }\n}\n",
  "sourcePath": "/Users/tom/www/music-smart-contracts/contracts/mock/UUIDCounterPublic.sol",
  "compiler": {
    "name": "solc",
    "version": "0.5.10+commit.5a6ea5b1.Emscripten.clang"
  },
  "schemaVersion": "3.0.11",
  "updatedAt": "2019-08-04T21:19:33.332Z",
  "devdoc": {
    "methods": {}
  },
  "userdoc": {
    "methods": {
      "newIDPublic(uint8)": {
        "notice": "uint8 flag 87 for Work, 82 for Recording*"
      }
    }
  }
}