{
  "contractName": "UUIDCounter",
  "abi": [
    {
      "constant": true,
      "inputs": [],
      "name": "counter",
      "outputs": [
        {
          "name": "",
          "type": "uint256"
        }
      ],
      "payable": false,
      "stateMutability": "view",
      "type": "function"
    },
    {
      "constant": true,
      "inputs": [
        {
          "name": "",
          "type": "bytes32"
        }
      ],
      "name": "usedUUIDs",
      "outputs": [
        {
          "name": "",
          "type": "bool"
        }
      ],
      "payable": false,
      "stateMutability": "view",
      "type": "function"
    },
    {
      "anonymous": false,
      "inputs": [
        {
          "indexed": false,
          "name": "uuid",
          "type": "bytes32"
        }
      ],
      "name": "UUID",
      "type": "event"
    }
  ],
  "bytecode": "0x6080604052600160005534801561001557600080fd5b5060f1806100246000396000f3fe6080604052348015600f57600080fd5b506004361060325760003560e01c806361bc221a146037578063977c9073146053575b600080fd5b603d6096565b6040518082815260200191505060405180910390f35b607c60048036036020811015606757600080fd5b8101908080359060200190929190505050609c565b604051808215151515815260200191505060405180910390f35b60005481565b60016020528060005260406000206000915054906101000a900460ff168156fea265627a7a72305820dac8033c8c014c1ae51888d0afdba4775d47c63aecfb171b410db2ae31b441b764736f6c634300050a0032",
  "source": "pragma solidity >=0.5.0 <0.6.0;\n\ncontract UUIDCounter {\n    uint256 public counter = 1;\n    mapping (bytes32 => bool) public usedUUIDs;\n\n    event UUID(bytes32 uuid);\n\n    function perpendFlag(bytes32 _uuid, uint8 _flag) internal pure returns (bytes32) {\n        return _uuid | bytes32(byte(_flag));\n    }\n    /**\n     * uint8 flag 87 for Work, 82 for Recording\n     **/\n    function newID(uint8 workRecordingFlag) internal returns (bytes32) {\n        bytes32 uuid = bytes32(counter++);\n        uuid = perpendFlag(uuid, workRecordingFlag);\n        require(!usedUUIDs[uuid], \"uuid has been already used\");\n        usedUUIDs[uuid] = true;\n        emit UUID(uuid);\n        return uuid;\n    }\n\n     // TODO: allow for packedIDs usage when you refactor code to not to use storage\n    // bytes private internalID = new bytes(0);\n    // function packID(bytes16 id) public view returns(bytes) {\n    //     delete internalID;\n    //     internalID.push(id[0]);\n    //     uint8 zeros;\n    //     while(id[zeros + 1] == byte(0)) {\n    //         zeros++;\n    //     }\n    //     internalID.push(byte(zeros));\n    //     for (uint8 i = zeros + 1; i < id.length; i++) {\n    //         internalID.push(id[i]);\n    //     }\n    //     return internalID;\n    // }\n\n    // function unpackID(bytes id) public view returns (bytes) {\n    //     // W0e01\n    //     delete internalID;\n    //     internalID.push(id[0]);\n    //     uint8 zeros = uint8(id[1]);\n    //     for (uint i = 0; i < zeros; i++) {\n    //         internalID.push(byte(0));\n    //     }\n    //     for (i = 2; i < id.length; i++) {\n    //         internalID.push(id[i]);\n    //     }\n    //     return internalID;\n    // }\n}\n",
  "sourcePath": "/Users/tom/www/music-smart-contracts/contracts/UUIDCounter.sol",
  "compiler": {
    "name": "solc",
    "version": "0.5.10+commit.5a6ea5b1.Emscripten.clang"
  },
  "schemaVersion": "3.0.11",
  "updatedAt": "2019-09-01T01:06:26.107Z",
  "devdoc": {
    "methods": {}
  },
  "userdoc": {
    "methods": {}
  }
}